{
	"contracts/cont.sol": {
		"user": {
			"abi": [
				{
					"inputs": [
						{
							"internalType": "contract DataObjectStore",
							"name": "store",
							"type": "address"
						}
					],
					"stateMutability": "nonpayable",
					"type": "constructor"
				},
				{
					"inputs": [],
					"name": "getCustomerInfo",
					"outputs": [
						{
							"internalType": "string",
							"name": "",
							"type": "string"
						},
						{
							"internalType": "uint64",
							"name": "",
							"type": "uint64"
						},
						{
							"internalType": "string",
							"name": "",
							"type": "string"
						}
					],
					"stateMutability": "view",
					"type": "function"
				},
				{
					"inputs": [
						{
							"internalType": "string",
							"name": "name",
							"type": "string"
						},
						{
							"internalType": "string",
							"name": "surname",
							"type": "string"
						},
						{
							"internalType": "uint64",
							"name": "userId",
							"type": "uint64"
						},
						{
							"internalType": "uint64",
							"name": "age",
							"type": "uint64"
						},
						{
							"internalType": "string",
							"name": "email",
							"type": "string"
						},
						{
							"internalType": "string",
							"name": "addres",
							"type": "string"
						}
					],
					"name": "registerCustomer",
					"outputs": [],
					"stateMutability": "nonpayable",
					"type": "function"
				},
				{
					"inputs": [
						{
							"internalType": "string",
							"name": "newName",
							"type": "string"
						},
						{
							"internalType": "string",
							"name": "newSurname",
							"type": "string"
						},
						{
							"internalType": "uint64",
							"name": "newUserId",
							"type": "uint64"
						},
						{
							"internalType": "uint64",
							"name": "newAge",
							"type": "uint64"
						},
						{
							"internalType": "string",
							"name": "newEmail",
							"type": "string"
						},
						{
							"internalType": "string",
							"name": "newAddres",
							"type": "string"
						}
					],
					"name": "updateCustomerInfo",
					"outputs": [],
					"stateMutability": "nonpayable",
					"type": "function"
				},
				{
					"inputs": [
						{
							"internalType": "address",
							"name": "",
							"type": "address"
						}
					],
					"name": "users",
					"outputs": [
						{
							"internalType": "string",
							"name": "name",
							"type": "string"
						},
						{
							"internalType": "string",
							"name": "surname",
							"type": "string"
						},
						{
							"internalType": "uint64",
							"name": "userId",
							"type": "uint64"
						},
						{
							"internalType": "uint64",
							"name": "age",
							"type": "uint64"
						},
						{
							"internalType": "string",
							"name": "email",
							"type": "string"
						},
						{
							"internalType": "string",
							"name": "addres",
							"type": "string"
						}
					],
					"stateMutability": "view",
					"type": "function"
				}
			],
			"devdoc": {
				"kind": "dev",
				"methods": {},
				"version": 1
			},
			"evm": {
				"assembly": "    /* \"contracts/cont.sol\":1336:2619  contract user {... */\n  mstore(0x40, 0x80)\n    /* \"contracts/cont.sol\":1664:1732  constructor(DataObjectStore store) {... */\n  callvalue\n  dup1\n  iszero\n  tag_1\n  jumpi\n  0x00\n  dup1\n  revert\ntag_1:\n  pop\n  mload(0x40)\n  sub(codesize, bytecodeSize)\n  dup1\n  bytecodeSize\n  dup4\n  codecopy\n  dup2\n  dup2\n  add\n  0x40\n  mstore\n  dup2\n  add\n  swap1\n  tag_2\n  swap2\n  swap1\n  tag_3\n  jump\t// in\ntag_2:\n    /* \"contracts/cont.sol\":1719:1724  store */\n  dup1\n    /* \"contracts/cont.sol\":1710:1716  _store */\n  0x01\n  0x00\n    /* \"contracts/cont.sol\":1710:1724  _store = store */\n  0x0100\n  exp\n  dup2\n  sload\n  dup2\n  0xffffffffffffffffffffffffffffffffffffffff\n  mul\n  not\n  and\n  swap1\n  dup4\n  0xffffffffffffffffffffffffffffffffffffffff\n  and\n  mul\n  or\n  swap1\n  sstore\n  pop\n    /* \"contracts/cont.sol\":1664:1732  constructor(DataObjectStore store) {... */\n  pop\n    /* \"contracts/cont.sol\":1336:2619  contract user {... */\n  jump(tag_6)\n    /* \"#utility.yul\":88:205   */\ntag_8:\n    /* \"#utility.yul\":197:198   */\n  0x00\n    /* \"#utility.yul\":194:195   */\n  dup1\n    /* \"#utility.yul\":187:199   */\n  revert\n    /* \"#utility.yul\":334:460   */\ntag_10:\n    /* \"#utility.yul\":371:378   */\n  0x00\n    /* \"#utility.yul\":411:453   */\n  0xffffffffffffffffffffffffffffffffffffffff\n    /* \"#utility.yul\":404:409   */\n  dup3\n    /* \"#utility.yul\":400:454   */\n  and\n    /* \"#utility.yul\":389:454   */\n  swap1\n  pop\n    /* \"#utility.yul\":334:460   */\n  swap2\n  swap1\n  pop\n  jump\t// out\n    /* \"#utility.yul\":466:562   */\ntag_11:\n    /* \"#utility.yul\":503:510   */\n  0x00\n    /* \"#utility.yul\":532:556   */\n  tag_21\n    /* \"#utility.yul\":550:555   */\n  dup3\n    /* \"#utility.yul\":532:556   */\n  tag_10\n  jump\t// in\ntag_21:\n    /* \"#utility.yul\":521:556   */\n  swap1\n  pop\n    /* \"#utility.yul\":466:562   */\n  swap2\n  swap1\n  pop\n  jump\t// out\n    /* \"#utility.yul\":568:687   */\ntag_12:\n    /* \"#utility.yul\":628:635   */\n  0x00\n    /* \"#utility.yul\":657:681   */\n  tag_23\n    /* \"#utility.yul\":675:680   */\n  dup3\n    /* \"#utility.yul\":657:681   */\n  tag_11\n  jump\t// in\ntag_23:\n    /* \"#utility.yul\":646:681   */\n  swap1\n  pop\n    /* \"#utility.yul\":568:687   */\n  swap2\n  swap1\n  pop\n  jump\t// out\n    /* \"#utility.yul\":693:861   */\ntag_13:\n    /* \"#utility.yul\":789:836   */\n  tag_25\n    /* \"#utility.yul\":830:835   */\n  dup2\n    /* \"#utility.yul\":789:836   */\n  tag_12\n  jump\t// in\ntag_25:\n    /* \"#utility.yul\":782:787   */\n  dup2\n    /* \"#utility.yul\":779:837   */\n  eq\n    /* \"#utility.yul\":769:855   */\n  tag_26\n  jumpi\n    /* \"#utility.yul\":851:852   */\n  0x00\n    /* \"#utility.yul\":848:849   */\n  dup1\n    /* \"#utility.yul\":841:853   */\n  revert\n    /* \"#utility.yul\":769:855   */\ntag_26:\n    /* \"#utility.yul\":693:861   */\n  pop\n  jump\t// out\n    /* \"#utility.yul\":867:1056   */\ntag_14:\n    /* \"#utility.yul\":947:952   */\n  0x00\n    /* \"#utility.yul\":978:984   */\n  dup2\n    /* \"#utility.yul\":972:985   */\n  mload\n    /* \"#utility.yul\":963:985   */\n  swap1\n  pop\n    /* \"#utility.yul\":994:1050   */\n  tag_28\n    /* \"#utility.yul\":1044:1049   */\n  dup2\n    /* \"#utility.yul\":994:1050   */\n  tag_13\n  jump\t// in\ntag_28:\n    /* \"#utility.yul\":867:1056   */\n  swap3\n  swap2\n  pop\n  pop\n  jump\t// out\n    /* \"#utility.yul\":1062:1459   */\ntag_3:\n    /* \"#utility.yul\":1155:1161   */\n  0x00\n    /* \"#utility.yul\":1204:1206   */\n  0x20\n    /* \"#utility.yul\":1192:1201   */\n  dup3\n    /* \"#utility.yul\":1183:1190   */\n  dup5\n    /* \"#utility.yul\":1179:1202   */\n  sub\n    /* \"#utility.yul\":1175:1207   */\n  slt\n    /* \"#utility.yul\":1172:1291   */\n  iszero\n  tag_30\n  jumpi\n    /* \"#utility.yul\":1210:1289   */\n  tag_31\n  tag_8\n  jump\t// in\ntag_31:\n    /* \"#utility.yul\":1172:1291   */\ntag_30:\n    /* \"#utility.yul\":1330:1331   */\n  0x00\n    /* \"#utility.yul\":1355:1442   */\n  tag_32\n    /* \"#utility.yul\":1434:1441   */\n  dup5\n    /* \"#utility.yul\":1425:1431   */\n  dup3\n    /* \"#utility.yul\":1414:1423   */\n  dup6\n    /* \"#utility.yul\":1410:1432   */\n  add\n    /* \"#utility.yul\":1355:1442   */\n  tag_14\n  jump\t// in\ntag_32:\n    /* \"#utility.yul\":1345:1442   */\n  swap2\n  pop\n    /* \"#utility.yul\":1301:1452   */\n  pop\n    /* \"#utility.yul\":1062:1459   */\n  swap3\n  swap2\n  pop\n  pop\n  jump\t// out\n    /* \"contracts/cont.sol\":1336:2619  contract user {... */\ntag_6:\n  dataSize(sub_0)\n  dup1\n  dataOffset(sub_0)\n  0x00\n  codecopy\n  0x00\n  return\nstop\n\nsub_0: assembly {\n        /* \"contracts/cont.sol\":1336:2619  contract user {... */\n      mstore(0x40, 0x80)\n      callvalue\n      dup1\n      iszero\n      tag_1\n      jumpi\n      0x00\n      dup1\n      revert\n    tag_1:\n      pop\n      jumpi(tag_2, lt(calldatasize, 0x04))\n      shr(0xe0, calldataload(0x00))\n      dup1\n      0xa87430ba\n      eq\n      tag_3\n      jumpi\n      dup1\n      0xb9737031\n      eq\n      tag_4\n      jumpi\n      dup1\n      0xbfe051b7\n      eq\n      tag_5\n      jumpi\n      dup1\n      0xdfba8238\n      eq\n      tag_6\n      jumpi\n    tag_2:\n      0x00\n      dup1\n      revert\n        /* \"contracts/cont.sol\":1583:1624  mapping(address => UserInfo) public users */\n    tag_3:\n      tag_7\n      0x04\n      dup1\n      calldatasize\n      sub\n      dup2\n      add\n      swap1\n      tag_8\n      swap2\n      swap1\n      tag_9\n      jump\t// in\n    tag_8:\n      tag_10\n      jump\t// in\n    tag_7:\n      mload(0x40)\n      tag_11\n      swap7\n      swap6\n      swap5\n      swap4\n      swap3\n      swap2\n      swap1\n      tag_12\n      jump\t// in\n    tag_11:\n      mload(0x40)\n      dup1\n      swap2\n      sub\n      swap1\n      return\n        /* \"contracts/cont.sol\":2118:2316  function getCustomerInfo() public view returns (string memory, uint64, string memory) {... */\n    tag_4:\n      tag_13\n      tag_14\n      jump\t// in\n    tag_13:\n      mload(0x40)\n      tag_15\n      swap4\n      swap3\n      swap2\n      swap1\n      tag_16\n      jump\t// in\n    tag_15:\n      mload(0x40)\n      dup1\n      swap2\n      sub\n      swap1\n      return\n        /* \"contracts/cont.sol\":1740:2110  function registerCustomer(string memory name, string memory surname, uint64 userId, uint64 age, string memory email, string memory addres) public {... */\n    tag_5:\n      tag_17\n      0x04\n      dup1\n      calldatasize\n      sub\n      dup2\n      add\n      swap1\n      tag_18\n      swap2\n      swap1\n      tag_19\n      jump\t// in\n    tag_18:\n      tag_20\n      jump\t// in\n    tag_17:\n      stop\n        /* \"contracts/cont.sol\":2324:2616  function updateCustomerInfo(string memory newName, string memory newSurname, uint64 newUserId, uint64 newAge, string memory newEmail, string memory newAddres) public {... */\n    tag_6:\n      tag_21\n      0x04\n      dup1\n      calldatasize\n      sub\n      dup2\n      add\n      swap1\n      tag_22\n      swap2\n      swap1\n      tag_19\n      jump\t// in\n    tag_22:\n      tag_23\n      jump\t// in\n    tag_21:\n      stop\n        /* \"contracts/cont.sol\":1583:1624  mapping(address => UserInfo) public users */\n    tag_10:\n      mstore(0x20, 0x00)\n      dup1\n      0x00\n      mstore\n      keccak256(0x00, 0x40)\n      0x00\n      swap2\n      pop\n      swap1\n      pop\n      dup1\n      0x00\n      add\n      dup1\n      sload\n      tag_24\n      swap1\n      tag_25\n      jump\t// in\n    tag_24:\n      dup1\n      0x1f\n      add\n      0x20\n      dup1\n      swap2\n      div\n      mul\n      0x20\n      add\n      mload(0x40)\n      swap1\n      dup2\n      add\n      0x40\n      mstore\n      dup1\n      swap3\n      swap2\n      swap1\n      dup2\n      dup2\n      mstore\n      0x20\n      add\n      dup3\n      dup1\n      sload\n      tag_26\n      swap1\n      tag_25\n      jump\t// in\n    tag_26:\n      dup1\n      iszero\n      tag_27\n      jumpi\n      dup1\n      0x1f\n      lt\n      tag_28\n      jumpi\n      0x0100\n      dup1\n      dup4\n      sload\n      div\n      mul\n      dup4\n      mstore\n      swap2\n      0x20\n      add\n      swap2\n      jump(tag_27)\n    tag_28:\n      dup3\n      add\n      swap2\n      swap1\n      0x00\n      mstore\n      keccak256(0x00, 0x20)\n      swap1\n    tag_29:\n      dup2\n      sload\n      dup2\n      mstore\n      swap1\n      0x01\n      add\n      swap1\n      0x20\n      add\n      dup1\n      dup4\n      gt\n      tag_29\n      jumpi\n      dup3\n      swap1\n      sub\n      0x1f\n      and\n      dup3\n      add\n      swap2\n    tag_27:\n      pop\n      pop\n      pop\n      pop\n      pop\n      swap1\n      dup1\n      0x01\n      add\n      dup1\n      sload\n      tag_30\n      swap1\n      tag_25\n      jump\t// in\n    tag_30:\n      dup1\n      0x1f\n      add\n      0x20\n      dup1\n      swap2\n      div\n      mul\n      0x20\n      add\n      mload(0x40)\n      swap1\n      dup2\n      add\n      0x40\n      mstore\n      dup1\n      swap3\n      swap2\n      swap1\n      dup2\n      dup2\n      mstore\n      0x20\n      add\n      dup3\n      dup1\n      sload\n      tag_31\n      swap1\n      tag_25\n      jump\t// in\n    tag_31:\n      dup1\n      iszero\n      tag_32\n      jumpi\n      dup1\n      0x1f\n      lt\n      tag_33\n      jumpi\n      0x0100\n      dup1\n      dup4\n      sload\n      div\n      mul\n      dup4\n      mstore\n      swap2\n      0x20\n      add\n      swap2\n      jump(tag_32)\n    tag_33:\n      dup3\n      add\n      swap2\n      swap1\n      0x00\n      mstore\n      keccak256(0x00, 0x20)\n      swap1\n    tag_34:\n      dup2\n      sload\n      dup2\n      mstore\n      swap1\n      0x01\n      add\n      swap1\n      0x20\n      add\n      dup1\n      dup4\n      gt\n      tag_34\n      jumpi\n      dup3\n      swap1\n      sub\n      0x1f\n      and\n      dup3\n      add\n      swap2\n    tag_32:\n      pop\n      pop\n      pop\n      pop\n      pop\n      swap1\n      dup1\n      0x02\n      add\n      0x00\n      swap1\n      sload\n      swap1\n      0x0100\n      exp\n      swap1\n      div\n      0xffffffffffffffff\n      and\n      swap1\n      dup1\n      0x02\n      add\n      0x08\n      swap1\n      sload\n      swap1\n      0x0100\n      exp\n      swap1\n      div\n      0xffffffffffffffff\n      and\n      swap1\n      dup1\n      0x03\n      add\n      dup1\n      sload\n      tag_35\n      swap1\n      tag_25\n      jump\t// in\n    tag_35:\n      dup1\n      0x1f\n      add\n      0x20\n      dup1\n      swap2\n      div\n      mul\n      0x20\n      add\n      mload(0x40)\n      swap1\n      dup2\n      add\n      0x40\n      mstore\n      dup1\n      swap3\n      swap2\n      swap1\n      dup2\n      dup2\n      mstore\n      0x20\n      add\n      dup3\n      dup1\n      sload\n      tag_36\n      swap1\n      tag_25\n      jump\t// in\n    tag_36:\n      dup1\n      iszero\n      tag_37\n      jumpi\n      dup1\n      0x1f\n      lt\n      tag_38\n      jumpi\n      0x0100\n      dup1\n      dup4\n      sload\n      div\n      mul\n      dup4\n      mstore\n      swap2\n      0x20\n      add\n      swap2\n      jump(tag_37)\n    tag_38:\n      dup3\n      add\n      swap2\n      swap1\n      0x00\n      mstore\n      keccak256(0x00, 0x20)\n      swap1\n    tag_39:\n      dup2\n      sload\n      dup2\n      mstore\n      swap1\n      0x01\n      add\n      swap1\n      0x20\n      add\n      dup1\n      dup4\n      gt\n      tag_39\n      jumpi\n      dup3\n      swap1\n      sub\n      0x1f\n      and\n      dup3\n      add\n      swap2\n    tag_37:\n      pop\n      pop\n      pop\n      pop\n      pop\n      swap1\n      dup1\n      0x04\n      add\n      dup1\n      sload\n      tag_40\n      swap1\n      tag_25\n      jump\t// in\n    tag_40:\n      dup1\n      0x1f\n      add\n      0x20\n      dup1\n      swap2\n      div\n      mul\n      0x20\n      add\n      mload(0x40)\n      swap1\n      dup2\n      add\n      0x40\n      mstore\n      dup1\n      swap3\n      swap2\n      swap1\n      dup2\n      dup2\n      mstore\n      0x20\n      add\n      dup3\n      dup1\n      sload\n      tag_41\n      swap1\n      tag_25\n      jump\t// in\n    tag_41:\n      dup1\n      iszero\n      tag_42\n      jumpi\n      dup1\n      0x1f\n      lt\n      tag_43\n      jumpi\n      0x0100\n      dup1\n      dup4\n      sload\n      div\n      mul\n      dup4\n      mstore\n      swap2\n      0x20\n      add\n      swap2\n      jump(tag_42)\n    tag_43:\n      dup3\n      add\n      swap2\n      swap1\n      0x00\n      mstore\n      keccak256(0x00, 0x20)\n      swap1\n    tag_44:\n      dup2\n      sload\n      dup2\n      mstore\n      swap1\n      0x01\n      add\n      swap1\n      0x20\n      add\n      dup1\n      dup4\n      gt\n      tag_44\n      jumpi\n      dup3\n      swap1\n      sub\n      0x1f\n      and\n      dup3\n      add\n      swap2\n    tag_42:\n      pop\n      pop\n      pop\n      pop\n      pop\n      swap1\n      pop\n      dup7\n      jump\t// out\n        /* \"contracts/cont.sol\":2118:2316  function getCustomerInfo() public view returns (string memory, uint64, string memory) {... */\n    tag_14:\n        /* \"contracts/cont.sol\":2166:2179  string memory */\n      0x60\n        /* \"contracts/cont.sol\":2181:2187  uint64 */\n      0x00\n        /* \"contracts/cont.sol\":2189:2202  string memory */\n      0x60\n        /* \"contracts/cont.sol\":2215:2236  UserInfo storage info */\n      0x00\n        /* \"contracts/cont.sol\":2239:2244  users */\n      dup1\n        /* \"contracts/cont.sol\":2239:2256  users[msg.sender] */\n      0x00\n        /* \"contracts/cont.sol\":2245:2255  msg.sender */\n      caller\n        /* \"contracts/cont.sol\":2239:2256  users[msg.sender] */\n      0xffffffffffffffffffffffffffffffffffffffff\n      and\n      0xffffffffffffffffffffffffffffffffffffffff\n      and\n      dup2\n      mstore\n      0x20\n      add\n      swap1\n      dup2\n      mstore\n      0x20\n      add\n      0x00\n      keccak256\n        /* \"contracts/cont.sol\":2215:2256  UserInfo storage info = users[msg.sender] */\n      swap1\n      pop\n        /* \"contracts/cont.sol\":2275:2279  info */\n      dup1\n        /* \"contracts/cont.sol\":2275:2284  info.name */\n      0x00\n      add\n        /* \"contracts/cont.sol\":2286:2290  info */\n      dup2\n        /* \"contracts/cont.sol\":2286:2294  info.age */\n      0x02\n      add\n      0x08\n      swap1\n      sload\n      swap1\n      0x0100\n      exp\n      swap1\n      div\n      0xffffffffffffffff\n      and\n        /* \"contracts/cont.sol\":2296:2300  info */\n      dup3\n        /* \"contracts/cont.sol\":2296:2307  info.addres */\n      0x04\n      add\n        /* \"contracts/cont.sol\":2267:2308  return (info.name, info.age, info.addres) */\n      dup3\n      dup1\n      sload\n      tag_46\n      swap1\n      tag_25\n      jump\t// in\n    tag_46:\n      dup1\n      0x1f\n      add\n      0x20\n      dup1\n      swap2\n      div\n      mul\n      0x20\n      add\n      mload(0x40)\n      swap1\n      dup2\n      add\n      0x40\n      mstore\n      dup1\n      swap3\n      swap2\n      swap1\n      dup2\n      dup2\n      mstore\n      0x20\n      add\n      dup3\n      dup1\n      sload\n      tag_47\n      swap1\n      tag_25\n      jump\t// in\n    tag_47:\n      dup1\n      iszero\n      tag_48\n      jumpi\n      dup1\n      0x1f\n      lt\n      tag_49\n      jumpi\n      0x0100\n      dup1\n      dup4\n      sload\n      div\n      mul\n      dup4\n      mstore\n      swap2\n      0x20\n      add\n      swap2\n      jump(tag_48)\n    tag_49:\n      dup3\n      add\n      swap2\n      swap1\n      0x00\n      mstore\n      keccak256(0x00, 0x20)\n      swap1\n    tag_50:\n      dup2\n      sload\n      dup2\n      mstore\n      swap1\n      0x01\n      add\n      swap1\n      0x20\n      add\n      dup1\n      dup4\n      gt\n      tag_50\n      jumpi\n      dup3\n      swap1\n      sub\n      0x1f\n      and\n      dup3\n      add\n      swap2\n    tag_48:\n      pop\n      pop\n      pop\n      pop\n      pop\n      swap3\n      pop\n      dup1\n      dup1\n      sload\n      tag_51\n      swap1\n      tag_25\n      jump\t// in\n    tag_51:\n      dup1\n      0x1f\n      add\n      0x20\n      dup1\n      swap2\n      div\n      mul\n      0x20\n      add\n      mload(0x40)\n      swap1\n      dup2\n      add\n      0x40\n      mstore\n      dup1\n      swap3\n      swap2\n      swap1\n      dup2\n      dup2\n      mstore\n      0x20\n      add\n      dup3\n      dup1\n      sload\n      tag_52\n      swap1\n      tag_25\n      jump\t// in\n    tag_52:\n      dup1\n      iszero\n      tag_53\n      jumpi\n      dup1\n      0x1f\n      lt\n      tag_54\n      jumpi\n      0x0100\n      dup1\n      dup4\n      sload\n      div\n      mul\n      dup4\n      mstore\n      swap2\n      0x20\n      add\n      swap2\n      jump(tag_53)\n    tag_54:\n      dup3\n      add\n      swap2\n      swap1\n      0x00\n      mstore\n      keccak256(0x00, 0x20)\n      swap1\n    tag_55:\n      dup2\n      sload\n      dup2\n      mstore\n      swap1\n      0x01\n      add\n      swap1\n      0x20\n      add\n      dup1\n      dup4\n      gt\n      tag_55\n      jumpi\n      dup3\n      swap1\n      sub\n      0x1f\n      and\n      dup3\n      add\n      swap2\n    tag_53:\n      pop\n      pop\n      pop\n      pop\n      pop\n      swap1\n      pop\n      swap4\n      pop\n      swap4\n      pop\n      swap4\n      pop\n      pop\n        /* \"contracts/cont.sol\":2118:2316  function getCustomerInfo() public view returns (string memory, uint64, string memory) {... */\n      swap1\n      swap2\n      swap3\n      jump\t// out\n        /* \"contracts/cont.sol\":1740:2110  function registerCustomer(string memory name, string memory surname, uint64 userId, uint64 age, string memory email, string memory addres) public {... */\n    tag_20:\n        /* \"contracts/cont.sol\":1917:2102  UserInfo({... */\n      mload(0x40)\n      dup1\n      0xc0\n      add\n      0x40\n      mstore\n      dup1\n        /* \"contracts/cont.sol\":1947:1951  name */\n      dup8\n        /* \"contracts/cont.sol\":1917:2102  UserInfo({... */\n      dup2\n      mstore\n      0x20\n      add\n        /* \"contracts/cont.sol\":1975:1982  surname */\n      dup7\n        /* \"contracts/cont.sol\":1917:2102  UserInfo({... */\n      dup2\n      mstore\n      0x20\n      add\n        /* \"contracts/cont.sol\":2005:2011  userId */\n      dup6\n        /* \"contracts/cont.sol\":1917:2102  UserInfo({... */\n      0xffffffffffffffff\n      and\n      dup2\n      mstore\n      0x20\n      add\n        /* \"contracts/cont.sol\":2031:2034  age */\n      dup5\n        /* \"contracts/cont.sol\":1917:2102  UserInfo({... */\n      0xffffffffffffffff\n      and\n      dup2\n      mstore\n      0x20\n      add\n        /* \"contracts/cont.sol\":2056:2061  email */\n      dup4\n        /* \"contracts/cont.sol\":1917:2102  UserInfo({... */\n      dup2\n      mstore\n      0x20\n      add\n        /* \"contracts/cont.sol\":2084:2090  addres */\n      dup3\n        /* \"contracts/cont.sol\":1917:2102  UserInfo({... */\n      dup2\n      mstore\n      pop\n        /* \"contracts/cont.sol\":1897:1902  users */\n      0x00\n        /* \"contracts/cont.sol\":1897:1914  users[msg.sender] */\n      dup1\n        /* \"contracts/cont.sol\":1903:1913  msg.sender */\n      caller\n        /* \"contracts/cont.sol\":1897:1914  users[msg.sender] */\n      0xffffffffffffffffffffffffffffffffffffffff\n      and\n      0xffffffffffffffffffffffffffffffffffffffff\n      and\n      dup2\n      mstore\n      0x20\n      add\n      swap1\n      dup2\n      mstore\n      0x20\n      add\n      0x00\n      keccak256\n        /* \"contracts/cont.sol\":1897:2102  users[msg.sender] = UserInfo({... */\n      0x00\n      dup3\n      add\n      mload\n      dup2\n      0x00\n      add\n      swap1\n      dup2\n      tag_57\n      swap2\n      swap1\n      tag_58\n      jump\t// in\n    tag_57:\n      pop\n      0x20\n      dup3\n      add\n      mload\n      dup2\n      0x01\n      add\n      swap1\n      dup2\n      tag_59\n      swap2\n      swap1\n      tag_58\n      jump\t// in\n    tag_59:\n      pop\n      0x40\n      dup3\n      add\n      mload\n      dup2\n      0x02\n      add\n      exp(0x0100, 0x00)\n      dup2\n      sload\n      dup2\n      0xffffffffffffffff\n      mul\n      not\n      and\n      swap1\n      dup4\n      0xffffffffffffffff\n      and\n      mul\n      or\n      swap1\n      sstore\n      pop\n      0x60\n      dup3\n      add\n      mload\n      dup2\n      0x02\n      add\n      exp(0x0100, 0x08)\n      dup2\n      sload\n      dup2\n      0xffffffffffffffff\n      mul\n      not\n      and\n      swap1\n      dup4\n      0xffffffffffffffff\n      and\n      mul\n      or\n      swap1\n      sstore\n      pop\n      0x80\n      dup3\n      add\n      mload\n      dup2\n      0x03\n      add\n      swap1\n      dup2\n      tag_60\n      swap2\n      swap1\n      tag_58\n      jump\t// in\n    tag_60:\n      pop\n      0xa0\n      dup3\n      add\n      mload\n      dup2\n      0x04\n      add\n      swap1\n      dup2\n      tag_61\n      swap2\n      swap1\n      tag_58\n      jump\t// in\n    tag_61:\n      pop\n      swap1\n      pop\n      pop\n        /* \"contracts/cont.sol\":1740:2110  function registerCustomer(string memory name, string memory surname, uint64 userId, uint64 age, string memory email, string memory addres) public {... */\n      pop\n      pop\n      pop\n      pop\n      pop\n      pop\n      jump\t// out\n        /* \"contracts/cont.sol\":2324:2616  function updateCustomerInfo(string memory newName, string memory newSurname, uint64 newUserId, uint64 newAge, string memory newEmail, string memory newAddres) public {... */\n    tag_23:\n        /* \"contracts/cont.sol\":2501:2522  UserInfo storage info */\n      0x00\n        /* \"contracts/cont.sol\":2525:2530  users */\n      dup1\n        /* \"contracts/cont.sol\":2525:2542  users[msg.sender] */\n      0x00\n        /* \"contracts/cont.sol\":2531:2541  msg.sender */\n      caller\n        /* \"contracts/cont.sol\":2525:2542  users[msg.sender] */\n      0xffffffffffffffffffffffffffffffffffffffff\n      and\n      0xffffffffffffffffffffffffffffffffffffffff\n      and\n      dup2\n      mstore\n      0x20\n      add\n      swap1\n      dup2\n      mstore\n      0x20\n      add\n      0x00\n      keccak256\n        /* \"contracts/cont.sol\":2501:2542  UserInfo storage info = users[msg.sender] */\n      swap1\n      pop\n        /* \"contracts/cont.sol\":2566:2574  newEmail */\n      dup3\n        /* \"contracts/cont.sol\":2553:2557  info */\n      dup2\n        /* \"contracts/cont.sol\":2553:2563  info.email */\n      0x03\n      add\n        /* \"contracts/cont.sol\":2553:2574  info.email = newEmail */\n      swap1\n      dup2\n      tag_63\n      swap2\n      swap1\n      tag_58\n      jump\t// in\n    tag_63:\n      pop\n        /* \"contracts/cont.sol\":2599:2608  newAddres */\n      dup2\n        /* \"contracts/cont.sol\":2585:2589  info */\n      dup2\n        /* \"contracts/cont.sol\":2585:2596  info.addres */\n      0x04\n      add\n        /* \"contracts/cont.sol\":2585:2608  info.addres = newAddres */\n      swap1\n      dup2\n      tag_64\n      swap2\n      swap1\n      tag_58\n      jump\t// in\n    tag_64:\n      pop\n        /* \"contracts/cont.sol\":2490:2616  {... */\n      pop\n        /* \"contracts/cont.sol\":2324:2616  function updateCustomerInfo(string memory newName, string memory newSurname, uint64 newUserId, uint64 newAge, string memory newEmail, string memory newAddres) public {... */\n      pop\n      pop\n      pop\n      pop\n      pop\n      pop\n      jump\t// out\n        /* \"#utility.yul\":7:82   */\n    tag_65:\n        /* \"#utility.yul\":40:46   */\n      0x00\n        /* \"#utility.yul\":73:75   */\n      0x40\n        /* \"#utility.yul\":67:76   */\n      mload\n        /* \"#utility.yul\":57:76   */\n      swap1\n      pop\n        /* \"#utility.yul\":7:82   */\n      swap1\n      jump\t// out\n        /* \"#utility.yul\":88:205   */\n    tag_66:\n        /* \"#utility.yul\":197:198   */\n      0x00\n        /* \"#utility.yul\":194:195   */\n      dup1\n        /* \"#utility.yul\":187:199   */\n      revert\n        /* \"#utility.yul\":211:328   */\n    tag_67:\n        /* \"#utility.yul\":320:321   */\n      0x00\n        /* \"#utility.yul\":317:318   */\n      dup1\n        /* \"#utility.yul\":310:322   */\n      revert\n        /* \"#utility.yul\":334:460   */\n    tag_68:\n        /* \"#utility.yul\":371:378   */\n      0x00\n        /* \"#utility.yul\":411:453   */\n      0xffffffffffffffffffffffffffffffffffffffff\n        /* \"#utility.yul\":404:409   */\n      dup3\n        /* \"#utility.yul\":400:454   */\n      and\n        /* \"#utility.yul\":389:454   */\n      swap1\n      pop\n        /* \"#utility.yul\":334:460   */\n      swap2\n      swap1\n      pop\n      jump\t// out\n        /* \"#utility.yul\":466:562   */\n    tag_69:\n        /* \"#utility.yul\":503:510   */\n      0x00\n        /* \"#utility.yul\":532:556   */\n      tag_113\n        /* \"#utility.yul\":550:555   */\n      dup3\n        /* \"#utility.yul\":532:556   */\n      tag_68\n      jump\t// in\n    tag_113:\n        /* \"#utility.yul\":521:556   */\n      swap1\n      pop\n        /* \"#utility.yul\":466:562   */\n      swap2\n      swap1\n      pop\n      jump\t// out\n        /* \"#utility.yul\":568:690   */\n    tag_70:\n        /* \"#utility.yul\":641:665   */\n      tag_115\n        /* \"#utility.yul\":659:664   */\n      dup2\n        /* \"#utility.yul\":641:665   */\n      tag_69\n      jump\t// in\n    tag_115:\n        /* \"#utility.yul\":634:639   */\n      dup2\n        /* \"#utility.yul\":631:666   */\n      eq\n        /* \"#utility.yul\":621:684   */\n      tag_116\n      jumpi\n        /* \"#utility.yul\":680:681   */\n      0x00\n        /* \"#utility.yul\":677:678   */\n      dup1\n        /* \"#utility.yul\":670:682   */\n      revert\n        /* \"#utility.yul\":621:684   */\n    tag_116:\n        /* \"#utility.yul\":568:690   */\n      pop\n      jump\t// out\n        /* \"#utility.yul\":696:835   */\n    tag_71:\n        /* \"#utility.yul\":742:747   */\n      0x00\n        /* \"#utility.yul\":780:786   */\n      dup2\n        /* \"#utility.yul\":767:787   */\n      calldataload\n        /* \"#utility.yul\":758:787   */\n      swap1\n      pop\n        /* \"#utility.yul\":796:829   */\n      tag_118\n        /* \"#utility.yul\":823:828   */\n      dup2\n        /* \"#utility.yul\":796:829   */\n      tag_70\n      jump\t// in\n    tag_118:\n        /* \"#utility.yul\":696:835   */\n      swap3\n      swap2\n      pop\n      pop\n      jump\t// out\n        /* \"#utility.yul\":841:1170   */\n    tag_9:\n        /* \"#utility.yul\":900:906   */\n      0x00\n        /* \"#utility.yul\":949:951   */\n      0x20\n        /* \"#utility.yul\":937:946   */\n      dup3\n        /* \"#utility.yul\":928:935   */\n      dup5\n        /* \"#utility.yul\":924:947   */\n      sub\n        /* \"#utility.yul\":920:952   */\n      slt\n        /* \"#utility.yul\":917:1036   */\n      iszero\n      tag_120\n      jumpi\n        /* \"#utility.yul\":955:1034   */\n      tag_121\n      tag_66\n      jump\t// in\n    tag_121:\n        /* \"#utility.yul\":917:1036   */\n    tag_120:\n        /* \"#utility.yul\":1075:1076   */\n      0x00\n        /* \"#utility.yul\":1100:1153   */\n      tag_122\n        /* \"#utility.yul\":1145:1152   */\n      dup5\n        /* \"#utility.yul\":1136:1142   */\n      dup3\n        /* \"#utility.yul\":1125:1134   */\n      dup6\n        /* \"#utility.yul\":1121:1143   */\n      add\n        /* \"#utility.yul\":1100:1153   */\n      tag_71\n      jump\t// in\n    tag_122:\n        /* \"#utility.yul\":1090:1153   */\n      swap2\n      pop\n        /* \"#utility.yul\":1046:1163   */\n      pop\n        /* \"#utility.yul\":841:1170   */\n      swap3\n      swap2\n      pop\n      pop\n      jump\t// out\n        /* \"#utility.yul\":1176:1275   */\n    tag_72:\n        /* \"#utility.yul\":1228:1234   */\n      0x00\n        /* \"#utility.yul\":1262:1267   */\n      dup2\n        /* \"#utility.yul\":1256:1268   */\n      mload\n        /* \"#utility.yul\":1246:1268   */\n      swap1\n      pop\n        /* \"#utility.yul\":1176:1275   */\n      swap2\n      swap1\n      pop\n      jump\t// out\n        /* \"#utility.yul\":1281:1450   */\n    tag_73:\n        /* \"#utility.yul\":1365:1376   */\n      0x00\n        /* \"#utility.yul\":1399:1405   */\n      dup3\n        /* \"#utility.yul\":1394:1397   */\n      dup3\n        /* \"#utility.yul\":1387:1406   */\n      mstore\n        /* \"#utility.yul\":1439:1443   */\n      0x20\n        /* \"#utility.yul\":1434:1437   */\n      dup3\n        /* \"#utility.yul\":1430:1444   */\n      add\n        /* \"#utility.yul\":1415:1444   */\n      swap1\n      pop\n        /* \"#utility.yul\":1281:1450   */\n      swap3\n      swap2\n      pop\n      pop\n      jump\t// out\n        /* \"#utility.yul\":1456:1702   */\n    tag_74:\n        /* \"#utility.yul\":1537:1538   */\n      0x00\n        /* \"#utility.yul\":1547:1660   */\n    tag_126:\n        /* \"#utility.yul\":1561:1567   */\n      dup4\n        /* \"#utility.yul\":1558:1559   */\n      dup2\n        /* \"#utility.yul\":1555:1568   */\n      lt\n        /* \"#utility.yul\":1547:1660   */\n      iszero\n      tag_128\n      jumpi\n        /* \"#utility.yul\":1646:1647   */\n      dup1\n        /* \"#utility.yul\":1641:1644   */\n      dup3\n        /* \"#utility.yul\":1637:1648   */\n      add\n        /* \"#utility.yul\":1631:1649   */\n      mload\n        /* \"#utility.yul\":1627:1628   */\n      dup2\n        /* \"#utility.yul\":1622:1625   */\n      dup5\n        /* \"#utility.yul\":1618:1629   */\n      add\n        /* \"#utility.yul\":1611:1650   */\n      mstore\n        /* \"#utility.yul\":1583:1585   */\n      0x20\n        /* \"#utility.yul\":1580:1581   */\n      dup2\n        /* \"#utility.yul\":1576:1586   */\n      add\n        /* \"#utility.yul\":1571:1586   */\n      swap1\n      pop\n        /* \"#utility.yul\":1547:1660   */\n      jump(tag_126)\n    tag_128:\n        /* \"#utility.yul\":1694:1695   */\n      0x00\n        /* \"#utility.yul\":1685:1691   */\n      dup5\n        /* \"#utility.yul\":1680:1683   */\n      dup5\n        /* \"#utility.yul\":1676:1692   */\n      add\n        /* \"#utility.yul\":1669:1696   */\n      mstore\n        /* \"#utility.yul\":1518:1702   */\n      pop\n        /* \"#utility.yul\":1456:1702   */\n      pop\n      pop\n      pop\n      jump\t// out\n        /* \"#utility.yul\":1708:1810   */\n    tag_75:\n        /* \"#utility.yul\":1749:1755   */\n      0x00\n        /* \"#utility.yul\":1800:1802   */\n      0x1f\n        /* \"#utility.yul\":1796:1803   */\n      not\n        /* \"#utility.yul\":1791:1793   */\n      0x1f\n        /* \"#utility.yul\":1784:1789   */\n      dup4\n        /* \"#utility.yul\":1780:1794   */\n      add\n        /* \"#utility.yul\":1776:1804   */\n      and\n        /* \"#utility.yul\":1766:1804   */\n      swap1\n      pop\n        /* \"#utility.yul\":1708:1810   */\n      swap2\n      swap1\n      pop\n      jump\t// out\n        /* \"#utility.yul\":1816:2193   */\n    tag_76:\n        /* \"#utility.yul\":1904:1907   */\n      0x00\n        /* \"#utility.yul\":1932:1971   */\n      tag_131\n        /* \"#utility.yul\":1965:1970   */\n      dup3\n        /* \"#utility.yul\":1932:1971   */\n      tag_72\n      jump\t// in\n    tag_131:\n        /* \"#utility.yul\":1987:2058   */\n      tag_132\n        /* \"#utility.yul\":2051:2057   */\n      dup2\n        /* \"#utility.yul\":2046:2049   */\n      dup6\n        /* \"#utility.yul\":1987:2058   */\n      tag_73\n      jump\t// in\n    tag_132:\n        /* \"#utility.yul\":1980:2058   */\n      swap4\n      pop\n        /* \"#utility.yul\":2067:2132   */\n      tag_133\n        /* \"#utility.yul\":2125:2131   */\n      dup2\n        /* \"#utility.yul\":2120:2123   */\n      dup6\n        /* \"#utility.yul\":2113:2117   */\n      0x20\n        /* \"#utility.yul\":2106:2111   */\n      dup7\n        /* \"#utility.yul\":2102:2118   */\n      add\n        /* \"#utility.yul\":2067:2132   */\n      tag_74\n      jump\t// in\n    tag_133:\n        /* \"#utility.yul\":2157:2186   */\n      tag_134\n        /* \"#utility.yul\":2179:2185   */\n      dup2\n        /* \"#utility.yul\":2157:2186   */\n      tag_75\n      jump\t// in\n    tag_134:\n        /* \"#utility.yul\":2152:2155   */\n      dup5\n        /* \"#utility.yul\":2148:2187   */\n      add\n        /* \"#utility.yul\":2141:2187   */\n      swap2\n      pop\n        /* \"#utility.yul\":1908:2193   */\n      pop\n        /* \"#utility.yul\":1816:2193   */\n      swap3\n      swap2\n      pop\n      pop\n      jump\t// out\n        /* \"#utility.yul\":2199:2300   */\n    tag_77:\n        /* \"#utility.yul\":2235:2242   */\n      0x00\n        /* \"#utility.yul\":2275:2293   */\n      0xffffffffffffffff\n        /* \"#utility.yul\":2268:2273   */\n      dup3\n        /* \"#utility.yul\":2264:2294   */\n      and\n        /* \"#utility.yul\":2253:2294   */\n      swap1\n      pop\n        /* \"#utility.yul\":2199:2300   */\n      swap2\n      swap1\n      pop\n      jump\t// out\n        /* \"#utility.yul\":2306:2421   */\n    tag_78:\n        /* \"#utility.yul\":2391:2414   */\n      tag_137\n        /* \"#utility.yul\":2408:2413   */\n      dup2\n        /* \"#utility.yul\":2391:2414   */\n      tag_77\n      jump\t// in\n    tag_137:\n        /* \"#utility.yul\":2386:2389   */\n      dup3\n        /* \"#utility.yul\":2379:2415   */\n      mstore\n        /* \"#utility.yul\":2306:2421   */\n      pop\n      pop\n      jump\t// out\n        /* \"#utility.yul\":2427:3558   */\n    tag_12:\n        /* \"#utility.yul\":2736:2740   */\n      0x00\n        /* \"#utility.yul\":2774:2777   */\n      0xc0\n        /* \"#utility.yul\":2763:2772   */\n      dup3\n        /* \"#utility.yul\":2759:2778   */\n      add\n        /* \"#utility.yul\":2751:2778   */\n      swap1\n      pop\n        /* \"#utility.yul\":2824:2833   */\n      dup2\n        /* \"#utility.yul\":2818:2822   */\n      dup2\n        /* \"#utility.yul\":2814:2834   */\n      sub\n        /* \"#utility.yul\":2810:2811   */\n      0x00\n        /* \"#utility.yul\":2799:2808   */\n      dup4\n        /* \"#utility.yul\":2795:2812   */\n      add\n        /* \"#utility.yul\":2788:2835   */\n      mstore\n        /* \"#utility.yul\":2852:2930   */\n      tag_139\n        /* \"#utility.yul\":2925:2929   */\n      dup2\n        /* \"#utility.yul\":2916:2922   */\n      dup10\n        /* \"#utility.yul\":2852:2930   */\n      tag_76\n      jump\t// in\n    tag_139:\n        /* \"#utility.yul\":2844:2930   */\n      swap1\n      pop\n        /* \"#utility.yul\":2977:2986   */\n      dup2\n        /* \"#utility.yul\":2971:2975   */\n      dup2\n        /* \"#utility.yul\":2967:2987   */\n      sub\n        /* \"#utility.yul\":2962:2964   */\n      0x20\n        /* \"#utility.yul\":2951:2960   */\n      dup4\n        /* \"#utility.yul\":2947:2965   */\n      add\n        /* \"#utility.yul\":2940:2988   */\n      mstore\n        /* \"#utility.yul\":3005:3083   */\n      tag_140\n        /* \"#utility.yul\":3078:3082   */\n      dup2\n        /* \"#utility.yul\":3069:3075   */\n      dup9\n        /* \"#utility.yul\":3005:3083   */\n      tag_76\n      jump\t// in\n    tag_140:\n        /* \"#utility.yul\":2997:3083   */\n      swap1\n      pop\n        /* \"#utility.yul\":3093:3163   */\n      tag_141\n        /* \"#utility.yul\":3159:3161   */\n      0x40\n        /* \"#utility.yul\":3148:3157   */\n      dup4\n        /* \"#utility.yul\":3144:3162   */\n      add\n        /* \"#utility.yul\":3135:3141   */\n      dup8\n        /* \"#utility.yul\":3093:3163   */\n      tag_78\n      jump\t// in\n    tag_141:\n        /* \"#utility.yul\":3173:3243   */\n      tag_142\n        /* \"#utility.yul\":3239:3241   */\n      0x60\n        /* \"#utility.yul\":3228:3237   */\n      dup4\n        /* \"#utility.yul\":3224:3242   */\n      add\n        /* \"#utility.yul\":3215:3221   */\n      dup7\n        /* \"#utility.yul\":3173:3243   */\n      tag_78\n      jump\t// in\n    tag_142:\n        /* \"#utility.yul\":3291:3300   */\n      dup2\n        /* \"#utility.yul\":3285:3289   */\n      dup2\n        /* \"#utility.yul\":3281:3301   */\n      sub\n        /* \"#utility.yul\":3275:3278   */\n      0x80\n        /* \"#utility.yul\":3264:3273   */\n      dup4\n        /* \"#utility.yul\":3260:3279   */\n      add\n        /* \"#utility.yul\":3253:3302   */\n      mstore\n        /* \"#utility.yul\":3319:3397   */\n      tag_143\n        /* \"#utility.yul\":3392:3396   */\n      dup2\n        /* \"#utility.yul\":3383:3389   */\n      dup6\n        /* \"#utility.yul\":3319:3397   */\n      tag_76\n      jump\t// in\n    tag_143:\n        /* \"#utility.yul\":3311:3397   */\n      swap1\n      pop\n        /* \"#utility.yul\":3445:3454   */\n      dup2\n        /* \"#utility.yul\":3439:3443   */\n      dup2\n        /* \"#utility.yul\":3435:3455   */\n      sub\n        /* \"#utility.yul\":3429:3432   */\n      0xa0\n        /* \"#utility.yul\":3418:3427   */\n      dup4\n        /* \"#utility.yul\":3414:3433   */\n      add\n        /* \"#utility.yul\":3407:3456   */\n      mstore\n        /* \"#utility.yul\":3473:3551   */\n      tag_144\n        /* \"#utility.yul\":3546:3550   */\n      dup2\n        /* \"#utility.yul\":3537:3543   */\n      dup5\n        /* \"#utility.yul\":3473:3551   */\n      tag_76\n      jump\t// in\n    tag_144:\n        /* \"#utility.yul\":3465:3551   */\n      swap1\n      pop\n        /* \"#utility.yul\":2427:3558   */\n      swap8\n      swap7\n      pop\n      pop\n      pop\n      pop\n      pop\n      pop\n      pop\n      jump\t// out\n        /* \"#utility.yul\":3564:4184   */\n    tag_16:\n        /* \"#utility.yul\":3751:3755   */\n      0x00\n        /* \"#utility.yul\":3789:3791   */\n      0x60\n        /* \"#utility.yul\":3778:3787   */\n      dup3\n        /* \"#utility.yul\":3774:3792   */\n      add\n        /* \"#utility.yul\":3766:3792   */\n      swap1\n      pop\n        /* \"#utility.yul\":3838:3847   */\n      dup2\n        /* \"#utility.yul\":3832:3836   */\n      dup2\n        /* \"#utility.yul\":3828:3848   */\n      sub\n        /* \"#utility.yul\":3824:3825   */\n      0x00\n        /* \"#utility.yul\":3813:3822   */\n      dup4\n        /* \"#utility.yul\":3809:3826   */\n      add\n        /* \"#utility.yul\":3802:3849   */\n      mstore\n        /* \"#utility.yul\":3866:3944   */\n      tag_146\n        /* \"#utility.yul\":3939:3943   */\n      dup2\n        /* \"#utility.yul\":3930:3936   */\n      dup7\n        /* \"#utility.yul\":3866:3944   */\n      tag_76\n      jump\t// in\n    tag_146:\n        /* \"#utility.yul\":3858:3944   */\n      swap1\n      pop\n        /* \"#utility.yul\":3954:4024   */\n      tag_147\n        /* \"#utility.yul\":4020:4022   */\n      0x20\n        /* \"#utility.yul\":4009:4018   */\n      dup4\n        /* \"#utility.yul\":4005:4023   */\n      add\n        /* \"#utility.yul\":3996:4002   */\n      dup6\n        /* \"#utility.yul\":3954:4024   */\n      tag_78\n      jump\t// in\n    tag_147:\n        /* \"#utility.yul\":4071:4080   */\n      dup2\n        /* \"#utility.yul\":4065:4069   */\n      dup2\n        /* \"#utility.yul\":4061:4081   */\n      sub\n        /* \"#utility.yul\":4056:4058   */\n      0x40\n        /* \"#utility.yul\":4045:4054   */\n      dup4\n        /* \"#utility.yul\":4041:4059   */\n      add\n        /* \"#utility.yul\":4034:4082   */\n      mstore\n        /* \"#utility.yul\":4099:4177   */\n      tag_148\n        /* \"#utility.yul\":4172:4176   */\n      dup2\n        /* \"#utility.yul\":4163:4169   */\n      dup5\n        /* \"#utility.yul\":4099:4177   */\n      tag_76\n      jump\t// in\n    tag_148:\n        /* \"#utility.yul\":4091:4177   */\n      swap1\n      pop\n        /* \"#utility.yul\":3564:4184   */\n      swap5\n      swap4\n      pop\n      pop\n      pop\n      pop\n      jump\t// out\n        /* \"#utility.yul\":4190:4307   */\n    tag_79:\n        /* \"#utility.yul\":4299:4300   */\n      0x00\n        /* \"#utility.yul\":4296:4297   */\n      dup1\n        /* \"#utility.yul\":4289:4301   */\n      revert\n        /* \"#utility.yul\":4313:4430   */\n    tag_80:\n        /* \"#utility.yul\":4422:4423   */\n      0x00\n        /* \"#utility.yul\":4419:4420   */\n      dup1\n        /* \"#utility.yul\":4412:4424   */\n      revert\n        /* \"#utility.yul\":4436:4616   */\n    tag_81:\n        /* \"#utility.yul\":4484:4561   */\n      0x4e487b7100000000000000000000000000000000000000000000000000000000\n        /* \"#utility.yul\":4481:4482   */\n      0x00\n        /* \"#utility.yul\":4474:4562   */\n      mstore\n        /* \"#utility.yul\":4581:4585   */\n      0x41\n        /* \"#utility.yul\":4578:4579   */\n      0x04\n        /* \"#utility.yul\":4571:4586   */\n      mstore\n        /* \"#utility.yul\":4605:4609   */\n      0x24\n        /* \"#utility.yul\":4602:4603   */\n      0x00\n        /* \"#utility.yul\":4595:4610   */\n      revert\n        /* \"#utility.yul\":4622:4903   */\n    tag_82:\n        /* \"#utility.yul\":4705:4732   */\n      tag_153\n        /* \"#utility.yul\":4727:4731   */\n      dup3\n        /* \"#utility.yul\":4705:4732   */\n      tag_75\n      jump\t// in\n    tag_153:\n        /* \"#utility.yul\":4697:4703   */\n      dup2\n        /* \"#utility.yul\":4693:4733   */\n      add\n        /* \"#utility.yul\":4835:4841   */\n      dup2\n        /* \"#utility.yul\":4823:4833   */\n      dup2\n        /* \"#utility.yul\":4820:4842   */\n      lt\n        /* \"#utility.yul\":4799:4817   */\n      0xffffffffffffffff\n        /* \"#utility.yul\":4787:4797   */\n      dup3\n        /* \"#utility.yul\":4784:4818   */\n      gt\n        /* \"#utility.yul\":4781:4843   */\n      or\n        /* \"#utility.yul\":4778:4866   */\n      iszero\n      tag_154\n      jumpi\n        /* \"#utility.yul\":4846:4864   */\n      tag_155\n      tag_81\n      jump\t// in\n    tag_155:\n        /* \"#utility.yul\":4778:4866   */\n    tag_154:\n        /* \"#utility.yul\":4886:4896   */\n      dup1\n        /* \"#utility.yul\":4882:4884   */\n      0x40\n        /* \"#utility.yul\":4875:4897   */\n      mstore\n        /* \"#utility.yul\":4665:4903   */\n      pop\n        /* \"#utility.yul\":4622:4903   */\n      pop\n      pop\n      jump\t// out\n        /* \"#utility.yul\":4909:5038   */\n    tag_83:\n        /* \"#utility.yul\":4943:4949   */\n      0x00\n        /* \"#utility.yul\":4970:4990   */\n      tag_157\n      tag_65\n      jump\t// in\n    tag_157:\n        /* \"#utility.yul\":4960:4990   */\n      swap1\n      pop\n        /* \"#utility.yul\":4999:5032   */\n      tag_158\n        /* \"#utility.yul\":5027:5031   */\n      dup3\n        /* \"#utility.yul\":5019:5025   */\n      dup3\n        /* \"#utility.yul\":4999:5032   */\n      tag_82\n      jump\t// in\n    tag_158:\n        /* \"#utility.yul\":4909:5038   */\n      swap2\n      swap1\n      pop\n      jump\t// out\n        /* \"#utility.yul\":5044:5352   */\n    tag_84:\n        /* \"#utility.yul\":5106:5110   */\n      0x00\n        /* \"#utility.yul\":5196:5214   */\n      0xffffffffffffffff\n        /* \"#utility.yul\":5188:5194   */\n      dup3\n        /* \"#utility.yul\":5185:5215   */\n      gt\n        /* \"#utility.yul\":5182:5238   */\n      iszero\n      tag_160\n      jumpi\n        /* \"#utility.yul\":5218:5236   */\n      tag_161\n      tag_81\n      jump\t// in\n    tag_161:\n        /* \"#utility.yul\":5182:5238   */\n    tag_160:\n        /* \"#utility.yul\":5256:5285   */\n      tag_162\n        /* \"#utility.yul\":5278:5284   */\n      dup3\n        /* \"#utility.yul\":5256:5285   */\n      tag_75\n      jump\t// in\n    tag_162:\n        /* \"#utility.yul\":5248:5285   */\n      swap1\n      pop\n        /* \"#utility.yul\":5340:5344   */\n      0x20\n        /* \"#utility.yul\":5334:5338   */\n      dup2\n        /* \"#utility.yul\":5330:5345   */\n      add\n        /* \"#utility.yul\":5322:5345   */\n      swap1\n      pop\n        /* \"#utility.yul\":5044:5352   */\n      swap2\n      swap1\n      pop\n      jump\t// out\n        /* \"#utility.yul\":5358:5504   */\n    tag_85:\n        /* \"#utility.yul\":5455:5461   */\n      dup3\n        /* \"#utility.yul\":5450:5453   */\n      dup2\n        /* \"#utility.yul\":5445:5448   */\n      dup4\n        /* \"#utility.yul\":5432:5462   */\n      calldatacopy\n        /* \"#utility.yul\":5496:5497   */\n      0x00\n        /* \"#utility.yul\":5487:5493   */\n      dup4\n        /* \"#utility.yul\":5482:5485   */\n      dup4\n        /* \"#utility.yul\":5478:5494   */\n      add\n        /* \"#utility.yul\":5471:5498   */\n      mstore\n        /* \"#utility.yul\":5358:5504   */\n      pop\n      pop\n      pop\n      jump\t// out\n        /* \"#utility.yul\":5510:5935   */\n    tag_86:\n        /* \"#utility.yul\":5588:5593   */\n      0x00\n        /* \"#utility.yul\":5613:5679   */\n      tag_165\n        /* \"#utility.yul\":5629:5678   */\n      tag_166\n        /* \"#utility.yul\":5671:5677   */\n      dup5\n        /* \"#utility.yul\":5629:5678   */\n      tag_84\n      jump\t// in\n    tag_166:\n        /* \"#utility.yul\":5613:5679   */\n      tag_83\n      jump\t// in\n    tag_165:\n        /* \"#utility.yul\":5604:5679   */\n      swap1\n      pop\n        /* \"#utility.yul\":5702:5708   */\n      dup3\n        /* \"#utility.yul\":5695:5700   */\n      dup2\n        /* \"#utility.yul\":5688:5709   */\n      mstore\n        /* \"#utility.yul\":5740:5744   */\n      0x20\n        /* \"#utility.yul\":5733:5738   */\n      dup2\n        /* \"#utility.yul\":5729:5745   */\n      add\n        /* \"#utility.yul\":5778:5781   */\n      dup5\n        /* \"#utility.yul\":5769:5775   */\n      dup5\n        /* \"#utility.yul\":5764:5767   */\n      dup5\n        /* \"#utility.yul\":5760:5776   */\n      add\n        /* \"#utility.yul\":5757:5782   */\n      gt\n        /* \"#utility.yul\":5754:5866   */\n      iszero\n      tag_167\n      jumpi\n        /* \"#utility.yul\":5785:5864   */\n      tag_168\n      tag_80\n      jump\t// in\n    tag_168:\n        /* \"#utility.yul\":5754:5866   */\n    tag_167:\n        /* \"#utility.yul\":5875:5929   */\n      tag_169\n        /* \"#utility.yul\":5922:5928   */\n      dup5\n        /* \"#utility.yul\":5917:5920   */\n      dup3\n        /* \"#utility.yul\":5912:5915   */\n      dup6\n        /* \"#utility.yul\":5875:5929   */\n      tag_85\n      jump\t// in\n    tag_169:\n        /* \"#utility.yul\":5594:5935   */\n      pop\n        /* \"#utility.yul\":5510:5935   */\n      swap4\n      swap3\n      pop\n      pop\n      pop\n      jump\t// out\n        /* \"#utility.yul\":5955:6295   */\n    tag_87:\n        /* \"#utility.yul\":6011:6016   */\n      0x00\n        /* \"#utility.yul\":6060:6063   */\n      dup3\n        /* \"#utility.yul\":6053:6057   */\n      0x1f\n        /* \"#utility.yul\":6045:6051   */\n      dup4\n        /* \"#utility.yul\":6041:6058   */\n      add\n        /* \"#utility.yul\":6037:6064   */\n      slt\n        /* \"#utility.yul\":6027:6149   */\n      tag_171\n      jumpi\n        /* \"#utility.yul\":6068:6147   */\n      tag_172\n      tag_79\n      jump\t// in\n    tag_172:\n        /* \"#utility.yul\":6027:6149   */\n    tag_171:\n        /* \"#utility.yul\":6185:6191   */\n      dup2\n        /* \"#utility.yul\":6172:6192   */\n      calldataload\n        /* \"#utility.yul\":6210:6289   */\n      tag_173\n        /* \"#utility.yul\":6285:6288   */\n      dup5\n        /* \"#utility.yul\":6277:6283   */\n      dup3\n        /* \"#utility.yul\":6270:6274   */\n      0x20\n        /* \"#utility.yul\":6262:6268   */\n      dup7\n        /* \"#utility.yul\":6258:6275   */\n      add\n        /* \"#utility.yul\":6210:6289   */\n      tag_86\n      jump\t// in\n    tag_173:\n        /* \"#utility.yul\":6201:6289   */\n      swap2\n      pop\n        /* \"#utility.yul\":6017:6295   */\n      pop\n        /* \"#utility.yul\":5955:6295   */\n      swap3\n      swap2\n      pop\n      pop\n      jump\t// out\n        /* \"#utility.yul\":6301:6421   */\n    tag_88:\n        /* \"#utility.yul\":6373:6396   */\n      tag_175\n        /* \"#utility.yul\":6390:6395   */\n      dup2\n        /* \"#utility.yul\":6373:6396   */\n      tag_77\n      jump\t// in\n    tag_175:\n        /* \"#utility.yul\":6366:6371   */\n      dup2\n        /* \"#utility.yul\":6363:6397   */\n      eq\n        /* \"#utility.yul\":6353:6415   */\n      tag_176\n      jumpi\n        /* \"#utility.yul\":6411:6412   */\n      0x00\n        /* \"#utility.yul\":6408:6409   */\n      dup1\n        /* \"#utility.yul\":6401:6413   */\n      revert\n        /* \"#utility.yul\":6353:6415   */\n    tag_176:\n        /* \"#utility.yul\":6301:6421   */\n      pop\n      jump\t// out\n        /* \"#utility.yul\":6427:6564   */\n    tag_89:\n        /* \"#utility.yul\":6472:6477   */\n      0x00\n        /* \"#utility.yul\":6510:6516   */\n      dup2\n        /* \"#utility.yul\":6497:6517   */\n      calldataload\n        /* \"#utility.yul\":6488:6517   */\n      swap1\n      pop\n        /* \"#utility.yul\":6526:6558   */\n      tag_178\n        /* \"#utility.yul\":6552:6557   */\n      dup2\n        /* \"#utility.yul\":6526:6558   */\n      tag_88\n      jump\t// in\n    tag_178:\n        /* \"#utility.yul\":6427:6564   */\n      swap3\n      swap2\n      pop\n      pop\n      jump\t// out\n        /* \"#utility.yul\":6570:8343   */\n    tag_19:\n        /* \"#utility.yul\":6712:6718   */\n      0x00\n        /* \"#utility.yul\":6720:6726   */\n      dup1\n        /* \"#utility.yul\":6728:6734   */\n      0x00\n        /* \"#utility.yul\":6736:6742   */\n      dup1\n        /* \"#utility.yul\":6744:6750   */\n      0x00\n        /* \"#utility.yul\":6752:6758   */\n      dup1\n        /* \"#utility.yul\":6801:6804   */\n      0xc0\n        /* \"#utility.yul\":6789:6798   */\n      dup8\n        /* \"#utility.yul\":6780:6787   */\n      dup10\n        /* \"#utility.yul\":6776:6799   */\n      sub\n        /* \"#utility.yul\":6772:6805   */\n      slt\n        /* \"#utility.yul\":6769:6889   */\n      iszero\n      tag_180\n      jumpi\n        /* \"#utility.yul\":6808:6887   */\n      tag_181\n      tag_66\n      jump\t// in\n    tag_181:\n        /* \"#utility.yul\":6769:6889   */\n    tag_180:\n        /* \"#utility.yul\":6956:6957   */\n      0x00\n        /* \"#utility.yul\":6945:6954   */\n      dup8\n        /* \"#utility.yul\":6941:6958   */\n      add\n        /* \"#utility.yul\":6928:6959   */\n      calldataload\n        /* \"#utility.yul\":6986:7004   */\n      0xffffffffffffffff\n        /* \"#utility.yul\":6978:6984   */\n      dup2\n        /* \"#utility.yul\":6975:7005   */\n      gt\n        /* \"#utility.yul\":6972:7089   */\n      iszero\n      tag_182\n      jumpi\n        /* \"#utility.yul\":7008:7087   */\n      tag_183\n      tag_67\n      jump\t// in\n    tag_183:\n        /* \"#utility.yul\":6972:7089   */\n    tag_182:\n        /* \"#utility.yul\":7113:7176   */\n      tag_184\n        /* \"#utility.yul\":7168:7175   */\n      dup10\n        /* \"#utility.yul\":7159:7165   */\n      dup3\n        /* \"#utility.yul\":7148:7157   */\n      dup11\n        /* \"#utility.yul\":7144:7166   */\n      add\n        /* \"#utility.yul\":7113:7176   */\n      tag_87\n      jump\t// in\n    tag_184:\n        /* \"#utility.yul\":7103:7176   */\n      swap7\n      pop\n        /* \"#utility.yul\":6899:7186   */\n      pop\n        /* \"#utility.yul\":7253:7255   */\n      0x20\n        /* \"#utility.yul\":7242:7251   */\n      dup8\n        /* \"#utility.yul\":7238:7256   */\n      add\n        /* \"#utility.yul\":7225:7257   */\n      calldataload\n        /* \"#utility.yul\":7284:7302   */\n      0xffffffffffffffff\n        /* \"#utility.yul\":7276:7282   */\n      dup2\n        /* \"#utility.yul\":7273:7303   */\n      gt\n        /* \"#utility.yul\":7270:7387   */\n      iszero\n      tag_185\n      jumpi\n        /* \"#utility.yul\":7306:7385   */\n      tag_186\n      tag_67\n      jump\t// in\n    tag_186:\n        /* \"#utility.yul\":7270:7387   */\n    tag_185:\n        /* \"#utility.yul\":7411:7474   */\n      tag_187\n        /* \"#utility.yul\":7466:7473   */\n      dup10\n        /* \"#utility.yul\":7457:7463   */\n      dup3\n        /* \"#utility.yul\":7446:7455   */\n      dup11\n        /* \"#utility.yul\":7442:7464   */\n      add\n        /* \"#utility.yul\":7411:7474   */\n      tag_87\n      jump\t// in\n    tag_187:\n        /* \"#utility.yul\":7401:7474   */\n      swap6\n      pop\n        /* \"#utility.yul\":7196:7484   */\n      pop\n        /* \"#utility.yul\":7523:7525   */\n      0x40\n        /* \"#utility.yul\":7549:7601   */\n      tag_188\n        /* \"#utility.yul\":7593:7600   */\n      dup10\n        /* \"#utility.yul\":7584:7590   */\n      dup3\n        /* \"#utility.yul\":7573:7582   */\n      dup11\n        /* \"#utility.yul\":7569:7591   */\n      add\n        /* \"#utility.yul\":7549:7601   */\n      tag_89\n      jump\t// in\n    tag_188:\n        /* \"#utility.yul\":7539:7601   */\n      swap5\n      pop\n        /* \"#utility.yul\":7494:7611   */\n      pop\n        /* \"#utility.yul\":7650:7652   */\n      0x60\n        /* \"#utility.yul\":7676:7728   */\n      tag_189\n        /* \"#utility.yul\":7720:7727   */\n      dup10\n        /* \"#utility.yul\":7711:7717   */\n      dup3\n        /* \"#utility.yul\":7700:7709   */\n      dup11\n        /* \"#utility.yul\":7696:7718   */\n      add\n        /* \"#utility.yul\":7676:7728   */\n      tag_89\n      jump\t// in\n    tag_189:\n        /* \"#utility.yul\":7666:7728   */\n      swap4\n      pop\n        /* \"#utility.yul\":7621:7738   */\n      pop\n        /* \"#utility.yul\":7805:7808   */\n      0x80\n        /* \"#utility.yul\":7794:7803   */\n      dup8\n        /* \"#utility.yul\":7790:7809   */\n      add\n        /* \"#utility.yul\":7777:7810   */\n      calldataload\n        /* \"#utility.yul\":7837:7855   */\n      0xffffffffffffffff\n        /* \"#utility.yul\":7829:7835   */\n      dup2\n        /* \"#utility.yul\":7826:7856   */\n      gt\n        /* \"#utility.yul\":7823:7940   */\n      iszero\n      tag_190\n      jumpi\n        /* \"#utility.yul\":7859:7938   */\n      tag_191\n      tag_67\n      jump\t// in\n    tag_191:\n        /* \"#utility.yul\":7823:7940   */\n    tag_190:\n        /* \"#utility.yul\":7964:8027   */\n      tag_192\n        /* \"#utility.yul\":8019:8026   */\n      dup10\n        /* \"#utility.yul\":8010:8016   */\n      dup3\n        /* \"#utility.yul\":7999:8008   */\n      dup11\n        /* \"#utility.yul\":7995:8017   */\n      add\n        /* \"#utility.yul\":7964:8027   */\n      tag_87\n      jump\t// in\n    tag_192:\n        /* \"#utility.yul\":7954:8027   */\n      swap3\n      pop\n        /* \"#utility.yul\":7748:8037   */\n      pop\n        /* \"#utility.yul\":8104:8107   */\n      0xa0\n        /* \"#utility.yul\":8093:8102   */\n      dup8\n        /* \"#utility.yul\":8089:8108   */\n      add\n        /* \"#utility.yul\":8076:8109   */\n      calldataload\n        /* \"#utility.yul\":8136:8154   */\n      0xffffffffffffffff\n        /* \"#utility.yul\":8128:8134   */\n      dup2\n        /* \"#utility.yul\":8125:8155   */\n      gt\n        /* \"#utility.yul\":8122:8239   */\n      iszero\n      tag_193\n      jumpi\n        /* \"#utility.yul\":8158:8237   */\n      tag_194\n      tag_67\n      jump\t// in\n    tag_194:\n        /* \"#utility.yul\":8122:8239   */\n    tag_193:\n        /* \"#utility.yul\":8263:8326   */\n      tag_195\n        /* \"#utility.yul\":8318:8325   */\n      dup10\n        /* \"#utility.yul\":8309:8315   */\n      dup3\n        /* \"#utility.yul\":8298:8307   */\n      dup11\n        /* \"#utility.yul\":8294:8316   */\n      add\n        /* \"#utility.yul\":8263:8326   */\n      tag_87\n      jump\t// in\n    tag_195:\n        /* \"#utility.yul\":8253:8326   */\n      swap2\n      pop\n        /* \"#utility.yul\":8047:8336   */\n      pop\n        /* \"#utility.yul\":6570:8343   */\n      swap3\n      swap6\n      pop\n      swap3\n      swap6\n      pop\n      swap3\n      swap6\n      jump\t// out\n        /* \"#utility.yul\":8349:8529   */\n    tag_90:\n        /* \"#utility.yul\":8397:8474   */\n      0x4e487b7100000000000000000000000000000000000000000000000000000000\n        /* \"#utility.yul\":8394:8395   */\n      0x00\n        /* \"#utility.yul\":8387:8475   */\n      mstore\n        /* \"#utility.yul\":8494:8498   */\n      0x22\n        /* \"#utility.yul\":8491:8492   */\n      0x04\n        /* \"#utility.yul\":8484:8499   */\n      mstore\n        /* \"#utility.yul\":8518:8522   */\n      0x24\n        /* \"#utility.yul\":8515:8516   */\n      0x00\n        /* \"#utility.yul\":8508:8523   */\n      revert\n        /* \"#utility.yul\":8535:8855   */\n    tag_25:\n        /* \"#utility.yul\":8579:8585   */\n      0x00\n        /* \"#utility.yul\":8616:8617   */\n      0x02\n        /* \"#utility.yul\":8610:8614   */\n      dup3\n        /* \"#utility.yul\":8606:8618   */\n      div\n        /* \"#utility.yul\":8596:8618   */\n      swap1\n      pop\n        /* \"#utility.yul\":8663:8664   */\n      0x01\n        /* \"#utility.yul\":8657:8661   */\n      dup3\n        /* \"#utility.yul\":8653:8665   */\n      and\n        /* \"#utility.yul\":8684:8702   */\n      dup1\n        /* \"#utility.yul\":8674:8755   */\n      tag_198\n      jumpi\n        /* \"#utility.yul\":8740:8744   */\n      0x7f\n        /* \"#utility.yul\":8732:8738   */\n      dup3\n        /* \"#utility.yul\":8728:8745   */\n      and\n        /* \"#utility.yul\":8718:8745   */\n      swap2\n      pop\n        /* \"#utility.yul\":8674:8755   */\n    tag_198:\n        /* \"#utility.yul\":8802:8804   */\n      0x20\n        /* \"#utility.yul\":8794:8800   */\n      dup3\n        /* \"#utility.yul\":8791:8805   */\n      lt\n        /* \"#utility.yul\":8771:8789   */\n      dup2\n        /* \"#utility.yul\":8768:8806   */\n      sub\n        /* \"#utility.yul\":8765:8849   */\n      tag_199\n      jumpi\n        /* \"#utility.yul\":8821:8839   */\n      tag_200\n      tag_90\n      jump\t// in\n    tag_200:\n        /* \"#utility.yul\":8765:8849   */\n    tag_199:\n        /* \"#utility.yul\":8586:8855   */\n      pop\n        /* \"#utility.yul\":8535:8855   */\n      swap2\n      swap1\n      pop\n      jump\t// out\n        /* \"#utility.yul\":8861:9002   */\n    tag_91:\n        /* \"#utility.yul\":8910:8914   */\n      0x00\n        /* \"#utility.yul\":8933:8936   */\n      dup2\n        /* \"#utility.yul\":8925:8936   */\n      swap1\n      pop\n        /* \"#utility.yul\":8956:8959   */\n      dup2\n        /* \"#utility.yul\":8953:8954   */\n      0x00\n        /* \"#utility.yul\":8946:8960   */\n      mstore\n        /* \"#utility.yul\":8990:8994   */\n      0x20\n        /* \"#utility.yul\":8987:8988   */\n      0x00\n        /* \"#utility.yul\":8977:8995   */\n      keccak256\n        /* \"#utility.yul\":8969:8995   */\n      swap1\n      pop\n        /* \"#utility.yul\":8861:9002   */\n      swap2\n      swap1\n      pop\n      jump\t// out\n        /* \"#utility.yul\":9008:9101   */\n    tag_92:\n        /* \"#utility.yul\":9045:9051   */\n      0x00\n        /* \"#utility.yul\":9092:9094   */\n      0x20\n        /* \"#utility.yul\":9087:9089   */\n      0x1f\n        /* \"#utility.yul\":9080:9085   */\n      dup4\n        /* \"#utility.yul\":9076:9090   */\n      add\n        /* \"#utility.yul\":9072:9095   */\n      div\n        /* \"#utility.yul\":9062:9095   */\n      swap1\n      pop\n        /* \"#utility.yul\":9008:9101   */\n      swap2\n      swap1\n      pop\n      jump\t// out\n        /* \"#utility.yul\":9107:9214   */\n    tag_93:\n        /* \"#utility.yul\":9151:9159   */\n      0x00\n        /* \"#utility.yul\":9201:9206   */\n      dup3\n        /* \"#utility.yul\":9195:9199   */\n      dup3\n        /* \"#utility.yul\":9191:9207   */\n      shl\n        /* \"#utility.yul\":9170:9207   */\n      swap1\n      pop\n        /* \"#utility.yul\":9107:9214   */\n      swap3\n      swap2\n      pop\n      pop\n      jump\t// out\n        /* \"#utility.yul\":9220:9613   */\n    tag_94:\n        /* \"#utility.yul\":9289:9295   */\n      0x00\n        /* \"#utility.yul\":9339:9340   */\n      0x08\n        /* \"#utility.yul\":9327:9337   */\n      dup4\n        /* \"#utility.yul\":9323:9341   */\n      mul\n        /* \"#utility.yul\":9362:9459   */\n      tag_205\n        /* \"#utility.yul\":9392:9458   */\n      0xffffffffffffffffffffffffffffffffffffffffffffffffffffffffffffffff\n        /* \"#utility.yul\":9381:9390   */\n      dup3\n        /* \"#utility.yul\":9362:9459   */\n      tag_93\n      jump\t// in\n    tag_205:\n        /* \"#utility.yul\":9480:9519   */\n      tag_206\n        /* \"#utility.yul\":9510:9518   */\n      dup7\n        /* \"#utility.yul\":9499:9508   */\n      dup4\n        /* \"#utility.yul\":9480:9519   */\n      tag_93\n      jump\t// in\n    tag_206:\n        /* \"#utility.yul\":9468:9519   */\n      swap6\n      pop\n        /* \"#utility.yul\":9552:9556   */\n      dup1\n        /* \"#utility.yul\":9548:9557   */\n      not\n        /* \"#utility.yul\":9541:9546   */\n      dup5\n        /* \"#utility.yul\":9537:9558   */\n      and\n        /* \"#utility.yul\":9528:9558   */\n      swap4\n      pop\n        /* \"#utility.yul\":9601:9605   */\n      dup1\n        /* \"#utility.yul\":9591:9599   */\n      dup7\n        /* \"#utility.yul\":9587:9606   */\n      and\n        /* \"#utility.yul\":9580:9585   */\n      dup5\n        /* \"#utility.yul\":9577:9607   */\n      or\n        /* \"#utility.yul\":9567:9607   */\n      swap3\n      pop\n        /* \"#utility.yul\":9296:9613   */\n      pop\n      pop\n        /* \"#utility.yul\":9220:9613   */\n      swap4\n      swap3\n      pop\n      pop\n      pop\n      jump\t// out\n        /* \"#utility.yul\":9619:9696   */\n    tag_95:\n        /* \"#utility.yul\":9656:9663   */\n      0x00\n        /* \"#utility.yul\":9685:9690   */\n      dup2\n        /* \"#utility.yul\":9674:9690   */\n      swap1\n      pop\n        /* \"#utility.yul\":9619:9696   */\n      swap2\n      swap1\n      pop\n      jump\t// out\n        /* \"#utility.yul\":9702:9762   */\n    tag_96:\n        /* \"#utility.yul\":9730:9733   */\n      0x00\n        /* \"#utility.yul\":9751:9756   */\n      dup2\n        /* \"#utility.yul\":9744:9756   */\n      swap1\n      pop\n        /* \"#utility.yul\":9702:9762   */\n      swap2\n      swap1\n      pop\n      jump\t// out\n        /* \"#utility.yul\":9768:9910   */\n    tag_97:\n        /* \"#utility.yul\":9818:9827   */\n      0x00\n        /* \"#utility.yul\":9851:9904   */\n      tag_210\n        /* \"#utility.yul\":9869:9903   */\n      tag_211\n        /* \"#utility.yul\":9878:9902   */\n      tag_212\n        /* \"#utility.yul\":9896:9901   */\n      dup5\n        /* \"#utility.yul\":9878:9902   */\n      tag_95\n      jump\t// in\n    tag_212:\n        /* \"#utility.yul\":9869:9903   */\n      tag_96\n      jump\t// in\n    tag_211:\n        /* \"#utility.yul\":9851:9904   */\n      tag_95\n      jump\t// in\n    tag_210:\n        /* \"#utility.yul\":9838:9904   */\n      swap1\n      pop\n        /* \"#utility.yul\":9768:9910   */\n      swap2\n      swap1\n      pop\n      jump\t// out\n        /* \"#utility.yul\":9916:9991   */\n    tag_98:\n        /* \"#utility.yul\":9959:9962   */\n      0x00\n        /* \"#utility.yul\":9980:9985   */\n      dup2\n        /* \"#utility.yul\":9973:9985   */\n      swap1\n      pop\n        /* \"#utility.yul\":9916:9991   */\n      swap2\n      swap1\n      pop\n      jump\t// out\n        /* \"#utility.yul\":9997:10266   */\n    tag_99:\n        /* \"#utility.yul\":10107:10146   */\n      tag_215\n        /* \"#utility.yul\":10138:10145   */\n      dup4\n        /* \"#utility.yul\":10107:10146   */\n      tag_97\n      jump\t// in\n    tag_215:\n        /* \"#utility.yul\":10168:10259   */\n      tag_216\n        /* \"#utility.yul\":10217:10258   */\n      tag_217\n        /* \"#utility.yul\":10241:10257   */\n      dup3\n        /* \"#utility.yul\":10217:10258   */\n      tag_98\n      jump\t// in\n    tag_217:\n        /* \"#utility.yul\":10209:10215   */\n      dup5\n        /* \"#utility.yul\":10202:10206   */\n      dup5\n        /* \"#utility.yul\":10196:10207   */\n      sload\n        /* \"#utility.yul\":10168:10259   */\n      tag_94\n      jump\t// in\n    tag_216:\n        /* \"#utility.yul\":10162:10166   */\n      dup3\n        /* \"#utility.yul\":10155:10260   */\n      sstore\n        /* \"#utility.yul\":10073:10266   */\n      pop\n        /* \"#utility.yul\":9997:10266   */\n      pop\n      pop\n      pop\n      jump\t// out\n        /* \"#utility.yul\":10272:10345   */\n    tag_100:\n        /* \"#utility.yul\":10317:10320   */\n      0x00\n        /* \"#utility.yul\":10272:10345   */\n      swap1\n      jump\t// out\n        /* \"#utility.yul\":10351:10540   */\n    tag_101:\n        /* \"#utility.yul\":10428:10460   */\n      tag_220\n      tag_100\n      jump\t// in\n    tag_220:\n        /* \"#utility.yul\":10469:10534   */\n      tag_221\n        /* \"#utility.yul\":10527:10533   */\n      dup2\n        /* \"#utility.yul\":10519:10525   */\n      dup5\n        /* \"#utility.yul\":10513:10517   */\n      dup5\n        /* \"#utility.yul\":10469:10534   */\n      tag_99\n      jump\t// in\n    tag_221:\n        /* \"#utility.yul\":10404:10540   */\n      pop\n        /* \"#utility.yul\":10351:10540   */\n      pop\n      pop\n      jump\t// out\n        /* \"#utility.yul\":10546:10732   */\n    tag_102:\n        /* \"#utility.yul\":10606:10726   */\n    tag_223:\n        /* \"#utility.yul\":10623:10626   */\n      dup2\n        /* \"#utility.yul\":10616:10621   */\n      dup2\n        /* \"#utility.yul\":10613:10627   */\n      lt\n        /* \"#utility.yul\":10606:10726   */\n      iszero\n      tag_225\n      jumpi\n        /* \"#utility.yul\":10677:10716   */\n      tag_226\n        /* \"#utility.yul\":10714:10715   */\n      0x00\n        /* \"#utility.yul\":10707:10712   */\n      dup3\n        /* \"#utility.yul\":10677:10716   */\n      tag_101\n      jump\t// in\n    tag_226:\n        /* \"#utility.yul\":10650:10651   */\n      0x01\n        /* \"#utility.yul\":10643:10648   */\n      dup2\n        /* \"#utility.yul\":10639:10652   */\n      add\n        /* \"#utility.yul\":10630:10652   */\n      swap1\n      pop\n        /* \"#utility.yul\":10606:10726   */\n      jump(tag_223)\n    tag_225:\n        /* \"#utility.yul\":10546:10732   */\n      pop\n      pop\n      jump\t// out\n        /* \"#utility.yul\":10738:11281   */\n    tag_103:\n        /* \"#utility.yul\":10839:10841   */\n      0x1f\n        /* \"#utility.yul\":10834:10837   */\n      dup3\n        /* \"#utility.yul\":10831:10842   */\n      gt\n        /* \"#utility.yul\":10828:11274   */\n      iszero\n      tag_228\n      jumpi\n        /* \"#utility.yul\":10873:10911   */\n      tag_229\n        /* \"#utility.yul\":10905:10910   */\n      dup2\n        /* \"#utility.yul\":10873:10911   */\n      tag_91\n      jump\t// in\n    tag_229:\n        /* \"#utility.yul\":10957:10986   */\n      tag_230\n        /* \"#utility.yul\":10975:10985   */\n      dup5\n        /* \"#utility.yul\":10957:10986   */\n      tag_92\n      jump\t// in\n    tag_230:\n        /* \"#utility.yul\":10947:10955   */\n      dup2\n        /* \"#utility.yul\":10943:10987   */\n      add\n        /* \"#utility.yul\":11140:11142   */\n      0x20\n        /* \"#utility.yul\":11128:11138   */\n      dup6\n        /* \"#utility.yul\":11125:11143   */\n      lt\n        /* \"#utility.yul\":11122:11171   */\n      iszero\n      tag_231\n      jumpi\n        /* \"#utility.yul\":11161:11169   */\n      dup2\n        /* \"#utility.yul\":11146:11169   */\n      swap1\n      pop\n        /* \"#utility.yul\":11122:11171   */\n    tag_231:\n        /* \"#utility.yul\":11184:11264   */\n      tag_232\n        /* \"#utility.yul\":11240:11262   */\n      tag_233\n        /* \"#utility.yul\":11258:11261   */\n      dup6\n        /* \"#utility.yul\":11240:11262   */\n      tag_92\n      jump\t// in\n    tag_233:\n        /* \"#utility.yul\":11230:11238   */\n      dup4\n        /* \"#utility.yul\":11226:11263   */\n      add\n        /* \"#utility.yul\":11213:11224   */\n      dup3\n        /* \"#utility.yul\":11184:11264   */\n      tag_102\n      jump\t// in\n    tag_232:\n        /* \"#utility.yul\":10843:11274   */\n      pop\n      pop\n        /* \"#utility.yul\":10828:11274   */\n    tag_228:\n        /* \"#utility.yul\":10738:11281   */\n      pop\n      pop\n      pop\n      jump\t// out\n        /* \"#utility.yul\":11287:11404   */\n    tag_104:\n        /* \"#utility.yul\":11341:11349   */\n      0x00\n        /* \"#utility.yul\":11391:11396   */\n      dup3\n        /* \"#utility.yul\":11385:11389   */\n      dup3\n        /* \"#utility.yul\":11381:11397   */\n      shr\n        /* \"#utility.yul\":11360:11397   */\n      swap1\n      pop\n        /* \"#utility.yul\":11287:11404   */\n      swap3\n      swap2\n      pop\n      pop\n      jump\t// out\n        /* \"#utility.yul\":11410:11579   */\n    tag_105:\n        /* \"#utility.yul\":11454:11460   */\n      0x00\n        /* \"#utility.yul\":11487:11538   */\n      tag_236\n        /* \"#utility.yul\":11535:11536   */\n      0x00\n        /* \"#utility.yul\":11531:11537   */\n      not\n        /* \"#utility.yul\":11523:11528   */\n      dup5\n        /* \"#utility.yul\":11520:11521   */\n      0x08\n        /* \"#utility.yul\":11516:11529   */\n      mul\n        /* \"#utility.yul\":11487:11538   */\n      tag_104\n      jump\t// in\n    tag_236:\n        /* \"#utility.yul\":11483:11539   */\n      not\n        /* \"#utility.yul\":11568:11572   */\n      dup1\n        /* \"#utility.yul\":11562:11566   */\n      dup4\n        /* \"#utility.yul\":11558:11573   */\n      and\n        /* \"#utility.yul\":11548:11573   */\n      swap2\n      pop\n        /* \"#utility.yul\":11461:11579   */\n      pop\n        /* \"#utility.yul\":11410:11579   */\n      swap3\n      swap2\n      pop\n      pop\n      jump\t// out\n        /* \"#utility.yul\":11584:11879   */\n    tag_106:\n        /* \"#utility.yul\":11660:11664   */\n      0x00\n        /* \"#utility.yul\":11806:11835   */\n      tag_238\n        /* \"#utility.yul\":11831:11834   */\n      dup4\n        /* \"#utility.yul\":11825:11829   */\n      dup4\n        /* \"#utility.yul\":11806:11835   */\n      tag_105\n      jump\t// in\n    tag_238:\n        /* \"#utility.yul\":11798:11835   */\n      swap2\n      pop\n        /* \"#utility.yul\":11868:11871   */\n      dup3\n        /* \"#utility.yul\":11865:11866   */\n      0x02\n        /* \"#utility.yul\":11861:11872   */\n      mul\n        /* \"#utility.yul\":11855:11859   */\n      dup3\n        /* \"#utility.yul\":11852:11873   */\n      or\n        /* \"#utility.yul\":11844:11873   */\n      swap1\n      pop\n        /* \"#utility.yul\":11584:11879   */\n      swap3\n      swap2\n      pop\n      pop\n      jump\t// out\n        /* \"#utility.yul\":11884:13279   */\n    tag_58:\n        /* \"#utility.yul\":12001:12038   */\n      tag_240\n        /* \"#utility.yul\":12034:12037   */\n      dup3\n        /* \"#utility.yul\":12001:12038   */\n      tag_72\n      jump\t// in\n    tag_240:\n        /* \"#utility.yul\":12103:12121   */\n      0xffffffffffffffff\n        /* \"#utility.yul\":12095:12101   */\n      dup2\n        /* \"#utility.yul\":12092:12122   */\n      gt\n        /* \"#utility.yul\":12089:12145   */\n      iszero\n      tag_241\n      jumpi\n        /* \"#utility.yul\":12125:12143   */\n      tag_242\n      tag_81\n      jump\t// in\n    tag_242:\n        /* \"#utility.yul\":12089:12145   */\n    tag_241:\n        /* \"#utility.yul\":12169:12207   */\n      tag_243\n        /* \"#utility.yul\":12201:12205   */\n      dup3\n        /* \"#utility.yul\":12195:12206   */\n      sload\n        /* \"#utility.yul\":12169:12207   */\n      tag_25\n      jump\t// in\n    tag_243:\n        /* \"#utility.yul\":12254:12321   */\n      tag_244\n        /* \"#utility.yul\":12314:12320   */\n      dup3\n        /* \"#utility.yul\":12306:12312   */\n      dup3\n        /* \"#utility.yul\":12300:12304   */\n      dup6\n        /* \"#utility.yul\":12254:12321   */\n      tag_103\n      jump\t// in\n    tag_244:\n        /* \"#utility.yul\":12348:12349   */\n      0x00\n        /* \"#utility.yul\":12372:12376   */\n      0x20\n        /* \"#utility.yul\":12359:12376   */\n      swap1\n      pop\n        /* \"#utility.yul\":12404:12406   */\n      0x1f\n        /* \"#utility.yul\":12396:12402   */\n      dup4\n        /* \"#utility.yul\":12393:12407   */\n      gt\n        /* \"#utility.yul\":12421:12422   */\n      0x01\n        /* \"#utility.yul\":12416:13034   */\n      dup2\n      eq\n      tag_246\n      jumpi\n        /* \"#utility.yul\":13078:13079   */\n      0x00\n        /* \"#utility.yul\":13095:13101   */\n      dup5\n        /* \"#utility.yul\":13092:13169   */\n      iszero\n      tag_247\n      jumpi\n        /* \"#utility.yul\":13144:13153   */\n      dup3\n        /* \"#utility.yul\":13139:13142   */\n      dup8\n        /* \"#utility.yul\":13135:13154   */\n      add\n        /* \"#utility.yul\":13129:13155   */\n      mload\n        /* \"#utility.yul\":13120:13155   */\n      swap1\n      pop\n        /* \"#utility.yul\":13092:13169   */\n    tag_247:\n        /* \"#utility.yul\":13195:13262   */\n      tag_248\n        /* \"#utility.yul\":13255:13261   */\n      dup6\n        /* \"#utility.yul\":13248:13253   */\n      dup3\n        /* \"#utility.yul\":13195:13262   */\n      tag_106\n      jump\t// in\n    tag_248:\n        /* \"#utility.yul\":13189:13193   */\n      dup7\n        /* \"#utility.yul\":13182:13263   */\n      sstore\n        /* \"#utility.yul\":13051:13273   */\n      pop\n        /* \"#utility.yul\":12386:13273   */\n      jump(tag_245)\n        /* \"#utility.yul\":12416:13034   */\n    tag_246:\n        /* \"#utility.yul\":12468:12472   */\n      0x1f\n        /* \"#utility.yul\":12464:12473   */\n      not\n        /* \"#utility.yul\":12456:12462   */\n      dup5\n        /* \"#utility.yul\":12452:12474   */\n      and\n        /* \"#utility.yul\":12502:12539   */\n      tag_249\n        /* \"#utility.yul\":12534:12538   */\n      dup7\n        /* \"#utility.yul\":12502:12539   */\n      tag_91\n      jump\t// in\n    tag_249:\n        /* \"#utility.yul\":12561:12562   */\n      0x00\n        /* \"#utility.yul\":12575:12783   */\n    tag_250:\n        /* \"#utility.yul\":12589:12596   */\n      dup3\n        /* \"#utility.yul\":12586:12587   */\n      dup2\n        /* \"#utility.yul\":12583:12597   */\n      lt\n        /* \"#utility.yul\":12575:12783   */\n      iszero\n      tag_252\n      jumpi\n        /* \"#utility.yul\":12668:12677   */\n      dup5\n        /* \"#utility.yul\":12663:12666   */\n      dup10\n        /* \"#utility.yul\":12659:12678   */\n      add\n        /* \"#utility.yul\":12653:12679   */\n      mload\n        /* \"#utility.yul\":12645:12651   */\n      dup3\n        /* \"#utility.yul\":12638:12680   */\n      sstore\n        /* \"#utility.yul\":12719:12720   */\n      0x01\n        /* \"#utility.yul\":12711:12717   */\n      dup3\n        /* \"#utility.yul\":12707:12721   */\n      add\n        /* \"#utility.yul\":12697:12721   */\n      swap2\n      pop\n        /* \"#utility.yul\":12766:12768   */\n      0x20\n        /* \"#utility.yul\":12755:12764   */\n      dup6\n        /* \"#utility.yul\":12751:12769   */\n      add\n        /* \"#utility.yul\":12738:12769   */\n      swap5\n      pop\n        /* \"#utility.yul\":12612:12616   */\n      0x20\n        /* \"#utility.yul\":12609:12610   */\n      dup2\n        /* \"#utility.yul\":12605:12617   */\n      add\n        /* \"#utility.yul\":12600:12617   */\n      swap1\n      pop\n        /* \"#utility.yul\":12575:12783   */\n      jump(tag_250)\n    tag_252:\n        /* \"#utility.yul\":12811:12817   */\n      dup7\n        /* \"#utility.yul\":12802:12809   */\n      dup4\n        /* \"#utility.yul\":12799:12818   */\n      lt\n        /* \"#utility.yul\":12796:12975   */\n      iszero\n      tag_253\n      jumpi\n        /* \"#utility.yul\":12869:12878   */\n      dup5\n        /* \"#utility.yul\":12864:12867   */\n      dup10\n        /* \"#utility.yul\":12860:12879   */\n      add\n        /* \"#utility.yul\":12854:12880   */\n      mload\n        /* \"#utility.yul\":12912:12960   */\n      tag_254\n        /* \"#utility.yul\":12954:12958   */\n      0x1f\n        /* \"#utility.yul\":12946:12952   */\n      dup10\n        /* \"#utility.yul\":12942:12959   */\n      and\n        /* \"#utility.yul\":12931:12940   */\n      dup3\n        /* \"#utility.yul\":12912:12960   */\n      tag_105\n      jump\t// in\n    tag_254:\n        /* \"#utility.yul\":12904:12910   */\n      dup4\n        /* \"#utility.yul\":12897:12961   */\n      sstore\n        /* \"#utility.yul\":12819:12975   */\n      pop\n        /* \"#utility.yul\":12796:12975   */\n    tag_253:\n        /* \"#utility.yul\":13021:13022   */\n      0x01\n        /* \"#utility.yul\":13017:13018   */\n      0x02\n        /* \"#utility.yul\":13009:13015   */\n      dup9\n        /* \"#utility.yul\":13005:13019   */\n      mul\n        /* \"#utility.yul\":13001:13023   */\n      add\n        /* \"#utility.yul\":12995:12999   */\n      dup9\n        /* \"#utility.yul\":12988:13024   */\n      sstore\n        /* \"#utility.yul\":12423:13034   */\n      pop\n      pop\n      pop\n        /* \"#utility.yul\":12386:13273   */\n    tag_245:\n      pop\n        /* \"#utility.yul\":11976:13279   */\n      pop\n      pop\n      pop\n        /* \"#utility.yul\":11884:13279   */\n      pop\n      pop\n      jump\t// out\n\n    auxdata: 0xa26469706673582212202a53285ce2489f7696e0188b20a57b043887d56b71afed7dde994268e95e643c64736f6c63430008160033\n}\n",
				"bytecode": {
					"linkReferences": {},
					"object": "608060405234801562000010575f80fd5b5060405162000f0638038062000f068339818101604052810190620000369190620000f5565b8060015f6101000a81548173ffffffffffffffffffffffffffffffffffffffff021916908373ffffffffffffffffffffffffffffffffffffffff1602179055505062000125565b5f80fd5b5f73ffffffffffffffffffffffffffffffffffffffff82169050919050565b5f620000ac8262000081565b9050919050565b5f620000bf82620000a0565b9050919050565b620000d181620000b3565b8114620000dc575f80fd5b50565b5f81519050620000ef81620000c6565b92915050565b5f602082840312156200010d576200010c6200007d565b5b5f6200011c84828501620000df565b91505092915050565b610dd380620001335f395ff3fe608060405234801561000f575f80fd5b506004361061004a575f3560e01c8063a87430ba1461004e578063b973703114610083578063bfe051b7146100a3578063dfba8238146100bf575b5f80fd5b610068600480360381019061006391906106e7565b6100db565b60405161007a969594939291906107be565b60405180910390f35b61008b610351565b60405161009a93929190610839565b60405180910390f35b6100bd60048036038101906100b891906109d2565b6104d5565b005b6100d960048036038101906100d491906109d2565b610610565b005b5f602052805f5260405f205f91509050805f0180546100f990610af8565b80601f016020809104026020016040519081016040528092919081815260200182805461012590610af8565b80156101705780601f1061014757610100808354040283529160200191610170565b820191905f5260205f20905b81548152906001019060200180831161015357829003601f168201915b50505050509080600101805461018590610af8565b80601f01602080910402602001604051908101604052809291908181526020018280546101b190610af8565b80156101fc5780601f106101d3576101008083540402835291602001916101fc565b820191905f5260205f20905b8154815290600101906020018083116101df57829003601f168201915b505050505090806002015f9054906101000a900467ffffffffffffffff16908060020160089054906101000a900467ffffffffffffffff169080600301805461024490610af8565b80601f016020809104026020016040519081016040528092919081815260200182805461027090610af8565b80156102bb5780601f10610292576101008083540402835291602001916102bb565b820191905f5260205f20905b81548152906001019060200180831161029e57829003601f168201915b5050505050908060040180546102d090610af8565b80601f01602080910402602001604051908101604052809291908181526020018280546102fc90610af8565b80156103475780601f1061031e57610100808354040283529160200191610347565b820191905f5260205f20905b81548152906001019060200180831161032a57829003601f168201915b5050505050905086565b60605f60605f805f3373ffffffffffffffffffffffffffffffffffffffff1673ffffffffffffffffffffffffffffffffffffffff1681526020019081526020015f209050805f018160020160089054906101000a900467ffffffffffffffff16826004018280546103c190610af8565b80601f01602080910402602001604051908101604052809291908181526020018280546103ed90610af8565b80156104385780601f1061040f57610100808354040283529160200191610438565b820191905f5260205f20905b81548152906001019060200180831161041b57829003601f168201915b5050505050925080805461044b90610af8565b80601f016020809104026020016040519081016040528092919081815260200182805461047790610af8565b80156104c25780601f10610499576101008083540402835291602001916104c2565b820191905f5260205f20905b8154815290600101906020018083116104a557829003601f168201915b5050505050905093509350935050909192565b6040518060c001604052808781526020018681526020018567ffffffffffffffff1681526020018467ffffffffffffffff168152602001838152602001828152505f803373ffffffffffffffffffffffffffffffffffffffff1673ffffffffffffffffffffffffffffffffffffffff1681526020019081526020015f205f820151815f0190816105659190610cce565b50602082015181600101908161057b9190610cce565b506040820151816002015f6101000a81548167ffffffffffffffff021916908367ffffffffffffffff16021790555060608201518160020160086101000a81548167ffffffffffffffff021916908367ffffffffffffffff16021790555060808201518160030190816105ee9190610cce565b5060a08201518160040190816106049190610cce565b50905050505050505050565b5f805f3373ffffffffffffffffffffffffffffffffffffffff1673ffffffffffffffffffffffffffffffffffffffff1681526020019081526020015f209050828160030190816106609190610cce565b50818160040190816106729190610cce565b5050505050505050565b5f604051905090565b5f80fd5b5f80fd5b5f73ffffffffffffffffffffffffffffffffffffffff82169050919050565b5f6106b68261068d565b9050919050565b6106c6816106ac565b81146106d0575f80fd5b50565b5f813590506106e1816106bd565b92915050565b5f602082840312156106fc576106fb610685565b5b5f610709848285016106d3565b91505092915050565b5f81519050919050565b5f82825260208201905092915050565b5f5b8381101561074957808201518184015260208101905061072e565b5f8484015250505050565b5f601f19601f8301169050919050565b5f61076e82610712565b610778818561071c565b935061078881856020860161072c565b61079181610754565b840191505092915050565b5f67ffffffffffffffff82169050919050565b6107b88161079c565b82525050565b5f60c0820190508181035f8301526107d68189610764565b905081810360208301526107ea8188610764565b90506107f960408301876107af565b61080660608301866107af565b81810360808301526108188185610764565b905081810360a083015261082c8184610764565b9050979650505050505050565b5f6060820190508181035f8301526108518186610764565b905061086060208301856107af565b81810360408301526108728184610764565b9050949350505050565b5f80fd5b5f80fd5b7f4e487b71000000000000000000000000000000000000000000000000000000005f52604160045260245ffd5b6108ba82610754565b810181811067ffffffffffffffff821117156108d9576108d8610884565b5b80604052505050565b5f6108eb61067c565b90506108f782826108b1565b919050565b5f67ffffffffffffffff82111561091657610915610884565b5b61091f82610754565b9050602081019050919050565b828183375f83830152505050565b5f61094c610947846108fc565b6108e2565b90508281526020810184848401111561096857610967610880565b5b61097384828561092c565b509392505050565b5f82601f83011261098f5761098e61087c565b5b813561099f84826020860161093a565b91505092915050565b6109b18161079c565b81146109bb575f80fd5b50565b5f813590506109cc816109a8565b92915050565b5f805f805f8060c087890312156109ec576109eb610685565b5b5f87013567ffffffffffffffff811115610a0957610a08610689565b5b610a1589828a0161097b565b965050602087013567ffffffffffffffff811115610a3657610a35610689565b5b610a4289828a0161097b565b9550506040610a5389828a016109be565b9450506060610a6489828a016109be565b935050608087013567ffffffffffffffff811115610a8557610a84610689565b5b610a9189828a0161097b565b92505060a087013567ffffffffffffffff811115610ab257610ab1610689565b5b610abe89828a0161097b565b9150509295509295509295565b7f4e487b71000000000000000000000000000000000000000000000000000000005f52602260045260245ffd5b5f6002820490506001821680610b0f57607f821691505b602082108103610b2257610b21610acb565b5b50919050565b5f819050815f5260205f209050919050565b5f6020601f8301049050919050565b5f82821b905092915050565b5f60088302610b847fffffffffffffffffffffffffffffffffffffffffffffffffffffffffffffffff82610b49565b610b8e8683610b49565b95508019841693508086168417925050509392505050565b5f819050919050565b5f819050919050565b5f610bd2610bcd610bc884610ba6565b610baf565b610ba6565b9050919050565b5f819050919050565b610beb83610bb8565b610bff610bf782610bd9565b848454610b55565b825550505050565b5f90565b610c13610c07565b610c1e818484610be2565b505050565b5b81811015610c4157610c365f82610c0b565b600181019050610c24565b5050565b601f821115610c8657610c5781610b28565b610c6084610b3a565b81016020851015610c6f578190505b610c83610c7b85610b3a565b830182610c23565b50505b505050565b5f82821c905092915050565b5f610ca65f1984600802610c8b565b1980831691505092915050565b5f610cbe8383610c97565b9150826002028217905092915050565b610cd782610712565b67ffffffffffffffff811115610cf057610cef610884565b5b610cfa8254610af8565b610d05828285610c45565b5f60209050601f831160018114610d36575f8415610d24578287015190505b610d2e8582610cb3565b865550610d95565b601f198416610d4486610b28565b5f5b82811015610d6b57848901518255600182019150602085019450602081019050610d46565b86831015610d885784890151610d84601f891682610c97565b8355505b6001600288020188555050505b50505050505056fea26469706673582212202a53285ce2489f7696e0188b20a57b043887d56b71afed7dde994268e95e643c64736f6c63430008160033",
					"opcodes": "PUSH1 0x80 PUSH1 0x40 MSTORE CALLVALUE DUP1 ISZERO PUSH3 0x10 JUMPI PUSH0 DUP1 REVERT JUMPDEST POP PUSH1 0x40 MLOAD PUSH3 0xF06 CODESIZE SUB DUP1 PUSH3 0xF06 DUP4 CODECOPY DUP2 DUP2 ADD PUSH1 0x40 MSTORE DUP2 ADD SWAP1 PUSH3 0x36 SWAP2 SWAP1 PUSH3 0xF5 JUMP JUMPDEST DUP1 PUSH1 0x1 PUSH0 PUSH2 0x100 EXP DUP2 SLOAD DUP2 PUSH20 0xFFFFFFFFFFFFFFFFFFFFFFFFFFFFFFFFFFFFFFFF MUL NOT AND SWAP1 DUP4 PUSH20 0xFFFFFFFFFFFFFFFFFFFFFFFFFFFFFFFFFFFFFFFF AND MUL OR SWAP1 SSTORE POP POP PUSH3 0x125 JUMP JUMPDEST PUSH0 DUP1 REVERT JUMPDEST PUSH0 PUSH20 0xFFFFFFFFFFFFFFFFFFFFFFFFFFFFFFFFFFFFFFFF DUP3 AND SWAP1 POP SWAP2 SWAP1 POP JUMP JUMPDEST PUSH0 PUSH3 0xAC DUP3 PUSH3 0x81 JUMP JUMPDEST SWAP1 POP SWAP2 SWAP1 POP JUMP JUMPDEST PUSH0 PUSH3 0xBF DUP3 PUSH3 0xA0 JUMP JUMPDEST SWAP1 POP SWAP2 SWAP1 POP JUMP JUMPDEST PUSH3 0xD1 DUP2 PUSH3 0xB3 JUMP JUMPDEST DUP2 EQ PUSH3 0xDC JUMPI PUSH0 DUP1 REVERT JUMPDEST POP JUMP JUMPDEST PUSH0 DUP2 MLOAD SWAP1 POP PUSH3 0xEF DUP2 PUSH3 0xC6 JUMP JUMPDEST SWAP3 SWAP2 POP POP JUMP JUMPDEST PUSH0 PUSH1 0x20 DUP3 DUP5 SUB SLT ISZERO PUSH3 0x10D JUMPI PUSH3 0x10C PUSH3 0x7D JUMP JUMPDEST JUMPDEST PUSH0 PUSH3 0x11C DUP5 DUP3 DUP6 ADD PUSH3 0xDF JUMP JUMPDEST SWAP2 POP POP SWAP3 SWAP2 POP POP JUMP JUMPDEST PUSH2 0xDD3 DUP1 PUSH3 0x133 PUSH0 CODECOPY PUSH0 RETURN INVALID PUSH1 0x80 PUSH1 0x40 MSTORE CALLVALUE DUP1 ISZERO PUSH2 0xF JUMPI PUSH0 DUP1 REVERT JUMPDEST POP PUSH1 0x4 CALLDATASIZE LT PUSH2 0x4A JUMPI PUSH0 CALLDATALOAD PUSH1 0xE0 SHR DUP1 PUSH4 0xA87430BA EQ PUSH2 0x4E JUMPI DUP1 PUSH4 0xB9737031 EQ PUSH2 0x83 JUMPI DUP1 PUSH4 0xBFE051B7 EQ PUSH2 0xA3 JUMPI DUP1 PUSH4 0xDFBA8238 EQ PUSH2 0xBF JUMPI JUMPDEST PUSH0 DUP1 REVERT JUMPDEST PUSH2 0x68 PUSH1 0x4 DUP1 CALLDATASIZE SUB DUP2 ADD SWAP1 PUSH2 0x63 SWAP2 SWAP1 PUSH2 0x6E7 JUMP JUMPDEST PUSH2 0xDB JUMP JUMPDEST PUSH1 0x40 MLOAD PUSH2 0x7A SWAP7 SWAP6 SWAP5 SWAP4 SWAP3 SWAP2 SWAP1 PUSH2 0x7BE JUMP JUMPDEST PUSH1 0x40 MLOAD DUP1 SWAP2 SUB SWAP1 RETURN JUMPDEST PUSH2 0x8B PUSH2 0x351 JUMP JUMPDEST PUSH1 0x40 MLOAD PUSH2 0x9A SWAP4 SWAP3 SWAP2 SWAP1 PUSH2 0x839 JUMP JUMPDEST PUSH1 0x40 MLOAD DUP1 SWAP2 SUB SWAP1 RETURN JUMPDEST PUSH2 0xBD PUSH1 0x4 DUP1 CALLDATASIZE SUB DUP2 ADD SWAP1 PUSH2 0xB8 SWAP2 SWAP1 PUSH2 0x9D2 JUMP JUMPDEST PUSH2 0x4D5 JUMP JUMPDEST STOP JUMPDEST PUSH2 0xD9 PUSH1 0x4 DUP1 CALLDATASIZE SUB DUP2 ADD SWAP1 PUSH2 0xD4 SWAP2 SWAP1 PUSH2 0x9D2 JUMP JUMPDEST PUSH2 0x610 JUMP JUMPDEST STOP JUMPDEST PUSH0 PUSH1 0x20 MSTORE DUP1 PUSH0 MSTORE PUSH1 0x40 PUSH0 KECCAK256 PUSH0 SWAP2 POP SWAP1 POP DUP1 PUSH0 ADD DUP1 SLOAD PUSH2 0xF9 SWAP1 PUSH2 0xAF8 JUMP JUMPDEST DUP1 PUSH1 0x1F ADD PUSH1 0x20 DUP1 SWAP2 DIV MUL PUSH1 0x20 ADD PUSH1 0x40 MLOAD SWAP1 DUP2 ADD PUSH1 0x40 MSTORE DUP1 SWAP3 SWAP2 SWAP1 DUP2 DUP2 MSTORE PUSH1 0x20 ADD DUP3 DUP1 SLOAD PUSH2 0x125 SWAP1 PUSH2 0xAF8 JUMP JUMPDEST DUP1 ISZERO PUSH2 0x170 JUMPI DUP1 PUSH1 0x1F LT PUSH2 0x147 JUMPI PUSH2 0x100 DUP1 DUP4 SLOAD DIV MUL DUP4 MSTORE SWAP2 PUSH1 0x20 ADD SWAP2 PUSH2 0x170 JUMP JUMPDEST DUP3 ADD SWAP2 SWAP1 PUSH0 MSTORE PUSH1 0x20 PUSH0 KECCAK256 SWAP1 JUMPDEST DUP2 SLOAD DUP2 MSTORE SWAP1 PUSH1 0x1 ADD SWAP1 PUSH1 0x20 ADD DUP1 DUP4 GT PUSH2 0x153 JUMPI DUP3 SWAP1 SUB PUSH1 0x1F AND DUP3 ADD SWAP2 JUMPDEST POP POP POP POP POP SWAP1 DUP1 PUSH1 0x1 ADD DUP1 SLOAD PUSH2 0x185 SWAP1 PUSH2 0xAF8 JUMP JUMPDEST DUP1 PUSH1 0x1F ADD PUSH1 0x20 DUP1 SWAP2 DIV MUL PUSH1 0x20 ADD PUSH1 0x40 MLOAD SWAP1 DUP2 ADD PUSH1 0x40 MSTORE DUP1 SWAP3 SWAP2 SWAP1 DUP2 DUP2 MSTORE PUSH1 0x20 ADD DUP3 DUP1 SLOAD PUSH2 0x1B1 SWAP1 PUSH2 0xAF8 JUMP JUMPDEST DUP1 ISZERO PUSH2 0x1FC JUMPI DUP1 PUSH1 0x1F LT PUSH2 0x1D3 JUMPI PUSH2 0x100 DUP1 DUP4 SLOAD DIV MUL DUP4 MSTORE SWAP2 PUSH1 0x20 ADD SWAP2 PUSH2 0x1FC JUMP JUMPDEST DUP3 ADD SWAP2 SWAP1 PUSH0 MSTORE PUSH1 0x20 PUSH0 KECCAK256 SWAP1 JUMPDEST DUP2 SLOAD DUP2 MSTORE SWAP1 PUSH1 0x1 ADD SWAP1 PUSH1 0x20 ADD DUP1 DUP4 GT PUSH2 0x1DF JUMPI DUP3 SWAP1 SUB PUSH1 0x1F AND DUP3 ADD SWAP2 JUMPDEST POP POP POP POP POP SWAP1 DUP1 PUSH1 0x2 ADD PUSH0 SWAP1 SLOAD SWAP1 PUSH2 0x100 EXP SWAP1 DIV PUSH8 0xFFFFFFFFFFFFFFFF AND SWAP1 DUP1 PUSH1 0x2 ADD PUSH1 0x8 SWAP1 SLOAD SWAP1 PUSH2 0x100 EXP SWAP1 DIV PUSH8 0xFFFFFFFFFFFFFFFF AND SWAP1 DUP1 PUSH1 0x3 ADD DUP1 SLOAD PUSH2 0x244 SWAP1 PUSH2 0xAF8 JUMP JUMPDEST DUP1 PUSH1 0x1F ADD PUSH1 0x20 DUP1 SWAP2 DIV MUL PUSH1 0x20 ADD PUSH1 0x40 MLOAD SWAP1 DUP2 ADD PUSH1 0x40 MSTORE DUP1 SWAP3 SWAP2 SWAP1 DUP2 DUP2 MSTORE PUSH1 0x20 ADD DUP3 DUP1 SLOAD PUSH2 0x270 SWAP1 PUSH2 0xAF8 JUMP JUMPDEST DUP1 ISZERO PUSH2 0x2BB JUMPI DUP1 PUSH1 0x1F LT PUSH2 0x292 JUMPI PUSH2 0x100 DUP1 DUP4 SLOAD DIV MUL DUP4 MSTORE SWAP2 PUSH1 0x20 ADD SWAP2 PUSH2 0x2BB JUMP JUMPDEST DUP3 ADD SWAP2 SWAP1 PUSH0 MSTORE PUSH1 0x20 PUSH0 KECCAK256 SWAP1 JUMPDEST DUP2 SLOAD DUP2 MSTORE SWAP1 PUSH1 0x1 ADD SWAP1 PUSH1 0x20 ADD DUP1 DUP4 GT PUSH2 0x29E JUMPI DUP3 SWAP1 SUB PUSH1 0x1F AND DUP3 ADD SWAP2 JUMPDEST POP POP POP POP POP SWAP1 DUP1 PUSH1 0x4 ADD DUP1 SLOAD PUSH2 0x2D0 SWAP1 PUSH2 0xAF8 JUMP JUMPDEST DUP1 PUSH1 0x1F ADD PUSH1 0x20 DUP1 SWAP2 DIV MUL PUSH1 0x20 ADD PUSH1 0x40 MLOAD SWAP1 DUP2 ADD PUSH1 0x40 MSTORE DUP1 SWAP3 SWAP2 SWAP1 DUP2 DUP2 MSTORE PUSH1 0x20 ADD DUP3 DUP1 SLOAD PUSH2 0x2FC SWAP1 PUSH2 0xAF8 JUMP JUMPDEST DUP1 ISZERO PUSH2 0x347 JUMPI DUP1 PUSH1 0x1F LT PUSH2 0x31E JUMPI PUSH2 0x100 DUP1 DUP4 SLOAD DIV MUL DUP4 MSTORE SWAP2 PUSH1 0x20 ADD SWAP2 PUSH2 0x347 JUMP JUMPDEST DUP3 ADD SWAP2 SWAP1 PUSH0 MSTORE PUSH1 0x20 PUSH0 KECCAK256 SWAP1 JUMPDEST DUP2 SLOAD DUP2 MSTORE SWAP1 PUSH1 0x1 ADD SWAP1 PUSH1 0x20 ADD DUP1 DUP4 GT PUSH2 0x32A JUMPI DUP3 SWAP1 SUB PUSH1 0x1F AND DUP3 ADD SWAP2 JUMPDEST POP POP POP POP POP SWAP1 POP DUP7 JUMP JUMPDEST PUSH1 0x60 PUSH0 PUSH1 0x60 PUSH0 DUP1 PUSH0 CALLER PUSH20 0xFFFFFFFFFFFFFFFFFFFFFFFFFFFFFFFFFFFFFFFF AND PUSH20 0xFFFFFFFFFFFFFFFFFFFFFFFFFFFFFFFFFFFFFFFF AND DUP2 MSTORE PUSH1 0x20 ADD SWAP1 DUP2 MSTORE PUSH1 0x20 ADD PUSH0 KECCAK256 SWAP1 POP DUP1 PUSH0 ADD DUP2 PUSH1 0x2 ADD PUSH1 0x8 SWAP1 SLOAD SWAP1 PUSH2 0x100 EXP SWAP1 DIV PUSH8 0xFFFFFFFFFFFFFFFF AND DUP3 PUSH1 0x4 ADD DUP3 DUP1 SLOAD PUSH2 0x3C1 SWAP1 PUSH2 0xAF8 JUMP JUMPDEST DUP1 PUSH1 0x1F ADD PUSH1 0x20 DUP1 SWAP2 DIV MUL PUSH1 0x20 ADD PUSH1 0x40 MLOAD SWAP1 DUP2 ADD PUSH1 0x40 MSTORE DUP1 SWAP3 SWAP2 SWAP1 DUP2 DUP2 MSTORE PUSH1 0x20 ADD DUP3 DUP1 SLOAD PUSH2 0x3ED SWAP1 PUSH2 0xAF8 JUMP JUMPDEST DUP1 ISZERO PUSH2 0x438 JUMPI DUP1 PUSH1 0x1F LT PUSH2 0x40F JUMPI PUSH2 0x100 DUP1 DUP4 SLOAD DIV MUL DUP4 MSTORE SWAP2 PUSH1 0x20 ADD SWAP2 PUSH2 0x438 JUMP JUMPDEST DUP3 ADD SWAP2 SWAP1 PUSH0 MSTORE PUSH1 0x20 PUSH0 KECCAK256 SWAP1 JUMPDEST DUP2 SLOAD DUP2 MSTORE SWAP1 PUSH1 0x1 ADD SWAP1 PUSH1 0x20 ADD DUP1 DUP4 GT PUSH2 0x41B JUMPI DUP3 SWAP1 SUB PUSH1 0x1F AND DUP3 ADD SWAP2 JUMPDEST POP POP POP POP POP SWAP3 POP DUP1 DUP1 SLOAD PUSH2 0x44B SWAP1 PUSH2 0xAF8 JUMP JUMPDEST DUP1 PUSH1 0x1F ADD PUSH1 0x20 DUP1 SWAP2 DIV MUL PUSH1 0x20 ADD PUSH1 0x40 MLOAD SWAP1 DUP2 ADD PUSH1 0x40 MSTORE DUP1 SWAP3 SWAP2 SWAP1 DUP2 DUP2 MSTORE PUSH1 0x20 ADD DUP3 DUP1 SLOAD PUSH2 0x477 SWAP1 PUSH2 0xAF8 JUMP JUMPDEST DUP1 ISZERO PUSH2 0x4C2 JUMPI DUP1 PUSH1 0x1F LT PUSH2 0x499 JUMPI PUSH2 0x100 DUP1 DUP4 SLOAD DIV MUL DUP4 MSTORE SWAP2 PUSH1 0x20 ADD SWAP2 PUSH2 0x4C2 JUMP JUMPDEST DUP3 ADD SWAP2 SWAP1 PUSH0 MSTORE PUSH1 0x20 PUSH0 KECCAK256 SWAP1 JUMPDEST DUP2 SLOAD DUP2 MSTORE SWAP1 PUSH1 0x1 ADD SWAP1 PUSH1 0x20 ADD DUP1 DUP4 GT PUSH2 0x4A5 JUMPI DUP3 SWAP1 SUB PUSH1 0x1F AND DUP3 ADD SWAP2 JUMPDEST POP POP POP POP POP SWAP1 POP SWAP4 POP SWAP4 POP SWAP4 POP POP SWAP1 SWAP2 SWAP3 JUMP JUMPDEST PUSH1 0x40 MLOAD DUP1 PUSH1 0xC0 ADD PUSH1 0x40 MSTORE DUP1 DUP8 DUP2 MSTORE PUSH1 0x20 ADD DUP7 DUP2 MSTORE PUSH1 0x20 ADD DUP6 PUSH8 0xFFFFFFFFFFFFFFFF AND DUP2 MSTORE PUSH1 0x20 ADD DUP5 PUSH8 0xFFFFFFFFFFFFFFFF AND DUP2 MSTORE PUSH1 0x20 ADD DUP4 DUP2 MSTORE PUSH1 0x20 ADD DUP3 DUP2 MSTORE POP PUSH0 DUP1 CALLER PUSH20 0xFFFFFFFFFFFFFFFFFFFFFFFFFFFFFFFFFFFFFFFF AND PUSH20 0xFFFFFFFFFFFFFFFFFFFFFFFFFFFFFFFFFFFFFFFF AND DUP2 MSTORE PUSH1 0x20 ADD SWAP1 DUP2 MSTORE PUSH1 0x20 ADD PUSH0 KECCAK256 PUSH0 DUP3 ADD MLOAD DUP2 PUSH0 ADD SWAP1 DUP2 PUSH2 0x565 SWAP2 SWAP1 PUSH2 0xCCE JUMP JUMPDEST POP PUSH1 0x20 DUP3 ADD MLOAD DUP2 PUSH1 0x1 ADD SWAP1 DUP2 PUSH2 0x57B SWAP2 SWAP1 PUSH2 0xCCE JUMP JUMPDEST POP PUSH1 0x40 DUP3 ADD MLOAD DUP2 PUSH1 0x2 ADD PUSH0 PUSH2 0x100 EXP DUP2 SLOAD DUP2 PUSH8 0xFFFFFFFFFFFFFFFF MUL NOT AND SWAP1 DUP4 PUSH8 0xFFFFFFFFFFFFFFFF AND MUL OR SWAP1 SSTORE POP PUSH1 0x60 DUP3 ADD MLOAD DUP2 PUSH1 0x2 ADD PUSH1 0x8 PUSH2 0x100 EXP DUP2 SLOAD DUP2 PUSH8 0xFFFFFFFFFFFFFFFF MUL NOT AND SWAP1 DUP4 PUSH8 0xFFFFFFFFFFFFFFFF AND MUL OR SWAP1 SSTORE POP PUSH1 0x80 DUP3 ADD MLOAD DUP2 PUSH1 0x3 ADD SWAP1 DUP2 PUSH2 0x5EE SWAP2 SWAP1 PUSH2 0xCCE JUMP JUMPDEST POP PUSH1 0xA0 DUP3 ADD MLOAD DUP2 PUSH1 0x4 ADD SWAP1 DUP2 PUSH2 0x604 SWAP2 SWAP1 PUSH2 0xCCE JUMP JUMPDEST POP SWAP1 POP POP POP POP POP POP POP POP JUMP JUMPDEST PUSH0 DUP1 PUSH0 CALLER PUSH20 0xFFFFFFFFFFFFFFFFFFFFFFFFFFFFFFFFFFFFFFFF AND PUSH20 0xFFFFFFFFFFFFFFFFFFFFFFFFFFFFFFFFFFFFFFFF AND DUP2 MSTORE PUSH1 0x20 ADD SWAP1 DUP2 MSTORE PUSH1 0x20 ADD PUSH0 KECCAK256 SWAP1 POP DUP3 DUP2 PUSH1 0x3 ADD SWAP1 DUP2 PUSH2 0x660 SWAP2 SWAP1 PUSH2 0xCCE JUMP JUMPDEST POP DUP2 DUP2 PUSH1 0x4 ADD SWAP1 DUP2 PUSH2 0x672 SWAP2 SWAP1 PUSH2 0xCCE JUMP JUMPDEST POP POP POP POP POP POP POP POP JUMP JUMPDEST PUSH0 PUSH1 0x40 MLOAD SWAP1 POP SWAP1 JUMP JUMPDEST PUSH0 DUP1 REVERT JUMPDEST PUSH0 DUP1 REVERT JUMPDEST PUSH0 PUSH20 0xFFFFFFFFFFFFFFFFFFFFFFFFFFFFFFFFFFFFFFFF DUP3 AND SWAP1 POP SWAP2 SWAP1 POP JUMP JUMPDEST PUSH0 PUSH2 0x6B6 DUP3 PUSH2 0x68D JUMP JUMPDEST SWAP1 POP SWAP2 SWAP1 POP JUMP JUMPDEST PUSH2 0x6C6 DUP2 PUSH2 0x6AC JUMP JUMPDEST DUP2 EQ PUSH2 0x6D0 JUMPI PUSH0 DUP1 REVERT JUMPDEST POP JUMP JUMPDEST PUSH0 DUP2 CALLDATALOAD SWAP1 POP PUSH2 0x6E1 DUP2 PUSH2 0x6BD JUMP JUMPDEST SWAP3 SWAP2 POP POP JUMP JUMPDEST PUSH0 PUSH1 0x20 DUP3 DUP5 SUB SLT ISZERO PUSH2 0x6FC JUMPI PUSH2 0x6FB PUSH2 0x685 JUMP JUMPDEST JUMPDEST PUSH0 PUSH2 0x709 DUP5 DUP3 DUP6 ADD PUSH2 0x6D3 JUMP JUMPDEST SWAP2 POP POP SWAP3 SWAP2 POP POP JUMP JUMPDEST PUSH0 DUP2 MLOAD SWAP1 POP SWAP2 SWAP1 POP JUMP JUMPDEST PUSH0 DUP3 DUP3 MSTORE PUSH1 0x20 DUP3 ADD SWAP1 POP SWAP3 SWAP2 POP POP JUMP JUMPDEST PUSH0 JUMPDEST DUP4 DUP2 LT ISZERO PUSH2 0x749 JUMPI DUP1 DUP3 ADD MLOAD DUP2 DUP5 ADD MSTORE PUSH1 0x20 DUP2 ADD SWAP1 POP PUSH2 0x72E JUMP JUMPDEST PUSH0 DUP5 DUP5 ADD MSTORE POP POP POP POP JUMP JUMPDEST PUSH0 PUSH1 0x1F NOT PUSH1 0x1F DUP4 ADD AND SWAP1 POP SWAP2 SWAP1 POP JUMP JUMPDEST PUSH0 PUSH2 0x76E DUP3 PUSH2 0x712 JUMP JUMPDEST PUSH2 0x778 DUP2 DUP6 PUSH2 0x71C JUMP JUMPDEST SWAP4 POP PUSH2 0x788 DUP2 DUP6 PUSH1 0x20 DUP7 ADD PUSH2 0x72C JUMP JUMPDEST PUSH2 0x791 DUP2 PUSH2 0x754 JUMP JUMPDEST DUP5 ADD SWAP2 POP POP SWAP3 SWAP2 POP POP JUMP JUMPDEST PUSH0 PUSH8 0xFFFFFFFFFFFFFFFF DUP3 AND SWAP1 POP SWAP2 SWAP1 POP JUMP JUMPDEST PUSH2 0x7B8 DUP2 PUSH2 0x79C JUMP JUMPDEST DUP3 MSTORE POP POP JUMP JUMPDEST PUSH0 PUSH1 0xC0 DUP3 ADD SWAP1 POP DUP2 DUP2 SUB PUSH0 DUP4 ADD MSTORE PUSH2 0x7D6 DUP2 DUP10 PUSH2 0x764 JUMP JUMPDEST SWAP1 POP DUP2 DUP2 SUB PUSH1 0x20 DUP4 ADD MSTORE PUSH2 0x7EA DUP2 DUP9 PUSH2 0x764 JUMP JUMPDEST SWAP1 POP PUSH2 0x7F9 PUSH1 0x40 DUP4 ADD DUP8 PUSH2 0x7AF JUMP JUMPDEST PUSH2 0x806 PUSH1 0x60 DUP4 ADD DUP7 PUSH2 0x7AF JUMP JUMPDEST DUP2 DUP2 SUB PUSH1 0x80 DUP4 ADD MSTORE PUSH2 0x818 DUP2 DUP6 PUSH2 0x764 JUMP JUMPDEST SWAP1 POP DUP2 DUP2 SUB PUSH1 0xA0 DUP4 ADD MSTORE PUSH2 0x82C DUP2 DUP5 PUSH2 0x764 JUMP JUMPDEST SWAP1 POP SWAP8 SWAP7 POP POP POP POP POP POP POP JUMP JUMPDEST PUSH0 PUSH1 0x60 DUP3 ADD SWAP1 POP DUP2 DUP2 SUB PUSH0 DUP4 ADD MSTORE PUSH2 0x851 DUP2 DUP7 PUSH2 0x764 JUMP JUMPDEST SWAP1 POP PUSH2 0x860 PUSH1 0x20 DUP4 ADD DUP6 PUSH2 0x7AF JUMP JUMPDEST DUP2 DUP2 SUB PUSH1 0x40 DUP4 ADD MSTORE PUSH2 0x872 DUP2 DUP5 PUSH2 0x764 JUMP JUMPDEST SWAP1 POP SWAP5 SWAP4 POP POP POP POP JUMP JUMPDEST PUSH0 DUP1 REVERT JUMPDEST PUSH0 DUP1 REVERT JUMPDEST PUSH32 0x4E487B7100000000000000000000000000000000000000000000000000000000 PUSH0 MSTORE PUSH1 0x41 PUSH1 0x4 MSTORE PUSH1 0x24 PUSH0 REVERT JUMPDEST PUSH2 0x8BA DUP3 PUSH2 0x754 JUMP JUMPDEST DUP2 ADD DUP2 DUP2 LT PUSH8 0xFFFFFFFFFFFFFFFF DUP3 GT OR ISZERO PUSH2 0x8D9 JUMPI PUSH2 0x8D8 PUSH2 0x884 JUMP JUMPDEST JUMPDEST DUP1 PUSH1 0x40 MSTORE POP POP POP JUMP JUMPDEST PUSH0 PUSH2 0x8EB PUSH2 0x67C JUMP JUMPDEST SWAP1 POP PUSH2 0x8F7 DUP3 DUP3 PUSH2 0x8B1 JUMP JUMPDEST SWAP2 SWAP1 POP JUMP JUMPDEST PUSH0 PUSH8 0xFFFFFFFFFFFFFFFF DUP3 GT ISZERO PUSH2 0x916 JUMPI PUSH2 0x915 PUSH2 0x884 JUMP JUMPDEST JUMPDEST PUSH2 0x91F DUP3 PUSH2 0x754 JUMP JUMPDEST SWAP1 POP PUSH1 0x20 DUP2 ADD SWAP1 POP SWAP2 SWAP1 POP JUMP JUMPDEST DUP3 DUP2 DUP4 CALLDATACOPY PUSH0 DUP4 DUP4 ADD MSTORE POP POP POP JUMP JUMPDEST PUSH0 PUSH2 0x94C PUSH2 0x947 DUP5 PUSH2 0x8FC JUMP JUMPDEST PUSH2 0x8E2 JUMP JUMPDEST SWAP1 POP DUP3 DUP2 MSTORE PUSH1 0x20 DUP2 ADD DUP5 DUP5 DUP5 ADD GT ISZERO PUSH2 0x968 JUMPI PUSH2 0x967 PUSH2 0x880 JUMP JUMPDEST JUMPDEST PUSH2 0x973 DUP5 DUP3 DUP6 PUSH2 0x92C JUMP JUMPDEST POP SWAP4 SWAP3 POP POP POP JUMP JUMPDEST PUSH0 DUP3 PUSH1 0x1F DUP4 ADD SLT PUSH2 0x98F JUMPI PUSH2 0x98E PUSH2 0x87C JUMP JUMPDEST JUMPDEST DUP2 CALLDATALOAD PUSH2 0x99F DUP5 DUP3 PUSH1 0x20 DUP7 ADD PUSH2 0x93A JUMP JUMPDEST SWAP2 POP POP SWAP3 SWAP2 POP POP JUMP JUMPDEST PUSH2 0x9B1 DUP2 PUSH2 0x79C JUMP JUMPDEST DUP2 EQ PUSH2 0x9BB JUMPI PUSH0 DUP1 REVERT JUMPDEST POP JUMP JUMPDEST PUSH0 DUP2 CALLDATALOAD SWAP1 POP PUSH2 0x9CC DUP2 PUSH2 0x9A8 JUMP JUMPDEST SWAP3 SWAP2 POP POP JUMP JUMPDEST PUSH0 DUP1 PUSH0 DUP1 PUSH0 DUP1 PUSH1 0xC0 DUP8 DUP10 SUB SLT ISZERO PUSH2 0x9EC JUMPI PUSH2 0x9EB PUSH2 0x685 JUMP JUMPDEST JUMPDEST PUSH0 DUP8 ADD CALLDATALOAD PUSH8 0xFFFFFFFFFFFFFFFF DUP2 GT ISZERO PUSH2 0xA09 JUMPI PUSH2 0xA08 PUSH2 0x689 JUMP JUMPDEST JUMPDEST PUSH2 0xA15 DUP10 DUP3 DUP11 ADD PUSH2 0x97B JUMP JUMPDEST SWAP7 POP POP PUSH1 0x20 DUP8 ADD CALLDATALOAD PUSH8 0xFFFFFFFFFFFFFFFF DUP2 GT ISZERO PUSH2 0xA36 JUMPI PUSH2 0xA35 PUSH2 0x689 JUMP JUMPDEST JUMPDEST PUSH2 0xA42 DUP10 DUP3 DUP11 ADD PUSH2 0x97B JUMP JUMPDEST SWAP6 POP POP PUSH1 0x40 PUSH2 0xA53 DUP10 DUP3 DUP11 ADD PUSH2 0x9BE JUMP JUMPDEST SWAP5 POP POP PUSH1 0x60 PUSH2 0xA64 DUP10 DUP3 DUP11 ADD PUSH2 0x9BE JUMP JUMPDEST SWAP4 POP POP PUSH1 0x80 DUP8 ADD CALLDATALOAD PUSH8 0xFFFFFFFFFFFFFFFF DUP2 GT ISZERO PUSH2 0xA85 JUMPI PUSH2 0xA84 PUSH2 0x689 JUMP JUMPDEST JUMPDEST PUSH2 0xA91 DUP10 DUP3 DUP11 ADD PUSH2 0x97B JUMP JUMPDEST SWAP3 POP POP PUSH1 0xA0 DUP8 ADD CALLDATALOAD PUSH8 0xFFFFFFFFFFFFFFFF DUP2 GT ISZERO PUSH2 0xAB2 JUMPI PUSH2 0xAB1 PUSH2 0x689 JUMP JUMPDEST JUMPDEST PUSH2 0xABE DUP10 DUP3 DUP11 ADD PUSH2 0x97B JUMP JUMPDEST SWAP2 POP POP SWAP3 SWAP6 POP SWAP3 SWAP6 POP SWAP3 SWAP6 JUMP JUMPDEST PUSH32 0x4E487B7100000000000000000000000000000000000000000000000000000000 PUSH0 MSTORE PUSH1 0x22 PUSH1 0x4 MSTORE PUSH1 0x24 PUSH0 REVERT JUMPDEST PUSH0 PUSH1 0x2 DUP3 DIV SWAP1 POP PUSH1 0x1 DUP3 AND DUP1 PUSH2 0xB0F JUMPI PUSH1 0x7F DUP3 AND SWAP2 POP JUMPDEST PUSH1 0x20 DUP3 LT DUP2 SUB PUSH2 0xB22 JUMPI PUSH2 0xB21 PUSH2 0xACB JUMP JUMPDEST JUMPDEST POP SWAP2 SWAP1 POP JUMP JUMPDEST PUSH0 DUP2 SWAP1 POP DUP2 PUSH0 MSTORE PUSH1 0x20 PUSH0 KECCAK256 SWAP1 POP SWAP2 SWAP1 POP JUMP JUMPDEST PUSH0 PUSH1 0x20 PUSH1 0x1F DUP4 ADD DIV SWAP1 POP SWAP2 SWAP1 POP JUMP JUMPDEST PUSH0 DUP3 DUP3 SHL SWAP1 POP SWAP3 SWAP2 POP POP JUMP JUMPDEST PUSH0 PUSH1 0x8 DUP4 MUL PUSH2 0xB84 PUSH32 0xFFFFFFFFFFFFFFFFFFFFFFFFFFFFFFFFFFFFFFFFFFFFFFFFFFFFFFFFFFFFFFFF DUP3 PUSH2 0xB49 JUMP JUMPDEST PUSH2 0xB8E DUP7 DUP4 PUSH2 0xB49 JUMP JUMPDEST SWAP6 POP DUP1 NOT DUP5 AND SWAP4 POP DUP1 DUP7 AND DUP5 OR SWAP3 POP POP POP SWAP4 SWAP3 POP POP POP JUMP JUMPDEST PUSH0 DUP2 SWAP1 POP SWAP2 SWAP1 POP JUMP JUMPDEST PUSH0 DUP2 SWAP1 POP SWAP2 SWAP1 POP JUMP JUMPDEST PUSH0 PUSH2 0xBD2 PUSH2 0xBCD PUSH2 0xBC8 DUP5 PUSH2 0xBA6 JUMP JUMPDEST PUSH2 0xBAF JUMP JUMPDEST PUSH2 0xBA6 JUMP JUMPDEST SWAP1 POP SWAP2 SWAP1 POP JUMP JUMPDEST PUSH0 DUP2 SWAP1 POP SWAP2 SWAP1 POP JUMP JUMPDEST PUSH2 0xBEB DUP4 PUSH2 0xBB8 JUMP JUMPDEST PUSH2 0xBFF PUSH2 0xBF7 DUP3 PUSH2 0xBD9 JUMP JUMPDEST DUP5 DUP5 SLOAD PUSH2 0xB55 JUMP JUMPDEST DUP3 SSTORE POP POP POP POP JUMP JUMPDEST PUSH0 SWAP1 JUMP JUMPDEST PUSH2 0xC13 PUSH2 0xC07 JUMP JUMPDEST PUSH2 0xC1E DUP2 DUP5 DUP5 PUSH2 0xBE2 JUMP JUMPDEST POP POP POP JUMP JUMPDEST JUMPDEST DUP2 DUP2 LT ISZERO PUSH2 0xC41 JUMPI PUSH2 0xC36 PUSH0 DUP3 PUSH2 0xC0B JUMP JUMPDEST PUSH1 0x1 DUP2 ADD SWAP1 POP PUSH2 0xC24 JUMP JUMPDEST POP POP JUMP JUMPDEST PUSH1 0x1F DUP3 GT ISZERO PUSH2 0xC86 JUMPI PUSH2 0xC57 DUP2 PUSH2 0xB28 JUMP JUMPDEST PUSH2 0xC60 DUP5 PUSH2 0xB3A JUMP JUMPDEST DUP2 ADD PUSH1 0x20 DUP6 LT ISZERO PUSH2 0xC6F JUMPI DUP2 SWAP1 POP JUMPDEST PUSH2 0xC83 PUSH2 0xC7B DUP6 PUSH2 0xB3A JUMP JUMPDEST DUP4 ADD DUP3 PUSH2 0xC23 JUMP JUMPDEST POP POP JUMPDEST POP POP POP JUMP JUMPDEST PUSH0 DUP3 DUP3 SHR SWAP1 POP SWAP3 SWAP2 POP POP JUMP JUMPDEST PUSH0 PUSH2 0xCA6 PUSH0 NOT DUP5 PUSH1 0x8 MUL PUSH2 0xC8B JUMP JUMPDEST NOT DUP1 DUP4 AND SWAP2 POP POP SWAP3 SWAP2 POP POP JUMP JUMPDEST PUSH0 PUSH2 0xCBE DUP4 DUP4 PUSH2 0xC97 JUMP JUMPDEST SWAP2 POP DUP3 PUSH1 0x2 MUL DUP3 OR SWAP1 POP SWAP3 SWAP2 POP POP JUMP JUMPDEST PUSH2 0xCD7 DUP3 PUSH2 0x712 JUMP JUMPDEST PUSH8 0xFFFFFFFFFFFFFFFF DUP2 GT ISZERO PUSH2 0xCF0 JUMPI PUSH2 0xCEF PUSH2 0x884 JUMP JUMPDEST JUMPDEST PUSH2 0xCFA DUP3 SLOAD PUSH2 0xAF8 JUMP JUMPDEST PUSH2 0xD05 DUP3 DUP3 DUP6 PUSH2 0xC45 JUMP JUMPDEST PUSH0 PUSH1 0x20 SWAP1 POP PUSH1 0x1F DUP4 GT PUSH1 0x1 DUP2 EQ PUSH2 0xD36 JUMPI PUSH0 DUP5 ISZERO PUSH2 0xD24 JUMPI DUP3 DUP8 ADD MLOAD SWAP1 POP JUMPDEST PUSH2 0xD2E DUP6 DUP3 PUSH2 0xCB3 JUMP JUMPDEST DUP7 SSTORE POP PUSH2 0xD95 JUMP JUMPDEST PUSH1 0x1F NOT DUP5 AND PUSH2 0xD44 DUP7 PUSH2 0xB28 JUMP JUMPDEST PUSH0 JUMPDEST DUP3 DUP2 LT ISZERO PUSH2 0xD6B JUMPI DUP5 DUP10 ADD MLOAD DUP3 SSTORE PUSH1 0x1 DUP3 ADD SWAP2 POP PUSH1 0x20 DUP6 ADD SWAP5 POP PUSH1 0x20 DUP2 ADD SWAP1 POP PUSH2 0xD46 JUMP JUMPDEST DUP7 DUP4 LT ISZERO PUSH2 0xD88 JUMPI DUP5 DUP10 ADD MLOAD PUSH2 0xD84 PUSH1 0x1F DUP10 AND DUP3 PUSH2 0xC97 JUMP JUMPDEST DUP4 SSTORE POP JUMPDEST PUSH1 0x1 PUSH1 0x2 DUP9 MUL ADD DUP9 SSTORE POP POP POP JUMPDEST POP POP POP POP POP POP JUMP INVALID LOG2 PUSH5 0x6970667358 0x22 SLT KECCAK256 0x2A MSTORE8 0x28 0x5C 0xE2 BASEFEE SWAP16 PUSH23 0x96E0188B20A57B043887D56B71AFED7DDE994268E95E64 EXTCODECOPY PUSH5 0x736F6C6343 STOP ADDMOD AND STOP CALLER "
				},
				"gasEstimates": {
					"creation": {
						"codeDepositCost": "707800",
						"executionCost": "infinite",
						"totalCost": "infinite"
					},
					"external": {
						"getCustomerInfo()": "infinite",
						"registerCustomer(string,string,uint64,uint64,string,string)": "infinite",
						"updateCustomerInfo(string,string,uint64,uint64,string,string)": "infinite",
						"users(address)": "infinite"
					}
				},
				"methodIdentifiers": {
					"getCustomerInfo()": "b9737031",
					"registerCustomer(string,string,uint64,uint64,string,string)": "bfe051b7",
					"updateCustomerInfo(string,string,uint64,uint64,string,string)": "dfba8238",
					"users(address)": "a87430ba"
				}
			},
			"storageLayout": {
				"storage": [
					{
						"astId": 143,
						"contract": "contracts/cont.sol:user",
						"label": "users",
						"offset": 0,
						"slot": "0",
						"type": "t_mapping(t_address,t_struct(UserInfo)138_storage)"
					},
					{
						"astId": 146,
						"contract": "contracts/cont.sol:user",
						"label": "_store",
						"offset": 0,
						"slot": "1",
						"type": "t_contract(DataObjectStore)125"
					}
				],
				"types": {
					"t_address": {
						"encoding": "inplace",
						"label": "address",
						"numberOfBytes": "20"
					},
					"t_contract(DataObjectStore)125": {
						"encoding": "inplace",
						"label": "contract DataObjectStore",
						"numberOfBytes": "20"
					},
					"t_mapping(t_address,t_struct(UserInfo)138_storage)": {
						"encoding": "mapping",
						"key": "t_address",
						"label": "mapping(address => struct user.UserInfo)",
						"numberOfBytes": "32",
						"value": "t_struct(UserInfo)138_storage"
					},
					"t_string_storage": {
						"encoding": "bytes",
						"label": "string",
						"numberOfBytes": "32"
					},
					"t_struct(UserInfo)138_storage": {
						"encoding": "inplace",
						"label": "struct user.UserInfo",
						"members": [
							{
								"astId": 127,
								"contract": "contracts/cont.sol:user",
								"label": "name",
								"offset": 0,
								"slot": "0",
								"type": "t_string_storage"
							},
							{
								"astId": 129,
								"contract": "contracts/cont.sol:user",
								"label": "surname",
								"offset": 0,
								"slot": "1",
								"type": "t_string_storage"
							},
							{
								"astId": 131,
								"contract": "contracts/cont.sol:user",
								"label": "userId",
								"offset": 0,
								"slot": "2",
								"type": "t_uint64"
							},
							{
								"astId": 133,
								"contract": "contracts/cont.sol:user",
								"label": "age",
								"offset": 8,
								"slot": "2",
								"type": "t_uint64"
							},
							{
								"astId": 135,
								"contract": "contracts/cont.sol:user",
								"label": "email",
								"offset": 0,
								"slot": "3",
								"type": "t_string_storage"
							},
							{
								"astId": 137,
								"contract": "contracts/cont.sol:user",
								"label": "addres",
								"offset": 0,
								"slot": "4",
								"type": "t_string_storage"
							}
						],
						"numberOfBytes": "160"
					},
					"t_uint64": {
						"encoding": "inplace",
						"label": "uint64",
						"numberOfBytes": "8"
					}
				}
			},
			"userdoc": {
				"kind": "user",
				"methods": {},
				"version": 1
			}
		}
	}
}