{
	"contracts/cont.sol": {
		"DataObjectStore": {
			"abi": [
				{
					"inputs": [
						{
							"internalType": "contract Lands",
							"name": "landsContract",
							"type": "address"
						}
					],
					"stateMutability": "nonpayable",
					"type": "constructor"
				},
				{
					"inputs": [],
					"name": "createInstance",
					"outputs": [
						{
							"internalType": "uint64",
							"name": "",
							"type": "uint64"
						}
					],
					"stateMutability": "nonpayable",
					"type": "function"
				},
				{
					"inputs": [
						{
							"internalType": "string",
							"name": "identifier",
							"type": "string"
						}
					],
					"name": "getDataObject",
					"outputs": [
						{
							"internalType": "address",
							"name": "",
							"type": "address"
						}
					],
					"stateMutability": "view",
					"type": "function"
				},
				{
					"inputs": [
						{
							"internalType": "uint64",
							"name": "id",
							"type": "uint64"
						},
						{
							"internalType": "string",
							"name": "identifier",
							"type": "string"
						}
					],
					"name": "getImportedDataObject",
					"outputs": [
						{
							"internalType": "address",
							"name": "",
							"type": "address"
						}
					],
					"stateMutability": "view",
					"type": "function"
				},
				{
					"inputs": [
						{
							"internalType": "uint64",
							"name": "id",
							"type": "uint64"
						},
						{
							"internalType": "string",
							"name": "identifier",
							"type": "string"
						}
					],
					"name": "getImportedDataObjectInstance",
					"outputs": [
						{
							"internalType": "uint64",
							"name": "",
							"type": "uint64"
						}
					],
					"stateMutability": "view",
					"type": "function"
				},
				{
					"inputs": [],
					"name": "getLatestInstanceId",
					"outputs": [
						{
							"internalType": "uint64",
							"name": "",
							"type": "uint64"
						}
					],
					"stateMutability": "view",
					"type": "function"
				},
				{
					"inputs": [
						{
							"internalType": "uint64",
							"name": "id",
							"type": "uint64"
						},
						{
							"internalType": "string",
							"name": "identifier",
							"type": "string"
						},
						{
							"internalType": "address",
							"name": "dataObject",
							"type": "address"
						},
						{
							"internalType": "uint64",
							"name": "referenceId",
							"type": "uint64"
						}
					],
					"name": "importDataObject",
					"outputs": [],
					"stateMutability": "nonpayable",
					"type": "function"
				}
			],
			"devdoc": {
				"kind": "dev",
				"methods": {},
				"version": 1
			},
			"evm": {
				"assembly": "    /* \"contracts/cont.sol\":75:1328  contract DataObjectStore {... */\n  mstore(0x40, 0x80)\n    /* \"contracts/cont.sol\":316:413  constructor(Lands landsContract) {... */\n  callvalue\n  dup1\n  iszero\n  tag_1\n  jumpi\n  0x00\n  dup1\n  revert\ntag_1:\n  pop\n  mload(0x40)\n  sub(codesize, bytecodeSize)\n  dup1\n  bytecodeSize\n  dup4\n  codecopy\n  dup2\n  dup2\n  add\n  0x40\n  mstore\n  dup2\n  add\n  swap1\n  tag_2\n  swap2\n  swap1\n  tag_3\n  jump\t// in\ntag_2:\n    /* \"contracts/cont.sol\":391:404  landsContract */\n  dup1\n    /* \"contracts/cont.sol\":360:371  dataObjects */\n  0x03\n    /* \"contracts/cont.sol\":360:380  dataObjects[\"Lands\"] */\n  mload(0x40)\n  tag_6\n  swap1\n  tag_7\n  jump\t// in\ntag_6:\n  swap1\n  dup2\n  mstore\n  0x20\n  add\n  mload(0x40)\n  dup1\n  swap2\n  sub\n  swap1\n  keccak256\n  0x00\n    /* \"contracts/cont.sol\":360:405  dataObjects[\"Lands\"] = address(landsContract) */\n  0x0100\n  exp\n  dup2\n  sload\n  dup2\n  0xffffffffffffffffffffffffffffffffffffffff\n  mul\n  not\n  and\n  swap1\n  dup4\n  0xffffffffffffffffffffffffffffffffffffffff\n  and\n  mul\n  or\n  swap1\n  sstore\n  pop\n    /* \"contracts/cont.sol\":316:413  constructor(Lands landsContract) {... */\n  pop\n    /* \"contracts/cont.sol\":75:1328  contract DataObjectStore {... */\n  jump(tag_8)\n    /* \"#utility.yul\":88:205   */\ntag_10:\n    /* \"#utility.yul\":197:198   */\n  0x00\n    /* \"#utility.yul\":194:195   */\n  dup1\n    /* \"#utility.yul\":187:199   */\n  revert\n    /* \"#utility.yul\":334:460   */\ntag_12:\n    /* \"#utility.yul\":371:378   */\n  0x00\n    /* \"#utility.yul\":411:453   */\n  0xffffffffffffffffffffffffffffffffffffffff\n    /* \"#utility.yul\":404:409   */\n  dup3\n    /* \"#utility.yul\":400:454   */\n  and\n    /* \"#utility.yul\":389:454   */\n  swap1\n  pop\n    /* \"#utility.yul\":334:460   */\n  swap2\n  swap1\n  pop\n  jump\t// out\n    /* \"#utility.yul\":466:562   */\ntag_13:\n    /* \"#utility.yul\":503:510   */\n  0x00\n    /* \"#utility.yul\":532:556   */\n  tag_26\n    /* \"#utility.yul\":550:555   */\n  dup3\n    /* \"#utility.yul\":532:556   */\n  tag_12\n  jump\t// in\ntag_26:\n    /* \"#utility.yul\":521:556   */\n  swap1\n  pop\n    /* \"#utility.yul\":466:562   */\n  swap2\n  swap1\n  pop\n  jump\t// out\n    /* \"#utility.yul\":568:677   */\ntag_14:\n    /* \"#utility.yul\":618:625   */\n  0x00\n    /* \"#utility.yul\":647:671   */\n  tag_28\n    /* \"#utility.yul\":665:670   */\n  dup3\n    /* \"#utility.yul\":647:671   */\n  tag_13\n  jump\t// in\ntag_28:\n    /* \"#utility.yul\":636:671   */\n  swap1\n  pop\n    /* \"#utility.yul\":568:677   */\n  swap2\n  swap1\n  pop\n  jump\t// out\n    /* \"#utility.yul\":683:831   */\ntag_15:\n    /* \"#utility.yul\":769:806   */\n  tag_30\n    /* \"#utility.yul\":800:805   */\n  dup2\n    /* \"#utility.yul\":769:806   */\n  tag_14\n  jump\t// in\ntag_30:\n    /* \"#utility.yul\":762:767   */\n  dup2\n    /* \"#utility.yul\":759:807   */\n  eq\n    /* \"#utility.yul\":749:825   */\n  tag_31\n  jumpi\n    /* \"#utility.yul\":821:822   */\n  0x00\n    /* \"#utility.yul\":818:819   */\n  dup1\n    /* \"#utility.yul\":811:823   */\n  revert\n    /* \"#utility.yul\":749:825   */\ntag_31:\n    /* \"#utility.yul\":683:831   */\n  pop\n  jump\t// out\n    /* \"#utility.yul\":837:1006   */\ntag_16:\n    /* \"#utility.yul\":907:912   */\n  0x00\n    /* \"#utility.yul\":938:944   */\n  dup2\n    /* \"#utility.yul\":932:945   */\n  mload\n    /* \"#utility.yul\":923:945   */\n  swap1\n  pop\n    /* \"#utility.yul\":954:1000   */\n  tag_33\n    /* \"#utility.yul\":994:999   */\n  dup2\n    /* \"#utility.yul\":954:1000   */\n  tag_15\n  jump\t// in\ntag_33:\n    /* \"#utility.yul\":837:1006   */\n  swap3\n  swap2\n  pop\n  pop\n  jump\t// out\n    /* \"#utility.yul\":1012:1389   */\ntag_3:\n    /* \"#utility.yul\":1095:1101   */\n  0x00\n    /* \"#utility.yul\":1144:1146   */\n  0x20\n    /* \"#utility.yul\":1132:1141   */\n  dup3\n    /* \"#utility.yul\":1123:1130   */\n  dup5\n    /* \"#utility.yul\":1119:1142   */\n  sub\n    /* \"#utility.yul\":1115:1147   */\n  slt\n    /* \"#utility.yul\":1112:1231   */\n  iszero\n  tag_35\n  jumpi\n    /* \"#utility.yul\":1150:1229   */\n  tag_36\n  tag_10\n  jump\t// in\ntag_36:\n    /* \"#utility.yul\":1112:1231   */\ntag_35:\n    /* \"#utility.yul\":1270:1271   */\n  0x00\n    /* \"#utility.yul\":1295:1372   */\n  tag_37\n    /* \"#utility.yul\":1364:1371   */\n  dup5\n    /* \"#utility.yul\":1355:1361   */\n  dup3\n    /* \"#utility.yul\":1344:1353   */\n  dup6\n    /* \"#utility.yul\":1340:1362   */\n  add\n    /* \"#utility.yul\":1295:1372   */\n  tag_16\n  jump\t// in\ntag_37:\n    /* \"#utility.yul\":1285:1372   */\n  swap2\n  pop\n    /* \"#utility.yul\":1241:1382   */\n  pop\n    /* \"#utility.yul\":1012:1389   */\n  swap3\n  swap2\n  pop\n  pop\n  jump\t// out\n    /* \"#utility.yul\":1395:1543   */\ntag_17:\n    /* \"#utility.yul\":1497:1508   */\n  0x00\n    /* \"#utility.yul\":1534:1537   */\n  dup2\n    /* \"#utility.yul\":1519:1537   */\n  swap1\n  pop\n    /* \"#utility.yul\":1395:1543   */\n  swap3\n  swap2\n  pop\n  pop\n  jump\t// out\n    /* \"#utility.yul\":1549:1704   */\ntag_18:\n    /* \"#utility.yul\":1689:1696   */\n  0x4c616e6473000000000000000000000000000000000000000000000000000000\n    /* \"#utility.yul\":1685:1686   */\n  0x00\n    /* \"#utility.yul\":1677:1683   */\n  dup3\n    /* \"#utility.yul\":1673:1687   */\n  add\n    /* \"#utility.yul\":1666:1697   */\n  mstore\n    /* \"#utility.yul\":1549:1704   */\n  pop\n  jump\t// out\n    /* \"#utility.yul\":1710:2110   */\ntag_19:\n    /* \"#utility.yul\":1870:1873   */\n  0x00\n    /* \"#utility.yul\":1891:1975   */\n  tag_41\n    /* \"#utility.yul\":1973:1974   */\n  0x05\n    /* \"#utility.yul\":1968:1971   */\n  dup4\n    /* \"#utility.yul\":1891:1975   */\n  tag_17\n  jump\t// in\ntag_41:\n    /* \"#utility.yul\":1884:1975   */\n  swap2\n  pop\n    /* \"#utility.yul\":1984:2077   */\n  tag_42\n    /* \"#utility.yul\":2073:2076   */\n  dup3\n    /* \"#utility.yul\":1984:2077   */\n  tag_18\n  jump\t// in\ntag_42:\n    /* \"#utility.yul\":2102:2103   */\n  0x05\n    /* \"#utility.yul\":2097:2100   */\n  dup3\n    /* \"#utility.yul\":2093:2104   */\n  add\n    /* \"#utility.yul\":2086:2104   */\n  swap1\n  pop\n    /* \"#utility.yul\":1710:2110   */\n  swap2\n  swap1\n  pop\n  jump\t// out\n    /* \"#utility.yul\":2116:2497   */\ntag_7:\n    /* \"#utility.yul\":2301:2304   */\n  0x00\n    /* \"#utility.yul\":2323:2471   */\n  tag_44\n    /* \"#utility.yul\":2467:2470   */\n  dup3\n    /* \"#utility.yul\":2323:2471   */\n  tag_19\n  jump\t// in\ntag_44:\n    /* \"#utility.yul\":2316:2471   */\n  swap2\n  pop\n    /* \"#utility.yul\":2488:2491   */\n  dup2\n    /* \"#utility.yul\":2481:2491   */\n  swap1\n  pop\n    /* \"#utility.yul\":2116:2497   */\n  swap2\n  swap1\n  pop\n  jump\t// out\n    /* \"contracts/cont.sol\":75:1328  contract DataObjectStore {... */\ntag_8:\n  dataSize(sub_0)\n  dup1\n  dataOffset(sub_0)\n  0x00\n  codecopy\n  0x00\n  return\nstop\n\nsub_0: assembly {\n        /* \"contracts/cont.sol\":75:1328  contract DataObjectStore {... */\n      mstore(0x40, 0x80)\n      callvalue\n      dup1\n      iszero\n      tag_1\n      jumpi\n      0x00\n      dup1\n      revert\n    tag_1:\n      pop\n      jumpi(tag_2, lt(calldatasize, 0x04))\n      shr(0xe0, calldataload(0x00))\n      dup1\n      0x6db0159b\n      eq\n      tag_3\n      jumpi\n      dup1\n      0x89d21522\n      eq\n      tag_4\n      jumpi\n      dup1\n      0x91e44f31\n      eq\n      tag_5\n      jumpi\n      dup1\n      0xa1f8db0d\n      eq\n      tag_6\n      jumpi\n      dup1\n      0xa63043de\n      eq\n      tag_7\n      jumpi\n      dup1\n      0xad501467\n      eq\n      tag_8\n      jumpi\n    tag_2:\n      0x00\n      dup1\n      revert\n        /* \"contracts/cont.sol\":1093:1325  function importDataObject(uint64 id, string memory identifier, address dataObject, uint64 referenceId) public {... */\n    tag_3:\n      tag_9\n      0x04\n      dup1\n      calldatasize\n      sub\n      dup2\n      add\n      swap1\n      tag_10\n      swap2\n      swap1\n      tag_11\n      jump\t// in\n    tag_10:\n      tag_12\n      jump\t// in\n    tag_9:\n      stop\n        /* \"contracts/cont.sol\":517:613  function getLatestInstanceId() public view returns (uint64) {... */\n    tag_4:\n      tag_13\n      tag_14\n      jump\t// in\n    tag_13:\n      mload(0x40)\n      tag_15\n      swap2\n      swap1\n      tag_16\n      jump\t// in\n    tag_15:\n      mload(0x40)\n      dup1\n      swap2\n      sub\n      swap1\n      return\n        /* \"contracts/cont.sol\":957:1085  function getDataObject(string memory identifier) public view returns (address) {... */\n    tag_5:\n      tag_17\n      0x04\n      dup1\n      calldatasize\n      sub\n      dup2\n      add\n      swap1\n      tag_18\n      swap2\n      swap1\n      tag_19\n      jump\t// in\n    tag_18:\n      tag_20\n      jump\t// in\n    tag_17:\n      mload(0x40)\n      tag_21\n      swap2\n      swap1\n      tag_22\n      jump\t// in\n    tag_21:\n      mload(0x40)\n      dup1\n      swap2\n      sub\n      swap1\n      return\n        /* \"contracts/cont.sol\":785:949  function getImportedDataObjectInstance(uint64 id, string memory identifier) public view returns (uint64) {... */\n    tag_6:\n      tag_23\n      0x04\n      dup1\n      calldatasize\n      sub\n      dup2\n      add\n      swap1\n      tag_24\n      swap2\n      swap1\n      tag_25\n      jump\t// in\n    tag_24:\n      tag_26\n      jump\t// in\n    tag_23:\n      mload(0x40)\n      tag_27\n      swap2\n      swap1\n      tag_16\n      jump\t// in\n    tag_27:\n      mload(0x40)\n      dup1\n      swap2\n      sub\n      swap1\n      return\n        /* \"contracts/cont.sol\":621:777  function getImportedDataObject(uint64 id, string memory identifier) public view returns (address) {... */\n    tag_7:\n      tag_28\n      0x04\n      dup1\n      calldatasize\n      sub\n      dup2\n      add\n      swap1\n      tag_29\n      swap2\n      swap1\n      tag_25\n      jump\t// in\n    tag_29:\n      tag_30\n      jump\t// in\n    tag_28:\n      mload(0x40)\n      tag_31\n      swap2\n      swap1\n      tag_22\n      jump\t// in\n    tag_31:\n      mload(0x40)\n      dup1\n      swap2\n      sub\n      swap1\n      return\n        /* \"contracts/cont.sol\":421:509  function createInstance() public returns (uint64) {... */\n    tag_8:\n      tag_32\n      tag_33\n      jump\t// in\n    tag_32:\n      mload(0x40)\n      tag_34\n      swap2\n      swap1\n      tag_16\n      jump\t// in\n    tag_34:\n      mload(0x40)\n      dup1\n      swap2\n      sub\n      swap1\n      return\n        /* \"contracts/cont.sol\":1093:1325  function importDataObject(uint64 id, string memory identifier, address dataObject, uint64 referenceId) public {... */\n    tag_12:\n        /* \"contracts/cont.sol\":1249:1259  dataObject */\n      dup2\n        /* \"contracts/cont.sol\":1214:1230  importReferences */\n      0x01\n        /* \"contracts/cont.sol\":1214:1234  importReferences[id] */\n      0x00\n        /* \"contracts/cont.sol\":1231:1233  id */\n      dup7\n        /* \"contracts/cont.sol\":1214:1234  importReferences[id] */\n      0xffffffffffffffff\n      and\n      0xffffffffffffffff\n      and\n      dup2\n      mstore\n      0x20\n      add\n      swap1\n      dup2\n      mstore\n      0x20\n      add\n      0x00\n      keccak256\n        /* \"contracts/cont.sol\":1235:1245  identifier */\n      dup5\n        /* \"contracts/cont.sol\":1214:1246  importReferences[id][identifier] */\n      mload(0x40)\n      tag_36\n      swap2\n      swap1\n      tag_37\n      jump\t// in\n    tag_36:\n      swap1\n      dup2\n      mstore\n      0x20\n      add\n      mload(0x40)\n      dup1\n      swap2\n      sub\n      swap1\n      keccak256\n      0x00\n        /* \"contracts/cont.sol\":1214:1259  importReferences[id][identifier] = dataObject */\n      0x0100\n      exp\n      dup2\n      sload\n      dup2\n      0xffffffffffffffffffffffffffffffffffffffff\n      mul\n      not\n      and\n      swap1\n      dup4\n      0xffffffffffffffffffffffffffffffffffffffff\n      and\n      mul\n      or\n      swap1\n      sstore\n      pop\n        /* \"contracts/cont.sol\":1306:1317  referenceId */\n      dup1\n        /* \"contracts/cont.sol\":1270:1287  importInstanceIds */\n      0x02\n        /* \"contracts/cont.sol\":1270:1291  importInstanceIds[id] */\n      0x00\n        /* \"contracts/cont.sol\":1288:1290  id */\n      dup7\n        /* \"contracts/cont.sol\":1270:1291  importInstanceIds[id] */\n      0xffffffffffffffff\n      and\n      0xffffffffffffffff\n      and\n      dup2\n      mstore\n      0x20\n      add\n      swap1\n      dup2\n      mstore\n      0x20\n      add\n      0x00\n      keccak256\n        /* \"contracts/cont.sol\":1292:1302  identifier */\n      dup5\n        /* \"contracts/cont.sol\":1270:1303  importInstanceIds[id][identifier] */\n      mload(0x40)\n      tag_38\n      swap2\n      swap1\n      tag_37\n      jump\t// in\n    tag_38:\n      swap1\n      dup2\n      mstore\n      0x20\n      add\n      mload(0x40)\n      dup1\n      swap2\n      sub\n      swap1\n      keccak256\n      0x00\n        /* \"contracts/cont.sol\":1270:1317  importInstanceIds[id][identifier] = referenceId */\n      0x0100\n      exp\n      dup2\n      sload\n      dup2\n      0xffffffffffffffff\n      mul\n      not\n      and\n      swap1\n      dup4\n      0xffffffffffffffff\n      and\n      mul\n      or\n      swap1\n      sstore\n      pop\n        /* \"contracts/cont.sol\":1093:1325  function importDataObject(uint64 id, string memory identifier, address dataObject, uint64 referenceId) public {... */\n      pop\n      pop\n      pop\n      pop\n      jump\t// out\n        /* \"contracts/cont.sol\":517:613  function getLatestInstanceId() public view returns (uint64) {... */\n    tag_14:\n        /* \"contracts/cont.sol\":569:575  uint64 */\n      0x00\n        /* \"contracts/cont.sol\":595:605  instanceId */\n      dup1\n      0x00\n      swap1\n      sload\n      swap1\n      0x0100\n      exp\n      swap1\n      div\n      0xffffffffffffffff\n      and\n        /* \"contracts/cont.sol\":588:605  return instanceId */\n      swap1\n      pop\n        /* \"contracts/cont.sol\":517:613  function getLatestInstanceId() public view returns (uint64) {... */\n      swap1\n      jump\t// out\n        /* \"contracts/cont.sol\":957:1085  function getDataObject(string memory identifier) public view returns (address) {... */\n    tag_20:\n        /* \"contracts/cont.sol\":1027:1034  address */\n      0x00\n        /* \"contracts/cont.sol\":1054:1065  dataObjects */\n      0x03\n        /* \"contracts/cont.sol\":1066:1076  identifier */\n      dup3\n        /* \"contracts/cont.sol\":1054:1077  dataObjects[identifier] */\n      mload(0x40)\n      tag_41\n      swap2\n      swap1\n      tag_37\n      jump\t// in\n    tag_41:\n      swap1\n      dup2\n      mstore\n      0x20\n      add\n      mload(0x40)\n      dup1\n      swap2\n      sub\n      swap1\n      keccak256\n      0x00\n      swap1\n      sload\n      swap1\n      0x0100\n      exp\n      swap1\n      div\n      0xffffffffffffffffffffffffffffffffffffffff\n      and\n        /* \"contracts/cont.sol\":1047:1077  return dataObjects[identifier] */\n      swap1\n      pop\n        /* \"contracts/cont.sol\":957:1085  function getDataObject(string memory identifier) public view returns (address) {... */\n      swap2\n      swap1\n      pop\n      jump\t// out\n        /* \"contracts/cont.sol\":785:949  function getImportedDataObjectInstance(uint64 id, string memory identifier) public view returns (uint64) {... */\n    tag_26:\n        /* \"contracts/cont.sol\":882:888  uint64 */\n      0x00\n        /* \"contracts/cont.sol\":908:925  importInstanceIds */\n      0x02\n        /* \"contracts/cont.sol\":908:929  importInstanceIds[id] */\n      0x00\n        /* \"contracts/cont.sol\":926:928  id */\n      dup5\n        /* \"contracts/cont.sol\":908:929  importInstanceIds[id] */\n      0xffffffffffffffff\n      and\n      0xffffffffffffffff\n      and\n      dup2\n      mstore\n      0x20\n      add\n      swap1\n      dup2\n      mstore\n      0x20\n      add\n      0x00\n      keccak256\n        /* \"contracts/cont.sol\":930:940  identifier */\n      dup3\n        /* \"contracts/cont.sol\":908:941  importInstanceIds[id][identifier] */\n      mload(0x40)\n      tag_43\n      swap2\n      swap1\n      tag_37\n      jump\t// in\n    tag_43:\n      swap1\n      dup2\n      mstore\n      0x20\n      add\n      mload(0x40)\n      dup1\n      swap2\n      sub\n      swap1\n      keccak256\n      0x00\n      swap1\n      sload\n      swap1\n      0x0100\n      exp\n      swap1\n      div\n      0xffffffffffffffff\n      and\n        /* \"contracts/cont.sol\":901:941  return importInstanceIds[id][identifier] */\n      swap1\n      pop\n        /* \"contracts/cont.sol\":785:949  function getImportedDataObjectInstance(uint64 id, string memory identifier) public view returns (uint64) {... */\n      swap3\n      swap2\n      pop\n      pop\n      jump\t// out\n        /* \"contracts/cont.sol\":621:777  function getImportedDataObject(uint64 id, string memory identifier) public view returns (address) {... */\n    tag_30:\n        /* \"contracts/cont.sol\":710:717  address */\n      0x00\n        /* \"contracts/cont.sol\":737:753  importReferences */\n      0x01\n        /* \"contracts/cont.sol\":737:757  importReferences[id] */\n      0x00\n        /* \"contracts/cont.sol\":754:756  id */\n      dup5\n        /* \"contracts/cont.sol\":737:757  importReferences[id] */\n      0xffffffffffffffff\n      and\n      0xffffffffffffffff\n      and\n      dup2\n      mstore\n      0x20\n      add\n      swap1\n      dup2\n      mstore\n      0x20\n      add\n      0x00\n      keccak256\n        /* \"contracts/cont.sol\":758:768  identifier */\n      dup3\n        /* \"contracts/cont.sol\":737:769  importReferences[id][identifier] */\n      mload(0x40)\n      tag_45\n      swap2\n      swap1\n      tag_37\n      jump\t// in\n    tag_45:\n      swap1\n      dup2\n      mstore\n      0x20\n      add\n      mload(0x40)\n      dup1\n      swap2\n      sub\n      swap1\n      keccak256\n      0x00\n      swap1\n      sload\n      swap1\n      0x0100\n      exp\n      swap1\n      div\n      0xffffffffffffffffffffffffffffffffffffffff\n      and\n        /* \"contracts/cont.sol\":730:769  return importReferences[id][identifier] */\n      swap1\n      pop\n        /* \"contracts/cont.sol\":621:777  function getImportedDataObject(uint64 id, string memory identifier) public view returns (address) {... */\n      swap3\n      swap2\n      pop\n      pop\n      jump\t// out\n        /* \"contracts/cont.sol\":421:509  function createInstance() public returns (uint64) {... */\n    tag_33:\n        /* \"contracts/cont.sol\":463:469  uint64 */\n      0x00\n        /* \"contracts/cont.sol\":489:499  instanceId */\n      dup1\n      0x00\n        /* \"contracts/cont.sol\":489:501  instanceId++ */\n      dup2\n      dup2\n      swap1\n      sload\n      swap1\n      0x0100\n      exp\n      swap1\n      div\n      0xffffffffffffffff\n      and\n      dup1\n      swap3\n      swap2\n      swap1\n      tag_47\n      swap1\n      tag_48\n      jump\t// in\n    tag_47:\n      swap2\n      swap1\n      0x0100\n      exp\n      dup2\n      sload\n      dup2\n      0xffffffffffffffff\n      mul\n      not\n      and\n      swap1\n      dup4\n      0xffffffffffffffff\n      and\n      mul\n      or\n      swap1\n      sstore\n      pop\n        /* \"contracts/cont.sol\":482:501  return instanceId++ */\n      swap1\n      pop\n        /* \"contracts/cont.sol\":421:509  function createInstance() public returns (uint64) {... */\n      swap1\n      jump\t// out\n        /* \"#utility.yul\":7:82   */\n    tag_49:\n        /* \"#utility.yul\":40:46   */\n      0x00\n        /* \"#utility.yul\":73:75   */\n      0x40\n        /* \"#utility.yul\":67:76   */\n      mload\n        /* \"#utility.yul\":57:76   */\n      swap1\n      pop\n        /* \"#utility.yul\":7:82   */\n      swap1\n      jump\t// out\n        /* \"#utility.yul\":88:205   */\n    tag_50:\n        /* \"#utility.yul\":197:198   */\n      0x00\n        /* \"#utility.yul\":194:195   */\n      dup1\n        /* \"#utility.yul\":187:199   */\n      revert\n        /* \"#utility.yul\":211:328   */\n    tag_51:\n        /* \"#utility.yul\":320:321   */\n      0x00\n        /* \"#utility.yul\":317:318   */\n      dup1\n        /* \"#utility.yul\":310:322   */\n      revert\n        /* \"#utility.yul\":334:435   */\n    tag_52:\n        /* \"#utility.yul\":370:377   */\n      0x00\n        /* \"#utility.yul\":410:428   */\n      0xffffffffffffffff\n        /* \"#utility.yul\":403:408   */\n      dup3\n        /* \"#utility.yul\":399:429   */\n      and\n        /* \"#utility.yul\":388:429   */\n      swap1\n      pop\n        /* \"#utility.yul\":334:435   */\n      swap2\n      swap1\n      pop\n      jump\t// out\n        /* \"#utility.yul\":441:561   */\n    tag_53:\n        /* \"#utility.yul\":513:536   */\n      tag_82\n        /* \"#utility.yul\":530:535   */\n      dup2\n        /* \"#utility.yul\":513:536   */\n      tag_52\n      jump\t// in\n    tag_82:\n        /* \"#utility.yul\":506:511   */\n      dup2\n        /* \"#utility.yul\":503:537   */\n      eq\n        /* \"#utility.yul\":493:555   */\n      tag_83\n      jumpi\n        /* \"#utility.yul\":551:552   */\n      0x00\n        /* \"#utility.yul\":548:549   */\n      dup1\n        /* \"#utility.yul\":541:553   */\n      revert\n        /* \"#utility.yul\":493:555   */\n    tag_83:\n        /* \"#utility.yul\":441:561   */\n      pop\n      jump\t// out\n        /* \"#utility.yul\":567:704   */\n    tag_54:\n        /* \"#utility.yul\":612:617   */\n      0x00\n        /* \"#utility.yul\":650:656   */\n      dup2\n        /* \"#utility.yul\":637:657   */\n      calldataload\n        /* \"#utility.yul\":628:657   */\n      swap1\n      pop\n        /* \"#utility.yul\":666:698   */\n      tag_85\n        /* \"#utility.yul\":692:697   */\n      dup2\n        /* \"#utility.yul\":666:698   */\n      tag_53\n      jump\t// in\n    tag_85:\n        /* \"#utility.yul\":567:704   */\n      swap3\n      swap2\n      pop\n      pop\n      jump\t// out\n        /* \"#utility.yul\":710:827   */\n    tag_55:\n        /* \"#utility.yul\":819:820   */\n      0x00\n        /* \"#utility.yul\":816:817   */\n      dup1\n        /* \"#utility.yul\":809:821   */\n      revert\n        /* \"#utility.yul\":833:950   */\n    tag_56:\n        /* \"#utility.yul\":942:943   */\n      0x00\n        /* \"#utility.yul\":939:940   */\n      dup1\n        /* \"#utility.yul\":932:944   */\n      revert\n        /* \"#utility.yul\":956:1058   */\n    tag_57:\n        /* \"#utility.yul\":997:1003   */\n      0x00\n        /* \"#utility.yul\":1048:1050   */\n      0x1f\n        /* \"#utility.yul\":1044:1051   */\n      not\n        /* \"#utility.yul\":1039:1041   */\n      0x1f\n        /* \"#utility.yul\":1032:1037   */\n      dup4\n        /* \"#utility.yul\":1028:1042   */\n      add\n        /* \"#utility.yul\":1024:1052   */\n      and\n        /* \"#utility.yul\":1014:1052   */\n      swap1\n      pop\n        /* \"#utility.yul\":956:1058   */\n      swap2\n      swap1\n      pop\n      jump\t// out\n        /* \"#utility.yul\":1064:1244   */\n    tag_58:\n        /* \"#utility.yul\":1112:1189   */\n      0x4e487b7100000000000000000000000000000000000000000000000000000000\n        /* \"#utility.yul\":1109:1110   */\n      0x00\n        /* \"#utility.yul\":1102:1190   */\n      mstore\n        /* \"#utility.yul\":1209:1213   */\n      0x41\n        /* \"#utility.yul\":1206:1207   */\n      0x04\n        /* \"#utility.yul\":1199:1214   */\n      mstore\n        /* \"#utility.yul\":1233:1237   */\n      0x24\n        /* \"#utility.yul\":1230:1231   */\n      0x00\n        /* \"#utility.yul\":1223:1238   */\n      revert\n        /* \"#utility.yul\":1250:1531   */\n    tag_59:\n        /* \"#utility.yul\":1333:1360   */\n      tag_91\n        /* \"#utility.yul\":1355:1359   */\n      dup3\n        /* \"#utility.yul\":1333:1360   */\n      tag_57\n      jump\t// in\n    tag_91:\n        /* \"#utility.yul\":1325:1331   */\n      dup2\n        /* \"#utility.yul\":1321:1361   */\n      add\n        /* \"#utility.yul\":1463:1469   */\n      dup2\n        /* \"#utility.yul\":1451:1461   */\n      dup2\n        /* \"#utility.yul\":1448:1470   */\n      lt\n        /* \"#utility.yul\":1427:1445   */\n      0xffffffffffffffff\n        /* \"#utility.yul\":1415:1425   */\n      dup3\n        /* \"#utility.yul\":1412:1446   */\n      gt\n        /* \"#utility.yul\":1409:1471   */\n      or\n        /* \"#utility.yul\":1406:1494   */\n      iszero\n      tag_92\n      jumpi\n        /* \"#utility.yul\":1474:1492   */\n      tag_93\n      tag_58\n      jump\t// in\n    tag_93:\n        /* \"#utility.yul\":1406:1494   */\n    tag_92:\n        /* \"#utility.yul\":1514:1524   */\n      dup1\n        /* \"#utility.yul\":1510:1512   */\n      0x40\n        /* \"#utility.yul\":1503:1525   */\n      mstore\n        /* \"#utility.yul\":1293:1531   */\n      pop\n        /* \"#utility.yul\":1250:1531   */\n      pop\n      pop\n      jump\t// out\n        /* \"#utility.yul\":1537:1666   */\n    tag_60:\n        /* \"#utility.yul\":1571:1577   */\n      0x00\n        /* \"#utility.yul\":1598:1618   */\n      tag_95\n      tag_49\n      jump\t// in\n    tag_95:\n        /* \"#utility.yul\":1588:1618   */\n      swap1\n      pop\n        /* \"#utility.yul\":1627:1660   */\n      tag_96\n        /* \"#utility.yul\":1655:1659   */\n      dup3\n        /* \"#utility.yul\":1647:1653   */\n      dup3\n        /* \"#utility.yul\":1627:1660   */\n      tag_59\n      jump\t// in\n    tag_96:\n        /* \"#utility.yul\":1537:1666   */\n      swap2\n      swap1\n      pop\n      jump\t// out\n        /* \"#utility.yul\":1672:1980   */\n    tag_61:\n        /* \"#utility.yul\":1734:1738   */\n      0x00\n        /* \"#utility.yul\":1824:1842   */\n      0xffffffffffffffff\n        /* \"#utility.yul\":1816:1822   */\n      dup3\n        /* \"#utility.yul\":1813:1843   */\n      gt\n        /* \"#utility.yul\":1810:1866   */\n      iszero\n      tag_98\n      jumpi\n        /* \"#utility.yul\":1846:1864   */\n      tag_99\n      tag_58\n      jump\t// in\n    tag_99:\n        /* \"#utility.yul\":1810:1866   */\n    tag_98:\n        /* \"#utility.yul\":1884:1913   */\n      tag_100\n        /* \"#utility.yul\":1906:1912   */\n      dup3\n        /* \"#utility.yul\":1884:1913   */\n      tag_57\n      jump\t// in\n    tag_100:\n        /* \"#utility.yul\":1876:1913   */\n      swap1\n      pop\n        /* \"#utility.yul\":1968:1972   */\n      0x20\n        /* \"#utility.yul\":1962:1966   */\n      dup2\n        /* \"#utility.yul\":1958:1973   */\n      add\n        /* \"#utility.yul\":1950:1973   */\n      swap1\n      pop\n        /* \"#utility.yul\":1672:1980   */\n      swap2\n      swap1\n      pop\n      jump\t// out\n        /* \"#utility.yul\":1986:2132   */\n    tag_62:\n        /* \"#utility.yul\":2083:2089   */\n      dup3\n        /* \"#utility.yul\":2078:2081   */\n      dup2\n        /* \"#utility.yul\":2073:2076   */\n      dup4\n        /* \"#utility.yul\":2060:2090   */\n      calldatacopy\n        /* \"#utility.yul\":2124:2125   */\n      0x00\n        /* \"#utility.yul\":2115:2121   */\n      dup4\n        /* \"#utility.yul\":2110:2113   */\n      dup4\n        /* \"#utility.yul\":2106:2122   */\n      add\n        /* \"#utility.yul\":2099:2126   */\n      mstore\n        /* \"#utility.yul\":1986:2132   */\n      pop\n      pop\n      pop\n      jump\t// out\n        /* \"#utility.yul\":2138:2563   */\n    tag_63:\n        /* \"#utility.yul\":2216:2221   */\n      0x00\n        /* \"#utility.yul\":2241:2307   */\n      tag_103\n        /* \"#utility.yul\":2257:2306   */\n      tag_104\n        /* \"#utility.yul\":2299:2305   */\n      dup5\n        /* \"#utility.yul\":2257:2306   */\n      tag_61\n      jump\t// in\n    tag_104:\n        /* \"#utility.yul\":2241:2307   */\n      tag_60\n      jump\t// in\n    tag_103:\n        /* \"#utility.yul\":2232:2307   */\n      swap1\n      pop\n        /* \"#utility.yul\":2330:2336   */\n      dup3\n        /* \"#utility.yul\":2323:2328   */\n      dup2\n        /* \"#utility.yul\":2316:2337   */\n      mstore\n        /* \"#utility.yul\":2368:2372   */\n      0x20\n        /* \"#utility.yul\":2361:2366   */\n      dup2\n        /* \"#utility.yul\":2357:2373   */\n      add\n        /* \"#utility.yul\":2406:2409   */\n      dup5\n        /* \"#utility.yul\":2397:2403   */\n      dup5\n        /* \"#utility.yul\":2392:2395   */\n      dup5\n        /* \"#utility.yul\":2388:2404   */\n      add\n        /* \"#utility.yul\":2385:2410   */\n      gt\n        /* \"#utility.yul\":2382:2494   */\n      iszero\n      tag_105\n      jumpi\n        /* \"#utility.yul\":2413:2492   */\n      tag_106\n      tag_56\n      jump\t// in\n    tag_106:\n        /* \"#utility.yul\":2382:2494   */\n    tag_105:\n        /* \"#utility.yul\":2503:2557   */\n      tag_107\n        /* \"#utility.yul\":2550:2556   */\n      dup5\n        /* \"#utility.yul\":2545:2548   */\n      dup3\n        /* \"#utility.yul\":2540:2543   */\n      dup6\n        /* \"#utility.yul\":2503:2557   */\n      tag_62\n      jump\t// in\n    tag_107:\n        /* \"#utility.yul\":2222:2563   */\n      pop\n        /* \"#utility.yul\":2138:2563   */\n      swap4\n      swap3\n      pop\n      pop\n      pop\n      jump\t// out\n        /* \"#utility.yul\":2583:2923   */\n    tag_64:\n        /* \"#utility.yul\":2639:2644   */\n      0x00\n        /* \"#utility.yul\":2688:2691   */\n      dup3\n        /* \"#utility.yul\":2681:2685   */\n      0x1f\n        /* \"#utility.yul\":2673:2679   */\n      dup4\n        /* \"#utility.yul\":2669:2686   */\n      add\n        /* \"#utility.yul\":2665:2692   */\n      slt\n        /* \"#utility.yul\":2655:2777   */\n      tag_109\n      jumpi\n        /* \"#utility.yul\":2696:2775   */\n      tag_110\n      tag_55\n      jump\t// in\n    tag_110:\n        /* \"#utility.yul\":2655:2777   */\n    tag_109:\n        /* \"#utility.yul\":2813:2819   */\n      dup2\n        /* \"#utility.yul\":2800:2820   */\n      calldataload\n        /* \"#utility.yul\":2838:2917   */\n      tag_111\n        /* \"#utility.yul\":2913:2916   */\n      dup5\n        /* \"#utility.yul\":2905:2911   */\n      dup3\n        /* \"#utility.yul\":2898:2902   */\n      0x20\n        /* \"#utility.yul\":2890:2896   */\n      dup7\n        /* \"#utility.yul\":2886:2903   */\n      add\n        /* \"#utility.yul\":2838:2917   */\n      tag_63\n      jump\t// in\n    tag_111:\n        /* \"#utility.yul\":2829:2917   */\n      swap2\n      pop\n        /* \"#utility.yul\":2645:2923   */\n      pop\n        /* \"#utility.yul\":2583:2923   */\n      swap3\n      swap2\n      pop\n      pop\n      jump\t// out\n        /* \"#utility.yul\":2929:3055   */\n    tag_65:\n        /* \"#utility.yul\":2966:2973   */\n      0x00\n        /* \"#utility.yul\":3006:3048   */\n      0xffffffffffffffffffffffffffffffffffffffff\n        /* \"#utility.yul\":2999:3004   */\n      dup3\n        /* \"#utility.yul\":2995:3049   */\n      and\n        /* \"#utility.yul\":2984:3049   */\n      swap1\n      pop\n        /* \"#utility.yul\":2929:3055   */\n      swap2\n      swap1\n      pop\n      jump\t// out\n        /* \"#utility.yul\":3061:3157   */\n    tag_66:\n        /* \"#utility.yul\":3098:3105   */\n      0x00\n        /* \"#utility.yul\":3127:3151   */\n      tag_114\n        /* \"#utility.yul\":3145:3150   */\n      dup3\n        /* \"#utility.yul\":3127:3151   */\n      tag_65\n      jump\t// in\n    tag_114:\n        /* \"#utility.yul\":3116:3151   */\n      swap1\n      pop\n        /* \"#utility.yul\":3061:3157   */\n      swap2\n      swap1\n      pop\n      jump\t// out\n        /* \"#utility.yul\":3163:3285   */\n    tag_67:\n        /* \"#utility.yul\":3236:3260   */\n      tag_116\n        /* \"#utility.yul\":3254:3259   */\n      dup2\n        /* \"#utility.yul\":3236:3260   */\n      tag_66\n      jump\t// in\n    tag_116:\n        /* \"#utility.yul\":3229:3234   */\n      dup2\n        /* \"#utility.yul\":3226:3261   */\n      eq\n        /* \"#utility.yul\":3216:3279   */\n      tag_117\n      jumpi\n        /* \"#utility.yul\":3275:3276   */\n      0x00\n        /* \"#utility.yul\":3272:3273   */\n      dup1\n        /* \"#utility.yul\":3265:3277   */\n      revert\n        /* \"#utility.yul\":3216:3279   */\n    tag_117:\n        /* \"#utility.yul\":3163:3285   */\n      pop\n      jump\t// out\n        /* \"#utility.yul\":3291:3430   */\n    tag_68:\n        /* \"#utility.yul\":3337:3342   */\n      0x00\n        /* \"#utility.yul\":3375:3381   */\n      dup2\n        /* \"#utility.yul\":3362:3382   */\n      calldataload\n        /* \"#utility.yul\":3353:3382   */\n      swap1\n      pop\n        /* \"#utility.yul\":3391:3424   */\n      tag_119\n        /* \"#utility.yul\":3418:3423   */\n      dup2\n        /* \"#utility.yul\":3391:3424   */\n      tag_67\n      jump\t// in\n    tag_119:\n        /* \"#utility.yul\":3291:3430   */\n      swap3\n      swap2\n      pop\n      pop\n      jump\t// out\n        /* \"#utility.yul\":3436:4377   */\n    tag_11:\n        /* \"#utility.yul\":3530:3536   */\n      0x00\n        /* \"#utility.yul\":3538:3544   */\n      dup1\n        /* \"#utility.yul\":3546:3552   */\n      0x00\n        /* \"#utility.yul\":3554:3560   */\n      dup1\n        /* \"#utility.yul\":3603:3606   */\n      0x80\n        /* \"#utility.yul\":3591:3600   */\n      dup6\n        /* \"#utility.yul\":3582:3589   */\n      dup8\n        /* \"#utility.yul\":3578:3601   */\n      sub\n        /* \"#utility.yul\":3574:3607   */\n      slt\n        /* \"#utility.yul\":3571:3691   */\n      iszero\n      tag_121\n      jumpi\n        /* \"#utility.yul\":3610:3689   */\n      tag_122\n      tag_50\n      jump\t// in\n    tag_122:\n        /* \"#utility.yul\":3571:3691   */\n    tag_121:\n        /* \"#utility.yul\":3730:3731   */\n      0x00\n        /* \"#utility.yul\":3755:3807   */\n      tag_123\n        /* \"#utility.yul\":3799:3806   */\n      dup8\n        /* \"#utility.yul\":3790:3796   */\n      dup3\n        /* \"#utility.yul\":3779:3788   */\n      dup9\n        /* \"#utility.yul\":3775:3797   */\n      add\n        /* \"#utility.yul\":3755:3807   */\n      tag_54\n      jump\t// in\n    tag_123:\n        /* \"#utility.yul\":3745:3807   */\n      swap5\n      pop\n        /* \"#utility.yul\":3701:3817   */\n      pop\n        /* \"#utility.yul\":3884:3886   */\n      0x20\n        /* \"#utility.yul\":3873:3882   */\n      dup6\n        /* \"#utility.yul\":3869:3887   */\n      add\n        /* \"#utility.yul\":3856:3888   */\n      calldataload\n        /* \"#utility.yul\":3915:3933   */\n      0xffffffffffffffff\n        /* \"#utility.yul\":3907:3913   */\n      dup2\n        /* \"#utility.yul\":3904:3934   */\n      gt\n        /* \"#utility.yul\":3901:4018   */\n      iszero\n      tag_124\n      jumpi\n        /* \"#utility.yul\":3937:4016   */\n      tag_125\n      tag_51\n      jump\t// in\n    tag_125:\n        /* \"#utility.yul\":3901:4018   */\n    tag_124:\n        /* \"#utility.yul\":4042:4105   */\n      tag_126\n        /* \"#utility.yul\":4097:4104   */\n      dup8\n        /* \"#utility.yul\":4088:4094   */\n      dup3\n        /* \"#utility.yul\":4077:4086   */\n      dup9\n        /* \"#utility.yul\":4073:4095   */\n      add\n        /* \"#utility.yul\":4042:4105   */\n      tag_64\n      jump\t// in\n    tag_126:\n        /* \"#utility.yul\":4032:4105   */\n      swap4\n      pop\n        /* \"#utility.yul\":3827:4115   */\n      pop\n        /* \"#utility.yul\":4154:4156   */\n      0x40\n        /* \"#utility.yul\":4180:4233   */\n      tag_127\n        /* \"#utility.yul\":4225:4232   */\n      dup8\n        /* \"#utility.yul\":4216:4222   */\n      dup3\n        /* \"#utility.yul\":4205:4214   */\n      dup9\n        /* \"#utility.yul\":4201:4223   */\n      add\n        /* \"#utility.yul\":4180:4233   */\n      tag_68\n      jump\t// in\n    tag_127:\n        /* \"#utility.yul\":4170:4233   */\n      swap3\n      pop\n        /* \"#utility.yul\":4125:4243   */\n      pop\n        /* \"#utility.yul\":4282:4284   */\n      0x60\n        /* \"#utility.yul\":4308:4360   */\n      tag_128\n        /* \"#utility.yul\":4352:4359   */\n      dup8\n        /* \"#utility.yul\":4343:4349   */\n      dup3\n        /* \"#utility.yul\":4332:4341   */\n      dup9\n        /* \"#utility.yul\":4328:4350   */\n      add\n        /* \"#utility.yul\":4308:4360   */\n      tag_54\n      jump\t// in\n    tag_128:\n        /* \"#utility.yul\":4298:4360   */\n      swap2\n      pop\n        /* \"#utility.yul\":4253:4370   */\n      pop\n        /* \"#utility.yul\":3436:4377   */\n      swap3\n      swap6\n      swap2\n      swap5\n      pop\n      swap3\n      pop\n      jump\t// out\n        /* \"#utility.yul\":4383:4498   */\n    tag_69:\n        /* \"#utility.yul\":4468:4491   */\n      tag_130\n        /* \"#utility.yul\":4485:4490   */\n      dup2\n        /* \"#utility.yul\":4468:4491   */\n      tag_52\n      jump\t// in\n    tag_130:\n        /* \"#utility.yul\":4463:4466   */\n      dup3\n        /* \"#utility.yul\":4456:4492   */\n      mstore\n        /* \"#utility.yul\":4383:4498   */\n      pop\n      pop\n      jump\t// out\n        /* \"#utility.yul\":4504:4722   */\n    tag_16:\n        /* \"#utility.yul\":4595:4599   */\n      0x00\n        /* \"#utility.yul\":4633:4635   */\n      0x20\n        /* \"#utility.yul\":4622:4631   */\n      dup3\n        /* \"#utility.yul\":4618:4636   */\n      add\n        /* \"#utility.yul\":4610:4636   */\n      swap1\n      pop\n        /* \"#utility.yul\":4646:4715   */\n      tag_132\n        /* \"#utility.yul\":4712:4713   */\n      0x00\n        /* \"#utility.yul\":4701:4710   */\n      dup4\n        /* \"#utility.yul\":4697:4714   */\n      add\n        /* \"#utility.yul\":4688:4694   */\n      dup5\n        /* \"#utility.yul\":4646:4715   */\n      tag_69\n      jump\t// in\n    tag_132:\n        /* \"#utility.yul\":4504:4722   */\n      swap3\n      swap2\n      pop\n      pop\n      jump\t// out\n        /* \"#utility.yul\":4728:5237   */\n    tag_19:\n        /* \"#utility.yul\":4797:4803   */\n      0x00\n        /* \"#utility.yul\":4846:4848   */\n      0x20\n        /* \"#utility.yul\":4834:4843   */\n      dup3\n        /* \"#utility.yul\":4825:4832   */\n      dup5\n        /* \"#utility.yul\":4821:4844   */\n      sub\n        /* \"#utility.yul\":4817:4849   */\n      slt\n        /* \"#utility.yul\":4814:4933   */\n      iszero\n      tag_134\n      jumpi\n        /* \"#utility.yul\":4852:4931   */\n      tag_135\n      tag_50\n      jump\t// in\n    tag_135:\n        /* \"#utility.yul\":4814:4933   */\n    tag_134:\n        /* \"#utility.yul\":5000:5001   */\n      0x00\n        /* \"#utility.yul\":4989:4998   */\n      dup3\n        /* \"#utility.yul\":4985:5002   */\n      add\n        /* \"#utility.yul\":4972:5003   */\n      calldataload\n        /* \"#utility.yul\":5030:5048   */\n      0xffffffffffffffff\n        /* \"#utility.yul\":5022:5028   */\n      dup2\n        /* \"#utility.yul\":5019:5049   */\n      gt\n        /* \"#utility.yul\":5016:5133   */\n      iszero\n      tag_136\n      jumpi\n        /* \"#utility.yul\":5052:5131   */\n      tag_137\n      tag_51\n      jump\t// in\n    tag_137:\n        /* \"#utility.yul\":5016:5133   */\n    tag_136:\n        /* \"#utility.yul\":5157:5220   */\n      tag_138\n        /* \"#utility.yul\":5212:5219   */\n      dup5\n        /* \"#utility.yul\":5203:5209   */\n      dup3\n        /* \"#utility.yul\":5192:5201   */\n      dup6\n        /* \"#utility.yul\":5188:5210   */\n      add\n        /* \"#utility.yul\":5157:5220   */\n      tag_64\n      jump\t// in\n    tag_138:\n        /* \"#utility.yul\":5147:5220   */\n      swap2\n      pop\n        /* \"#utility.yul\":4943:5230   */\n      pop\n        /* \"#utility.yul\":4728:5237   */\n      swap3\n      swap2\n      pop\n      pop\n      jump\t// out\n        /* \"#utility.yul\":5243:5361   */\n    tag_70:\n        /* \"#utility.yul\":5330:5354   */\n      tag_140\n        /* \"#utility.yul\":5348:5353   */\n      dup2\n        /* \"#utility.yul\":5330:5354   */\n      tag_66\n      jump\t// in\n    tag_140:\n        /* \"#utility.yul\":5325:5328   */\n      dup3\n        /* \"#utility.yul\":5318:5355   */\n      mstore\n        /* \"#utility.yul\":5243:5361   */\n      pop\n      pop\n      jump\t// out\n        /* \"#utility.yul\":5367:5589   */\n    tag_22:\n        /* \"#utility.yul\":5460:5464   */\n      0x00\n        /* \"#utility.yul\":5498:5500   */\n      0x20\n        /* \"#utility.yul\":5487:5496   */\n      dup3\n        /* \"#utility.yul\":5483:5501   */\n      add\n        /* \"#utility.yul\":5475:5501   */\n      swap1\n      pop\n        /* \"#utility.yul\":5511:5582   */\n      tag_142\n        /* \"#utility.yul\":5579:5580   */\n      0x00\n        /* \"#utility.yul\":5568:5577   */\n      dup4\n        /* \"#utility.yul\":5564:5581   */\n      add\n        /* \"#utility.yul\":5555:5561   */\n      dup5\n        /* \"#utility.yul\":5511:5582   */\n      tag_70\n      jump\t// in\n    tag_142:\n        /* \"#utility.yul\":5367:5589   */\n      swap3\n      swap2\n      pop\n      pop\n      jump\t// out\n        /* \"#utility.yul\":5595:6247   */\n    tag_25:\n        /* \"#utility.yul\":5672:5678   */\n      0x00\n        /* \"#utility.yul\":5680:5686   */\n      dup1\n        /* \"#utility.yul\":5729:5731   */\n      0x40\n        /* \"#utility.yul\":5717:5726   */\n      dup4\n        /* \"#utility.yul\":5708:5715   */\n      dup6\n        /* \"#utility.yul\":5704:5727   */\n      sub\n        /* \"#utility.yul\":5700:5732   */\n      slt\n        /* \"#utility.yul\":5697:5816   */\n      iszero\n      tag_144\n      jumpi\n        /* \"#utility.yul\":5735:5814   */\n      tag_145\n      tag_50\n      jump\t// in\n    tag_145:\n        /* \"#utility.yul\":5697:5816   */\n    tag_144:\n        /* \"#utility.yul\":5855:5856   */\n      0x00\n        /* \"#utility.yul\":5880:5932   */\n      tag_146\n        /* \"#utility.yul\":5924:5931   */\n      dup6\n        /* \"#utility.yul\":5915:5921   */\n      dup3\n        /* \"#utility.yul\":5904:5913   */\n      dup7\n        /* \"#utility.yul\":5900:5922   */\n      add\n        /* \"#utility.yul\":5880:5932   */\n      tag_54\n      jump\t// in\n    tag_146:\n        /* \"#utility.yul\":5870:5932   */\n      swap3\n      pop\n        /* \"#utility.yul\":5826:5942   */\n      pop\n        /* \"#utility.yul\":6009:6011   */\n      0x20\n        /* \"#utility.yul\":5998:6007   */\n      dup4\n        /* \"#utility.yul\":5994:6012   */\n      add\n        /* \"#utility.yul\":5981:6013   */\n      calldataload\n        /* \"#utility.yul\":6040:6058   */\n      0xffffffffffffffff\n        /* \"#utility.yul\":6032:6038   */\n      dup2\n        /* \"#utility.yul\":6029:6059   */\n      gt\n        /* \"#utility.yul\":6026:6143   */\n      iszero\n      tag_147\n      jumpi\n        /* \"#utility.yul\":6062:6141   */\n      tag_148\n      tag_51\n      jump\t// in\n    tag_148:\n        /* \"#utility.yul\":6026:6143   */\n    tag_147:\n        /* \"#utility.yul\":6167:6230   */\n      tag_149\n        /* \"#utility.yul\":6222:6229   */\n      dup6\n        /* \"#utility.yul\":6213:6219   */\n      dup3\n        /* \"#utility.yul\":6202:6211   */\n      dup7\n        /* \"#utility.yul\":6198:6220   */\n      add\n        /* \"#utility.yul\":6167:6230   */\n      tag_64\n      jump\t// in\n    tag_149:\n        /* \"#utility.yul\":6157:6230   */\n      swap2\n      pop\n        /* \"#utility.yul\":5952:6240   */\n      pop\n        /* \"#utility.yul\":5595:6247   */\n      swap3\n      pop\n      swap3\n      swap1\n      pop\n      jump\t// out\n        /* \"#utility.yul\":6253:6352   */\n    tag_71:\n        /* \"#utility.yul\":6305:6311   */\n      0x00\n        /* \"#utility.yul\":6339:6344   */\n      dup2\n        /* \"#utility.yul\":6333:6345   */\n      mload\n        /* \"#utility.yul\":6323:6345   */\n      swap1\n      pop\n        /* \"#utility.yul\":6253:6352   */\n      swap2\n      swap1\n      pop\n      jump\t// out\n        /* \"#utility.yul\":6358:6506   */\n    tag_72:\n        /* \"#utility.yul\":6460:6471   */\n      0x00\n        /* \"#utility.yul\":6497:6500   */\n      dup2\n        /* \"#utility.yul\":6482:6500   */\n      swap1\n      pop\n        /* \"#utility.yul\":6358:6506   */\n      swap3\n      swap2\n      pop\n      pop\n      jump\t// out\n        /* \"#utility.yul\":6512:6758   */\n    tag_73:\n        /* \"#utility.yul\":6593:6594   */\n      0x00\n        /* \"#utility.yul\":6603:6716   */\n    tag_153:\n        /* \"#utility.yul\":6617:6623   */\n      dup4\n        /* \"#utility.yul\":6614:6615   */\n      dup2\n        /* \"#utility.yul\":6611:6624   */\n      lt\n        /* \"#utility.yul\":6603:6716   */\n      iszero\n      tag_155\n      jumpi\n        /* \"#utility.yul\":6702:6703   */\n      dup1\n        /* \"#utility.yul\":6697:6700   */\n      dup3\n        /* \"#utility.yul\":6693:6704   */\n      add\n        /* \"#utility.yul\":6687:6705   */\n      mload\n        /* \"#utility.yul\":6683:6684   */\n      dup2\n        /* \"#utility.yul\":6678:6681   */\n      dup5\n        /* \"#utility.yul\":6674:6685   */\n      add\n        /* \"#utility.yul\":6667:6706   */\n      mstore\n        /* \"#utility.yul\":6639:6641   */\n      0x20\n        /* \"#utility.yul\":6636:6637   */\n      dup2\n        /* \"#utility.yul\":6632:6642   */\n      add\n        /* \"#utility.yul\":6627:6642   */\n      swap1\n      pop\n        /* \"#utility.yul\":6603:6716   */\n      jump(tag_153)\n    tag_155:\n        /* \"#utility.yul\":6750:6751   */\n      0x00\n        /* \"#utility.yul\":6741:6747   */\n      dup5\n        /* \"#utility.yul\":6736:6739   */\n      dup5\n        /* \"#utility.yul\":6732:6748   */\n      add\n        /* \"#utility.yul\":6725:6752   */\n      mstore\n        /* \"#utility.yul\":6574:6758   */\n      pop\n        /* \"#utility.yul\":6512:6758   */\n      pop\n      pop\n      pop\n      jump\t// out\n        /* \"#utility.yul\":6764:7154   */\n    tag_74:\n        /* \"#utility.yul\":6870:6873   */\n      0x00\n        /* \"#utility.yul\":6898:6937   */\n      tag_157\n        /* \"#utility.yul\":6931:6936   */\n      dup3\n        /* \"#utility.yul\":6898:6937   */\n      tag_71\n      jump\t// in\n    tag_157:\n        /* \"#utility.yul\":6953:7042   */\n      tag_158\n        /* \"#utility.yul\":7035:7041   */\n      dup2\n        /* \"#utility.yul\":7030:7033   */\n      dup6\n        /* \"#utility.yul\":6953:7042   */\n      tag_72\n      jump\t// in\n    tag_158:\n        /* \"#utility.yul\":6946:7042   */\n      swap4\n      pop\n        /* \"#utility.yul\":7051:7116   */\n      tag_159\n        /* \"#utility.yul\":7109:7115   */\n      dup2\n        /* \"#utility.yul\":7104:7107   */\n      dup6\n        /* \"#utility.yul\":7097:7101   */\n      0x20\n        /* \"#utility.yul\":7090:7095   */\n      dup7\n        /* \"#utility.yul\":7086:7102   */\n      add\n        /* \"#utility.yul\":7051:7116   */\n      tag_73\n      jump\t// in\n    tag_159:\n        /* \"#utility.yul\":7141:7147   */\n      dup1\n        /* \"#utility.yul\":7136:7139   */\n      dup5\n        /* \"#utility.yul\":7132:7148   */\n      add\n        /* \"#utility.yul\":7125:7148   */\n      swap2\n      pop\n        /* \"#utility.yul\":6874:7154   */\n      pop\n        /* \"#utility.yul\":6764:7154   */\n      swap3\n      swap2\n      pop\n      pop\n      jump\t// out\n        /* \"#utility.yul\":7160:7435   */\n    tag_37:\n        /* \"#utility.yul\":7292:7295   */\n      0x00\n        /* \"#utility.yul\":7314:7409   */\n      tag_161\n        /* \"#utility.yul\":7405:7408   */\n      dup3\n        /* \"#utility.yul\":7396:7402   */\n      dup5\n        /* \"#utility.yul\":7314:7409   */\n      tag_74\n      jump\t// in\n    tag_161:\n        /* \"#utility.yul\":7307:7409   */\n      swap2\n      pop\n        /* \"#utility.yul\":7426:7429   */\n      dup2\n        /* \"#utility.yul\":7419:7429   */\n      swap1\n      pop\n        /* \"#utility.yul\":7160:7435   */\n      swap3\n      swap2\n      pop\n      pop\n      jump\t// out\n        /* \"#utility.yul\":7441:7621   */\n    tag_75:\n        /* \"#utility.yul\":7489:7566   */\n      0x4e487b7100000000000000000000000000000000000000000000000000000000\n        /* \"#utility.yul\":7486:7487   */\n      0x00\n        /* \"#utility.yul\":7479:7567   */\n      mstore\n        /* \"#utility.yul\":7586:7590   */\n      0x11\n        /* \"#utility.yul\":7583:7584   */\n      0x04\n        /* \"#utility.yul\":7576:7591   */\n      mstore\n        /* \"#utility.yul\":7610:7614   */\n      0x24\n        /* \"#utility.yul\":7607:7608   */\n      0x00\n        /* \"#utility.yul\":7600:7615   */\n      revert\n        /* \"#utility.yul\":7627:7810   */\n    tag_48:\n        /* \"#utility.yul\":7665:7668   */\n      0x00\n        /* \"#utility.yul\":7688:7711   */\n      tag_164\n        /* \"#utility.yul\":7705:7710   */\n      dup3\n        /* \"#utility.yul\":7688:7711   */\n      tag_52\n      jump\t// in\n    tag_164:\n        /* \"#utility.yul\":7679:7711   */\n      swap2\n      pop\n        /* \"#utility.yul\":7733:7751   */\n      0xffffffffffffffff\n        /* \"#utility.yul\":7726:7731   */\n      dup3\n        /* \"#utility.yul\":7723:7752   */\n      sub\n        /* \"#utility.yul\":7720:7775   */\n      tag_165\n      jumpi\n        /* \"#utility.yul\":7755:7773   */\n      tag_166\n      tag_75\n      jump\t// in\n    tag_166:\n        /* \"#utility.yul\":7720:7775   */\n    tag_165:\n        /* \"#utility.yul\":7802:7803   */\n      0x01\n        /* \"#utility.yul\":7795:7800   */\n      dup3\n        /* \"#utility.yul\":7791:7804   */\n      add\n        /* \"#utility.yul\":7784:7804   */\n      swap1\n      pop\n        /* \"#utility.yul\":7627:7810   */\n      swap2\n      swap1\n      pop\n      jump\t// out\n\n    auxdata: 0xa2646970667358221220be80f7cccc13e490602328bee1eb261317a758dba2d0c7f386017908fadeae3764736f6c63430008160033\n}\n",
				"bytecode": {
					"linkReferences": {},
					"object": "608060405234801561000f575f80fd5b506040516109ba3803806109ba83398181016040528101906100319190610100565b8060036040516100409061017f565b90815260200160405180910390205f6101000a81548173ffffffffffffffffffffffffffffffffffffffff021916908373ffffffffffffffffffffffffffffffffffffffff16021790555050610193565b5f80fd5b5f73ffffffffffffffffffffffffffffffffffffffff82169050919050565b5f6100be82610095565b9050919050565b5f6100cf826100b4565b9050919050565b6100df816100c5565b81146100e9575f80fd5b50565b5f815190506100fa816100d6565b92915050565b5f6020828403121561011557610114610091565b5b5f610122848285016100ec565b91505092915050565b5f81905092915050565b7f4c616e64730000000000000000000000000000000000000000000000000000005f82015250565b5f61016960058361012b565b915061017482610135565b600582019050919050565b5f6101898261015d565b9150819050919050565b61081a806101a05f395ff3fe608060405234801561000f575f80fd5b5060043610610060575f3560e01c80636db0159b1461006457806389d215221461008057806391e44f311461009e578063a1f8db0d146100ce578063a63043de146100fe578063ad5014671461012e575b5f80fd5b61007e60048036038101906100799190610595565b61014c565b005b610088610238565b6040516100959190610624565b60405180910390f35b6100b860048036038101906100b3919061063d565b610253565b6040516100c59190610693565b60405180910390f35b6100e860048036038101906100e391906106ac565b610299565b6040516100f59190610624565b60405180910390f35b610118600480360381019061011391906106ac565b6102f7565b6040516101259190610693565b60405180910390f35b610136610361565b6040516101439190610624565b60405180910390f35b8160015f8667ffffffffffffffff1667ffffffffffffffff1681526020019081526020015f20846040516101809190610772565b90815260200160405180910390205f6101000a81548173ffffffffffffffffffffffffffffffffffffffff021916908373ffffffffffffffffffffffffffffffffffffffff1602179055508060025f8667ffffffffffffffff1667ffffffffffffffff1681526020019081526020015f20846040516101ff9190610772565b90815260200160405180910390205f6101000a81548167ffffffffffffffff021916908367ffffffffffffffff16021790555050505050565b5f805f9054906101000a900467ffffffffffffffff16905090565b5f6003826040516102649190610772565b90815260200160405180910390205f9054906101000a900473ffffffffffffffffffffffffffffffffffffffff169050919050565b5f60025f8467ffffffffffffffff1667ffffffffffffffff1681526020019081526020015f20826040516102cd9190610772565b90815260200160405180910390205f9054906101000a900467ffffffffffffffff16905092915050565b5f60015f8467ffffffffffffffff1667ffffffffffffffff1681526020019081526020015f208260405161032b9190610772565b90815260200160405180910390205f9054906101000a900473ffffffffffffffffffffffffffffffffffffffff16905092915050565b5f805f81819054906101000a900467ffffffffffffffff1680929190610386906107b5565b91906101000a81548167ffffffffffffffff021916908367ffffffffffffffff160217905550905090565b5f604051905090565b5f80fd5b5f80fd5b5f67ffffffffffffffff82169050919050565b6103de816103c2565b81146103e8575f80fd5b50565b5f813590506103f9816103d5565b92915050565b5f80fd5b5f80fd5b5f601f19601f8301169050919050565b7f4e487b71000000000000000000000000000000000000000000000000000000005f52604160045260245ffd5b61044d82610407565b810181811067ffffffffffffffff8211171561046c5761046b610417565b5b80604052505050565b5f61047e6103b1565b905061048a8282610444565b919050565b5f67ffffffffffffffff8211156104a9576104a8610417565b5b6104b282610407565b9050602081019050919050565b828183375f83830152505050565b5f6104df6104da8461048f565b610475565b9050828152602081018484840111156104fb576104fa610403565b5b6105068482856104bf565b509392505050565b5f82601f830112610522576105216103ff565b5b81356105328482602086016104cd565b91505092915050565b5f73ffffffffffffffffffffffffffffffffffffffff82169050919050565b5f6105648261053b565b9050919050565b6105748161055a565b811461057e575f80fd5b50565b5f8135905061058f8161056b565b92915050565b5f805f80608085870312156105ad576105ac6103ba565b5b5f6105ba878288016103eb565b945050602085013567ffffffffffffffff8111156105db576105da6103be565b5b6105e78782880161050e565b93505060406105f887828801610581565b9250506060610609878288016103eb565b91505092959194509250565b61061e816103c2565b82525050565b5f6020820190506106375f830184610615565b92915050565b5f60208284031215610652576106516103ba565b5b5f82013567ffffffffffffffff81111561066f5761066e6103be565b5b61067b8482850161050e565b91505092915050565b61068d8161055a565b82525050565b5f6020820190506106a65f830184610684565b92915050565b5f80604083850312156106c2576106c16103ba565b5b5f6106cf858286016103eb565b925050602083013567ffffffffffffffff8111156106f0576106ef6103be565b5b6106fc8582860161050e565b9150509250929050565b5f81519050919050565b5f81905092915050565b5f5b8381101561073757808201518184015260208101905061071c565b5f8484015250505050565b5f61074c82610706565b6107568185610710565b935061076681856020860161071a565b80840191505092915050565b5f61077d8284610742565b915081905092915050565b7f4e487b71000000000000000000000000000000000000000000000000000000005f52601160045260245ffd5b5f6107bf826103c2565b915067ffffffffffffffff82036107d9576107d8610788565b5b60018201905091905056fea2646970667358221220be80f7cccc13e490602328bee1eb261317a758dba2d0c7f386017908fadeae3764736f6c63430008160033",
					"opcodes": "PUSH1 0x80 PUSH1 0x40 MSTORE CALLVALUE DUP1 ISZERO PUSH2 0xF JUMPI PUSH0 DUP1 REVERT JUMPDEST POP PUSH1 0x40 MLOAD PUSH2 0x9BA CODESIZE SUB DUP1 PUSH2 0x9BA DUP4 CODECOPY DUP2 DUP2 ADD PUSH1 0x40 MSTORE DUP2 ADD SWAP1 PUSH2 0x31 SWAP2 SWAP1 PUSH2 0x100 JUMP JUMPDEST DUP1 PUSH1 0x3 PUSH1 0x40 MLOAD PUSH2 0x40 SWAP1 PUSH2 0x17F JUMP JUMPDEST SWAP1 DUP2 MSTORE PUSH1 0x20 ADD PUSH1 0x40 MLOAD DUP1 SWAP2 SUB SWAP1 KECCAK256 PUSH0 PUSH2 0x100 EXP DUP2 SLOAD DUP2 PUSH20 0xFFFFFFFFFFFFFFFFFFFFFFFFFFFFFFFFFFFFFFFF MUL NOT AND SWAP1 DUP4 PUSH20 0xFFFFFFFFFFFFFFFFFFFFFFFFFFFFFFFFFFFFFFFF AND MUL OR SWAP1 SSTORE POP POP PUSH2 0x193 JUMP JUMPDEST PUSH0 DUP1 REVERT JUMPDEST PUSH0 PUSH20 0xFFFFFFFFFFFFFFFFFFFFFFFFFFFFFFFFFFFFFFFF DUP3 AND SWAP1 POP SWAP2 SWAP1 POP JUMP JUMPDEST PUSH0 PUSH2 0xBE DUP3 PUSH2 0x95 JUMP JUMPDEST SWAP1 POP SWAP2 SWAP1 POP JUMP JUMPDEST PUSH0 PUSH2 0xCF DUP3 PUSH2 0xB4 JUMP JUMPDEST SWAP1 POP SWAP2 SWAP1 POP JUMP JUMPDEST PUSH2 0xDF DUP2 PUSH2 0xC5 JUMP JUMPDEST DUP2 EQ PUSH2 0xE9 JUMPI PUSH0 DUP1 REVERT JUMPDEST POP JUMP JUMPDEST PUSH0 DUP2 MLOAD SWAP1 POP PUSH2 0xFA DUP2 PUSH2 0xD6 JUMP JUMPDEST SWAP3 SWAP2 POP POP JUMP JUMPDEST PUSH0 PUSH1 0x20 DUP3 DUP5 SUB SLT ISZERO PUSH2 0x115 JUMPI PUSH2 0x114 PUSH2 0x91 JUMP JUMPDEST JUMPDEST PUSH0 PUSH2 0x122 DUP5 DUP3 DUP6 ADD PUSH2 0xEC JUMP JUMPDEST SWAP2 POP POP SWAP3 SWAP2 POP POP JUMP JUMPDEST PUSH0 DUP2 SWAP1 POP SWAP3 SWAP2 POP POP JUMP JUMPDEST PUSH32 0x4C616E6473000000000000000000000000000000000000000000000000000000 PUSH0 DUP3 ADD MSTORE POP JUMP JUMPDEST PUSH0 PUSH2 0x169 PUSH1 0x5 DUP4 PUSH2 0x12B JUMP JUMPDEST SWAP2 POP PUSH2 0x174 DUP3 PUSH2 0x135 JUMP JUMPDEST PUSH1 0x5 DUP3 ADD SWAP1 POP SWAP2 SWAP1 POP JUMP JUMPDEST PUSH0 PUSH2 0x189 DUP3 PUSH2 0x15D JUMP JUMPDEST SWAP2 POP DUP2 SWAP1 POP SWAP2 SWAP1 POP JUMP JUMPDEST PUSH2 0x81A DUP1 PUSH2 0x1A0 PUSH0 CODECOPY PUSH0 RETURN INVALID PUSH1 0x80 PUSH1 0x40 MSTORE CALLVALUE DUP1 ISZERO PUSH2 0xF JUMPI PUSH0 DUP1 REVERT JUMPDEST POP PUSH1 0x4 CALLDATASIZE LT PUSH2 0x60 JUMPI PUSH0 CALLDATALOAD PUSH1 0xE0 SHR DUP1 PUSH4 0x6DB0159B EQ PUSH2 0x64 JUMPI DUP1 PUSH4 0x89D21522 EQ PUSH2 0x80 JUMPI DUP1 PUSH4 0x91E44F31 EQ PUSH2 0x9E JUMPI DUP1 PUSH4 0xA1F8DB0D EQ PUSH2 0xCE JUMPI DUP1 PUSH4 0xA63043DE EQ PUSH2 0xFE JUMPI DUP1 PUSH4 0xAD501467 EQ PUSH2 0x12E JUMPI JUMPDEST PUSH0 DUP1 REVERT JUMPDEST PUSH2 0x7E PUSH1 0x4 DUP1 CALLDATASIZE SUB DUP2 ADD SWAP1 PUSH2 0x79 SWAP2 SWAP1 PUSH2 0x595 JUMP JUMPDEST PUSH2 0x14C JUMP JUMPDEST STOP JUMPDEST PUSH2 0x88 PUSH2 0x238 JUMP JUMPDEST PUSH1 0x40 MLOAD PUSH2 0x95 SWAP2 SWAP1 PUSH2 0x624 JUMP JUMPDEST PUSH1 0x40 MLOAD DUP1 SWAP2 SUB SWAP1 RETURN JUMPDEST PUSH2 0xB8 PUSH1 0x4 DUP1 CALLDATASIZE SUB DUP2 ADD SWAP1 PUSH2 0xB3 SWAP2 SWAP1 PUSH2 0x63D JUMP JUMPDEST PUSH2 0x253 JUMP JUMPDEST PUSH1 0x40 MLOAD PUSH2 0xC5 SWAP2 SWAP1 PUSH2 0x693 JUMP JUMPDEST PUSH1 0x40 MLOAD DUP1 SWAP2 SUB SWAP1 RETURN JUMPDEST PUSH2 0xE8 PUSH1 0x4 DUP1 CALLDATASIZE SUB DUP2 ADD SWAP1 PUSH2 0xE3 SWAP2 SWAP1 PUSH2 0x6AC JUMP JUMPDEST PUSH2 0x299 JUMP JUMPDEST PUSH1 0x40 MLOAD PUSH2 0xF5 SWAP2 SWAP1 PUSH2 0x624 JUMP JUMPDEST PUSH1 0x40 MLOAD DUP1 SWAP2 SUB SWAP1 RETURN JUMPDEST PUSH2 0x118 PUSH1 0x4 DUP1 CALLDATASIZE SUB DUP2 ADD SWAP1 PUSH2 0x113 SWAP2 SWAP1 PUSH2 0x6AC JUMP JUMPDEST PUSH2 0x2F7 JUMP JUMPDEST PUSH1 0x40 MLOAD PUSH2 0x125 SWAP2 SWAP1 PUSH2 0x693 JUMP JUMPDEST PUSH1 0x40 MLOAD DUP1 SWAP2 SUB SWAP1 RETURN JUMPDEST PUSH2 0x136 PUSH2 0x361 JUMP JUMPDEST PUSH1 0x40 MLOAD PUSH2 0x143 SWAP2 SWAP1 PUSH2 0x624 JUMP JUMPDEST PUSH1 0x40 MLOAD DUP1 SWAP2 SUB SWAP1 RETURN JUMPDEST DUP2 PUSH1 0x1 PUSH0 DUP7 PUSH8 0xFFFFFFFFFFFFFFFF AND PUSH8 0xFFFFFFFFFFFFFFFF AND DUP2 MSTORE PUSH1 0x20 ADD SWAP1 DUP2 MSTORE PUSH1 0x20 ADD PUSH0 KECCAK256 DUP5 PUSH1 0x40 MLOAD PUSH2 0x180 SWAP2 SWAP1 PUSH2 0x772 JUMP JUMPDEST SWAP1 DUP2 MSTORE PUSH1 0x20 ADD PUSH1 0x40 MLOAD DUP1 SWAP2 SUB SWAP1 KECCAK256 PUSH0 PUSH2 0x100 EXP DUP2 SLOAD DUP2 PUSH20 0xFFFFFFFFFFFFFFFFFFFFFFFFFFFFFFFFFFFFFFFF MUL NOT AND SWAP1 DUP4 PUSH20 0xFFFFFFFFFFFFFFFFFFFFFFFFFFFFFFFFFFFFFFFF AND MUL OR SWAP1 SSTORE POP DUP1 PUSH1 0x2 PUSH0 DUP7 PUSH8 0xFFFFFFFFFFFFFFFF AND PUSH8 0xFFFFFFFFFFFFFFFF AND DUP2 MSTORE PUSH1 0x20 ADD SWAP1 DUP2 MSTORE PUSH1 0x20 ADD PUSH0 KECCAK256 DUP5 PUSH1 0x40 MLOAD PUSH2 0x1FF SWAP2 SWAP1 PUSH2 0x772 JUMP JUMPDEST SWAP1 DUP2 MSTORE PUSH1 0x20 ADD PUSH1 0x40 MLOAD DUP1 SWAP2 SUB SWAP1 KECCAK256 PUSH0 PUSH2 0x100 EXP DUP2 SLOAD DUP2 PUSH8 0xFFFFFFFFFFFFFFFF MUL NOT AND SWAP1 DUP4 PUSH8 0xFFFFFFFFFFFFFFFF AND MUL OR SWAP1 SSTORE POP POP POP POP POP JUMP JUMPDEST PUSH0 DUP1 PUSH0 SWAP1 SLOAD SWAP1 PUSH2 0x100 EXP SWAP1 DIV PUSH8 0xFFFFFFFFFFFFFFFF AND SWAP1 POP SWAP1 JUMP JUMPDEST PUSH0 PUSH1 0x3 DUP3 PUSH1 0x40 MLOAD PUSH2 0x264 SWAP2 SWAP1 PUSH2 0x772 JUMP JUMPDEST SWAP1 DUP2 MSTORE PUSH1 0x20 ADD PUSH1 0x40 MLOAD DUP1 SWAP2 SUB SWAP1 KECCAK256 PUSH0 SWAP1 SLOAD SWAP1 PUSH2 0x100 EXP SWAP1 DIV PUSH20 0xFFFFFFFFFFFFFFFFFFFFFFFFFFFFFFFFFFFFFFFF AND SWAP1 POP SWAP2 SWAP1 POP JUMP JUMPDEST PUSH0 PUSH1 0x2 PUSH0 DUP5 PUSH8 0xFFFFFFFFFFFFFFFF AND PUSH8 0xFFFFFFFFFFFFFFFF AND DUP2 MSTORE PUSH1 0x20 ADD SWAP1 DUP2 MSTORE PUSH1 0x20 ADD PUSH0 KECCAK256 DUP3 PUSH1 0x40 MLOAD PUSH2 0x2CD SWAP2 SWAP1 PUSH2 0x772 JUMP JUMPDEST SWAP1 DUP2 MSTORE PUSH1 0x20 ADD PUSH1 0x40 MLOAD DUP1 SWAP2 SUB SWAP1 KECCAK256 PUSH0 SWAP1 SLOAD SWAP1 PUSH2 0x100 EXP SWAP1 DIV PUSH8 0xFFFFFFFFFFFFFFFF AND SWAP1 POP SWAP3 SWAP2 POP POP JUMP JUMPDEST PUSH0 PUSH1 0x1 PUSH0 DUP5 PUSH8 0xFFFFFFFFFFFFFFFF AND PUSH8 0xFFFFFFFFFFFFFFFF AND DUP2 MSTORE PUSH1 0x20 ADD SWAP1 DUP2 MSTORE PUSH1 0x20 ADD PUSH0 KECCAK256 DUP3 PUSH1 0x40 MLOAD PUSH2 0x32B SWAP2 SWAP1 PUSH2 0x772 JUMP JUMPDEST SWAP1 DUP2 MSTORE PUSH1 0x20 ADD PUSH1 0x40 MLOAD DUP1 SWAP2 SUB SWAP1 KECCAK256 PUSH0 SWAP1 SLOAD SWAP1 PUSH2 0x100 EXP SWAP1 DIV PUSH20 0xFFFFFFFFFFFFFFFFFFFFFFFFFFFFFFFFFFFFFFFF AND SWAP1 POP SWAP3 SWAP2 POP POP JUMP JUMPDEST PUSH0 DUP1 PUSH0 DUP2 DUP2 SWAP1 SLOAD SWAP1 PUSH2 0x100 EXP SWAP1 DIV PUSH8 0xFFFFFFFFFFFFFFFF AND DUP1 SWAP3 SWAP2 SWAP1 PUSH2 0x386 SWAP1 PUSH2 0x7B5 JUMP JUMPDEST SWAP2 SWAP1 PUSH2 0x100 EXP DUP2 SLOAD DUP2 PUSH8 0xFFFFFFFFFFFFFFFF MUL NOT AND SWAP1 DUP4 PUSH8 0xFFFFFFFFFFFFFFFF AND MUL OR SWAP1 SSTORE POP SWAP1 POP SWAP1 JUMP JUMPDEST PUSH0 PUSH1 0x40 MLOAD SWAP1 POP SWAP1 JUMP JUMPDEST PUSH0 DUP1 REVERT JUMPDEST PUSH0 DUP1 REVERT JUMPDEST PUSH0 PUSH8 0xFFFFFFFFFFFFFFFF DUP3 AND SWAP1 POP SWAP2 SWAP1 POP JUMP JUMPDEST PUSH2 0x3DE DUP2 PUSH2 0x3C2 JUMP JUMPDEST DUP2 EQ PUSH2 0x3E8 JUMPI PUSH0 DUP1 REVERT JUMPDEST POP JUMP JUMPDEST PUSH0 DUP2 CALLDATALOAD SWAP1 POP PUSH2 0x3F9 DUP2 PUSH2 0x3D5 JUMP JUMPDEST SWAP3 SWAP2 POP POP JUMP JUMPDEST PUSH0 DUP1 REVERT JUMPDEST PUSH0 DUP1 REVERT JUMPDEST PUSH0 PUSH1 0x1F NOT PUSH1 0x1F DUP4 ADD AND SWAP1 POP SWAP2 SWAP1 POP JUMP JUMPDEST PUSH32 0x4E487B7100000000000000000000000000000000000000000000000000000000 PUSH0 MSTORE PUSH1 0x41 PUSH1 0x4 MSTORE PUSH1 0x24 PUSH0 REVERT JUMPDEST PUSH2 0x44D DUP3 PUSH2 0x407 JUMP JUMPDEST DUP2 ADD DUP2 DUP2 LT PUSH8 0xFFFFFFFFFFFFFFFF DUP3 GT OR ISZERO PUSH2 0x46C JUMPI PUSH2 0x46B PUSH2 0x417 JUMP JUMPDEST JUMPDEST DUP1 PUSH1 0x40 MSTORE POP POP POP JUMP JUMPDEST PUSH0 PUSH2 0x47E PUSH2 0x3B1 JUMP JUMPDEST SWAP1 POP PUSH2 0x48A DUP3 DUP3 PUSH2 0x444 JUMP JUMPDEST SWAP2 SWAP1 POP JUMP JUMPDEST PUSH0 PUSH8 0xFFFFFFFFFFFFFFFF DUP3 GT ISZERO PUSH2 0x4A9 JUMPI PUSH2 0x4A8 PUSH2 0x417 JUMP JUMPDEST JUMPDEST PUSH2 0x4B2 DUP3 PUSH2 0x407 JUMP JUMPDEST SWAP1 POP PUSH1 0x20 DUP2 ADD SWAP1 POP SWAP2 SWAP1 POP JUMP JUMPDEST DUP3 DUP2 DUP4 CALLDATACOPY PUSH0 DUP4 DUP4 ADD MSTORE POP POP POP JUMP JUMPDEST PUSH0 PUSH2 0x4DF PUSH2 0x4DA DUP5 PUSH2 0x48F JUMP JUMPDEST PUSH2 0x475 JUMP JUMPDEST SWAP1 POP DUP3 DUP2 MSTORE PUSH1 0x20 DUP2 ADD DUP5 DUP5 DUP5 ADD GT ISZERO PUSH2 0x4FB JUMPI PUSH2 0x4FA PUSH2 0x403 JUMP JUMPDEST JUMPDEST PUSH2 0x506 DUP5 DUP3 DUP6 PUSH2 0x4BF JUMP JUMPDEST POP SWAP4 SWAP3 POP POP POP JUMP JUMPDEST PUSH0 DUP3 PUSH1 0x1F DUP4 ADD SLT PUSH2 0x522 JUMPI PUSH2 0x521 PUSH2 0x3FF JUMP JUMPDEST JUMPDEST DUP2 CALLDATALOAD PUSH2 0x532 DUP5 DUP3 PUSH1 0x20 DUP7 ADD PUSH2 0x4CD JUMP JUMPDEST SWAP2 POP POP SWAP3 SWAP2 POP POP JUMP JUMPDEST PUSH0 PUSH20 0xFFFFFFFFFFFFFFFFFFFFFFFFFFFFFFFFFFFFFFFF DUP3 AND SWAP1 POP SWAP2 SWAP1 POP JUMP JUMPDEST PUSH0 PUSH2 0x564 DUP3 PUSH2 0x53B JUMP JUMPDEST SWAP1 POP SWAP2 SWAP1 POP JUMP JUMPDEST PUSH2 0x574 DUP2 PUSH2 0x55A JUMP JUMPDEST DUP2 EQ PUSH2 0x57E JUMPI PUSH0 DUP1 REVERT JUMPDEST POP JUMP JUMPDEST PUSH0 DUP2 CALLDATALOAD SWAP1 POP PUSH2 0x58F DUP2 PUSH2 0x56B JUMP JUMPDEST SWAP3 SWAP2 POP POP JUMP JUMPDEST PUSH0 DUP1 PUSH0 DUP1 PUSH1 0x80 DUP6 DUP8 SUB SLT ISZERO PUSH2 0x5AD JUMPI PUSH2 0x5AC PUSH2 0x3BA JUMP JUMPDEST JUMPDEST PUSH0 PUSH2 0x5BA DUP8 DUP3 DUP9 ADD PUSH2 0x3EB JUMP JUMPDEST SWAP5 POP POP PUSH1 0x20 DUP6 ADD CALLDATALOAD PUSH8 0xFFFFFFFFFFFFFFFF DUP2 GT ISZERO PUSH2 0x5DB JUMPI PUSH2 0x5DA PUSH2 0x3BE JUMP JUMPDEST JUMPDEST PUSH2 0x5E7 DUP8 DUP3 DUP9 ADD PUSH2 0x50E JUMP JUMPDEST SWAP4 POP POP PUSH1 0x40 PUSH2 0x5F8 DUP8 DUP3 DUP9 ADD PUSH2 0x581 JUMP JUMPDEST SWAP3 POP POP PUSH1 0x60 PUSH2 0x609 DUP8 DUP3 DUP9 ADD PUSH2 0x3EB JUMP JUMPDEST SWAP2 POP POP SWAP3 SWAP6 SWAP2 SWAP5 POP SWAP3 POP JUMP JUMPDEST PUSH2 0x61E DUP2 PUSH2 0x3C2 JUMP JUMPDEST DUP3 MSTORE POP POP JUMP JUMPDEST PUSH0 PUSH1 0x20 DUP3 ADD SWAP1 POP PUSH2 0x637 PUSH0 DUP4 ADD DUP5 PUSH2 0x615 JUMP JUMPDEST SWAP3 SWAP2 POP POP JUMP JUMPDEST PUSH0 PUSH1 0x20 DUP3 DUP5 SUB SLT ISZERO PUSH2 0x652 JUMPI PUSH2 0x651 PUSH2 0x3BA JUMP JUMPDEST JUMPDEST PUSH0 DUP3 ADD CALLDATALOAD PUSH8 0xFFFFFFFFFFFFFFFF DUP2 GT ISZERO PUSH2 0x66F JUMPI PUSH2 0x66E PUSH2 0x3BE JUMP JUMPDEST JUMPDEST PUSH2 0x67B DUP5 DUP3 DUP6 ADD PUSH2 0x50E JUMP JUMPDEST SWAP2 POP POP SWAP3 SWAP2 POP POP JUMP JUMPDEST PUSH2 0x68D DUP2 PUSH2 0x55A JUMP JUMPDEST DUP3 MSTORE POP POP JUMP JUMPDEST PUSH0 PUSH1 0x20 DUP3 ADD SWAP1 POP PUSH2 0x6A6 PUSH0 DUP4 ADD DUP5 PUSH2 0x684 JUMP JUMPDEST SWAP3 SWAP2 POP POP JUMP JUMPDEST PUSH0 DUP1 PUSH1 0x40 DUP4 DUP6 SUB SLT ISZERO PUSH2 0x6C2 JUMPI PUSH2 0x6C1 PUSH2 0x3BA JUMP JUMPDEST JUMPDEST PUSH0 PUSH2 0x6CF DUP6 DUP3 DUP7 ADD PUSH2 0x3EB JUMP JUMPDEST SWAP3 POP POP PUSH1 0x20 DUP4 ADD CALLDATALOAD PUSH8 0xFFFFFFFFFFFFFFFF DUP2 GT ISZERO PUSH2 0x6F0 JUMPI PUSH2 0x6EF PUSH2 0x3BE JUMP JUMPDEST JUMPDEST PUSH2 0x6FC DUP6 DUP3 DUP7 ADD PUSH2 0x50E JUMP JUMPDEST SWAP2 POP POP SWAP3 POP SWAP3 SWAP1 POP JUMP JUMPDEST PUSH0 DUP2 MLOAD SWAP1 POP SWAP2 SWAP1 POP JUMP JUMPDEST PUSH0 DUP2 SWAP1 POP SWAP3 SWAP2 POP POP JUMP JUMPDEST PUSH0 JUMPDEST DUP4 DUP2 LT ISZERO PUSH2 0x737 JUMPI DUP1 DUP3 ADD MLOAD DUP2 DUP5 ADD MSTORE PUSH1 0x20 DUP2 ADD SWAP1 POP PUSH2 0x71C JUMP JUMPDEST PUSH0 DUP5 DUP5 ADD MSTORE POP POP POP POP JUMP JUMPDEST PUSH0 PUSH2 0x74C DUP3 PUSH2 0x706 JUMP JUMPDEST PUSH2 0x756 DUP2 DUP6 PUSH2 0x710 JUMP JUMPDEST SWAP4 POP PUSH2 0x766 DUP2 DUP6 PUSH1 0x20 DUP7 ADD PUSH2 0x71A JUMP JUMPDEST DUP1 DUP5 ADD SWAP2 POP POP SWAP3 SWAP2 POP POP JUMP JUMPDEST PUSH0 PUSH2 0x77D DUP3 DUP5 PUSH2 0x742 JUMP JUMPDEST SWAP2 POP DUP2 SWAP1 POP SWAP3 SWAP2 POP POP JUMP JUMPDEST PUSH32 0x4E487B7100000000000000000000000000000000000000000000000000000000 PUSH0 MSTORE PUSH1 0x11 PUSH1 0x4 MSTORE PUSH1 0x24 PUSH0 REVERT JUMPDEST PUSH0 PUSH2 0x7BF DUP3 PUSH2 0x3C2 JUMP JUMPDEST SWAP2 POP PUSH8 0xFFFFFFFFFFFFFFFF DUP3 SUB PUSH2 0x7D9 JUMPI PUSH2 0x7D8 PUSH2 0x788 JUMP JUMPDEST JUMPDEST PUSH1 0x1 DUP3 ADD SWAP1 POP SWAP2 SWAP1 POP JUMP INVALID LOG2 PUSH5 0x6970667358 0x22 SLT KECCAK256 0xBE DUP1 0xF7 0xCC 0xCC SGT 0xE4 SWAP1 PUSH1 0x23 0x28 0xBE 0xE1 0xEB 0x26 SGT OR 0xA7 PC 0xDB LOG2 0xD0 0xC7 RETURN DUP7 ADD PUSH26 0x8FADEAE3764736F6C6343000816003300000000000000000000 "
				},
				"gasEstimates": {
					"creation": {
						"codeDepositCost": "414800",
						"executionCost": "infinite",
						"totalCost": "infinite"
					},
					"external": {
						"createInstance()": "infinite",
						"getDataObject(string)": "infinite",
						"getImportedDataObject(uint64,string)": "infinite",
						"getImportedDataObjectInstance(uint64,string)": "infinite",
						"getLatestInstanceId()": "2473",
						"importDataObject(uint64,string,address,uint64)": "infinite"
					}
				},
				"methodIdentifiers": {
					"createInstance()": "ad501467",
					"getDataObject(string)": "91e44f31",
					"getImportedDataObject(uint64,string)": "a63043de",
					"getImportedDataObjectInstance(uint64,string)": "a1f8db0d",
					"getLatestInstanceId()": "89d21522",
					"importDataObject(uint64,string,address,uint64)": "6db0159b"
				}
			},
			"storageLayout": {
				"storage": [
					{
						"astId": 3,
						"contract": "contracts/cont.sol:DataObjectStore",
						"label": "instanceId",
						"offset": 0,
						"slot": "0",
						"type": "t_uint64"
					},
					{
						"astId": 9,
						"contract": "contracts/cont.sol:DataObjectStore",
						"label": "importReferences",
						"offset": 0,
						"slot": "1",
						"type": "t_mapping(t_uint64,t_mapping(t_string_memory_ptr,t_address))"
					},
					{
						"astId": 15,
						"contract": "contracts/cont.sol:DataObjectStore",
						"label": "importInstanceIds",
						"offset": 0,
						"slot": "2",
						"type": "t_mapping(t_uint64,t_mapping(t_string_memory_ptr,t_uint64))"
					},
					{
						"astId": 19,
						"contract": "contracts/cont.sol:DataObjectStore",
						"label": "dataObjects",
						"offset": 0,
						"slot": "3",
						"type": "t_mapping(t_string_memory_ptr,t_address)"
					}
				],
				"types": {
					"t_address": {
						"encoding": "inplace",
						"label": "address",
						"numberOfBytes": "20"
					},
					"t_mapping(t_string_memory_ptr,t_address)": {
						"encoding": "mapping",
						"key": "t_string_memory_ptr",
						"label": "mapping(string => address)",
						"numberOfBytes": "32",
						"value": "t_address"
					},
					"t_mapping(t_string_memory_ptr,t_uint64)": {
						"encoding": "mapping",
						"key": "t_string_memory_ptr",
						"label": "mapping(string => uint64)",
						"numberOfBytes": "32",
						"value": "t_uint64"
					},
					"t_mapping(t_uint64,t_mapping(t_string_memory_ptr,t_address))": {
						"encoding": "mapping",
						"key": "t_uint64",
						"label": "mapping(uint64 => mapping(string => address))",
						"numberOfBytes": "32",
						"value": "t_mapping(t_string_memory_ptr,t_address)"
					},
					"t_mapping(t_uint64,t_mapping(t_string_memory_ptr,t_uint64))": {
						"encoding": "mapping",
						"key": "t_uint64",
						"label": "mapping(uint64 => mapping(string => uint64))",
						"numberOfBytes": "32",
						"value": "t_mapping(t_string_memory_ptr,t_uint64)"
					},
					"t_string_memory_ptr": {
						"encoding": "bytes",
						"label": "string",
						"numberOfBytes": "32"
					},
					"t_uint64": {
						"encoding": "inplace",
						"label": "uint64",
						"numberOfBytes": "8"
					}
				}
			},
			"userdoc": {
				"kind": "user",
				"methods": {},
				"version": 1
			}
		}
	}
}