{
	"contracts/GreenGuardian.sol": {
		"Lands": {
			"abi": [
				{
					"inputs": [],
					"name": "_companyContractAddress",
					"outputs": [
						{
							"internalType": "address",
							"name": "",
							"type": "address"
						}
					],
					"stateMutability": "view",
					"type": "function"
				},
				{
					"inputs": [
						{
							"internalType": "address",
							"name": "",
							"type": "address"
						}
					],
					"name": "emergencyNotifications",
					"outputs": [
						{
							"internalType": "string",
							"name": "",
							"type": "string"
						}
					],
					"stateMutability": "view",
					"type": "function"
				},
				{
					"inputs": [
						{
							"internalType": "address",
							"name": "userAddress",
							"type": "address"
						}
					],
					"name": "getEmergency",
					"outputs": [
						{
							"internalType": "string",
							"name": "",
							"type": "string"
						}
					],
					"stateMutability": "view",
					"type": "function"
				},
				{
					"inputs": [
						{
							"internalType": "uint64",
							"name": "landId",
							"type": "uint64"
						}
					],
					"name": "getLandInfo",
					"outputs": [
						{
							"internalType": "uint64",
							"name": "",
							"type": "uint64"
						},
						{
							"internalType": "string",
							"name": "",
							"type": "string"
						},
						{
							"internalType": "string",
							"name": "",
							"type": "string"
						},
						{
							"internalType": "string",
							"name": "",
							"type": "string"
						},
						{
							"internalType": "uint64",
							"name": "",
							"type": "uint64"
						},
						{
							"internalType": "uint64",
							"name": "",
							"type": "uint64"
						}
					],
					"stateMutability": "view",
					"type": "function"
				},
				{
					"inputs": [
						{
							"internalType": "uint64",
							"name": "",
							"type": "uint64"
						}
					],
					"name": "lands",
					"outputs": [
						{
							"internalType": "uint64",
							"name": "blockId",
							"type": "uint64"
						},
						{
							"internalType": "uint64",
							"name": "areaId",
							"type": "uint64"
						},
						{
							"internalType": "string",
							"name": "province",
							"type": "string"
						},
						{
							"internalType": "string",
							"name": "town",
							"type": "string"
						},
						{
							"internalType": "string",
							"name": "street",
							"type": "string"
						},
						{
							"internalType": "uint64",
							"name": "latitude",
							"type": "uint64"
						},
						{
							"internalType": "uint64",
							"name": "longitude",
							"type": "uint64"
						}
					],
					"stateMutability": "view",
					"type": "function"
				},
				{
					"inputs": [],
					"name": "latestBlockId",
					"outputs": [
						{
							"internalType": "uint64",
							"name": "",
							"type": "uint64"
						}
					],
					"stateMutability": "view",
					"type": "function"
				},
				{
					"inputs": [],
					"name": "latestLandId",
					"outputs": [
						{
							"internalType": "uint64",
							"name": "",
							"type": "uint64"
						}
					],
					"stateMutability": "view",
					"type": "function"
				},
				{
					"inputs": [
						{
							"internalType": "string",
							"name": "province",
							"type": "string"
						},
						{
							"internalType": "string",
							"name": "town",
							"type": "string"
						},
						{
							"internalType": "string",
							"name": "street",
							"type": "string"
						},
						{
							"internalType": "uint64",
							"name": "latitude",
							"type": "uint64"
						},
						{
							"internalType": "uint64",
							"name": "longitude",
							"type": "uint64"
						}
					],
					"name": "registerLand",
					"outputs": [],
					"stateMutability": "nonpayable",
					"type": "function"
				},
				{
					"inputs": [
						{
							"internalType": "address",
							"name": "user",
							"type": "address"
						},
						{
							"internalType": "string",
							"name": "emergencyMessage",
							"type": "string"
						}
					],
					"name": "reportEmergency",
					"outputs": [],
					"stateMutability": "nonpayable",
					"type": "function"
				}
			],
			"devdoc": {
				"kind": "dev",
				"methods": {},
				"version": 1
			},
			"evm": {
				"assembly": "    /* \"contracts/GreenGuardian.sol\":5036:6614  contract Lands {... */\n  mstore(0x40, 0x80)\n    /* \"contracts/GreenGuardian.sol\":5468:5469  0 */\n  0x00\n    /* \"contracts/GreenGuardian.sol\":5439:5469  uint64 public latestLandId = 0 */\n  0x03\n  exp(0x0100, 0x00)\n  dup2\n  sload\n  dup2\n  0xffffffffffffffff\n  mul\n  not\n  and\n  swap1\n  dup4\n  0xffffffffffffffff\n  and\n  mul\n  or\n  swap1\n  sstore\n  pop\n    /* \"contracts/GreenGuardian.sol\":5506:5507  0 */\n  0x00\n    /* \"contracts/GreenGuardian.sol\":5476:5507  uint64 public latestBlockId = 0 */\n  0x03\n  exp(0x0100, 0x08)\n  dup2\n  sload\n  dup2\n  0xffffffffffffffff\n  mul\n  not\n  and\n  swap1\n  dup4\n  0xffffffffffffffff\n  and\n  mul\n  or\n  swap1\n  sstore\n  pop\n    /* \"contracts/GreenGuardian.sol\":5036:6614  contract Lands {... */\n  callvalue\n  dup1\n  iszero\n  tag_1\n  jumpi\n  0x00\n  dup1\n  revert\ntag_1:\n  pop\n  dataSize(sub_0)\n  dup1\n  dataOffset(sub_0)\n  0x00\n  codecopy\n  0x00\n  return\nstop\n\nsub_0: assembly {\n        /* \"contracts/GreenGuardian.sol\":5036:6614  contract Lands {... */\n      mstore(0x40, 0x80)\n      callvalue\n      dup1\n      iszero\n      tag_1\n      jumpi\n      0x00\n      dup1\n      revert\n    tag_1:\n      pop\n      jumpi(tag_2, lt(calldatasize, 0x04))\n      shr(0xe0, calldataload(0x00))\n      dup1\n      0x8a45a0a0\n      gt\n      tag_12\n      jumpi\n      dup1\n      0x8a45a0a0\n      eq\n      tag_7\n      jumpi\n      dup1\n      0xa4388d22\n      eq\n      tag_8\n      jumpi\n      dup1\n      0xb0847f81\n      eq\n      tag_9\n      jumpi\n      dup1\n      0xe17a1a33\n      eq\n      tag_10\n      jumpi\n      dup1\n      0xe736fed3\n      eq\n      tag_11\n      jumpi\n      jump(tag_2)\n    tag_12:\n      dup1\n      0x11c75810\n      eq\n      tag_3\n      jumpi\n      dup1\n      0x3f44b15e\n      eq\n      tag_4\n      jumpi\n      dup1\n      0x78a51933\n      eq\n      tag_5\n      jumpi\n      dup1\n      0x81469478\n      eq\n      tag_6\n      jumpi\n    tag_2:\n      0x00\n      dup1\n      revert\n        /* \"contracts/GreenGuardian.sol\":5994:6277  function getLandInfo(uint64 landId) public view returns (uint64, string memory, string memory, string memory, uint64, uint64) {... */\n    tag_3:\n      tag_13\n      0x04\n      dup1\n      calldatasize\n      sub\n      dup2\n      add\n      swap1\n      tag_14\n      swap2\n      swap1\n      tag_15\n      jump\t// in\n    tag_14:\n      tag_16\n      jump\t// in\n    tag_13:\n      mload(0x40)\n      tag_17\n      swap7\n      swap6\n      swap5\n      swap4\n      swap3\n      swap2\n      swap1\n      tag_18\n      jump\t// in\n    tag_17:\n      mload(0x40)\n      dup1\n      swap2\n      sub\n      swap1\n      return\n        /* \"contracts/GreenGuardian.sol\":5376:5432  mapping(address => string) public emergencyNotifications */\n    tag_4:\n      tag_19\n      0x04\n      dup1\n      calldatasize\n      sub\n      dup2\n      add\n      swap1\n      tag_20\n      swap2\n      swap1\n      tag_21\n      jump\t// in\n    tag_20:\n      tag_22\n      jump\t// in\n    tag_19:\n      mload(0x40)\n      tag_23\n      swap2\n      swap1\n      tag_24\n      jump\t// in\n    tag_23:\n      mload(0x40)\n      dup1\n      swap2\n      sub\n      swap1\n      return\n        /* \"contracts/GreenGuardian.sol\":5284:5322  address public _companyContractAddress */\n    tag_5:\n      tag_25\n      tag_26\n      jump\t// in\n    tag_25:\n      mload(0x40)\n      tag_27\n      swap2\n      swap1\n      tag_28\n      jump\t// in\n    tag_27:\n      mload(0x40)\n      dup1\n      swap2\n      sub\n      swap1\n      return\n        /* \"contracts/GreenGuardian.sol\":6465:6609  function reportEmergency(address user, string memory emergencyMessage) public {... */\n    tag_6:\n      tag_29\n      0x04\n      dup1\n      calldatasize\n      sub\n      dup2\n      add\n      swap1\n      tag_30\n      swap2\n      swap1\n      tag_31\n      jump\t// in\n    tag_30:\n      tag_32\n      jump\t// in\n    tag_29:\n      stop\n        /* \"contracts/GreenGuardian.sol\":6283:6459  function getEmergency(address userAddress) public view returns (string memory) {... */\n    tag_7:\n      tag_33\n      0x04\n      dup1\n      calldatasize\n      sub\n      dup2\n      add\n      swap1\n      tag_34\n      swap2\n      swap1\n      tag_21\n      jump\t// in\n    tag_34:\n      tag_35\n      jump\t// in\n    tag_33:\n      mload(0x40)\n      tag_36\n      swap2\n      swap1\n      tag_24\n      jump\t// in\n    tag_36:\n      mload(0x40)\n      dup1\n      swap2\n      sub\n      swap1\n      return\n        /* \"contracts/GreenGuardian.sol\":5476:5507  uint64 public latestBlockId = 0 */\n    tag_8:\n      tag_37\n      tag_38\n      jump\t// in\n    tag_37:\n      mload(0x40)\n      tag_39\n      swap2\n      swap1\n      tag_40\n      jump\t// in\n    tag_39:\n      mload(0x40)\n      dup1\n      swap2\n      sub\n      swap1\n      return\n        /* \"contracts/GreenGuardian.sol\":5439:5469  uint64 public latestLandId = 0 */\n    tag_9:\n      tag_41\n      tag_42\n      jump\t// in\n    tag_41:\n      mload(0x40)\n      tag_43\n      swap2\n      swap1\n      tag_40\n      jump\t// in\n    tag_43:\n      mload(0x40)\n      dup1\n      swap2\n      sub\n      swap1\n      return\n        /* \"contracts/GreenGuardian.sol\":5329:5369  mapping(uint64 => LandInfo) public lands */\n    tag_10:\n      tag_44\n      0x04\n      dup1\n      calldatasize\n      sub\n      dup2\n      add\n      swap1\n      tag_45\n      swap2\n      swap1\n      tag_15\n      jump\t// in\n    tag_45:\n      tag_46\n      jump\t// in\n    tag_44:\n      mload(0x40)\n      tag_47\n      swap8\n      swap7\n      swap6\n      swap5\n      swap4\n      swap3\n      swap2\n      swap1\n      tag_48\n      jump\t// in\n    tag_47:\n      mload(0x40)\n      dup1\n      swap2\n      sub\n      swap1\n      return\n        /* \"contracts/GreenGuardian.sol\":5516:5986  function registerLand(string memory province, string memory town, string memory street, uint64 latitude, uint64 longitude) public {... */\n    tag_11:\n      tag_49\n      0x04\n      dup1\n      calldatasize\n      sub\n      dup2\n      add\n      swap1\n      tag_50\n      swap2\n      swap1\n      tag_51\n      jump\t// in\n    tag_50:\n      tag_52\n      jump\t// in\n    tag_49:\n      stop\n        /* \"contracts/GreenGuardian.sol\":5994:6277  function getLandInfo(uint64 landId) public view returns (uint64, string memory, string memory, string memory, uint64, uint64) {... */\n    tag_16:\n        /* \"contracts/GreenGuardian.sol\":6051:6057  uint64 */\n      0x00\n        /* \"contracts/GreenGuardian.sol\":6059:6072  string memory */\n      0x60\n        /* \"contracts/GreenGuardian.sol\":6074:6087  string memory */\n      dup1\n        /* \"contracts/GreenGuardian.sol\":6089:6102  string memory */\n      0x60\n        /* \"contracts/GreenGuardian.sol\":6104:6110  uint64 */\n      0x00\n        /* \"contracts/GreenGuardian.sol\":6112:6118  uint64 */\n      dup1\n        /* \"contracts/GreenGuardian.sol\":6131:6152  LandInfo storage info */\n      0x00\n        /* \"contracts/GreenGuardian.sol\":6155:6160  lands */\n      0x01\n        /* \"contracts/GreenGuardian.sol\":6155:6168  lands[landId] */\n      0x00\n        /* \"contracts/GreenGuardian.sol\":6161:6167  landId */\n      dup10\n        /* \"contracts/GreenGuardian.sol\":6155:6168  lands[landId] */\n      0xffffffffffffffff\n      and\n      0xffffffffffffffff\n      and\n      dup2\n      mstore\n      0x20\n      add\n      swap1\n      dup2\n      mstore\n      0x20\n      add\n      0x00\n      keccak256\n        /* \"contracts/GreenGuardian.sol\":6131:6168  LandInfo storage info = lands[landId] */\n      swap1\n      pop\n        /* \"contracts/GreenGuardian.sol\":6187:6191  info */\n      dup1\n        /* \"contracts/GreenGuardian.sol\":6187:6198  info.areaId */\n      0x00\n      add\n      0x08\n      swap1\n      sload\n      swap1\n      0x0100\n      exp\n      swap1\n      div\n      0xffffffffffffffff\n      and\n        /* \"contracts/GreenGuardian.sol\":6200:6204  info */\n      dup2\n        /* \"contracts/GreenGuardian.sol\":6200:6213  info.province */\n      0x01\n      add\n        /* \"contracts/GreenGuardian.sol\":6215:6219  info */\n      dup3\n        /* \"contracts/GreenGuardian.sol\":6215:6224  info.town */\n      0x02\n      add\n        /* \"contracts/GreenGuardian.sol\":6226:6230  info */\n      dup4\n        /* \"contracts/GreenGuardian.sol\":6226:6237  info.street */\n      0x03\n      add\n        /* \"contracts/GreenGuardian.sol\":6239:6243  info */\n      dup5\n        /* \"contracts/GreenGuardian.sol\":6239:6252  info.latitude */\n      0x04\n      add\n      0x00\n      swap1\n      sload\n      swap1\n      0x0100\n      exp\n      swap1\n      div\n      0xffffffffffffffff\n      and\n        /* \"contracts/GreenGuardian.sol\":6254:6258  info */\n      dup6\n        /* \"contracts/GreenGuardian.sol\":6254:6268  info.longitude */\n      0x04\n      add\n      0x08\n      swap1\n      sload\n      swap1\n      0x0100\n      exp\n      swap1\n      div\n      0xffffffffffffffff\n      and\n        /* \"contracts/GreenGuardian.sol\":6179:6269  return (info.areaId, info.province, info.town, info.street, info.latitude, info.longitude) */\n      dup5\n      dup1\n      sload\n      tag_54\n      swap1\n      tag_55\n      jump\t// in\n    tag_54:\n      dup1\n      0x1f\n      add\n      0x20\n      dup1\n      swap2\n      div\n      mul\n      0x20\n      add\n      mload(0x40)\n      swap1\n      dup2\n      add\n      0x40\n      mstore\n      dup1\n      swap3\n      swap2\n      swap1\n      dup2\n      dup2\n      mstore\n      0x20\n      add\n      dup3\n      dup1\n      sload\n      tag_56\n      swap1\n      tag_55\n      jump\t// in\n    tag_56:\n      dup1\n      iszero\n      tag_57\n      jumpi\n      dup1\n      0x1f\n      lt\n      tag_58\n      jumpi\n      0x0100\n      dup1\n      dup4\n      sload\n      div\n      mul\n      dup4\n      mstore\n      swap2\n      0x20\n      add\n      swap2\n      jump(tag_57)\n    tag_58:\n      dup3\n      add\n      swap2\n      swap1\n      0x00\n      mstore\n      keccak256(0x00, 0x20)\n      swap1\n    tag_59:\n      dup2\n      sload\n      dup2\n      mstore\n      swap1\n      0x01\n      add\n      swap1\n      0x20\n      add\n      dup1\n      dup4\n      gt\n      tag_59\n      jumpi\n      dup3\n      swap1\n      sub\n      0x1f\n      and\n      dup3\n      add\n      swap2\n    tag_57:\n      pop\n      pop\n      pop\n      pop\n      pop\n      swap5\n      pop\n      dup4\n      dup1\n      sload\n      tag_60\n      swap1\n      tag_55\n      jump\t// in\n    tag_60:\n      dup1\n      0x1f\n      add\n      0x20\n      dup1\n      swap2\n      div\n      mul\n      0x20\n      add\n      mload(0x40)\n      swap1\n      dup2\n      add\n      0x40\n      mstore\n      dup1\n      swap3\n      swap2\n      swap1\n      dup2\n      dup2\n      mstore\n      0x20\n      add\n      dup3\n      dup1\n      sload\n      tag_61\n      swap1\n      tag_55\n      jump\t// in\n    tag_61:\n      dup1\n      iszero\n      tag_62\n      jumpi\n      dup1\n      0x1f\n      lt\n      tag_63\n      jumpi\n      0x0100\n      dup1\n      dup4\n      sload\n      div\n      mul\n      dup4\n      mstore\n      swap2\n      0x20\n      add\n      swap2\n      jump(tag_62)\n    tag_63:\n      dup3\n      add\n      swap2\n      swap1\n      0x00\n      mstore\n      keccak256(0x00, 0x20)\n      swap1\n    tag_64:\n      dup2\n      sload\n      dup2\n      mstore\n      swap1\n      0x01\n      add\n      swap1\n      0x20\n      add\n      dup1\n      dup4\n      gt\n      tag_64\n      jumpi\n      dup3\n      swap1\n      sub\n      0x1f\n      and\n      dup3\n      add\n      swap2\n    tag_62:\n      pop\n      pop\n      pop\n      pop\n      pop\n      swap4\n      pop\n      dup3\n      dup1\n      sload\n      tag_65\n      swap1\n      tag_55\n      jump\t// in\n    tag_65:\n      dup1\n      0x1f\n      add\n      0x20\n      dup1\n      swap2\n      div\n      mul\n      0x20\n      add\n      mload(0x40)\n      swap1\n      dup2\n      add\n      0x40\n      mstore\n      dup1\n      swap3\n      swap2\n      swap1\n      dup2\n      dup2\n      mstore\n      0x20\n      add\n      dup3\n      dup1\n      sload\n      tag_66\n      swap1\n      tag_55\n      jump\t// in\n    tag_66:\n      dup1\n      iszero\n      tag_67\n      jumpi\n      dup1\n      0x1f\n      lt\n      tag_68\n      jumpi\n      0x0100\n      dup1\n      dup4\n      sload\n      div\n      mul\n      dup4\n      mstore\n      swap2\n      0x20\n      add\n      swap2\n      jump(tag_67)\n    tag_68:\n      dup3\n      add\n      swap2\n      swap1\n      0x00\n      mstore\n      keccak256(0x00, 0x20)\n      swap1\n    tag_69:\n      dup2\n      sload\n      dup2\n      mstore\n      swap1\n      0x01\n      add\n      swap1\n      0x20\n      add\n      dup1\n      dup4\n      gt\n      tag_69\n      jumpi\n      dup3\n      swap1\n      sub\n      0x1f\n      and\n      dup3\n      add\n      swap2\n    tag_67:\n      pop\n      pop\n      pop\n      pop\n      pop\n      swap3\n      pop\n      swap7\n      pop\n      swap7\n      pop\n      swap7\n      pop\n      swap7\n      pop\n      swap7\n      pop\n      swap7\n      pop\n      pop\n        /* \"contracts/GreenGuardian.sol\":5994:6277  function getLandInfo(uint64 landId) public view returns (uint64, string memory, string memory, string memory, uint64, uint64) {... */\n      swap2\n      swap4\n      swap6\n      pop\n      swap2\n      swap4\n      swap6\n      jump\t// out\n        /* \"contracts/GreenGuardian.sol\":5376:5432  mapping(address => string) public emergencyNotifications */\n    tag_22:\n      mstore(0x20, 0x02)\n      dup1\n      0x00\n      mstore\n      keccak256(0x00, 0x40)\n      0x00\n      swap2\n      pop\n      swap1\n      pop\n      dup1\n      sload\n      tag_70\n      swap1\n      tag_55\n      jump\t// in\n    tag_70:\n      dup1\n      0x1f\n      add\n      0x20\n      dup1\n      swap2\n      div\n      mul\n      0x20\n      add\n      mload(0x40)\n      swap1\n      dup2\n      add\n      0x40\n      mstore\n      dup1\n      swap3\n      swap2\n      swap1\n      dup2\n      dup2\n      mstore\n      0x20\n      add\n      dup3\n      dup1\n      sload\n      tag_71\n      swap1\n      tag_55\n      jump\t// in\n    tag_71:\n      dup1\n      iszero\n      tag_72\n      jumpi\n      dup1\n      0x1f\n      lt\n      tag_73\n      jumpi\n      0x0100\n      dup1\n      dup4\n      sload\n      div\n      mul\n      dup4\n      mstore\n      swap2\n      0x20\n      add\n      swap2\n      jump(tag_72)\n    tag_73:\n      dup3\n      add\n      swap2\n      swap1\n      0x00\n      mstore\n      keccak256(0x00, 0x20)\n      swap1\n    tag_74:\n      dup2\n      sload\n      dup2\n      mstore\n      swap1\n      0x01\n      add\n      swap1\n      0x20\n      add\n      dup1\n      dup4\n      gt\n      tag_74\n      jumpi\n      dup3\n      swap1\n      sub\n      0x1f\n      and\n      dup3\n      add\n      swap2\n    tag_72:\n      pop\n      pop\n      pop\n      pop\n      pop\n      dup2\n      jump\t// out\n        /* \"contracts/GreenGuardian.sol\":5284:5322  address public _companyContractAddress */\n    tag_26:\n      0x00\n      dup1\n      sload\n      swap1\n      0x0100\n      exp\n      swap1\n      div\n      0xffffffffffffffffffffffffffffffffffffffff\n      and\n      dup2\n      jump\t// out\n        /* \"contracts/GreenGuardian.sol\":6465:6609  function reportEmergency(address user, string memory emergencyMessage) public {... */\n    tag_32:\n        /* \"contracts/GreenGuardian.sol\":6585:6601  emergencyMessage */\n      dup1\n        /* \"contracts/GreenGuardian.sol\":6554:6576  emergencyNotifications */\n      0x02\n        /* \"contracts/GreenGuardian.sol\":6554:6582  emergencyNotifications[user] */\n      0x00\n        /* \"contracts/GreenGuardian.sol\":6577:6581  user */\n      dup5\n        /* \"contracts/GreenGuardian.sol\":6554:6582  emergencyNotifications[user] */\n      0xffffffffffffffffffffffffffffffffffffffff\n      and\n      0xffffffffffffffffffffffffffffffffffffffff\n      and\n      dup2\n      mstore\n      0x20\n      add\n      swap1\n      dup2\n      mstore\n      0x20\n      add\n      0x00\n      keccak256\n        /* \"contracts/GreenGuardian.sol\":6554:6601  emergencyNotifications[user] = emergencyMessage */\n      swap1\n      dup2\n      tag_76\n      swap2\n      swap1\n      tag_77\n      jump\t// in\n    tag_76:\n      pop\n        /* \"contracts/GreenGuardian.sol\":6465:6609  function reportEmergency(address user, string memory emergencyMessage) public {... */\n      pop\n      pop\n      jump\t// out\n        /* \"contracts/GreenGuardian.sol\":6283:6459  function getEmergency(address userAddress) public view returns (string memory) {... */\n    tag_35:\n        /* \"contracts/GreenGuardian.sol\":6347:6360  string memory */\n      0x60\n        /* \"contracts/GreenGuardian.sol\":6416:6438  emergencyNotifications */\n      0x02\n        /* \"contracts/GreenGuardian.sol\":6416:6451  emergencyNotifications[userAddress] */\n      0x00\n        /* \"contracts/GreenGuardian.sol\":6439:6450  userAddress */\n      dup4\n        /* \"contracts/GreenGuardian.sol\":6416:6451  emergencyNotifications[userAddress] */\n      0xffffffffffffffffffffffffffffffffffffffff\n      and\n      0xffffffffffffffffffffffffffffffffffffffff\n      and\n      dup2\n      mstore\n      0x20\n      add\n      swap1\n      dup2\n      mstore\n      0x20\n      add\n      0x00\n      keccak256\n        /* \"contracts/GreenGuardian.sol\":6409:6451  return emergencyNotifications[userAddress] */\n      dup1\n      sload\n      tag_79\n      swap1\n      tag_55\n      jump\t// in\n    tag_79:\n      dup1\n      0x1f\n      add\n      0x20\n      dup1\n      swap2\n      div\n      mul\n      0x20\n      add\n      mload(0x40)\n      swap1\n      dup2\n      add\n      0x40\n      mstore\n      dup1\n      swap3\n      swap2\n      swap1\n      dup2\n      dup2\n      mstore\n      0x20\n      add\n      dup3\n      dup1\n      sload\n      tag_80\n      swap1\n      tag_55\n      jump\t// in\n    tag_80:\n      dup1\n      iszero\n      tag_81\n      jumpi\n      dup1\n      0x1f\n      lt\n      tag_82\n      jumpi\n      0x0100\n      dup1\n      dup4\n      sload\n      div\n      mul\n      dup4\n      mstore\n      swap2\n      0x20\n      add\n      swap2\n      jump(tag_81)\n    tag_82:\n      dup3\n      add\n      swap2\n      swap1\n      0x00\n      mstore\n      keccak256(0x00, 0x20)\n      swap1\n    tag_83:\n      dup2\n      sload\n      dup2\n      mstore\n      swap1\n      0x01\n      add\n      swap1\n      0x20\n      add\n      dup1\n      dup4\n      gt\n      tag_83\n      jumpi\n      dup3\n      swap1\n      sub\n      0x1f\n      and\n      dup3\n      add\n      swap2\n    tag_81:\n      pop\n      pop\n      pop\n      pop\n      pop\n      swap1\n      pop\n        /* \"contracts/GreenGuardian.sol\":6283:6459  function getEmergency(address userAddress) public view returns (string memory) {... */\n      swap2\n      swap1\n      pop\n      jump\t// out\n        /* \"contracts/GreenGuardian.sol\":5476:5507  uint64 public latestBlockId = 0 */\n    tag_38:\n      0x03\n      0x08\n      swap1\n      sload\n      swap1\n      0x0100\n      exp\n      swap1\n      div\n      0xffffffffffffffff\n      and\n      dup2\n      jump\t// out\n        /* \"contracts/GreenGuardian.sol\":5439:5469  uint64 public latestLandId = 0 */\n    tag_42:\n      0x03\n      0x00\n      swap1\n      sload\n      swap1\n      0x0100\n      exp\n      swap1\n      div\n      0xffffffffffffffff\n      and\n      dup2\n      jump\t// out\n        /* \"contracts/GreenGuardian.sol\":5329:5369  mapping(uint64 => LandInfo) public lands */\n    tag_46:\n      mstore(0x20, 0x01)\n      dup1\n      0x00\n      mstore\n      keccak256(0x00, 0x40)\n      0x00\n      swap2\n      pop\n      swap1\n      pop\n      dup1\n      0x00\n      add\n      0x00\n      swap1\n      sload\n      swap1\n      0x0100\n      exp\n      swap1\n      div\n      0xffffffffffffffff\n      and\n      swap1\n      dup1\n      0x00\n      add\n      0x08\n      swap1\n      sload\n      swap1\n      0x0100\n      exp\n      swap1\n      div\n      0xffffffffffffffff\n      and\n      swap1\n      dup1\n      0x01\n      add\n      dup1\n      sload\n      tag_84\n      swap1\n      tag_55\n      jump\t// in\n    tag_84:\n      dup1\n      0x1f\n      add\n      0x20\n      dup1\n      swap2\n      div\n      mul\n      0x20\n      add\n      mload(0x40)\n      swap1\n      dup2\n      add\n      0x40\n      mstore\n      dup1\n      swap3\n      swap2\n      swap1\n      dup2\n      dup2\n      mstore\n      0x20\n      add\n      dup3\n      dup1\n      sload\n      tag_85\n      swap1\n      tag_55\n      jump\t// in\n    tag_85:\n      dup1\n      iszero\n      tag_86\n      jumpi\n      dup1\n      0x1f\n      lt\n      tag_87\n      jumpi\n      0x0100\n      dup1\n      dup4\n      sload\n      div\n      mul\n      dup4\n      mstore\n      swap2\n      0x20\n      add\n      swap2\n      jump(tag_86)\n    tag_87:\n      dup3\n      add\n      swap2\n      swap1\n      0x00\n      mstore\n      keccak256(0x00, 0x20)\n      swap1\n    tag_88:\n      dup2\n      sload\n      dup2\n      mstore\n      swap1\n      0x01\n      add\n      swap1\n      0x20\n      add\n      dup1\n      dup4\n      gt\n      tag_88\n      jumpi\n      dup3\n      swap1\n      sub\n      0x1f\n      and\n      dup3\n      add\n      swap2\n    tag_86:\n      pop\n      pop\n      pop\n      pop\n      pop\n      swap1\n      dup1\n      0x02\n      add\n      dup1\n      sload\n      tag_89\n      swap1\n      tag_55\n      jump\t// in\n    tag_89:\n      dup1\n      0x1f\n      add\n      0x20\n      dup1\n      swap2\n      div\n      mul\n      0x20\n      add\n      mload(0x40)\n      swap1\n      dup2\n      add\n      0x40\n      mstore\n      dup1\n      swap3\n      swap2\n      swap1\n      dup2\n      dup2\n      mstore\n      0x20\n      add\n      dup3\n      dup1\n      sload\n      tag_90\n      swap1\n      tag_55\n      jump\t// in\n    tag_90:\n      dup1\n      iszero\n      tag_91\n      jumpi\n      dup1\n      0x1f\n      lt\n      tag_92\n      jumpi\n      0x0100\n      dup1\n      dup4\n      sload\n      div\n      mul\n      dup4\n      mstore\n      swap2\n      0x20\n      add\n      swap2\n      jump(tag_91)\n    tag_92:\n      dup3\n      add\n      swap2\n      swap1\n      0x00\n      mstore\n      keccak256(0x00, 0x20)\n      swap1\n    tag_93:\n      dup2\n      sload\n      dup2\n      mstore\n      swap1\n      0x01\n      add\n      swap1\n      0x20\n      add\n      dup1\n      dup4\n      gt\n      tag_93\n      jumpi\n      dup3\n      swap1\n      sub\n      0x1f\n      and\n      dup3\n      add\n      swap2\n    tag_91:\n      pop\n      pop\n      pop\n      pop\n      pop\n      swap1\n      dup1\n      0x03\n      add\n      dup1\n      sload\n      tag_94\n      swap1\n      tag_55\n      jump\t// in\n    tag_94:\n      dup1\n      0x1f\n      add\n      0x20\n      dup1\n      swap2\n      div\n      mul\n      0x20\n      add\n      mload(0x40)\n      swap1\n      dup2\n      add\n      0x40\n      mstore\n      dup1\n      swap3\n      swap2\n      swap1\n      dup2\n      dup2\n      mstore\n      0x20\n      add\n      dup3\n      dup1\n      sload\n      tag_95\n      swap1\n      tag_55\n      jump\t// in\n    tag_95:\n      dup1\n      iszero\n      tag_96\n      jumpi\n      dup1\n      0x1f\n      lt\n      tag_97\n      jumpi\n      0x0100\n      dup1\n      dup4\n      sload\n      div\n      mul\n      dup4\n      mstore\n      swap2\n      0x20\n      add\n      swap2\n      jump(tag_96)\n    tag_97:\n      dup3\n      add\n      swap2\n      swap1\n      0x00\n      mstore\n      keccak256(0x00, 0x20)\n      swap1\n    tag_98:\n      dup2\n      sload\n      dup2\n      mstore\n      swap1\n      0x01\n      add\n      swap1\n      0x20\n      add\n      dup1\n      dup4\n      gt\n      tag_98\n      jumpi\n      dup3\n      swap1\n      sub\n      0x1f\n      and\n      dup3\n      add\n      swap2\n    tag_96:\n      pop\n      pop\n      pop\n      pop\n      pop\n      swap1\n      dup1\n      0x04\n      add\n      0x00\n      swap1\n      sload\n      swap1\n      0x0100\n      exp\n      swap1\n      div\n      0xffffffffffffffff\n      and\n      swap1\n      dup1\n      0x04\n      add\n      0x08\n      swap1\n      sload\n      swap1\n      0x0100\n      exp\n      swap1\n      div\n      0xffffffffffffffff\n      and\n      swap1\n      pop\n      dup8\n      jump\t// out\n        /* \"contracts/GreenGuardian.sol\":5516:5986  function registerLand(string memory province, string memory town, string memory street, uint64 latitude, uint64 longitude) public {... */\n    tag_52:\n        /* \"contracts/GreenGuardian.sol\":5657:5669  latestLandId */\n      0x03\n      0x00\n        /* \"contracts/GreenGuardian.sol\":5657:5671  latestLandId++ */\n      dup2\n      dup2\n      swap1\n      sload\n      swap1\n      0x0100\n      exp\n      swap1\n      div\n      0xffffffffffffffff\n      and\n      dup1\n      swap3\n      swap2\n      swap1\n      tag_100\n      swap1\n      tag_101\n      jump\t// in\n    tag_100:\n      swap2\n      swap1\n      0x0100\n      exp\n      dup2\n      sload\n      dup2\n      0xffffffffffffffff\n      mul\n      not\n      and\n      swap1\n      dup4\n      0xffffffffffffffff\n      and\n      mul\n      or\n      swap1\n      sstore\n      pop\n      pop\n        /* \"contracts/GreenGuardian.sol\":5682:5695  latestBlockId */\n      0x03\n      0x08\n        /* \"contracts/GreenGuardian.sol\":5682:5697  latestBlockId++ */\n      dup2\n      dup2\n      swap1\n      sload\n      swap1\n      0x0100\n      exp\n      swap1\n      div\n      0xffffffffffffffff\n      and\n      dup1\n      swap3\n      swap2\n      swap1\n      tag_102\n      swap1\n      tag_101\n      jump\t// in\n    tag_102:\n      swap2\n      swap1\n      0x0100\n      exp\n      dup2\n      sload\n      dup2\n      0xffffffffffffffff\n      mul\n      not\n      and\n      swap1\n      dup4\n      0xffffffffffffffff\n      and\n      mul\n      or\n      swap1\n      sstore\n      pop\n      pop\n        /* \"contracts/GreenGuardian.sol\":5730:5978  LandInfo({... */\n      mload(0x40)\n      dup1\n      0xe0\n      add\n      0x40\n      mstore\n      dup1\n        /* \"contracts/GreenGuardian.sol\":5763:5776  latestBlockId */\n      0x03\n      0x08\n      swap1\n      sload\n      swap1\n      0x0100\n      exp\n      swap1\n      div\n      0xffffffffffffffff\n      and\n        /* \"contracts/GreenGuardian.sol\":5730:5978  LandInfo({... */\n      0xffffffffffffffff\n      and\n      dup2\n      mstore\n      0x20\n      add\n        /* \"contracts/GreenGuardian.sol\":5799:5811  latestLandId */\n      0x03\n      0x00\n      swap1\n      sload\n      swap1\n      0x0100\n      exp\n      swap1\n      div\n      0xffffffffffffffff\n      and\n        /* \"contracts/GreenGuardian.sol\":5730:5978  LandInfo({... */\n      0xffffffffffffffff\n      and\n      dup2\n      mstore\n      0x20\n      add\n        /* \"contracts/GreenGuardian.sol\":5836:5844  province */\n      dup7\n        /* \"contracts/GreenGuardian.sol\":5730:5978  LandInfo({... */\n      dup2\n      mstore\n      0x20\n      add\n        /* \"contracts/GreenGuardian.sol\":5865:5869  town */\n      dup6\n        /* \"contracts/GreenGuardian.sol\":5730:5978  LandInfo({... */\n      dup2\n      mstore\n      0x20\n      add\n        /* \"contracts/GreenGuardian.sol\":5892:5898  street */\n      dup5\n        /* \"contracts/GreenGuardian.sol\":5730:5978  LandInfo({... */\n      dup2\n      mstore\n      0x20\n      add\n        /* \"contracts/GreenGuardian.sol\":5923:5931  latitude */\n      dup4\n        /* \"contracts/GreenGuardian.sol\":5730:5978  LandInfo({... */\n      0xffffffffffffffff\n      and\n      dup2\n      mstore\n      0x20\n      add\n        /* \"contracts/GreenGuardian.sol\":5957:5966  longitude */\n      dup3\n        /* \"contracts/GreenGuardian.sol\":5730:5978  LandInfo({... */\n      0xffffffffffffffff\n      and\n      dup2\n      mstore\n      pop\n        /* \"contracts/GreenGuardian.sol\":5708:5713  lands */\n      0x01\n        /* \"contracts/GreenGuardian.sol\":5708:5727  lands[latestLandId] */\n      0x00\n        /* \"contracts/GreenGuardian.sol\":5714:5726  latestLandId */\n      0x03\n      0x00\n      swap1\n      sload\n      swap1\n      0x0100\n      exp\n      swap1\n      div\n      0xffffffffffffffff\n      and\n        /* \"contracts/GreenGuardian.sol\":5708:5727  lands[latestLandId] */\n      0xffffffffffffffff\n      and\n      0xffffffffffffffff\n      and\n      dup2\n      mstore\n      0x20\n      add\n      swap1\n      dup2\n      mstore\n      0x20\n      add\n      0x00\n      keccak256\n        /* \"contracts/GreenGuardian.sol\":5708:5978  lands[latestLandId] = LandInfo({... */\n      0x00\n      dup3\n      add\n      mload\n      dup2\n      0x00\n      add\n      exp(0x0100, 0x00)\n      dup2\n      sload\n      dup2\n      0xffffffffffffffff\n      mul\n      not\n      and\n      swap1\n      dup4\n      0xffffffffffffffff\n      and\n      mul\n      or\n      swap1\n      sstore\n      pop\n      0x20\n      dup3\n      add\n      mload\n      dup2\n      0x00\n      add\n      exp(0x0100, 0x08)\n      dup2\n      sload\n      dup2\n      0xffffffffffffffff\n      mul\n      not\n      and\n      swap1\n      dup4\n      0xffffffffffffffff\n      and\n      mul\n      or\n      swap1\n      sstore\n      pop\n      0x40\n      dup3\n      add\n      mload\n      dup2\n      0x01\n      add\n      swap1\n      dup2\n      tag_103\n      swap2\n      swap1\n      tag_77\n      jump\t// in\n    tag_103:\n      pop\n      0x60\n      dup3\n      add\n      mload\n      dup2\n      0x02\n      add\n      swap1\n      dup2\n      tag_104\n      swap2\n      swap1\n      tag_77\n      jump\t// in\n    tag_104:\n      pop\n      0x80\n      dup3\n      add\n      mload\n      dup2\n      0x03\n      add\n      swap1\n      dup2\n      tag_105\n      swap2\n      swap1\n      tag_77\n      jump\t// in\n    tag_105:\n      pop\n      0xa0\n      dup3\n      add\n      mload\n      dup2\n      0x04\n      add\n      exp(0x0100, 0x00)\n      dup2\n      sload\n      dup2\n      0xffffffffffffffff\n      mul\n      not\n      and\n      swap1\n      dup4\n      0xffffffffffffffff\n      and\n      mul\n      or\n      swap1\n      sstore\n      pop\n      0xc0\n      dup3\n      add\n      mload\n      dup2\n      0x04\n      add\n      exp(0x0100, 0x08)\n      dup2\n      sload\n      dup2\n      0xffffffffffffffff\n      mul\n      not\n      and\n      swap1\n      dup4\n      0xffffffffffffffff\n      and\n      mul\n      or\n      swap1\n      sstore\n      pop\n      swap1\n      pop\n      pop\n        /* \"contracts/GreenGuardian.sol\":5516:5986  function registerLand(string memory province, string memory town, string memory street, uint64 latitude, uint64 longitude) public {... */\n      pop\n      pop\n      pop\n      pop\n      pop\n      jump\t// out\n        /* \"#utility.yul\":7:82   */\n    tag_106:\n        /* \"#utility.yul\":40:46   */\n      0x00\n        /* \"#utility.yul\":73:75   */\n      0x40\n        /* \"#utility.yul\":67:76   */\n      mload\n        /* \"#utility.yul\":57:76   */\n      swap1\n      pop\n        /* \"#utility.yul\":7:82   */\n      swap1\n      jump\t// out\n        /* \"#utility.yul\":88:205   */\n    tag_107:\n        /* \"#utility.yul\":197:198   */\n      0x00\n        /* \"#utility.yul\":194:195   */\n      dup1\n        /* \"#utility.yul\":187:199   */\n      revert\n        /* \"#utility.yul\":211:328   */\n    tag_108:\n        /* \"#utility.yul\":320:321   */\n      0x00\n        /* \"#utility.yul\":317:318   */\n      dup1\n        /* \"#utility.yul\":310:322   */\n      revert\n        /* \"#utility.yul\":334:435   */\n    tag_109:\n        /* \"#utility.yul\":370:377   */\n      0x00\n        /* \"#utility.yul\":410:428   */\n      0xffffffffffffffff\n        /* \"#utility.yul\":403:408   */\n      dup3\n        /* \"#utility.yul\":399:429   */\n      and\n        /* \"#utility.yul\":388:429   */\n      swap1\n      pop\n        /* \"#utility.yul\":334:435   */\n      swap2\n      swap1\n      pop\n      jump\t// out\n        /* \"#utility.yul\":441:561   */\n    tag_110:\n        /* \"#utility.yul\":513:536   */\n      tag_156\n        /* \"#utility.yul\":530:535   */\n      dup2\n        /* \"#utility.yul\":513:536   */\n      tag_109\n      jump\t// in\n    tag_156:\n        /* \"#utility.yul\":506:511   */\n      dup2\n        /* \"#utility.yul\":503:537   */\n      eq\n        /* \"#utility.yul\":493:555   */\n      tag_157\n      jumpi\n        /* \"#utility.yul\":551:552   */\n      0x00\n        /* \"#utility.yul\":548:549   */\n      dup1\n        /* \"#utility.yul\":541:553   */\n      revert\n        /* \"#utility.yul\":493:555   */\n    tag_157:\n        /* \"#utility.yul\":441:561   */\n      pop\n      jump\t// out\n        /* \"#utility.yul\":567:704   */\n    tag_111:\n        /* \"#utility.yul\":612:617   */\n      0x00\n        /* \"#utility.yul\":650:656   */\n      dup2\n        /* \"#utility.yul\":637:657   */\n      calldataload\n        /* \"#utility.yul\":628:657   */\n      swap1\n      pop\n        /* \"#utility.yul\":666:698   */\n      tag_159\n        /* \"#utility.yul\":692:697   */\n      dup2\n        /* \"#utility.yul\":666:698   */\n      tag_110\n      jump\t// in\n    tag_159:\n        /* \"#utility.yul\":567:704   */\n      swap3\n      swap2\n      pop\n      pop\n      jump\t// out\n        /* \"#utility.yul\":710:1037   */\n    tag_15:\n        /* \"#utility.yul\":768:774   */\n      0x00\n        /* \"#utility.yul\":817:819   */\n      0x20\n        /* \"#utility.yul\":805:814   */\n      dup3\n        /* \"#utility.yul\":796:803   */\n      dup5\n        /* \"#utility.yul\":792:815   */\n      sub\n        /* \"#utility.yul\":788:820   */\n      slt\n        /* \"#utility.yul\":785:904   */\n      iszero\n      tag_161\n      jumpi\n        /* \"#utility.yul\":823:902   */\n      tag_162\n      tag_107\n      jump\t// in\n    tag_162:\n        /* \"#utility.yul\":785:904   */\n    tag_161:\n        /* \"#utility.yul\":943:944   */\n      0x00\n        /* \"#utility.yul\":968:1020   */\n      tag_163\n        /* \"#utility.yul\":1012:1019   */\n      dup5\n        /* \"#utility.yul\":1003:1009   */\n      dup3\n        /* \"#utility.yul\":992:1001   */\n      dup6\n        /* \"#utility.yul\":988:1010   */\n      add\n        /* \"#utility.yul\":968:1020   */\n      tag_111\n      jump\t// in\n    tag_163:\n        /* \"#utility.yul\":958:1020   */\n      swap2\n      pop\n        /* \"#utility.yul\":914:1030   */\n      pop\n        /* \"#utility.yul\":710:1037   */\n      swap3\n      swap2\n      pop\n      pop\n      jump\t// out\n        /* \"#utility.yul\":1043:1158   */\n    tag_112:\n        /* \"#utility.yul\":1128:1151   */\n      tag_165\n        /* \"#utility.yul\":1145:1150   */\n      dup2\n        /* \"#utility.yul\":1128:1151   */\n      tag_109\n      jump\t// in\n    tag_165:\n        /* \"#utility.yul\":1123:1126   */\n      dup3\n        /* \"#utility.yul\":1116:1152   */\n      mstore\n        /* \"#utility.yul\":1043:1158   */\n      pop\n      pop\n      jump\t// out\n        /* \"#utility.yul\":1164:1263   */\n    tag_113:\n        /* \"#utility.yul\":1216:1222   */\n      0x00\n        /* \"#utility.yul\":1250:1255   */\n      dup2\n        /* \"#utility.yul\":1244:1256   */\n      mload\n        /* \"#utility.yul\":1234:1256   */\n      swap1\n      pop\n        /* \"#utility.yul\":1164:1263   */\n      swap2\n      swap1\n      pop\n      jump\t// out\n        /* \"#utility.yul\":1269:1438   */\n    tag_114:\n        /* \"#utility.yul\":1353:1364   */\n      0x00\n        /* \"#utility.yul\":1387:1393   */\n      dup3\n        /* \"#utility.yul\":1382:1385   */\n      dup3\n        /* \"#utility.yul\":1375:1394   */\n      mstore\n        /* \"#utility.yul\":1427:1431   */\n      0x20\n        /* \"#utility.yul\":1422:1425   */\n      dup3\n        /* \"#utility.yul\":1418:1432   */\n      add\n        /* \"#utility.yul\":1403:1432   */\n      swap1\n      pop\n        /* \"#utility.yul\":1269:1438   */\n      swap3\n      swap2\n      pop\n      pop\n      jump\t// out\n        /* \"#utility.yul\":1444:1690   */\n    tag_115:\n        /* \"#utility.yul\":1525:1526   */\n      0x00\n        /* \"#utility.yul\":1535:1648   */\n    tag_169:\n        /* \"#utility.yul\":1549:1555   */\n      dup4\n        /* \"#utility.yul\":1546:1547   */\n      dup2\n        /* \"#utility.yul\":1543:1556   */\n      lt\n        /* \"#utility.yul\":1535:1648   */\n      iszero\n      tag_171\n      jumpi\n        /* \"#utility.yul\":1634:1635   */\n      dup1\n        /* \"#utility.yul\":1629:1632   */\n      dup3\n        /* \"#utility.yul\":1625:1636   */\n      add\n        /* \"#utility.yul\":1619:1637   */\n      mload\n        /* \"#utility.yul\":1615:1616   */\n      dup2\n        /* \"#utility.yul\":1610:1613   */\n      dup5\n        /* \"#utility.yul\":1606:1617   */\n      add\n        /* \"#utility.yul\":1599:1638   */\n      mstore\n        /* \"#utility.yul\":1571:1573   */\n      0x20\n        /* \"#utility.yul\":1568:1569   */\n      dup2\n        /* \"#utility.yul\":1564:1574   */\n      add\n        /* \"#utility.yul\":1559:1574   */\n      swap1\n      pop\n        /* \"#utility.yul\":1535:1648   */\n      jump(tag_169)\n    tag_171:\n        /* \"#utility.yul\":1682:1683   */\n      0x00\n        /* \"#utility.yul\":1673:1679   */\n      dup5\n        /* \"#utility.yul\":1668:1671   */\n      dup5\n        /* \"#utility.yul\":1664:1680   */\n      add\n        /* \"#utility.yul\":1657:1684   */\n      mstore\n        /* \"#utility.yul\":1506:1690   */\n      pop\n        /* \"#utility.yul\":1444:1690   */\n      pop\n      pop\n      pop\n      jump\t// out\n        /* \"#utility.yul\":1696:1798   */\n    tag_116:\n        /* \"#utility.yul\":1737:1743   */\n      0x00\n        /* \"#utility.yul\":1788:1790   */\n      0x1f\n        /* \"#utility.yul\":1784:1791   */\n      not\n        /* \"#utility.yul\":1779:1781   */\n      0x1f\n        /* \"#utility.yul\":1772:1777   */\n      dup4\n        /* \"#utility.yul\":1768:1782   */\n      add\n        /* \"#utility.yul\":1764:1792   */\n      and\n        /* \"#utility.yul\":1754:1792   */\n      swap1\n      pop\n        /* \"#utility.yul\":1696:1798   */\n      swap2\n      swap1\n      pop\n      jump\t// out\n        /* \"#utility.yul\":1804:2181   */\n    tag_117:\n        /* \"#utility.yul\":1892:1895   */\n      0x00\n        /* \"#utility.yul\":1920:1959   */\n      tag_174\n        /* \"#utility.yul\":1953:1958   */\n      dup3\n        /* \"#utility.yul\":1920:1959   */\n      tag_113\n      jump\t// in\n    tag_174:\n        /* \"#utility.yul\":1975:2046   */\n      tag_175\n        /* \"#utility.yul\":2039:2045   */\n      dup2\n        /* \"#utility.yul\":2034:2037   */\n      dup6\n        /* \"#utility.yul\":1975:2046   */\n      tag_114\n      jump\t// in\n    tag_175:\n        /* \"#utility.yul\":1968:2046   */\n      swap4\n      pop\n        /* \"#utility.yul\":2055:2120   */\n      tag_176\n        /* \"#utility.yul\":2113:2119   */\n      dup2\n        /* \"#utility.yul\":2108:2111   */\n      dup6\n        /* \"#utility.yul\":2101:2105   */\n      0x20\n        /* \"#utility.yul\":2094:2099   */\n      dup7\n        /* \"#utility.yul\":2090:2106   */\n      add\n        /* \"#utility.yul\":2055:2120   */\n      tag_115\n      jump\t// in\n    tag_176:\n        /* \"#utility.yul\":2145:2174   */\n      tag_177\n        /* \"#utility.yul\":2167:2173   */\n      dup2\n        /* \"#utility.yul\":2145:2174   */\n      tag_116\n      jump\t// in\n    tag_177:\n        /* \"#utility.yul\":2140:2143   */\n      dup5\n        /* \"#utility.yul\":2136:2175   */\n      add\n        /* \"#utility.yul\":2129:2175   */\n      swap2\n      pop\n        /* \"#utility.yul\":1896:2181   */\n      pop\n        /* \"#utility.yul\":1804:2181   */\n      swap3\n      swap2\n      pop\n      pop\n      jump\t// out\n        /* \"#utility.yul\":2187:3223   */\n    tag_18:\n        /* \"#utility.yul\":2474:2478   */\n      0x00\n        /* \"#utility.yul\":2512:2515   */\n      0xc0\n        /* \"#utility.yul\":2501:2510   */\n      dup3\n        /* \"#utility.yul\":2497:2516   */\n      add\n        /* \"#utility.yul\":2489:2516   */\n      swap1\n      pop\n        /* \"#utility.yul\":2526:2595   */\n      tag_179\n        /* \"#utility.yul\":2592:2593   */\n      0x00\n        /* \"#utility.yul\":2581:2590   */\n      dup4\n        /* \"#utility.yul\":2577:2594   */\n      add\n        /* \"#utility.yul\":2568:2574   */\n      dup10\n        /* \"#utility.yul\":2526:2595   */\n      tag_112\n      jump\t// in\n    tag_179:\n        /* \"#utility.yul\":2642:2651   */\n      dup2\n        /* \"#utility.yul\":2636:2640   */\n      dup2\n        /* \"#utility.yul\":2632:2652   */\n      sub\n        /* \"#utility.yul\":2627:2629   */\n      0x20\n        /* \"#utility.yul\":2616:2625   */\n      dup4\n        /* \"#utility.yul\":2612:2630   */\n      add\n        /* \"#utility.yul\":2605:2653   */\n      mstore\n        /* \"#utility.yul\":2670:2748   */\n      tag_180\n        /* \"#utility.yul\":2743:2747   */\n      dup2\n        /* \"#utility.yul\":2734:2740   */\n      dup9\n        /* \"#utility.yul\":2670:2748   */\n      tag_117\n      jump\t// in\n    tag_180:\n        /* \"#utility.yul\":2662:2748   */\n      swap1\n      pop\n        /* \"#utility.yul\":2795:2804   */\n      dup2\n        /* \"#utility.yul\":2789:2793   */\n      dup2\n        /* \"#utility.yul\":2785:2805   */\n      sub\n        /* \"#utility.yul\":2780:2782   */\n      0x40\n        /* \"#utility.yul\":2769:2778   */\n      dup4\n        /* \"#utility.yul\":2765:2783   */\n      add\n        /* \"#utility.yul\":2758:2806   */\n      mstore\n        /* \"#utility.yul\":2823:2901   */\n      tag_181\n        /* \"#utility.yul\":2896:2900   */\n      dup2\n        /* \"#utility.yul\":2887:2893   */\n      dup8\n        /* \"#utility.yul\":2823:2901   */\n      tag_117\n      jump\t// in\n    tag_181:\n        /* \"#utility.yul\":2815:2901   */\n      swap1\n      pop\n        /* \"#utility.yul\":2948:2957   */\n      dup2\n        /* \"#utility.yul\":2942:2946   */\n      dup2\n        /* \"#utility.yul\":2938:2958   */\n      sub\n        /* \"#utility.yul\":2933:2935   */\n      0x60\n        /* \"#utility.yul\":2922:2931   */\n      dup4\n        /* \"#utility.yul\":2918:2936   */\n      add\n        /* \"#utility.yul\":2911:2959   */\n      mstore\n        /* \"#utility.yul\":2976:3054   */\n      tag_182\n        /* \"#utility.yul\":3049:3053   */\n      dup2\n        /* \"#utility.yul\":3040:3046   */\n      dup7\n        /* \"#utility.yul\":2976:3054   */\n      tag_117\n      jump\t// in\n    tag_182:\n        /* \"#utility.yul\":2968:3054   */\n      swap1\n      pop\n        /* \"#utility.yul\":3064:3135   */\n      tag_183\n        /* \"#utility.yul\":3130:3133   */\n      0x80\n        /* \"#utility.yul\":3119:3128   */\n      dup4\n        /* \"#utility.yul\":3115:3134   */\n      add\n        /* \"#utility.yul\":3106:3112   */\n      dup6\n        /* \"#utility.yul\":3064:3135   */\n      tag_112\n      jump\t// in\n    tag_183:\n        /* \"#utility.yul\":3145:3216   */\n      tag_184\n        /* \"#utility.yul\":3211:3214   */\n      0xa0\n        /* \"#utility.yul\":3200:3209   */\n      dup4\n        /* \"#utility.yul\":3196:3215   */\n      add\n        /* \"#utility.yul\":3187:3193   */\n      dup5\n        /* \"#utility.yul\":3145:3216   */\n      tag_112\n      jump\t// in\n    tag_184:\n        /* \"#utility.yul\":2187:3223   */\n      swap8\n      swap7\n      pop\n      pop\n      pop\n      pop\n      pop\n      pop\n      pop\n      jump\t// out\n        /* \"#utility.yul\":3229:3355   */\n    tag_118:\n        /* \"#utility.yul\":3266:3273   */\n      0x00\n        /* \"#utility.yul\":3306:3348   */\n      0xffffffffffffffffffffffffffffffffffffffff\n        /* \"#utility.yul\":3299:3304   */\n      dup3\n        /* \"#utility.yul\":3295:3349   */\n      and\n        /* \"#utility.yul\":3284:3349   */\n      swap1\n      pop\n        /* \"#utility.yul\":3229:3355   */\n      swap2\n      swap1\n      pop\n      jump\t// out\n        /* \"#utility.yul\":3361:3457   */\n    tag_119:\n        /* \"#utility.yul\":3398:3405   */\n      0x00\n        /* \"#utility.yul\":3427:3451   */\n      tag_187\n        /* \"#utility.yul\":3445:3450   */\n      dup3\n        /* \"#utility.yul\":3427:3451   */\n      tag_118\n      jump\t// in\n    tag_187:\n        /* \"#utility.yul\":3416:3451   */\n      swap1\n      pop\n        /* \"#utility.yul\":3361:3457   */\n      swap2\n      swap1\n      pop\n      jump\t// out\n        /* \"#utility.yul\":3463:3585   */\n    tag_120:\n        /* \"#utility.yul\":3536:3560   */\n      tag_189\n        /* \"#utility.yul\":3554:3559   */\n      dup2\n        /* \"#utility.yul\":3536:3560   */\n      tag_119\n      jump\t// in\n    tag_189:\n        /* \"#utility.yul\":3529:3534   */\n      dup2\n        /* \"#utility.yul\":3526:3561   */\n      eq\n        /* \"#utility.yul\":3516:3579   */\n      tag_190\n      jumpi\n        /* \"#utility.yul\":3575:3576   */\n      0x00\n        /* \"#utility.yul\":3572:3573   */\n      dup1\n        /* \"#utility.yul\":3565:3577   */\n      revert\n        /* \"#utility.yul\":3516:3579   */\n    tag_190:\n        /* \"#utility.yul\":3463:3585   */\n      pop\n      jump\t// out\n        /* \"#utility.yul\":3591:3730   */\n    tag_121:\n        /* \"#utility.yul\":3637:3642   */\n      0x00\n        /* \"#utility.yul\":3675:3681   */\n      dup2\n        /* \"#utility.yul\":3662:3682   */\n      calldataload\n        /* \"#utility.yul\":3653:3682   */\n      swap1\n      pop\n        /* \"#utility.yul\":3691:3724   */\n      tag_192\n        /* \"#utility.yul\":3718:3723   */\n      dup2\n        /* \"#utility.yul\":3691:3724   */\n      tag_120\n      jump\t// in\n    tag_192:\n        /* \"#utility.yul\":3591:3730   */\n      swap3\n      swap2\n      pop\n      pop\n      jump\t// out\n        /* \"#utility.yul\":3736:4065   */\n    tag_21:\n        /* \"#utility.yul\":3795:3801   */\n      0x00\n        /* \"#utility.yul\":3844:3846   */\n      0x20\n        /* \"#utility.yul\":3832:3841   */\n      dup3\n        /* \"#utility.yul\":3823:3830   */\n      dup5\n        /* \"#utility.yul\":3819:3842   */\n      sub\n        /* \"#utility.yul\":3815:3847   */\n      slt\n        /* \"#utility.yul\":3812:3931   */\n      iszero\n      tag_194\n      jumpi\n        /* \"#utility.yul\":3850:3929   */\n      tag_195\n      tag_107\n      jump\t// in\n    tag_195:\n        /* \"#utility.yul\":3812:3931   */\n    tag_194:\n        /* \"#utility.yul\":3970:3971   */\n      0x00\n        /* \"#utility.yul\":3995:4048   */\n      tag_196\n        /* \"#utility.yul\":4040:4047   */\n      dup5\n        /* \"#utility.yul\":4031:4037   */\n      dup3\n        /* \"#utility.yul\":4020:4029   */\n      dup6\n        /* \"#utility.yul\":4016:4038   */\n      add\n        /* \"#utility.yul\":3995:4048   */\n      tag_121\n      jump\t// in\n    tag_196:\n        /* \"#utility.yul\":3985:4048   */\n      swap2\n      pop\n        /* \"#utility.yul\":3941:4058   */\n      pop\n        /* \"#utility.yul\":3736:4065   */\n      swap3\n      swap2\n      pop\n      pop\n      jump\t// out\n        /* \"#utility.yul\":4071:4384   */\n    tag_24:\n        /* \"#utility.yul\":4184:4188   */\n      0x00\n        /* \"#utility.yul\":4222:4224   */\n      0x20\n        /* \"#utility.yul\":4211:4220   */\n      dup3\n        /* \"#utility.yul\":4207:4225   */\n      add\n        /* \"#utility.yul\":4199:4225   */\n      swap1\n      pop\n        /* \"#utility.yul\":4271:4280   */\n      dup2\n        /* \"#utility.yul\":4265:4269   */\n      dup2\n        /* \"#utility.yul\":4261:4281   */\n      sub\n        /* \"#utility.yul\":4257:4258   */\n      0x00\n        /* \"#utility.yul\":4246:4255   */\n      dup4\n        /* \"#utility.yul\":4242:4259   */\n      add\n        /* \"#utility.yul\":4235:4282   */\n      mstore\n        /* \"#utility.yul\":4299:4377   */\n      tag_198\n        /* \"#utility.yul\":4372:4376   */\n      dup2\n        /* \"#utility.yul\":4363:4369   */\n      dup5\n        /* \"#utility.yul\":4299:4377   */\n      tag_117\n      jump\t// in\n    tag_198:\n        /* \"#utility.yul\":4291:4377   */\n      swap1\n      pop\n        /* \"#utility.yul\":4071:4384   */\n      swap3\n      swap2\n      pop\n      pop\n      jump\t// out\n        /* \"#utility.yul\":4390:4508   */\n    tag_122:\n        /* \"#utility.yul\":4477:4501   */\n      tag_200\n        /* \"#utility.yul\":4495:4500   */\n      dup2\n        /* \"#utility.yul\":4477:4501   */\n      tag_119\n      jump\t// in\n    tag_200:\n        /* \"#utility.yul\":4472:4475   */\n      dup3\n        /* \"#utility.yul\":4465:4502   */\n      mstore\n        /* \"#utility.yul\":4390:4508   */\n      pop\n      pop\n      jump\t// out\n        /* \"#utility.yul\":4514:4736   */\n    tag_28:\n        /* \"#utility.yul\":4607:4611   */\n      0x00\n        /* \"#utility.yul\":4645:4647   */\n      0x20\n        /* \"#utility.yul\":4634:4643   */\n      dup3\n        /* \"#utility.yul\":4630:4648   */\n      add\n        /* \"#utility.yul\":4622:4648   */\n      swap1\n      pop\n        /* \"#utility.yul\":4658:4729   */\n      tag_202\n        /* \"#utility.yul\":4726:4727   */\n      0x00\n        /* \"#utility.yul\":4715:4724   */\n      dup4\n        /* \"#utility.yul\":4711:4728   */\n      add\n        /* \"#utility.yul\":4702:4708   */\n      dup5\n        /* \"#utility.yul\":4658:4729   */\n      tag_122\n      jump\t// in\n    tag_202:\n        /* \"#utility.yul\":4514:4736   */\n      swap3\n      swap2\n      pop\n      pop\n      jump\t// out\n        /* \"#utility.yul\":4742:4859   */\n    tag_123:\n        /* \"#utility.yul\":4851:4852   */\n      0x00\n        /* \"#utility.yul\":4848:4849   */\n      dup1\n        /* \"#utility.yul\":4841:4853   */\n      revert\n        /* \"#utility.yul\":4865:4982   */\n    tag_124:\n        /* \"#utility.yul\":4974:4975   */\n      0x00\n        /* \"#utility.yul\":4971:4972   */\n      dup1\n        /* \"#utility.yul\":4964:4976   */\n      revert\n        /* \"#utility.yul\":4988:5168   */\n    tag_125:\n        /* \"#utility.yul\":5036:5113   */\n      0x4e487b7100000000000000000000000000000000000000000000000000000000\n        /* \"#utility.yul\":5033:5034   */\n      0x00\n        /* \"#utility.yul\":5026:5114   */\n      mstore\n        /* \"#utility.yul\":5133:5137   */\n      0x41\n        /* \"#utility.yul\":5130:5131   */\n      0x04\n        /* \"#utility.yul\":5123:5138   */\n      mstore\n        /* \"#utility.yul\":5157:5161   */\n      0x24\n        /* \"#utility.yul\":5154:5155   */\n      0x00\n        /* \"#utility.yul\":5147:5162   */\n      revert\n        /* \"#utility.yul\":5174:5455   */\n    tag_126:\n        /* \"#utility.yul\":5257:5284   */\n      tag_207\n        /* \"#utility.yul\":5279:5283   */\n      dup3\n        /* \"#utility.yul\":5257:5284   */\n      tag_116\n      jump\t// in\n    tag_207:\n        /* \"#utility.yul\":5249:5255   */\n      dup2\n        /* \"#utility.yul\":5245:5285   */\n      add\n        /* \"#utility.yul\":5387:5393   */\n      dup2\n        /* \"#utility.yul\":5375:5385   */\n      dup2\n        /* \"#utility.yul\":5372:5394   */\n      lt\n        /* \"#utility.yul\":5351:5369   */\n      0xffffffffffffffff\n        /* \"#utility.yul\":5339:5349   */\n      dup3\n        /* \"#utility.yul\":5336:5370   */\n      gt\n        /* \"#utility.yul\":5333:5395   */\n      or\n        /* \"#utility.yul\":5330:5418   */\n      iszero\n      tag_208\n      jumpi\n        /* \"#utility.yul\":5398:5416   */\n      tag_209\n      tag_125\n      jump\t// in\n    tag_209:\n        /* \"#utility.yul\":5330:5418   */\n    tag_208:\n        /* \"#utility.yul\":5438:5448   */\n      dup1\n        /* \"#utility.yul\":5434:5436   */\n      0x40\n        /* \"#utility.yul\":5427:5449   */\n      mstore\n        /* \"#utility.yul\":5217:5455   */\n      pop\n        /* \"#utility.yul\":5174:5455   */\n      pop\n      pop\n      jump\t// out\n        /* \"#utility.yul\":5461:5590   */\n    tag_127:\n        /* \"#utility.yul\":5495:5501   */\n      0x00\n        /* \"#utility.yul\":5522:5542   */\n      tag_211\n      tag_106\n      jump\t// in\n    tag_211:\n        /* \"#utility.yul\":5512:5542   */\n      swap1\n      pop\n        /* \"#utility.yul\":5551:5584   */\n      tag_212\n        /* \"#utility.yul\":5579:5583   */\n      dup3\n        /* \"#utility.yul\":5571:5577   */\n      dup3\n        /* \"#utility.yul\":5551:5584   */\n      tag_126\n      jump\t// in\n    tag_212:\n        /* \"#utility.yul\":5461:5590   */\n      swap2\n      swap1\n      pop\n      jump\t// out\n        /* \"#utility.yul\":5596:5904   */\n    tag_128:\n        /* \"#utility.yul\":5658:5662   */\n      0x00\n        /* \"#utility.yul\":5748:5766   */\n      0xffffffffffffffff\n        /* \"#utility.yul\":5740:5746   */\n      dup3\n        /* \"#utility.yul\":5737:5767   */\n      gt\n        /* \"#utility.yul\":5734:5790   */\n      iszero\n      tag_214\n      jumpi\n        /* \"#utility.yul\":5770:5788   */\n      tag_215\n      tag_125\n      jump\t// in\n    tag_215:\n        /* \"#utility.yul\":5734:5790   */\n    tag_214:\n        /* \"#utility.yul\":5808:5837   */\n      tag_216\n        /* \"#utility.yul\":5830:5836   */\n      dup3\n        /* \"#utility.yul\":5808:5837   */\n      tag_116\n      jump\t// in\n    tag_216:\n        /* \"#utility.yul\":5800:5837   */\n      swap1\n      pop\n        /* \"#utility.yul\":5892:5896   */\n      0x20\n        /* \"#utility.yul\":5886:5890   */\n      dup2\n        /* \"#utility.yul\":5882:5897   */\n      add\n        /* \"#utility.yul\":5874:5897   */\n      swap1\n      pop\n        /* \"#utility.yul\":5596:5904   */\n      swap2\n      swap1\n      pop\n      jump\t// out\n        /* \"#utility.yul\":5910:6056   */\n    tag_129:\n        /* \"#utility.yul\":6007:6013   */\n      dup3\n        /* \"#utility.yul\":6002:6005   */\n      dup2\n        /* \"#utility.yul\":5997:6000   */\n      dup4\n        /* \"#utility.yul\":5984:6014   */\n      calldatacopy\n        /* \"#utility.yul\":6048:6049   */\n      0x00\n        /* \"#utility.yul\":6039:6045   */\n      dup4\n        /* \"#utility.yul\":6034:6037   */\n      dup4\n        /* \"#utility.yul\":6030:6046   */\n      add\n        /* \"#utility.yul\":6023:6050   */\n      mstore\n        /* \"#utility.yul\":5910:6056   */\n      pop\n      pop\n      pop\n      jump\t// out\n        /* \"#utility.yul\":6062:6487   */\n    tag_130:\n        /* \"#utility.yul\":6140:6145   */\n      0x00\n        /* \"#utility.yul\":6165:6231   */\n      tag_219\n        /* \"#utility.yul\":6181:6230   */\n      tag_220\n        /* \"#utility.yul\":6223:6229   */\n      dup5\n        /* \"#utility.yul\":6181:6230   */\n      tag_128\n      jump\t// in\n    tag_220:\n        /* \"#utility.yul\":6165:6231   */\n      tag_127\n      jump\t// in\n    tag_219:\n        /* \"#utility.yul\":6156:6231   */\n      swap1\n      pop\n        /* \"#utility.yul\":6254:6260   */\n      dup3\n        /* \"#utility.yul\":6247:6252   */\n      dup2\n        /* \"#utility.yul\":6240:6261   */\n      mstore\n        /* \"#utility.yul\":6292:6296   */\n      0x20\n        /* \"#utility.yul\":6285:6290   */\n      dup2\n        /* \"#utility.yul\":6281:6297   */\n      add\n        /* \"#utility.yul\":6330:6333   */\n      dup5\n        /* \"#utility.yul\":6321:6327   */\n      dup5\n        /* \"#utility.yul\":6316:6319   */\n      dup5\n        /* \"#utility.yul\":6312:6328   */\n      add\n        /* \"#utility.yul\":6309:6334   */\n      gt\n        /* \"#utility.yul\":6306:6418   */\n      iszero\n      tag_221\n      jumpi\n        /* \"#utility.yul\":6337:6416   */\n      tag_222\n      tag_124\n      jump\t// in\n    tag_222:\n        /* \"#utility.yul\":6306:6418   */\n    tag_221:\n        /* \"#utility.yul\":6427:6481   */\n      tag_223\n        /* \"#utility.yul\":6474:6480   */\n      dup5\n        /* \"#utility.yul\":6469:6472   */\n      dup3\n        /* \"#utility.yul\":6464:6467   */\n      dup6\n        /* \"#utility.yul\":6427:6481   */\n      tag_129\n      jump\t// in\n    tag_223:\n        /* \"#utility.yul\":6146:6487   */\n      pop\n        /* \"#utility.yul\":6062:6487   */\n      swap4\n      swap3\n      pop\n      pop\n      pop\n      jump\t// out\n        /* \"#utility.yul\":6507:6847   */\n    tag_131:\n        /* \"#utility.yul\":6563:6568   */\n      0x00\n        /* \"#utility.yul\":6612:6615   */\n      dup3\n        /* \"#utility.yul\":6605:6609   */\n      0x1f\n        /* \"#utility.yul\":6597:6603   */\n      dup4\n        /* \"#utility.yul\":6593:6610   */\n      add\n        /* \"#utility.yul\":6589:6616   */\n      slt\n        /* \"#utility.yul\":6579:6701   */\n      tag_225\n      jumpi\n        /* \"#utility.yul\":6620:6699   */\n      tag_226\n      tag_123\n      jump\t// in\n    tag_226:\n        /* \"#utility.yul\":6579:6701   */\n    tag_225:\n        /* \"#utility.yul\":6737:6743   */\n      dup2\n        /* \"#utility.yul\":6724:6744   */\n      calldataload\n        /* \"#utility.yul\":6762:6841   */\n      tag_227\n        /* \"#utility.yul\":6837:6840   */\n      dup5\n        /* \"#utility.yul\":6829:6835   */\n      dup3\n        /* \"#utility.yul\":6822:6826   */\n      0x20\n        /* \"#utility.yul\":6814:6820   */\n      dup7\n        /* \"#utility.yul\":6810:6827   */\n      add\n        /* \"#utility.yul\":6762:6841   */\n      tag_130\n      jump\t// in\n    tag_227:\n        /* \"#utility.yul\":6753:6841   */\n      swap2\n      pop\n        /* \"#utility.yul\":6569:6847   */\n      pop\n        /* \"#utility.yul\":6507:6847   */\n      swap3\n      swap2\n      pop\n      pop\n      jump\t// out\n        /* \"#utility.yul\":6853:7507   */\n    tag_31:\n        /* \"#utility.yul\":6931:6937   */\n      0x00\n        /* \"#utility.yul\":6939:6945   */\n      dup1\n        /* \"#utility.yul\":6988:6990   */\n      0x40\n        /* \"#utility.yul\":6976:6985   */\n      dup4\n        /* \"#utility.yul\":6967:6974   */\n      dup6\n        /* \"#utility.yul\":6963:6986   */\n      sub\n        /* \"#utility.yul\":6959:6991   */\n      slt\n        /* \"#utility.yul\":6956:7075   */\n      iszero\n      tag_229\n      jumpi\n        /* \"#utility.yul\":6994:7073   */\n      tag_230\n      tag_107\n      jump\t// in\n    tag_230:\n        /* \"#utility.yul\":6956:7075   */\n    tag_229:\n        /* \"#utility.yul\":7114:7115   */\n      0x00\n        /* \"#utility.yul\":7139:7192   */\n      tag_231\n        /* \"#utility.yul\":7184:7191   */\n      dup6\n        /* \"#utility.yul\":7175:7181   */\n      dup3\n        /* \"#utility.yul\":7164:7173   */\n      dup7\n        /* \"#utility.yul\":7160:7182   */\n      add\n        /* \"#utility.yul\":7139:7192   */\n      tag_121\n      jump\t// in\n    tag_231:\n        /* \"#utility.yul\":7129:7192   */\n      swap3\n      pop\n        /* \"#utility.yul\":7085:7202   */\n      pop\n        /* \"#utility.yul\":7269:7271   */\n      0x20\n        /* \"#utility.yul\":7258:7267   */\n      dup4\n        /* \"#utility.yul\":7254:7272   */\n      add\n        /* \"#utility.yul\":7241:7273   */\n      calldataload\n        /* \"#utility.yul\":7300:7318   */\n      0xffffffffffffffff\n        /* \"#utility.yul\":7292:7298   */\n      dup2\n        /* \"#utility.yul\":7289:7319   */\n      gt\n        /* \"#utility.yul\":7286:7403   */\n      iszero\n      tag_232\n      jumpi\n        /* \"#utility.yul\":7322:7401   */\n      tag_233\n      tag_108\n      jump\t// in\n    tag_233:\n        /* \"#utility.yul\":7286:7403   */\n    tag_232:\n        /* \"#utility.yul\":7427:7490   */\n      tag_234\n        /* \"#utility.yul\":7482:7489   */\n      dup6\n        /* \"#utility.yul\":7473:7479   */\n      dup3\n        /* \"#utility.yul\":7462:7471   */\n      dup7\n        /* \"#utility.yul\":7458:7480   */\n      add\n        /* \"#utility.yul\":7427:7490   */\n      tag_131\n      jump\t// in\n    tag_234:\n        /* \"#utility.yul\":7417:7490   */\n      swap2\n      pop\n        /* \"#utility.yul\":7212:7500   */\n      pop\n        /* \"#utility.yul\":6853:7507   */\n      swap3\n      pop\n      swap3\n      swap1\n      pop\n      jump\t// out\n        /* \"#utility.yul\":7513:7731   */\n    tag_40:\n        /* \"#utility.yul\":7604:7608   */\n      0x00\n        /* \"#utility.yul\":7642:7644   */\n      0x20\n        /* \"#utility.yul\":7631:7640   */\n      dup3\n        /* \"#utility.yul\":7627:7645   */\n      add\n        /* \"#utility.yul\":7619:7645   */\n      swap1\n      pop\n        /* \"#utility.yul\":7655:7724   */\n      tag_236\n        /* \"#utility.yul\":7721:7722   */\n      0x00\n        /* \"#utility.yul\":7710:7719   */\n      dup4\n        /* \"#utility.yul\":7706:7723   */\n      add\n        /* \"#utility.yul\":7697:7703   */\n      dup5\n        /* \"#utility.yul\":7655:7724   */\n      tag_112\n      jump\t// in\n    tag_236:\n        /* \"#utility.yul\":7513:7731   */\n      swap3\n      swap2\n      pop\n      pop\n      jump\t// out\n        /* \"#utility.yul\":7737:8880   */\n    tag_48:\n        /* \"#utility.yul\":8050:8054   */\n      0x00\n        /* \"#utility.yul\":8088:8091   */\n      0xe0\n        /* \"#utility.yul\":8077:8086   */\n      dup3\n        /* \"#utility.yul\":8073:8092   */\n      add\n        /* \"#utility.yul\":8065:8092   */\n      swap1\n      pop\n        /* \"#utility.yul\":8102:8171   */\n      tag_238\n        /* \"#utility.yul\":8168:8169   */\n      0x00\n        /* \"#utility.yul\":8157:8166   */\n      dup4\n        /* \"#utility.yul\":8153:8170   */\n      add\n        /* \"#utility.yul\":8144:8150   */\n      dup11\n        /* \"#utility.yul\":8102:8171   */\n      tag_112\n      jump\t// in\n    tag_238:\n        /* \"#utility.yul\":8181:8251   */\n      tag_239\n        /* \"#utility.yul\":8247:8249   */\n      0x20\n        /* \"#utility.yul\":8236:8245   */\n      dup4\n        /* \"#utility.yul\":8232:8250   */\n      add\n        /* \"#utility.yul\":8223:8229   */\n      dup10\n        /* \"#utility.yul\":8181:8251   */\n      tag_112\n      jump\t// in\n    tag_239:\n        /* \"#utility.yul\":8298:8307   */\n      dup2\n        /* \"#utility.yul\":8292:8296   */\n      dup2\n        /* \"#utility.yul\":8288:8308   */\n      sub\n        /* \"#utility.yul\":8283:8285   */\n      0x40\n        /* \"#utility.yul\":8272:8281   */\n      dup4\n        /* \"#utility.yul\":8268:8286   */\n      add\n        /* \"#utility.yul\":8261:8309   */\n      mstore\n        /* \"#utility.yul\":8326:8404   */\n      tag_240\n        /* \"#utility.yul\":8399:8403   */\n      dup2\n        /* \"#utility.yul\":8390:8396   */\n      dup9\n        /* \"#utility.yul\":8326:8404   */\n      tag_117\n      jump\t// in\n    tag_240:\n        /* \"#utility.yul\":8318:8404   */\n      swap1\n      pop\n        /* \"#utility.yul\":8451:8460   */\n      dup2\n        /* \"#utility.yul\":8445:8449   */\n      dup2\n        /* \"#utility.yul\":8441:8461   */\n      sub\n        /* \"#utility.yul\":8436:8438   */\n      0x60\n        /* \"#utility.yul\":8425:8434   */\n      dup4\n        /* \"#utility.yul\":8421:8439   */\n      add\n        /* \"#utility.yul\":8414:8462   */\n      mstore\n        /* \"#utility.yul\":8479:8557   */\n      tag_241\n        /* \"#utility.yul\":8552:8556   */\n      dup2\n        /* \"#utility.yul\":8543:8549   */\n      dup8\n        /* \"#utility.yul\":8479:8557   */\n      tag_117\n      jump\t// in\n    tag_241:\n        /* \"#utility.yul\":8471:8557   */\n      swap1\n      pop\n        /* \"#utility.yul\":8605:8614   */\n      dup2\n        /* \"#utility.yul\":8599:8603   */\n      dup2\n        /* \"#utility.yul\":8595:8615   */\n      sub\n        /* \"#utility.yul\":8589:8592   */\n      0x80\n        /* \"#utility.yul\":8578:8587   */\n      dup4\n        /* \"#utility.yul\":8574:8593   */\n      add\n        /* \"#utility.yul\":8567:8616   */\n      mstore\n        /* \"#utility.yul\":8633:8711   */\n      tag_242\n        /* \"#utility.yul\":8706:8710   */\n      dup2\n        /* \"#utility.yul\":8697:8703   */\n      dup7\n        /* \"#utility.yul\":8633:8711   */\n      tag_117\n      jump\t// in\n    tag_242:\n        /* \"#utility.yul\":8625:8711   */\n      swap1\n      pop\n        /* \"#utility.yul\":8721:8792   */\n      tag_243\n        /* \"#utility.yul\":8787:8790   */\n      0xa0\n        /* \"#utility.yul\":8776:8785   */\n      dup4\n        /* \"#utility.yul\":8772:8791   */\n      add\n        /* \"#utility.yul\":8763:8769   */\n      dup6\n        /* \"#utility.yul\":8721:8792   */\n      tag_112\n      jump\t// in\n    tag_243:\n        /* \"#utility.yul\":8802:8873   */\n      tag_244\n        /* \"#utility.yul\":8868:8871   */\n      0xc0\n        /* \"#utility.yul\":8857:8866   */\n      dup4\n        /* \"#utility.yul\":8853:8872   */\n      add\n        /* \"#utility.yul\":8844:8850   */\n      dup5\n        /* \"#utility.yul\":8802:8873   */\n      tag_112\n      jump\t// in\n    tag_244:\n        /* \"#utility.yul\":7737:8880   */\n      swap9\n      swap8\n      pop\n      pop\n      pop\n      pop\n      pop\n      pop\n      pop\n      pop\n      jump\t// out\n        /* \"#utility.yul\":8886:10333   */\n    tag_51:\n        /* \"#utility.yul\":9009:9015   */\n      0x00\n        /* \"#utility.yul\":9017:9023   */\n      dup1\n        /* \"#utility.yul\":9025:9031   */\n      0x00\n        /* \"#utility.yul\":9033:9039   */\n      dup1\n        /* \"#utility.yul\":9041:9047   */\n      0x00\n        /* \"#utility.yul\":9090:9093   */\n      0xa0\n        /* \"#utility.yul\":9078:9087   */\n      dup7\n        /* \"#utility.yul\":9069:9076   */\n      dup9\n        /* \"#utility.yul\":9065:9088   */\n      sub\n        /* \"#utility.yul\":9061:9094   */\n      slt\n        /* \"#utility.yul\":9058:9178   */\n      iszero\n      tag_246\n      jumpi\n        /* \"#utility.yul\":9097:9176   */\n      tag_247\n      tag_107\n      jump\t// in\n    tag_247:\n        /* \"#utility.yul\":9058:9178   */\n    tag_246:\n        /* \"#utility.yul\":9245:9246   */\n      0x00\n        /* \"#utility.yul\":9234:9243   */\n      dup7\n        /* \"#utility.yul\":9230:9247   */\n      add\n        /* \"#utility.yul\":9217:9248   */\n      calldataload\n        /* \"#utility.yul\":9275:9293   */\n      0xffffffffffffffff\n        /* \"#utility.yul\":9267:9273   */\n      dup2\n        /* \"#utility.yul\":9264:9294   */\n      gt\n        /* \"#utility.yul\":9261:9378   */\n      iszero\n      tag_248\n      jumpi\n        /* \"#utility.yul\":9297:9376   */\n      tag_249\n      tag_108\n      jump\t// in\n    tag_249:\n        /* \"#utility.yul\":9261:9378   */\n    tag_248:\n        /* \"#utility.yul\":9402:9465   */\n      tag_250\n        /* \"#utility.yul\":9457:9464   */\n      dup9\n        /* \"#utility.yul\":9448:9454   */\n      dup3\n        /* \"#utility.yul\":9437:9446   */\n      dup10\n        /* \"#utility.yul\":9433:9455   */\n      add\n        /* \"#utility.yul\":9402:9465   */\n      tag_131\n      jump\t// in\n    tag_250:\n        /* \"#utility.yul\":9392:9465   */\n      swap6\n      pop\n        /* \"#utility.yul\":9188:9475   */\n      pop\n        /* \"#utility.yul\":9542:9544   */\n      0x20\n        /* \"#utility.yul\":9531:9540   */\n      dup7\n        /* \"#utility.yul\":9527:9545   */\n      add\n        /* \"#utility.yul\":9514:9546   */\n      calldataload\n        /* \"#utility.yul\":9573:9591   */\n      0xffffffffffffffff\n        /* \"#utility.yul\":9565:9571   */\n      dup2\n        /* \"#utility.yul\":9562:9592   */\n      gt\n        /* \"#utility.yul\":9559:9676   */\n      iszero\n      tag_251\n      jumpi\n        /* \"#utility.yul\":9595:9674   */\n      tag_252\n      tag_108\n      jump\t// in\n    tag_252:\n        /* \"#utility.yul\":9559:9676   */\n    tag_251:\n        /* \"#utility.yul\":9700:9763   */\n      tag_253\n        /* \"#utility.yul\":9755:9762   */\n      dup9\n        /* \"#utility.yul\":9746:9752   */\n      dup3\n        /* \"#utility.yul\":9735:9744   */\n      dup10\n        /* \"#utility.yul\":9731:9753   */\n      add\n        /* \"#utility.yul\":9700:9763   */\n      tag_131\n      jump\t// in\n    tag_253:\n        /* \"#utility.yul\":9690:9763   */\n      swap5\n      pop\n        /* \"#utility.yul\":9485:9773   */\n      pop\n        /* \"#utility.yul\":9840:9842   */\n      0x40\n        /* \"#utility.yul\":9829:9838   */\n      dup7\n        /* \"#utility.yul\":9825:9843   */\n      add\n        /* \"#utility.yul\":9812:9844   */\n      calldataload\n        /* \"#utility.yul\":9871:9889   */\n      0xffffffffffffffff\n        /* \"#utility.yul\":9863:9869   */\n      dup2\n        /* \"#utility.yul\":9860:9890   */\n      gt\n        /* \"#utility.yul\":9857:9974   */\n      iszero\n      tag_254\n      jumpi\n        /* \"#utility.yul\":9893:9972   */\n      tag_255\n      tag_108\n      jump\t// in\n    tag_255:\n        /* \"#utility.yul\":9857:9974   */\n    tag_254:\n        /* \"#utility.yul\":9998:10061   */\n      tag_256\n        /* \"#utility.yul\":10053:10060   */\n      dup9\n        /* \"#utility.yul\":10044:10050   */\n      dup3\n        /* \"#utility.yul\":10033:10042   */\n      dup10\n        /* \"#utility.yul\":10029:10051   */\n      add\n        /* \"#utility.yul\":9998:10061   */\n      tag_131\n      jump\t// in\n    tag_256:\n        /* \"#utility.yul\":9988:10061   */\n      swap4\n      pop\n        /* \"#utility.yul\":9783:10071   */\n      pop\n        /* \"#utility.yul\":10110:10112   */\n      0x60\n        /* \"#utility.yul\":10136:10188   */\n      tag_257\n        /* \"#utility.yul\":10180:10187   */\n      dup9\n        /* \"#utility.yul\":10171:10177   */\n      dup3\n        /* \"#utility.yul\":10160:10169   */\n      dup10\n        /* \"#utility.yul\":10156:10178   */\n      add\n        /* \"#utility.yul\":10136:10188   */\n      tag_111\n      jump\t// in\n    tag_257:\n        /* \"#utility.yul\":10126:10188   */\n      swap3\n      pop\n        /* \"#utility.yul\":10081:10198   */\n      pop\n        /* \"#utility.yul\":10237:10240   */\n      0x80\n        /* \"#utility.yul\":10264:10316   */\n      tag_258\n        /* \"#utility.yul\":10308:10315   */\n      dup9\n        /* \"#utility.yul\":10299:10305   */\n      dup3\n        /* \"#utility.yul\":10288:10297   */\n      dup10\n        /* \"#utility.yul\":10284:10306   */\n      add\n        /* \"#utility.yul\":10264:10316   */\n      tag_111\n      jump\t// in\n    tag_258:\n        /* \"#utility.yul\":10254:10316   */\n      swap2\n      pop\n        /* \"#utility.yul\":10208:10326   */\n      pop\n        /* \"#utility.yul\":8886:10333   */\n      swap3\n      swap6\n      pop\n      swap3\n      swap6\n      swap1\n      swap4\n      pop\n      jump\t// out\n        /* \"#utility.yul\":10339:10519   */\n    tag_132:\n        /* \"#utility.yul\":10387:10464   */\n      0x4e487b7100000000000000000000000000000000000000000000000000000000\n        /* \"#utility.yul\":10384:10385   */\n      0x00\n        /* \"#utility.yul\":10377:10465   */\n      mstore\n        /* \"#utility.yul\":10484:10488   */\n      0x22\n        /* \"#utility.yul\":10481:10482   */\n      0x04\n        /* \"#utility.yul\":10474:10489   */\n      mstore\n        /* \"#utility.yul\":10508:10512   */\n      0x24\n        /* \"#utility.yul\":10505:10506   */\n      0x00\n        /* \"#utility.yul\":10498:10513   */\n      revert\n        /* \"#utility.yul\":10525:10845   */\n    tag_55:\n        /* \"#utility.yul\":10569:10575   */\n      0x00\n        /* \"#utility.yul\":10606:10607   */\n      0x02\n        /* \"#utility.yul\":10600:10604   */\n      dup3\n        /* \"#utility.yul\":10596:10608   */\n      div\n        /* \"#utility.yul\":10586:10608   */\n      swap1\n      pop\n        /* \"#utility.yul\":10653:10654   */\n      0x01\n        /* \"#utility.yul\":10647:10651   */\n      dup3\n        /* \"#utility.yul\":10643:10655   */\n      and\n        /* \"#utility.yul\":10674:10692   */\n      dup1\n        /* \"#utility.yul\":10664:10745   */\n      tag_261\n      jumpi\n        /* \"#utility.yul\":10730:10734   */\n      0x7f\n        /* \"#utility.yul\":10722:10728   */\n      dup3\n        /* \"#utility.yul\":10718:10735   */\n      and\n        /* \"#utility.yul\":10708:10735   */\n      swap2\n      pop\n        /* \"#utility.yul\":10664:10745   */\n    tag_261:\n        /* \"#utility.yul\":10792:10794   */\n      0x20\n        /* \"#utility.yul\":10784:10790   */\n      dup3\n        /* \"#utility.yul\":10781:10795   */\n      lt\n        /* \"#utility.yul\":10761:10779   */\n      dup2\n        /* \"#utility.yul\":10758:10796   */\n      sub\n        /* \"#utility.yul\":10755:10839   */\n      tag_262\n      jumpi\n        /* \"#utility.yul\":10811:10829   */\n      tag_263\n      tag_132\n      jump\t// in\n    tag_263:\n        /* \"#utility.yul\":10755:10839   */\n    tag_262:\n        /* \"#utility.yul\":10576:10845   */\n      pop\n        /* \"#utility.yul\":10525:10845   */\n      swap2\n      swap1\n      pop\n      jump\t// out\n        /* \"#utility.yul\":10851:10992   */\n    tag_133:\n        /* \"#utility.yul\":10900:10904   */\n      0x00\n        /* \"#utility.yul\":10923:10926   */\n      dup2\n        /* \"#utility.yul\":10915:10926   */\n      swap1\n      pop\n        /* \"#utility.yul\":10946:10949   */\n      dup2\n        /* \"#utility.yul\":10943:10944   */\n      0x00\n        /* \"#utility.yul\":10936:10950   */\n      mstore\n        /* \"#utility.yul\":10980:10984   */\n      0x20\n        /* \"#utility.yul\":10977:10978   */\n      0x00\n        /* \"#utility.yul\":10967:10985   */\n      keccak256\n        /* \"#utility.yul\":10959:10985   */\n      swap1\n      pop\n        /* \"#utility.yul\":10851:10992   */\n      swap2\n      swap1\n      pop\n      jump\t// out\n        /* \"#utility.yul\":10998:11091   */\n    tag_134:\n        /* \"#utility.yul\":11035:11041   */\n      0x00\n        /* \"#utility.yul\":11082:11084   */\n      0x20\n        /* \"#utility.yul\":11077:11079   */\n      0x1f\n        /* \"#utility.yul\":11070:11075   */\n      dup4\n        /* \"#utility.yul\":11066:11080   */\n      add\n        /* \"#utility.yul\":11062:11085   */\n      div\n        /* \"#utility.yul\":11052:11085   */\n      swap1\n      pop\n        /* \"#utility.yul\":10998:11091   */\n      swap2\n      swap1\n      pop\n      jump\t// out\n        /* \"#utility.yul\":11097:11204   */\n    tag_135:\n        /* \"#utility.yul\":11141:11149   */\n      0x00\n        /* \"#utility.yul\":11191:11196   */\n      dup3\n        /* \"#utility.yul\":11185:11189   */\n      dup3\n        /* \"#utility.yul\":11181:11197   */\n      shl\n        /* \"#utility.yul\":11160:11197   */\n      swap1\n      pop\n        /* \"#utility.yul\":11097:11204   */\n      swap3\n      swap2\n      pop\n      pop\n      jump\t// out\n        /* \"#utility.yul\":11210:11603   */\n    tag_136:\n        /* \"#utility.yul\":11279:11285   */\n      0x00\n        /* \"#utility.yul\":11329:11330   */\n      0x08\n        /* \"#utility.yul\":11317:11327   */\n      dup4\n        /* \"#utility.yul\":11313:11331   */\n      mul\n        /* \"#utility.yul\":11352:11449   */\n      tag_268\n        /* \"#utility.yul\":11382:11448   */\n      0xffffffffffffffffffffffffffffffffffffffffffffffffffffffffffffffff\n        /* \"#utility.yul\":11371:11380   */\n      dup3\n        /* \"#utility.yul\":11352:11449   */\n      tag_135\n      jump\t// in\n    tag_268:\n        /* \"#utility.yul\":11470:11509   */\n      tag_269\n        /* \"#utility.yul\":11500:11508   */\n      dup7\n        /* \"#utility.yul\":11489:11498   */\n      dup4\n        /* \"#utility.yul\":11470:11509   */\n      tag_135\n      jump\t// in\n    tag_269:\n        /* \"#utility.yul\":11458:11509   */\n      swap6\n      pop\n        /* \"#utility.yul\":11542:11546   */\n      dup1\n        /* \"#utility.yul\":11538:11547   */\n      not\n        /* \"#utility.yul\":11531:11536   */\n      dup5\n        /* \"#utility.yul\":11527:11548   */\n      and\n        /* \"#utility.yul\":11518:11548   */\n      swap4\n      pop\n        /* \"#utility.yul\":11591:11595   */\n      dup1\n        /* \"#utility.yul\":11581:11589   */\n      dup7\n        /* \"#utility.yul\":11577:11596   */\n      and\n        /* \"#utility.yul\":11570:11575   */\n      dup5\n        /* \"#utility.yul\":11567:11597   */\n      or\n        /* \"#utility.yul\":11557:11597   */\n      swap3\n      pop\n        /* \"#utility.yul\":11286:11603   */\n      pop\n      pop\n        /* \"#utility.yul\":11210:11603   */\n      swap4\n      swap3\n      pop\n      pop\n      pop\n      jump\t// out\n        /* \"#utility.yul\":11609:11686   */\n    tag_137:\n        /* \"#utility.yul\":11646:11653   */\n      0x00\n        /* \"#utility.yul\":11675:11680   */\n      dup2\n        /* \"#utility.yul\":11664:11680   */\n      swap1\n      pop\n        /* \"#utility.yul\":11609:11686   */\n      swap2\n      swap1\n      pop\n      jump\t// out\n        /* \"#utility.yul\":11692:11752   */\n    tag_138:\n        /* \"#utility.yul\":11720:11723   */\n      0x00\n        /* \"#utility.yul\":11741:11746   */\n      dup2\n        /* \"#utility.yul\":11734:11746   */\n      swap1\n      pop\n        /* \"#utility.yul\":11692:11752   */\n      swap2\n      swap1\n      pop\n      jump\t// out\n        /* \"#utility.yul\":11758:11900   */\n    tag_139:\n        /* \"#utility.yul\":11808:11817   */\n      0x00\n        /* \"#utility.yul\":11841:11894   */\n      tag_273\n        /* \"#utility.yul\":11859:11893   */\n      tag_274\n        /* \"#utility.yul\":11868:11892   */\n      tag_275\n        /* \"#utility.yul\":11886:11891   */\n      dup5\n        /* \"#utility.yul\":11868:11892   */\n      tag_137\n      jump\t// in\n    tag_275:\n        /* \"#utility.yul\":11859:11893   */\n      tag_138\n      jump\t// in\n    tag_274:\n        /* \"#utility.yul\":11841:11894   */\n      tag_137\n      jump\t// in\n    tag_273:\n        /* \"#utility.yul\":11828:11894   */\n      swap1\n      pop\n        /* \"#utility.yul\":11758:11900   */\n      swap2\n      swap1\n      pop\n      jump\t// out\n        /* \"#utility.yul\":11906:11981   */\n    tag_140:\n        /* \"#utility.yul\":11949:11952   */\n      0x00\n        /* \"#utility.yul\":11970:11975   */\n      dup2\n        /* \"#utility.yul\":11963:11975   */\n      swap1\n      pop\n        /* \"#utility.yul\":11906:11981   */\n      swap2\n      swap1\n      pop\n      jump\t// out\n        /* \"#utility.yul\":11987:12256   */\n    tag_141:\n        /* \"#utility.yul\":12097:12136   */\n      tag_278\n        /* \"#utility.yul\":12128:12135   */\n      dup4\n        /* \"#utility.yul\":12097:12136   */\n      tag_139\n      jump\t// in\n    tag_278:\n        /* \"#utility.yul\":12158:12249   */\n      tag_279\n        /* \"#utility.yul\":12207:12248   */\n      tag_280\n        /* \"#utility.yul\":12231:12247   */\n      dup3\n        /* \"#utility.yul\":12207:12248   */\n      tag_140\n      jump\t// in\n    tag_280:\n        /* \"#utility.yul\":12199:12205   */\n      dup5\n        /* \"#utility.yul\":12192:12196   */\n      dup5\n        /* \"#utility.yul\":12186:12197   */\n      sload\n        /* \"#utility.yul\":12158:12249   */\n      tag_136\n      jump\t// in\n    tag_279:\n        /* \"#utility.yul\":12152:12156   */\n      dup3\n        /* \"#utility.yul\":12145:12250   */\n      sstore\n        /* \"#utility.yul\":12063:12256   */\n      pop\n        /* \"#utility.yul\":11987:12256   */\n      pop\n      pop\n      pop\n      jump\t// out\n        /* \"#utility.yul\":12262:12335   */\n    tag_142:\n        /* \"#utility.yul\":12307:12310   */\n      0x00\n        /* \"#utility.yul\":12262:12335   */\n      swap1\n      jump\t// out\n        /* \"#utility.yul\":12341:12530   */\n    tag_143:\n        /* \"#utility.yul\":12418:12450   */\n      tag_283\n      tag_142\n      jump\t// in\n    tag_283:\n        /* \"#utility.yul\":12459:12524   */\n      tag_284\n        /* \"#utility.yul\":12517:12523   */\n      dup2\n        /* \"#utility.yul\":12509:12515   */\n      dup5\n        /* \"#utility.yul\":12503:12507   */\n      dup5\n        /* \"#utility.yul\":12459:12524   */\n      tag_141\n      jump\t// in\n    tag_284:\n        /* \"#utility.yul\":12394:12530   */\n      pop\n        /* \"#utility.yul\":12341:12530   */\n      pop\n      pop\n      jump\t// out\n        /* \"#utility.yul\":12536:12722   */\n    tag_144:\n        /* \"#utility.yul\":12596:12716   */\n    tag_286:\n        /* \"#utility.yul\":12613:12616   */\n      dup2\n        /* \"#utility.yul\":12606:12611   */\n      dup2\n        /* \"#utility.yul\":12603:12617   */\n      lt\n        /* \"#utility.yul\":12596:12716   */\n      iszero\n      tag_288\n      jumpi\n        /* \"#utility.yul\":12667:12706   */\n      tag_289\n        /* \"#utility.yul\":12704:12705   */\n      0x00\n        /* \"#utility.yul\":12697:12702   */\n      dup3\n        /* \"#utility.yul\":12667:12706   */\n      tag_143\n      jump\t// in\n    tag_289:\n        /* \"#utility.yul\":12640:12641   */\n      0x01\n        /* \"#utility.yul\":12633:12638   */\n      dup2\n        /* \"#utility.yul\":12629:12642   */\n      add\n        /* \"#utility.yul\":12620:12642   */\n      swap1\n      pop\n        /* \"#utility.yul\":12596:12716   */\n      jump(tag_286)\n    tag_288:\n        /* \"#utility.yul\":12536:12722   */\n      pop\n      pop\n      jump\t// out\n        /* \"#utility.yul\":12728:13271   */\n    tag_145:\n        /* \"#utility.yul\":12829:12831   */\n      0x1f\n        /* \"#utility.yul\":12824:12827   */\n      dup3\n        /* \"#utility.yul\":12821:12832   */\n      gt\n        /* \"#utility.yul\":12818:13264   */\n      iszero\n      tag_291\n      jumpi\n        /* \"#utility.yul\":12863:12901   */\n      tag_292\n        /* \"#utility.yul\":12895:12900   */\n      dup2\n        /* \"#utility.yul\":12863:12901   */\n      tag_133\n      jump\t// in\n    tag_292:\n        /* \"#utility.yul\":12947:12976   */\n      tag_293\n        /* \"#utility.yul\":12965:12975   */\n      dup5\n        /* \"#utility.yul\":12947:12976   */\n      tag_134\n      jump\t// in\n    tag_293:\n        /* \"#utility.yul\":12937:12945   */\n      dup2\n        /* \"#utility.yul\":12933:12977   */\n      add\n        /* \"#utility.yul\":13130:13132   */\n      0x20\n        /* \"#utility.yul\":13118:13128   */\n      dup6\n        /* \"#utility.yul\":13115:13133   */\n      lt\n        /* \"#utility.yul\":13112:13161   */\n      iszero\n      tag_294\n      jumpi\n        /* \"#utility.yul\":13151:13159   */\n      dup2\n        /* \"#utility.yul\":13136:13159   */\n      swap1\n      pop\n        /* \"#utility.yul\":13112:13161   */\n    tag_294:\n        /* \"#utility.yul\":13174:13254   */\n      tag_295\n        /* \"#utility.yul\":13230:13252   */\n      tag_296\n        /* \"#utility.yul\":13248:13251   */\n      dup6\n        /* \"#utility.yul\":13230:13252   */\n      tag_134\n      jump\t// in\n    tag_296:\n        /* \"#utility.yul\":13220:13228   */\n      dup4\n        /* \"#utility.yul\":13216:13253   */\n      add\n        /* \"#utility.yul\":13203:13214   */\n      dup3\n        /* \"#utility.yul\":13174:13254   */\n      tag_144\n      jump\t// in\n    tag_295:\n        /* \"#utility.yul\":12833:13264   */\n      pop\n      pop\n        /* \"#utility.yul\":12818:13264   */\n    tag_291:\n        /* \"#utility.yul\":12728:13271   */\n      pop\n      pop\n      pop\n      jump\t// out\n        /* \"#utility.yul\":13277:13394   */\n    tag_146:\n        /* \"#utility.yul\":13331:13339   */\n      0x00\n        /* \"#utility.yul\":13381:13386   */\n      dup3\n        /* \"#utility.yul\":13375:13379   */\n      dup3\n        /* \"#utility.yul\":13371:13387   */\n      shr\n        /* \"#utility.yul\":13350:13387   */\n      swap1\n      pop\n        /* \"#utility.yul\":13277:13394   */\n      swap3\n      swap2\n      pop\n      pop\n      jump\t// out\n        /* \"#utility.yul\":13400:13569   */\n    tag_147:\n        /* \"#utility.yul\":13444:13450   */\n      0x00\n        /* \"#utility.yul\":13477:13528   */\n      tag_299\n        /* \"#utility.yul\":13525:13526   */\n      0x00\n        /* \"#utility.yul\":13521:13527   */\n      not\n        /* \"#utility.yul\":13513:13518   */\n      dup5\n        /* \"#utility.yul\":13510:13511   */\n      0x08\n        /* \"#utility.yul\":13506:13519   */\n      mul\n        /* \"#utility.yul\":13477:13528   */\n      tag_146\n      jump\t// in\n    tag_299:\n        /* \"#utility.yul\":13473:13529   */\n      not\n        /* \"#utility.yul\":13558:13562   */\n      dup1\n        /* \"#utility.yul\":13552:13556   */\n      dup4\n        /* \"#utility.yul\":13548:13563   */\n      and\n        /* \"#utility.yul\":13538:13563   */\n      swap2\n      pop\n        /* \"#utility.yul\":13451:13569   */\n      pop\n        /* \"#utility.yul\":13400:13569   */\n      swap3\n      swap2\n      pop\n      pop\n      jump\t// out\n        /* \"#utility.yul\":13574:13869   */\n    tag_148:\n        /* \"#utility.yul\":13650:13654   */\n      0x00\n        /* \"#utility.yul\":13796:13825   */\n      tag_301\n        /* \"#utility.yul\":13821:13824   */\n      dup4\n        /* \"#utility.yul\":13815:13819   */\n      dup4\n        /* \"#utility.yul\":13796:13825   */\n      tag_147\n      jump\t// in\n    tag_301:\n        /* \"#utility.yul\":13788:13825   */\n      swap2\n      pop\n        /* \"#utility.yul\":13858:13861   */\n      dup3\n        /* \"#utility.yul\":13855:13856   */\n      0x02\n        /* \"#utility.yul\":13851:13862   */\n      mul\n        /* \"#utility.yul\":13845:13849   */\n      dup3\n        /* \"#utility.yul\":13842:13863   */\n      or\n        /* \"#utility.yul\":13834:13863   */\n      swap1\n      pop\n        /* \"#utility.yul\":13574:13869   */\n      swap3\n      swap2\n      pop\n      pop\n      jump\t// out\n        /* \"#utility.yul\":13874:15269   */\n    tag_77:\n        /* \"#utility.yul\":13991:14028   */\n      tag_303\n        /* \"#utility.yul\":14024:14027   */\n      dup3\n        /* \"#utility.yul\":13991:14028   */\n      tag_113\n      jump\t// in\n    tag_303:\n        /* \"#utility.yul\":14093:14111   */\n      0xffffffffffffffff\n        /* \"#utility.yul\":14085:14091   */\n      dup2\n        /* \"#utility.yul\":14082:14112   */\n      gt\n        /* \"#utility.yul\":14079:14135   */\n      iszero\n      tag_304\n      jumpi\n        /* \"#utility.yul\":14115:14133   */\n      tag_305\n      tag_125\n      jump\t// in\n    tag_305:\n        /* \"#utility.yul\":14079:14135   */\n    tag_304:\n        /* \"#utility.yul\":14159:14197   */\n      tag_306\n        /* \"#utility.yul\":14191:14195   */\n      dup3\n        /* \"#utility.yul\":14185:14196   */\n      sload\n        /* \"#utility.yul\":14159:14197   */\n      tag_55\n      jump\t// in\n    tag_306:\n        /* \"#utility.yul\":14244:14311   */\n      tag_307\n        /* \"#utility.yul\":14304:14310   */\n      dup3\n        /* \"#utility.yul\":14296:14302   */\n      dup3\n        /* \"#utility.yul\":14290:14294   */\n      dup6\n        /* \"#utility.yul\":14244:14311   */\n      tag_145\n      jump\t// in\n    tag_307:\n        /* \"#utility.yul\":14338:14339   */\n      0x00\n        /* \"#utility.yul\":14362:14366   */\n      0x20\n        /* \"#utility.yul\":14349:14366   */\n      swap1\n      pop\n        /* \"#utility.yul\":14394:14396   */\n      0x1f\n        /* \"#utility.yul\":14386:14392   */\n      dup4\n        /* \"#utility.yul\":14383:14397   */\n      gt\n        /* \"#utility.yul\":14411:14412   */\n      0x01\n        /* \"#utility.yul\":14406:15024   */\n      dup2\n      eq\n      tag_309\n      jumpi\n        /* \"#utility.yul\":15068:15069   */\n      0x00\n        /* \"#utility.yul\":15085:15091   */\n      dup5\n        /* \"#utility.yul\":15082:15159   */\n      iszero\n      tag_310\n      jumpi\n        /* \"#utility.yul\":15134:15143   */\n      dup3\n        /* \"#utility.yul\":15129:15132   */\n      dup8\n        /* \"#utility.yul\":15125:15144   */\n      add\n        /* \"#utility.yul\":15119:15145   */\n      mload\n        /* \"#utility.yul\":15110:15145   */\n      swap1\n      pop\n        /* \"#utility.yul\":15082:15159   */\n    tag_310:\n        /* \"#utility.yul\":15185:15252   */\n      tag_311\n        /* \"#utility.yul\":15245:15251   */\n      dup6\n        /* \"#utility.yul\":15238:15243   */\n      dup3\n        /* \"#utility.yul\":15185:15252   */\n      tag_148\n      jump\t// in\n    tag_311:\n        /* \"#utility.yul\":15179:15183   */\n      dup7\n        /* \"#utility.yul\":15172:15253   */\n      sstore\n        /* \"#utility.yul\":15041:15263   */\n      pop\n        /* \"#utility.yul\":14376:15263   */\n      jump(tag_308)\n        /* \"#utility.yul\":14406:15024   */\n    tag_309:\n        /* \"#utility.yul\":14458:14462   */\n      0x1f\n        /* \"#utility.yul\":14454:14463   */\n      not\n        /* \"#utility.yul\":14446:14452   */\n      dup5\n        /* \"#utility.yul\":14442:14464   */\n      and\n        /* \"#utility.yul\":14492:14529   */\n      tag_312\n        /* \"#utility.yul\":14524:14528   */\n      dup7\n        /* \"#utility.yul\":14492:14529   */\n      tag_133\n      jump\t// in\n    tag_312:\n        /* \"#utility.yul\":14551:14552   */\n      0x00\n        /* \"#utility.yul\":14565:14773   */\n    tag_313:\n        /* \"#utility.yul\":14579:14586   */\n      dup3\n        /* \"#utility.yul\":14576:14577   */\n      dup2\n        /* \"#utility.yul\":14573:14587   */\n      lt\n        /* \"#utility.yul\":14565:14773   */\n      iszero\n      tag_315\n      jumpi\n        /* \"#utility.yul\":14658:14667   */\n      dup5\n        /* \"#utility.yul\":14653:14656   */\n      dup10\n        /* \"#utility.yul\":14649:14668   */\n      add\n        /* \"#utility.yul\":14643:14669   */\n      mload\n        /* \"#utility.yul\":14635:14641   */\n      dup3\n        /* \"#utility.yul\":14628:14670   */\n      sstore\n        /* \"#utility.yul\":14709:14710   */\n      0x01\n        /* \"#utility.yul\":14701:14707   */\n      dup3\n        /* \"#utility.yul\":14697:14711   */\n      add\n        /* \"#utility.yul\":14687:14711   */\n      swap2\n      pop\n        /* \"#utility.yul\":14756:14758   */\n      0x20\n        /* \"#utility.yul\":14745:14754   */\n      dup6\n        /* \"#utility.yul\":14741:14759   */\n      add\n        /* \"#utility.yul\":14728:14759   */\n      swap5\n      pop\n        /* \"#utility.yul\":14602:14606   */\n      0x20\n        /* \"#utility.yul\":14599:14600   */\n      dup2\n        /* \"#utility.yul\":14595:14607   */\n      add\n        /* \"#utility.yul\":14590:14607   */\n      swap1\n      pop\n        /* \"#utility.yul\":14565:14773   */\n      jump(tag_313)\n    tag_315:\n        /* \"#utility.yul\":14801:14807   */\n      dup7\n        /* \"#utility.yul\":14792:14799   */\n      dup4\n        /* \"#utility.yul\":14789:14808   */\n      lt\n        /* \"#utility.yul\":14786:14965   */\n      iszero\n      tag_316\n      jumpi\n        /* \"#utility.yul\":14859:14868   */\n      dup5\n        /* \"#utility.yul\":14854:14857   */\n      dup10\n        /* \"#utility.yul\":14850:14869   */\n      add\n        /* \"#utility.yul\":14844:14870   */\n      mload\n        /* \"#utility.yul\":14902:14950   */\n      tag_317\n        /* \"#utility.yul\":14944:14948   */\n      0x1f\n        /* \"#utility.yul\":14936:14942   */\n      dup10\n        /* \"#utility.yul\":14932:14949   */\n      and\n        /* \"#utility.yul\":14921:14930   */\n      dup3\n        /* \"#utility.yul\":14902:14950   */\n      tag_147\n      jump\t// in\n    tag_317:\n        /* \"#utility.yul\":14894:14900   */\n      dup4\n        /* \"#utility.yul\":14887:14951   */\n      sstore\n        /* \"#utility.yul\":14809:14965   */\n      pop\n        /* \"#utility.yul\":14786:14965   */\n    tag_316:\n        /* \"#utility.yul\":15011:15012   */\n      0x01\n        /* \"#utility.yul\":15007:15008   */\n      0x02\n        /* \"#utility.yul\":14999:15005   */\n      dup9\n        /* \"#utility.yul\":14995:15009   */\n      mul\n        /* \"#utility.yul\":14991:15013   */\n      add\n        /* \"#utility.yul\":14985:14989   */\n      dup9\n        /* \"#utility.yul\":14978:15014   */\n      sstore\n        /* \"#utility.yul\":14413:15024   */\n      pop\n      pop\n      pop\n        /* \"#utility.yul\":14376:15263   */\n    tag_308:\n      pop\n        /* \"#utility.yul\":13966:15269   */\n      pop\n      pop\n      pop\n        /* \"#utility.yul\":13874:15269   */\n      pop\n      pop\n      jump\t// out\n        /* \"#utility.yul\":15275:15455   */\n    tag_149:\n        /* \"#utility.yul\":15323:15400   */\n      0x4e487b7100000000000000000000000000000000000000000000000000000000\n        /* \"#utility.yul\":15320:15321   */\n      0x00\n        /* \"#utility.yul\":15313:15401   */\n      mstore\n        /* \"#utility.yul\":15420:15424   */\n      0x11\n        /* \"#utility.yul\":15417:15418   */\n      0x04\n        /* \"#utility.yul\":15410:15425   */\n      mstore\n        /* \"#utility.yul\":15444:15448   */\n      0x24\n        /* \"#utility.yul\":15441:15442   */\n      0x00\n        /* \"#utility.yul\":15434:15449   */\n      revert\n        /* \"#utility.yul\":15461:15644   */\n    tag_101:\n        /* \"#utility.yul\":15499:15502   */\n      0x00\n        /* \"#utility.yul\":15522:15545   */\n      tag_320\n        /* \"#utility.yul\":15539:15544   */\n      dup3\n        /* \"#utility.yul\":15522:15545   */\n      tag_109\n      jump\t// in\n    tag_320:\n        /* \"#utility.yul\":15513:15545   */\n      swap2\n      pop\n        /* \"#utility.yul\":15567:15585   */\n      0xffffffffffffffff\n        /* \"#utility.yul\":15560:15565   */\n      dup3\n        /* \"#utility.yul\":15557:15586   */\n      sub\n        /* \"#utility.yul\":15554:15609   */\n      tag_321\n      jumpi\n        /* \"#utility.yul\":15589:15607   */\n      tag_322\n      tag_149\n      jump\t// in\n    tag_322:\n        /* \"#utility.yul\":15554:15609   */\n    tag_321:\n        /* \"#utility.yul\":15636:15637   */\n      0x01\n        /* \"#utility.yul\":15629:15634   */\n      dup3\n        /* \"#utility.yul\":15625:15638   */\n      add\n        /* \"#utility.yul\":15618:15638   */\n      swap1\n      pop\n        /* \"#utility.yul\":15461:15644   */\n      swap2\n      swap1\n      pop\n      jump\t// out\n\n    auxdata: 0xa264697066735822122099e46016ef031c9737795a2363c3e3028654131a4cfc78e4fd6a3e8c90d05cd664736f6c63430008160033\n}\n",
				"bytecode": {
					"linkReferences": {},
					"object": "60806040525f60035f6101000a81548167ffffffffffffffff021916908367ffffffffffffffff1602179055505f600360086101000a81548167ffffffffffffffff021916908367ffffffffffffffff160217905550348015610060575f80fd5b506113548061006e5f395ff3fe608060405234801561000f575f80fd5b5060043610610091575f3560e01c80638a45a0a0116100645780638a45a0a014610134578063a4388d2214610164578063b0847f8114610182578063e17a1a33146101a0578063e736fed3146101d657610091565b806311c75810146100955780633f44b15e146100ca57806378a51933146100fa5780638146947814610118575b5f80fd5b6100af60048036038101906100aa9190610aff565b6101f2565b6040516100c196959493929190610bc3565b60405180910390f35b6100e460048036038101906100df9190610c91565b61042b565b6040516100f19190610cbc565b60405180910390f35b6101026104c6565b60405161010f9190610ceb565b60405180910390f35b610132600480360381019061012d9190610e30565b6104e9565b005b61014e60048036038101906101499190610c91565b610538565b60405161015b9190610cbc565b60405180910390f35b61016c610605565b6040516101799190610e8a565b60405180910390f35b61018a61061f565b6040516101979190610e8a565b60405180910390f35b6101ba60048036038101906101b59190610aff565b610638565b6040516101cd9796959493929190610ea3565b60405180910390f35b6101f060048036038101906101eb9190610f25565b610855565b005b5f60608060605f805f60015f8967ffffffffffffffff1667ffffffffffffffff1681526020019081526020015f209050805f0160089054906101000a900467ffffffffffffffff16816001018260020183600301846004015f9054906101000a900467ffffffffffffffff168560040160089054906101000a900467ffffffffffffffff168480546102839061101d565b80601f01602080910402602001604051908101604052809291908181526020018280546102af9061101d565b80156102fa5780601f106102d1576101008083540402835291602001916102fa565b820191905f5260205f20905b8154815290600101906020018083116102dd57829003601f168201915b5050505050945083805461030d9061101d565b80601f01602080910402602001604051908101604052809291908181526020018280546103399061101d565b80156103845780601f1061035b57610100808354040283529160200191610384565b820191905f5260205f20905b81548152906001019060200180831161036757829003601f168201915b505050505093508280546103979061101d565b80601f01602080910402602001604051908101604052809291908181526020018280546103c39061101d565b801561040e5780601f106103e55761010080835404028352916020019161040e565b820191905f5260205f20905b8154815290600101906020018083116103f157829003601f168201915b505050505092509650965096509650965096505091939550919395565b6002602052805f5260405f205f9150905080546104479061101d565b80601f01602080910402602001604051908101604052809291908181526020018280546104739061101d565b80156104be5780601f10610495576101008083540402835291602001916104be565b820191905f5260205f20905b8154815290600101906020018083116104a157829003601f168201915b505050505081565b5f8054906101000a900473ffffffffffffffffffffffffffffffffffffffff1681565b8060025f8473ffffffffffffffffffffffffffffffffffffffff1673ffffffffffffffffffffffffffffffffffffffff1681526020019081526020015f20908161053391906111f3565b505050565b606060025f8373ffffffffffffffffffffffffffffffffffffffff1673ffffffffffffffffffffffffffffffffffffffff1681526020019081526020015f2080546105829061101d565b80601f01602080910402602001604051908101604052809291908181526020018280546105ae9061101d565b80156105f95780601f106105d0576101008083540402835291602001916105f9565b820191905f5260205f20905b8154815290600101906020018083116105dc57829003601f168201915b50505050509050919050565b600360089054906101000a900467ffffffffffffffff1681565b60035f9054906101000a900467ffffffffffffffff1681565b6001602052805f5260405f205f91509050805f015f9054906101000a900467ffffffffffffffff1690805f0160089054906101000a900467ffffffffffffffff16908060010180546106899061101d565b80601f01602080910402602001604051908101604052809291908181526020018280546106b59061101d565b80156107005780601f106106d757610100808354040283529160200191610700565b820191905f5260205f20905b8154815290600101906020018083116106e357829003601f168201915b5050505050908060020180546107159061101d565b80601f01602080910402602001604051908101604052809291908181526020018280546107419061101d565b801561078c5780601f106107635761010080835404028352916020019161078c565b820191905f5260205f20905b81548152906001019060200180831161076f57829003601f168201915b5050505050908060030180546107a19061101d565b80601f01602080910402602001604051908101604052809291908181526020018280546107cd9061101d565b80156108185780601f106107ef57610100808354040283529160200191610818565b820191905f5260205f20905b8154815290600101906020018083116107fb57829003601f168201915b505050505090806004015f9054906101000a900467ffffffffffffffff16908060040160089054906101000a900467ffffffffffffffff16905087565b60035f81819054906101000a900467ffffffffffffffff168092919061087a906112ef565b91906101000a81548167ffffffffffffffff021916908367ffffffffffffffff160217905550506003600881819054906101000a900467ffffffffffffffff16809291906108c7906112ef565b91906101000a81548167ffffffffffffffff021916908367ffffffffffffffff160217905550506040518060e00160405280600360089054906101000a900467ffffffffffffffff1667ffffffffffffffff16815260200160035f9054906101000a900467ffffffffffffffff1667ffffffffffffffff1681526020018681526020018581526020018481526020018367ffffffffffffffff1681526020018267ffffffffffffffff1681525060015f60035f9054906101000a900467ffffffffffffffff1667ffffffffffffffff1667ffffffffffffffff1681526020019081526020015f205f820151815f015f6101000a81548167ffffffffffffffff021916908367ffffffffffffffff1602179055506020820151815f0160086101000a81548167ffffffffffffffff021916908367ffffffffffffffff1602179055506040820151816001019081610a1d91906111f3565b506060820151816002019081610a3391906111f3565b506080820151816003019081610a4991906111f3565b5060a0820151816004015f6101000a81548167ffffffffffffffff021916908367ffffffffffffffff16021790555060c08201518160040160086101000a81548167ffffffffffffffff021916908367ffffffffffffffff1602179055509050505050505050565b5f604051905090565b5f80fd5b5f80fd5b5f67ffffffffffffffff82169050919050565b610ade81610ac2565b8114610ae8575f80fd5b50565b5f81359050610af981610ad5565b92915050565b5f60208284031215610b1457610b13610aba565b5b5f610b2184828501610aeb565b91505092915050565b610b3381610ac2565b82525050565b5f81519050919050565b5f82825260208201905092915050565b5f5b83811015610b70578082015181840152602081019050610b55565b5f8484015250505050565b5f601f19601f8301169050919050565b5f610b9582610b39565b610b9f8185610b43565b9350610baf818560208601610b53565b610bb881610b7b565b840191505092915050565b5f60c082019050610bd65f830189610b2a565b8181036020830152610be88188610b8b565b90508181036040830152610bfc8187610b8b565b90508181036060830152610c108186610b8b565b9050610c1f6080830185610b2a565b610c2c60a0830184610b2a565b979650505050505050565b5f73ffffffffffffffffffffffffffffffffffffffff82169050919050565b5f610c6082610c37565b9050919050565b610c7081610c56565b8114610c7a575f80fd5b50565b5f81359050610c8b81610c67565b92915050565b5f60208284031215610ca657610ca5610aba565b5b5f610cb384828501610c7d565b91505092915050565b5f6020820190508181035f830152610cd48184610b8b565b905092915050565b610ce581610c56565b82525050565b5f602082019050610cfe5f830184610cdc565b92915050565b5f80fd5b5f80fd5b7f4e487b71000000000000000000000000000000000000000000000000000000005f52604160045260245ffd5b610d4282610b7b565b810181811067ffffffffffffffff82111715610d6157610d60610d0c565b5b80604052505050565b5f610d73610ab1565b9050610d7f8282610d39565b919050565b5f67ffffffffffffffff821115610d9e57610d9d610d0c565b5b610da782610b7b565b9050602081019050919050565b828183375f83830152505050565b5f610dd4610dcf84610d84565b610d6a565b905082815260208101848484011115610df057610def610d08565b5b610dfb848285610db4565b509392505050565b5f82601f830112610e1757610e16610d04565b5b8135610e27848260208601610dc2565b91505092915050565b5f8060408385031215610e4657610e45610aba565b5b5f610e5385828601610c7d565b925050602083013567ffffffffffffffff811115610e7457610e73610abe565b5b610e8085828601610e03565b9150509250929050565b5f602082019050610e9d5f830184610b2a565b92915050565b5f60e082019050610eb65f83018a610b2a565b610ec36020830189610b2a565b8181036040830152610ed58188610b8b565b90508181036060830152610ee98187610b8b565b90508181036080830152610efd8186610b8b565b9050610f0c60a0830185610b2a565b610f1960c0830184610b2a565b98975050505050505050565b5f805f805f60a08688031215610f3e57610f3d610aba565b5b5f86013567ffffffffffffffff811115610f5b57610f5a610abe565b5b610f6788828901610e03565b955050602086013567ffffffffffffffff811115610f8857610f87610abe565b5b610f9488828901610e03565b945050604086013567ffffffffffffffff811115610fb557610fb4610abe565b5b610fc188828901610e03565b9350506060610fd288828901610aeb565b9250506080610fe388828901610aeb565b9150509295509295909350565b7f4e487b71000000000000000000000000000000000000000000000000000000005f52602260045260245ffd5b5f600282049050600182168061103457607f821691505b60208210810361104757611046610ff0565b5b50919050565b5f819050815f5260205f209050919050565b5f6020601f8301049050919050565b5f82821b905092915050565b5f600883026110a97fffffffffffffffffffffffffffffffffffffffffffffffffffffffffffffffff8261106e565b6110b3868361106e565b95508019841693508086168417925050509392505050565b5f819050919050565b5f819050919050565b5f6110f76110f26110ed846110cb565b6110d4565b6110cb565b9050919050565b5f819050919050565b611110836110dd565b61112461111c826110fe565b84845461107a565b825550505050565b5f90565b61113861112c565b611143818484611107565b505050565b5b818110156111665761115b5f82611130565b600181019050611149565b5050565b601f8211156111ab5761117c8161104d565b6111858461105f565b81016020851015611194578190505b6111a86111a08561105f565b830182611148565b50505b505050565b5f82821c905092915050565b5f6111cb5f19846008026111b0565b1980831691505092915050565b5f6111e383836111bc565b9150826002028217905092915050565b6111fc82610b39565b67ffffffffffffffff81111561121557611214610d0c565b5b61121f825461101d565b61122a82828561116a565b5f60209050601f83116001811461125b575f8415611249578287015190505b61125385826111d8565b8655506112ba565b601f1984166112698661104d565b5f5b828110156112905784890151825560018201915060208501945060208101905061126b565b868310156112ad57848901516112a9601f8916826111bc565b8355505b6001600288020188555050505b505050505050565b7f4e487b71000000000000000000000000000000000000000000000000000000005f52601160045260245ffd5b5f6112f982610ac2565b915067ffffffffffffffff8203611313576113126112c2565b5b60018201905091905056fea264697066735822122099e46016ef031c9737795a2363c3e3028654131a4cfc78e4fd6a3e8c90d05cd664736f6c63430008160033",
					"opcodes": "PUSH1 0x80 PUSH1 0x40 MSTORE PUSH0 PUSH1 0x3 PUSH0 PUSH2 0x100 EXP DUP2 SLOAD DUP2 PUSH8 0xFFFFFFFFFFFFFFFF MUL NOT AND SWAP1 DUP4 PUSH8 0xFFFFFFFFFFFFFFFF AND MUL OR SWAP1 SSTORE POP PUSH0 PUSH1 0x3 PUSH1 0x8 PUSH2 0x100 EXP DUP2 SLOAD DUP2 PUSH8 0xFFFFFFFFFFFFFFFF MUL NOT AND SWAP1 DUP4 PUSH8 0xFFFFFFFFFFFFFFFF AND MUL OR SWAP1 SSTORE POP CALLVALUE DUP1 ISZERO PUSH2 0x60 JUMPI PUSH0 DUP1 REVERT JUMPDEST POP PUSH2 0x1354 DUP1 PUSH2 0x6E PUSH0 CODECOPY PUSH0 RETURN INVALID PUSH1 0x80 PUSH1 0x40 MSTORE CALLVALUE DUP1 ISZERO PUSH2 0xF JUMPI PUSH0 DUP1 REVERT JUMPDEST POP PUSH1 0x4 CALLDATASIZE LT PUSH2 0x91 JUMPI PUSH0 CALLDATALOAD PUSH1 0xE0 SHR DUP1 PUSH4 0x8A45A0A0 GT PUSH2 0x64 JUMPI DUP1 PUSH4 0x8A45A0A0 EQ PUSH2 0x134 JUMPI DUP1 PUSH4 0xA4388D22 EQ PUSH2 0x164 JUMPI DUP1 PUSH4 0xB0847F81 EQ PUSH2 0x182 JUMPI DUP1 PUSH4 0xE17A1A33 EQ PUSH2 0x1A0 JUMPI DUP1 PUSH4 0xE736FED3 EQ PUSH2 0x1D6 JUMPI PUSH2 0x91 JUMP JUMPDEST DUP1 PUSH4 0x11C75810 EQ PUSH2 0x95 JUMPI DUP1 PUSH4 0x3F44B15E EQ PUSH2 0xCA JUMPI DUP1 PUSH4 0x78A51933 EQ PUSH2 0xFA JUMPI DUP1 PUSH4 0x81469478 EQ PUSH2 0x118 JUMPI JUMPDEST PUSH0 DUP1 REVERT JUMPDEST PUSH2 0xAF PUSH1 0x4 DUP1 CALLDATASIZE SUB DUP2 ADD SWAP1 PUSH2 0xAA SWAP2 SWAP1 PUSH2 0xAFF JUMP JUMPDEST PUSH2 0x1F2 JUMP JUMPDEST PUSH1 0x40 MLOAD PUSH2 0xC1 SWAP7 SWAP6 SWAP5 SWAP4 SWAP3 SWAP2 SWAP1 PUSH2 0xBC3 JUMP JUMPDEST PUSH1 0x40 MLOAD DUP1 SWAP2 SUB SWAP1 RETURN JUMPDEST PUSH2 0xE4 PUSH1 0x4 DUP1 CALLDATASIZE SUB DUP2 ADD SWAP1 PUSH2 0xDF SWAP2 SWAP1 PUSH2 0xC91 JUMP JUMPDEST PUSH2 0x42B JUMP JUMPDEST PUSH1 0x40 MLOAD PUSH2 0xF1 SWAP2 SWAP1 PUSH2 0xCBC JUMP JUMPDEST PUSH1 0x40 MLOAD DUP1 SWAP2 SUB SWAP1 RETURN JUMPDEST PUSH2 0x102 PUSH2 0x4C6 JUMP JUMPDEST PUSH1 0x40 MLOAD PUSH2 0x10F SWAP2 SWAP1 PUSH2 0xCEB JUMP JUMPDEST PUSH1 0x40 MLOAD DUP1 SWAP2 SUB SWAP1 RETURN JUMPDEST PUSH2 0x132 PUSH1 0x4 DUP1 CALLDATASIZE SUB DUP2 ADD SWAP1 PUSH2 0x12D SWAP2 SWAP1 PUSH2 0xE30 JUMP JUMPDEST PUSH2 0x4E9 JUMP JUMPDEST STOP JUMPDEST PUSH2 0x14E PUSH1 0x4 DUP1 CALLDATASIZE SUB DUP2 ADD SWAP1 PUSH2 0x149 SWAP2 SWAP1 PUSH2 0xC91 JUMP JUMPDEST PUSH2 0x538 JUMP JUMPDEST PUSH1 0x40 MLOAD PUSH2 0x15B SWAP2 SWAP1 PUSH2 0xCBC JUMP JUMPDEST PUSH1 0x40 MLOAD DUP1 SWAP2 SUB SWAP1 RETURN JUMPDEST PUSH2 0x16C PUSH2 0x605 JUMP JUMPDEST PUSH1 0x40 MLOAD PUSH2 0x179 SWAP2 SWAP1 PUSH2 0xE8A JUMP JUMPDEST PUSH1 0x40 MLOAD DUP1 SWAP2 SUB SWAP1 RETURN JUMPDEST PUSH2 0x18A PUSH2 0x61F JUMP JUMPDEST PUSH1 0x40 MLOAD PUSH2 0x197 SWAP2 SWAP1 PUSH2 0xE8A JUMP JUMPDEST PUSH1 0x40 MLOAD DUP1 SWAP2 SUB SWAP1 RETURN JUMPDEST PUSH2 0x1BA PUSH1 0x4 DUP1 CALLDATASIZE SUB DUP2 ADD SWAP1 PUSH2 0x1B5 SWAP2 SWAP1 PUSH2 0xAFF JUMP JUMPDEST PUSH2 0x638 JUMP JUMPDEST PUSH1 0x40 MLOAD PUSH2 0x1CD SWAP8 SWAP7 SWAP6 SWAP5 SWAP4 SWAP3 SWAP2 SWAP1 PUSH2 0xEA3 JUMP JUMPDEST PUSH1 0x40 MLOAD DUP1 SWAP2 SUB SWAP1 RETURN JUMPDEST PUSH2 0x1F0 PUSH1 0x4 DUP1 CALLDATASIZE SUB DUP2 ADD SWAP1 PUSH2 0x1EB SWAP2 SWAP1 PUSH2 0xF25 JUMP JUMPDEST PUSH2 0x855 JUMP JUMPDEST STOP JUMPDEST PUSH0 PUSH1 0x60 DUP1 PUSH1 0x60 PUSH0 DUP1 PUSH0 PUSH1 0x1 PUSH0 DUP10 PUSH8 0xFFFFFFFFFFFFFFFF AND PUSH8 0xFFFFFFFFFFFFFFFF AND DUP2 MSTORE PUSH1 0x20 ADD SWAP1 DUP2 MSTORE PUSH1 0x20 ADD PUSH0 KECCAK256 SWAP1 POP DUP1 PUSH0 ADD PUSH1 0x8 SWAP1 SLOAD SWAP1 PUSH2 0x100 EXP SWAP1 DIV PUSH8 0xFFFFFFFFFFFFFFFF AND DUP2 PUSH1 0x1 ADD DUP3 PUSH1 0x2 ADD DUP4 PUSH1 0x3 ADD DUP5 PUSH1 0x4 ADD PUSH0 SWAP1 SLOAD SWAP1 PUSH2 0x100 EXP SWAP1 DIV PUSH8 0xFFFFFFFFFFFFFFFF AND DUP6 PUSH1 0x4 ADD PUSH1 0x8 SWAP1 SLOAD SWAP1 PUSH2 0x100 EXP SWAP1 DIV PUSH8 0xFFFFFFFFFFFFFFFF AND DUP5 DUP1 SLOAD PUSH2 0x283 SWAP1 PUSH2 0x101D JUMP JUMPDEST DUP1 PUSH1 0x1F ADD PUSH1 0x20 DUP1 SWAP2 DIV MUL PUSH1 0x20 ADD PUSH1 0x40 MLOAD SWAP1 DUP2 ADD PUSH1 0x40 MSTORE DUP1 SWAP3 SWAP2 SWAP1 DUP2 DUP2 MSTORE PUSH1 0x20 ADD DUP3 DUP1 SLOAD PUSH2 0x2AF SWAP1 PUSH2 0x101D JUMP JUMPDEST DUP1 ISZERO PUSH2 0x2FA JUMPI DUP1 PUSH1 0x1F LT PUSH2 0x2D1 JUMPI PUSH2 0x100 DUP1 DUP4 SLOAD DIV MUL DUP4 MSTORE SWAP2 PUSH1 0x20 ADD SWAP2 PUSH2 0x2FA JUMP JUMPDEST DUP3 ADD SWAP2 SWAP1 PUSH0 MSTORE PUSH1 0x20 PUSH0 KECCAK256 SWAP1 JUMPDEST DUP2 SLOAD DUP2 MSTORE SWAP1 PUSH1 0x1 ADD SWAP1 PUSH1 0x20 ADD DUP1 DUP4 GT PUSH2 0x2DD JUMPI DUP3 SWAP1 SUB PUSH1 0x1F AND DUP3 ADD SWAP2 JUMPDEST POP POP POP POP POP SWAP5 POP DUP4 DUP1 SLOAD PUSH2 0x30D SWAP1 PUSH2 0x101D JUMP JUMPDEST DUP1 PUSH1 0x1F ADD PUSH1 0x20 DUP1 SWAP2 DIV MUL PUSH1 0x20 ADD PUSH1 0x40 MLOAD SWAP1 DUP2 ADD PUSH1 0x40 MSTORE DUP1 SWAP3 SWAP2 SWAP1 DUP2 DUP2 MSTORE PUSH1 0x20 ADD DUP3 DUP1 SLOAD PUSH2 0x339 SWAP1 PUSH2 0x101D JUMP JUMPDEST DUP1 ISZERO PUSH2 0x384 JUMPI DUP1 PUSH1 0x1F LT PUSH2 0x35B JUMPI PUSH2 0x100 DUP1 DUP4 SLOAD DIV MUL DUP4 MSTORE SWAP2 PUSH1 0x20 ADD SWAP2 PUSH2 0x384 JUMP JUMPDEST DUP3 ADD SWAP2 SWAP1 PUSH0 MSTORE PUSH1 0x20 PUSH0 KECCAK256 SWAP1 JUMPDEST DUP2 SLOAD DUP2 MSTORE SWAP1 PUSH1 0x1 ADD SWAP1 PUSH1 0x20 ADD DUP1 DUP4 GT PUSH2 0x367 JUMPI DUP3 SWAP1 SUB PUSH1 0x1F AND DUP3 ADD SWAP2 JUMPDEST POP POP POP POP POP SWAP4 POP DUP3 DUP1 SLOAD PUSH2 0x397 SWAP1 PUSH2 0x101D JUMP JUMPDEST DUP1 PUSH1 0x1F ADD PUSH1 0x20 DUP1 SWAP2 DIV MUL PUSH1 0x20 ADD PUSH1 0x40 MLOAD SWAP1 DUP2 ADD PUSH1 0x40 MSTORE DUP1 SWAP3 SWAP2 SWAP1 DUP2 DUP2 MSTORE PUSH1 0x20 ADD DUP3 DUP1 SLOAD PUSH2 0x3C3 SWAP1 PUSH2 0x101D JUMP JUMPDEST DUP1 ISZERO PUSH2 0x40E JUMPI DUP1 PUSH1 0x1F LT PUSH2 0x3E5 JUMPI PUSH2 0x100 DUP1 DUP4 SLOAD DIV MUL DUP4 MSTORE SWAP2 PUSH1 0x20 ADD SWAP2 PUSH2 0x40E JUMP JUMPDEST DUP3 ADD SWAP2 SWAP1 PUSH0 MSTORE PUSH1 0x20 PUSH0 KECCAK256 SWAP1 JUMPDEST DUP2 SLOAD DUP2 MSTORE SWAP1 PUSH1 0x1 ADD SWAP1 PUSH1 0x20 ADD DUP1 DUP4 GT PUSH2 0x3F1 JUMPI DUP3 SWAP1 SUB PUSH1 0x1F AND DUP3 ADD SWAP2 JUMPDEST POP POP POP POP POP SWAP3 POP SWAP7 POP SWAP7 POP SWAP7 POP SWAP7 POP SWAP7 POP SWAP7 POP POP SWAP2 SWAP4 SWAP6 POP SWAP2 SWAP4 SWAP6 JUMP JUMPDEST PUSH1 0x2 PUSH1 0x20 MSTORE DUP1 PUSH0 MSTORE PUSH1 0x40 PUSH0 KECCAK256 PUSH0 SWAP2 POP SWAP1 POP DUP1 SLOAD PUSH2 0x447 SWAP1 PUSH2 0x101D JUMP JUMPDEST DUP1 PUSH1 0x1F ADD PUSH1 0x20 DUP1 SWAP2 DIV MUL PUSH1 0x20 ADD PUSH1 0x40 MLOAD SWAP1 DUP2 ADD PUSH1 0x40 MSTORE DUP1 SWAP3 SWAP2 SWAP1 DUP2 DUP2 MSTORE PUSH1 0x20 ADD DUP3 DUP1 SLOAD PUSH2 0x473 SWAP1 PUSH2 0x101D JUMP JUMPDEST DUP1 ISZERO PUSH2 0x4BE JUMPI DUP1 PUSH1 0x1F LT PUSH2 0x495 JUMPI PUSH2 0x100 DUP1 DUP4 SLOAD DIV MUL DUP4 MSTORE SWAP2 PUSH1 0x20 ADD SWAP2 PUSH2 0x4BE JUMP JUMPDEST DUP3 ADD SWAP2 SWAP1 PUSH0 MSTORE PUSH1 0x20 PUSH0 KECCAK256 SWAP1 JUMPDEST DUP2 SLOAD DUP2 MSTORE SWAP1 PUSH1 0x1 ADD SWAP1 PUSH1 0x20 ADD DUP1 DUP4 GT PUSH2 0x4A1 JUMPI DUP3 SWAP1 SUB PUSH1 0x1F AND DUP3 ADD SWAP2 JUMPDEST POP POP POP POP POP DUP2 JUMP JUMPDEST PUSH0 DUP1 SLOAD SWAP1 PUSH2 0x100 EXP SWAP1 DIV PUSH20 0xFFFFFFFFFFFFFFFFFFFFFFFFFFFFFFFFFFFFFFFF AND DUP2 JUMP JUMPDEST DUP1 PUSH1 0x2 PUSH0 DUP5 PUSH20 0xFFFFFFFFFFFFFFFFFFFFFFFFFFFFFFFFFFFFFFFF AND PUSH20 0xFFFFFFFFFFFFFFFFFFFFFFFFFFFFFFFFFFFFFFFF AND DUP2 MSTORE PUSH1 0x20 ADD SWAP1 DUP2 MSTORE PUSH1 0x20 ADD PUSH0 KECCAK256 SWAP1 DUP2 PUSH2 0x533 SWAP2 SWAP1 PUSH2 0x11F3 JUMP JUMPDEST POP POP POP JUMP JUMPDEST PUSH1 0x60 PUSH1 0x2 PUSH0 DUP4 PUSH20 0xFFFFFFFFFFFFFFFFFFFFFFFFFFFFFFFFFFFFFFFF AND PUSH20 0xFFFFFFFFFFFFFFFFFFFFFFFFFFFFFFFFFFFFFFFF AND DUP2 MSTORE PUSH1 0x20 ADD SWAP1 DUP2 MSTORE PUSH1 0x20 ADD PUSH0 KECCAK256 DUP1 SLOAD PUSH2 0x582 SWAP1 PUSH2 0x101D JUMP JUMPDEST DUP1 PUSH1 0x1F ADD PUSH1 0x20 DUP1 SWAP2 DIV MUL PUSH1 0x20 ADD PUSH1 0x40 MLOAD SWAP1 DUP2 ADD PUSH1 0x40 MSTORE DUP1 SWAP3 SWAP2 SWAP1 DUP2 DUP2 MSTORE PUSH1 0x20 ADD DUP3 DUP1 SLOAD PUSH2 0x5AE SWAP1 PUSH2 0x101D JUMP JUMPDEST DUP1 ISZERO PUSH2 0x5F9 JUMPI DUP1 PUSH1 0x1F LT PUSH2 0x5D0 JUMPI PUSH2 0x100 DUP1 DUP4 SLOAD DIV MUL DUP4 MSTORE SWAP2 PUSH1 0x20 ADD SWAP2 PUSH2 0x5F9 JUMP JUMPDEST DUP3 ADD SWAP2 SWAP1 PUSH0 MSTORE PUSH1 0x20 PUSH0 KECCAK256 SWAP1 JUMPDEST DUP2 SLOAD DUP2 MSTORE SWAP1 PUSH1 0x1 ADD SWAP1 PUSH1 0x20 ADD DUP1 DUP4 GT PUSH2 0x5DC JUMPI DUP3 SWAP1 SUB PUSH1 0x1F AND DUP3 ADD SWAP2 JUMPDEST POP POP POP POP POP SWAP1 POP SWAP2 SWAP1 POP JUMP JUMPDEST PUSH1 0x3 PUSH1 0x8 SWAP1 SLOAD SWAP1 PUSH2 0x100 EXP SWAP1 DIV PUSH8 0xFFFFFFFFFFFFFFFF AND DUP2 JUMP JUMPDEST PUSH1 0x3 PUSH0 SWAP1 SLOAD SWAP1 PUSH2 0x100 EXP SWAP1 DIV PUSH8 0xFFFFFFFFFFFFFFFF AND DUP2 JUMP JUMPDEST PUSH1 0x1 PUSH1 0x20 MSTORE DUP1 PUSH0 MSTORE PUSH1 0x40 PUSH0 KECCAK256 PUSH0 SWAP2 POP SWAP1 POP DUP1 PUSH0 ADD PUSH0 SWAP1 SLOAD SWAP1 PUSH2 0x100 EXP SWAP1 DIV PUSH8 0xFFFFFFFFFFFFFFFF AND SWAP1 DUP1 PUSH0 ADD PUSH1 0x8 SWAP1 SLOAD SWAP1 PUSH2 0x100 EXP SWAP1 DIV PUSH8 0xFFFFFFFFFFFFFFFF AND SWAP1 DUP1 PUSH1 0x1 ADD DUP1 SLOAD PUSH2 0x689 SWAP1 PUSH2 0x101D JUMP JUMPDEST DUP1 PUSH1 0x1F ADD PUSH1 0x20 DUP1 SWAP2 DIV MUL PUSH1 0x20 ADD PUSH1 0x40 MLOAD SWAP1 DUP2 ADD PUSH1 0x40 MSTORE DUP1 SWAP3 SWAP2 SWAP1 DUP2 DUP2 MSTORE PUSH1 0x20 ADD DUP3 DUP1 SLOAD PUSH2 0x6B5 SWAP1 PUSH2 0x101D JUMP JUMPDEST DUP1 ISZERO PUSH2 0x700 JUMPI DUP1 PUSH1 0x1F LT PUSH2 0x6D7 JUMPI PUSH2 0x100 DUP1 DUP4 SLOAD DIV MUL DUP4 MSTORE SWAP2 PUSH1 0x20 ADD SWAP2 PUSH2 0x700 JUMP JUMPDEST DUP3 ADD SWAP2 SWAP1 PUSH0 MSTORE PUSH1 0x20 PUSH0 KECCAK256 SWAP1 JUMPDEST DUP2 SLOAD DUP2 MSTORE SWAP1 PUSH1 0x1 ADD SWAP1 PUSH1 0x20 ADD DUP1 DUP4 GT PUSH2 0x6E3 JUMPI DUP3 SWAP1 SUB PUSH1 0x1F AND DUP3 ADD SWAP2 JUMPDEST POP POP POP POP POP SWAP1 DUP1 PUSH1 0x2 ADD DUP1 SLOAD PUSH2 0x715 SWAP1 PUSH2 0x101D JUMP JUMPDEST DUP1 PUSH1 0x1F ADD PUSH1 0x20 DUP1 SWAP2 DIV MUL PUSH1 0x20 ADD PUSH1 0x40 MLOAD SWAP1 DUP2 ADD PUSH1 0x40 MSTORE DUP1 SWAP3 SWAP2 SWAP1 DUP2 DUP2 MSTORE PUSH1 0x20 ADD DUP3 DUP1 SLOAD PUSH2 0x741 SWAP1 PUSH2 0x101D JUMP JUMPDEST DUP1 ISZERO PUSH2 0x78C JUMPI DUP1 PUSH1 0x1F LT PUSH2 0x763 JUMPI PUSH2 0x100 DUP1 DUP4 SLOAD DIV MUL DUP4 MSTORE SWAP2 PUSH1 0x20 ADD SWAP2 PUSH2 0x78C JUMP JUMPDEST DUP3 ADD SWAP2 SWAP1 PUSH0 MSTORE PUSH1 0x20 PUSH0 KECCAK256 SWAP1 JUMPDEST DUP2 SLOAD DUP2 MSTORE SWAP1 PUSH1 0x1 ADD SWAP1 PUSH1 0x20 ADD DUP1 DUP4 GT PUSH2 0x76F JUMPI DUP3 SWAP1 SUB PUSH1 0x1F AND DUP3 ADD SWAP2 JUMPDEST POP POP POP POP POP SWAP1 DUP1 PUSH1 0x3 ADD DUP1 SLOAD PUSH2 0x7A1 SWAP1 PUSH2 0x101D JUMP JUMPDEST DUP1 PUSH1 0x1F ADD PUSH1 0x20 DUP1 SWAP2 DIV MUL PUSH1 0x20 ADD PUSH1 0x40 MLOAD SWAP1 DUP2 ADD PUSH1 0x40 MSTORE DUP1 SWAP3 SWAP2 SWAP1 DUP2 DUP2 MSTORE PUSH1 0x20 ADD DUP3 DUP1 SLOAD PUSH2 0x7CD SWAP1 PUSH2 0x101D JUMP JUMPDEST DUP1 ISZERO PUSH2 0x818 JUMPI DUP1 PUSH1 0x1F LT PUSH2 0x7EF JUMPI PUSH2 0x100 DUP1 DUP4 SLOAD DIV MUL DUP4 MSTORE SWAP2 PUSH1 0x20 ADD SWAP2 PUSH2 0x818 JUMP JUMPDEST DUP3 ADD SWAP2 SWAP1 PUSH0 MSTORE PUSH1 0x20 PUSH0 KECCAK256 SWAP1 JUMPDEST DUP2 SLOAD DUP2 MSTORE SWAP1 PUSH1 0x1 ADD SWAP1 PUSH1 0x20 ADD DUP1 DUP4 GT PUSH2 0x7FB JUMPI DUP3 SWAP1 SUB PUSH1 0x1F AND DUP3 ADD SWAP2 JUMPDEST POP POP POP POP POP SWAP1 DUP1 PUSH1 0x4 ADD PUSH0 SWAP1 SLOAD SWAP1 PUSH2 0x100 EXP SWAP1 DIV PUSH8 0xFFFFFFFFFFFFFFFF AND SWAP1 DUP1 PUSH1 0x4 ADD PUSH1 0x8 SWAP1 SLOAD SWAP1 PUSH2 0x100 EXP SWAP1 DIV PUSH8 0xFFFFFFFFFFFFFFFF AND SWAP1 POP DUP8 JUMP JUMPDEST PUSH1 0x3 PUSH0 DUP2 DUP2 SWAP1 SLOAD SWAP1 PUSH2 0x100 EXP SWAP1 DIV PUSH8 0xFFFFFFFFFFFFFFFF AND DUP1 SWAP3 SWAP2 SWAP1 PUSH2 0x87A SWAP1 PUSH2 0x12EF JUMP JUMPDEST SWAP2 SWAP1 PUSH2 0x100 EXP DUP2 SLOAD DUP2 PUSH8 0xFFFFFFFFFFFFFFFF MUL NOT AND SWAP1 DUP4 PUSH8 0xFFFFFFFFFFFFFFFF AND MUL OR SWAP1 SSTORE POP POP PUSH1 0x3 PUSH1 0x8 DUP2 DUP2 SWAP1 SLOAD SWAP1 PUSH2 0x100 EXP SWAP1 DIV PUSH8 0xFFFFFFFFFFFFFFFF AND DUP1 SWAP3 SWAP2 SWAP1 PUSH2 0x8C7 SWAP1 PUSH2 0x12EF JUMP JUMPDEST SWAP2 SWAP1 PUSH2 0x100 EXP DUP2 SLOAD DUP2 PUSH8 0xFFFFFFFFFFFFFFFF MUL NOT AND SWAP1 DUP4 PUSH8 0xFFFFFFFFFFFFFFFF AND MUL OR SWAP1 SSTORE POP POP PUSH1 0x40 MLOAD DUP1 PUSH1 0xE0 ADD PUSH1 0x40 MSTORE DUP1 PUSH1 0x3 PUSH1 0x8 SWAP1 SLOAD SWAP1 PUSH2 0x100 EXP SWAP1 DIV PUSH8 0xFFFFFFFFFFFFFFFF AND PUSH8 0xFFFFFFFFFFFFFFFF AND DUP2 MSTORE PUSH1 0x20 ADD PUSH1 0x3 PUSH0 SWAP1 SLOAD SWAP1 PUSH2 0x100 EXP SWAP1 DIV PUSH8 0xFFFFFFFFFFFFFFFF AND PUSH8 0xFFFFFFFFFFFFFFFF AND DUP2 MSTORE PUSH1 0x20 ADD DUP7 DUP2 MSTORE PUSH1 0x20 ADD DUP6 DUP2 MSTORE PUSH1 0x20 ADD DUP5 DUP2 MSTORE PUSH1 0x20 ADD DUP4 PUSH8 0xFFFFFFFFFFFFFFFF AND DUP2 MSTORE PUSH1 0x20 ADD DUP3 PUSH8 0xFFFFFFFFFFFFFFFF AND DUP2 MSTORE POP PUSH1 0x1 PUSH0 PUSH1 0x3 PUSH0 SWAP1 SLOAD SWAP1 PUSH2 0x100 EXP SWAP1 DIV PUSH8 0xFFFFFFFFFFFFFFFF AND PUSH8 0xFFFFFFFFFFFFFFFF AND PUSH8 0xFFFFFFFFFFFFFFFF AND DUP2 MSTORE PUSH1 0x20 ADD SWAP1 DUP2 MSTORE PUSH1 0x20 ADD PUSH0 KECCAK256 PUSH0 DUP3 ADD MLOAD DUP2 PUSH0 ADD PUSH0 PUSH2 0x100 EXP DUP2 SLOAD DUP2 PUSH8 0xFFFFFFFFFFFFFFFF MUL NOT AND SWAP1 DUP4 PUSH8 0xFFFFFFFFFFFFFFFF AND MUL OR SWAP1 SSTORE POP PUSH1 0x20 DUP3 ADD MLOAD DUP2 PUSH0 ADD PUSH1 0x8 PUSH2 0x100 EXP DUP2 SLOAD DUP2 PUSH8 0xFFFFFFFFFFFFFFFF MUL NOT AND SWAP1 DUP4 PUSH8 0xFFFFFFFFFFFFFFFF AND MUL OR SWAP1 SSTORE POP PUSH1 0x40 DUP3 ADD MLOAD DUP2 PUSH1 0x1 ADD SWAP1 DUP2 PUSH2 0xA1D SWAP2 SWAP1 PUSH2 0x11F3 JUMP JUMPDEST POP PUSH1 0x60 DUP3 ADD MLOAD DUP2 PUSH1 0x2 ADD SWAP1 DUP2 PUSH2 0xA33 SWAP2 SWAP1 PUSH2 0x11F3 JUMP JUMPDEST POP PUSH1 0x80 DUP3 ADD MLOAD DUP2 PUSH1 0x3 ADD SWAP1 DUP2 PUSH2 0xA49 SWAP2 SWAP1 PUSH2 0x11F3 JUMP JUMPDEST POP PUSH1 0xA0 DUP3 ADD MLOAD DUP2 PUSH1 0x4 ADD PUSH0 PUSH2 0x100 EXP DUP2 SLOAD DUP2 PUSH8 0xFFFFFFFFFFFFFFFF MUL NOT AND SWAP1 DUP4 PUSH8 0xFFFFFFFFFFFFFFFF AND MUL OR SWAP1 SSTORE POP PUSH1 0xC0 DUP3 ADD MLOAD DUP2 PUSH1 0x4 ADD PUSH1 0x8 PUSH2 0x100 EXP DUP2 SLOAD DUP2 PUSH8 0xFFFFFFFFFFFFFFFF MUL NOT AND SWAP1 DUP4 PUSH8 0xFFFFFFFFFFFFFFFF AND MUL OR SWAP1 SSTORE POP SWAP1 POP POP POP POP POP POP POP JUMP JUMPDEST PUSH0 PUSH1 0x40 MLOAD SWAP1 POP SWAP1 JUMP JUMPDEST PUSH0 DUP1 REVERT JUMPDEST PUSH0 DUP1 REVERT JUMPDEST PUSH0 PUSH8 0xFFFFFFFFFFFFFFFF DUP3 AND SWAP1 POP SWAP2 SWAP1 POP JUMP JUMPDEST PUSH2 0xADE DUP2 PUSH2 0xAC2 JUMP JUMPDEST DUP2 EQ PUSH2 0xAE8 JUMPI PUSH0 DUP1 REVERT JUMPDEST POP JUMP JUMPDEST PUSH0 DUP2 CALLDATALOAD SWAP1 POP PUSH2 0xAF9 DUP2 PUSH2 0xAD5 JUMP JUMPDEST SWAP3 SWAP2 POP POP JUMP JUMPDEST PUSH0 PUSH1 0x20 DUP3 DUP5 SUB SLT ISZERO PUSH2 0xB14 JUMPI PUSH2 0xB13 PUSH2 0xABA JUMP JUMPDEST JUMPDEST PUSH0 PUSH2 0xB21 DUP5 DUP3 DUP6 ADD PUSH2 0xAEB JUMP JUMPDEST SWAP2 POP POP SWAP3 SWAP2 POP POP JUMP JUMPDEST PUSH2 0xB33 DUP2 PUSH2 0xAC2 JUMP JUMPDEST DUP3 MSTORE POP POP JUMP JUMPDEST PUSH0 DUP2 MLOAD SWAP1 POP SWAP2 SWAP1 POP JUMP JUMPDEST PUSH0 DUP3 DUP3 MSTORE PUSH1 0x20 DUP3 ADD SWAP1 POP SWAP3 SWAP2 POP POP JUMP JUMPDEST PUSH0 JUMPDEST DUP4 DUP2 LT ISZERO PUSH2 0xB70 JUMPI DUP1 DUP3 ADD MLOAD DUP2 DUP5 ADD MSTORE PUSH1 0x20 DUP2 ADD SWAP1 POP PUSH2 0xB55 JUMP JUMPDEST PUSH0 DUP5 DUP5 ADD MSTORE POP POP POP POP JUMP JUMPDEST PUSH0 PUSH1 0x1F NOT PUSH1 0x1F DUP4 ADD AND SWAP1 POP SWAP2 SWAP1 POP JUMP JUMPDEST PUSH0 PUSH2 0xB95 DUP3 PUSH2 0xB39 JUMP JUMPDEST PUSH2 0xB9F DUP2 DUP6 PUSH2 0xB43 JUMP JUMPDEST SWAP4 POP PUSH2 0xBAF DUP2 DUP6 PUSH1 0x20 DUP7 ADD PUSH2 0xB53 JUMP JUMPDEST PUSH2 0xBB8 DUP2 PUSH2 0xB7B JUMP JUMPDEST DUP5 ADD SWAP2 POP POP SWAP3 SWAP2 POP POP JUMP JUMPDEST PUSH0 PUSH1 0xC0 DUP3 ADD SWAP1 POP PUSH2 0xBD6 PUSH0 DUP4 ADD DUP10 PUSH2 0xB2A JUMP JUMPDEST DUP2 DUP2 SUB PUSH1 0x20 DUP4 ADD MSTORE PUSH2 0xBE8 DUP2 DUP9 PUSH2 0xB8B JUMP JUMPDEST SWAP1 POP DUP2 DUP2 SUB PUSH1 0x40 DUP4 ADD MSTORE PUSH2 0xBFC DUP2 DUP8 PUSH2 0xB8B JUMP JUMPDEST SWAP1 POP DUP2 DUP2 SUB PUSH1 0x60 DUP4 ADD MSTORE PUSH2 0xC10 DUP2 DUP7 PUSH2 0xB8B JUMP JUMPDEST SWAP1 POP PUSH2 0xC1F PUSH1 0x80 DUP4 ADD DUP6 PUSH2 0xB2A JUMP JUMPDEST PUSH2 0xC2C PUSH1 0xA0 DUP4 ADD DUP5 PUSH2 0xB2A JUMP JUMPDEST SWAP8 SWAP7 POP POP POP POP POP POP POP JUMP JUMPDEST PUSH0 PUSH20 0xFFFFFFFFFFFFFFFFFFFFFFFFFFFFFFFFFFFFFFFF DUP3 AND SWAP1 POP SWAP2 SWAP1 POP JUMP JUMPDEST PUSH0 PUSH2 0xC60 DUP3 PUSH2 0xC37 JUMP JUMPDEST SWAP1 POP SWAP2 SWAP1 POP JUMP JUMPDEST PUSH2 0xC70 DUP2 PUSH2 0xC56 JUMP JUMPDEST DUP2 EQ PUSH2 0xC7A JUMPI PUSH0 DUP1 REVERT JUMPDEST POP JUMP JUMPDEST PUSH0 DUP2 CALLDATALOAD SWAP1 POP PUSH2 0xC8B DUP2 PUSH2 0xC67 JUMP JUMPDEST SWAP3 SWAP2 POP POP JUMP JUMPDEST PUSH0 PUSH1 0x20 DUP3 DUP5 SUB SLT ISZERO PUSH2 0xCA6 JUMPI PUSH2 0xCA5 PUSH2 0xABA JUMP JUMPDEST JUMPDEST PUSH0 PUSH2 0xCB3 DUP5 DUP3 DUP6 ADD PUSH2 0xC7D JUMP JUMPDEST SWAP2 POP POP SWAP3 SWAP2 POP POP JUMP JUMPDEST PUSH0 PUSH1 0x20 DUP3 ADD SWAP1 POP DUP2 DUP2 SUB PUSH0 DUP4 ADD MSTORE PUSH2 0xCD4 DUP2 DUP5 PUSH2 0xB8B JUMP JUMPDEST SWAP1 POP SWAP3 SWAP2 POP POP JUMP JUMPDEST PUSH2 0xCE5 DUP2 PUSH2 0xC56 JUMP JUMPDEST DUP3 MSTORE POP POP JUMP JUMPDEST PUSH0 PUSH1 0x20 DUP3 ADD SWAP1 POP PUSH2 0xCFE PUSH0 DUP4 ADD DUP5 PUSH2 0xCDC JUMP JUMPDEST SWAP3 SWAP2 POP POP JUMP JUMPDEST PUSH0 DUP1 REVERT JUMPDEST PUSH0 DUP1 REVERT JUMPDEST PUSH32 0x4E487B7100000000000000000000000000000000000000000000000000000000 PUSH0 MSTORE PUSH1 0x41 PUSH1 0x4 MSTORE PUSH1 0x24 PUSH0 REVERT JUMPDEST PUSH2 0xD42 DUP3 PUSH2 0xB7B JUMP JUMPDEST DUP2 ADD DUP2 DUP2 LT PUSH8 0xFFFFFFFFFFFFFFFF DUP3 GT OR ISZERO PUSH2 0xD61 JUMPI PUSH2 0xD60 PUSH2 0xD0C JUMP JUMPDEST JUMPDEST DUP1 PUSH1 0x40 MSTORE POP POP POP JUMP JUMPDEST PUSH0 PUSH2 0xD73 PUSH2 0xAB1 JUMP JUMPDEST SWAP1 POP PUSH2 0xD7F DUP3 DUP3 PUSH2 0xD39 JUMP JUMPDEST SWAP2 SWAP1 POP JUMP JUMPDEST PUSH0 PUSH8 0xFFFFFFFFFFFFFFFF DUP3 GT ISZERO PUSH2 0xD9E JUMPI PUSH2 0xD9D PUSH2 0xD0C JUMP JUMPDEST JUMPDEST PUSH2 0xDA7 DUP3 PUSH2 0xB7B JUMP JUMPDEST SWAP1 POP PUSH1 0x20 DUP2 ADD SWAP1 POP SWAP2 SWAP1 POP JUMP JUMPDEST DUP3 DUP2 DUP4 CALLDATACOPY PUSH0 DUP4 DUP4 ADD MSTORE POP POP POP JUMP JUMPDEST PUSH0 PUSH2 0xDD4 PUSH2 0xDCF DUP5 PUSH2 0xD84 JUMP JUMPDEST PUSH2 0xD6A JUMP JUMPDEST SWAP1 POP DUP3 DUP2 MSTORE PUSH1 0x20 DUP2 ADD DUP5 DUP5 DUP5 ADD GT ISZERO PUSH2 0xDF0 JUMPI PUSH2 0xDEF PUSH2 0xD08 JUMP JUMPDEST JUMPDEST PUSH2 0xDFB DUP5 DUP3 DUP6 PUSH2 0xDB4 JUMP JUMPDEST POP SWAP4 SWAP3 POP POP POP JUMP JUMPDEST PUSH0 DUP3 PUSH1 0x1F DUP4 ADD SLT PUSH2 0xE17 JUMPI PUSH2 0xE16 PUSH2 0xD04 JUMP JUMPDEST JUMPDEST DUP2 CALLDATALOAD PUSH2 0xE27 DUP5 DUP3 PUSH1 0x20 DUP7 ADD PUSH2 0xDC2 JUMP JUMPDEST SWAP2 POP POP SWAP3 SWAP2 POP POP JUMP JUMPDEST PUSH0 DUP1 PUSH1 0x40 DUP4 DUP6 SUB SLT ISZERO PUSH2 0xE46 JUMPI PUSH2 0xE45 PUSH2 0xABA JUMP JUMPDEST JUMPDEST PUSH0 PUSH2 0xE53 DUP6 DUP3 DUP7 ADD PUSH2 0xC7D JUMP JUMPDEST SWAP3 POP POP PUSH1 0x20 DUP4 ADD CALLDATALOAD PUSH8 0xFFFFFFFFFFFFFFFF DUP2 GT ISZERO PUSH2 0xE74 JUMPI PUSH2 0xE73 PUSH2 0xABE JUMP JUMPDEST JUMPDEST PUSH2 0xE80 DUP6 DUP3 DUP7 ADD PUSH2 0xE03 JUMP JUMPDEST SWAP2 POP POP SWAP3 POP SWAP3 SWAP1 POP JUMP JUMPDEST PUSH0 PUSH1 0x20 DUP3 ADD SWAP1 POP PUSH2 0xE9D PUSH0 DUP4 ADD DUP5 PUSH2 0xB2A JUMP JUMPDEST SWAP3 SWAP2 POP POP JUMP JUMPDEST PUSH0 PUSH1 0xE0 DUP3 ADD SWAP1 POP PUSH2 0xEB6 PUSH0 DUP4 ADD DUP11 PUSH2 0xB2A JUMP JUMPDEST PUSH2 0xEC3 PUSH1 0x20 DUP4 ADD DUP10 PUSH2 0xB2A JUMP JUMPDEST DUP2 DUP2 SUB PUSH1 0x40 DUP4 ADD MSTORE PUSH2 0xED5 DUP2 DUP9 PUSH2 0xB8B JUMP JUMPDEST SWAP1 POP DUP2 DUP2 SUB PUSH1 0x60 DUP4 ADD MSTORE PUSH2 0xEE9 DUP2 DUP8 PUSH2 0xB8B JUMP JUMPDEST SWAP1 POP DUP2 DUP2 SUB PUSH1 0x80 DUP4 ADD MSTORE PUSH2 0xEFD DUP2 DUP7 PUSH2 0xB8B JUMP JUMPDEST SWAP1 POP PUSH2 0xF0C PUSH1 0xA0 DUP4 ADD DUP6 PUSH2 0xB2A JUMP JUMPDEST PUSH2 0xF19 PUSH1 0xC0 DUP4 ADD DUP5 PUSH2 0xB2A JUMP JUMPDEST SWAP9 SWAP8 POP POP POP POP POP POP POP POP JUMP JUMPDEST PUSH0 DUP1 PUSH0 DUP1 PUSH0 PUSH1 0xA0 DUP7 DUP9 SUB SLT ISZERO PUSH2 0xF3E JUMPI PUSH2 0xF3D PUSH2 0xABA JUMP JUMPDEST JUMPDEST PUSH0 DUP7 ADD CALLDATALOAD PUSH8 0xFFFFFFFFFFFFFFFF DUP2 GT ISZERO PUSH2 0xF5B JUMPI PUSH2 0xF5A PUSH2 0xABE JUMP JUMPDEST JUMPDEST PUSH2 0xF67 DUP9 DUP3 DUP10 ADD PUSH2 0xE03 JUMP JUMPDEST SWAP6 POP POP PUSH1 0x20 DUP7 ADD CALLDATALOAD PUSH8 0xFFFFFFFFFFFFFFFF DUP2 GT ISZERO PUSH2 0xF88 JUMPI PUSH2 0xF87 PUSH2 0xABE JUMP JUMPDEST JUMPDEST PUSH2 0xF94 DUP9 DUP3 DUP10 ADD PUSH2 0xE03 JUMP JUMPDEST SWAP5 POP POP PUSH1 0x40 DUP7 ADD CALLDATALOAD PUSH8 0xFFFFFFFFFFFFFFFF DUP2 GT ISZERO PUSH2 0xFB5 JUMPI PUSH2 0xFB4 PUSH2 0xABE JUMP JUMPDEST JUMPDEST PUSH2 0xFC1 DUP9 DUP3 DUP10 ADD PUSH2 0xE03 JUMP JUMPDEST SWAP4 POP POP PUSH1 0x60 PUSH2 0xFD2 DUP9 DUP3 DUP10 ADD PUSH2 0xAEB JUMP JUMPDEST SWAP3 POP POP PUSH1 0x80 PUSH2 0xFE3 DUP9 DUP3 DUP10 ADD PUSH2 0xAEB JUMP JUMPDEST SWAP2 POP POP SWAP3 SWAP6 POP SWAP3 SWAP6 SWAP1 SWAP4 POP JUMP JUMPDEST PUSH32 0x4E487B7100000000000000000000000000000000000000000000000000000000 PUSH0 MSTORE PUSH1 0x22 PUSH1 0x4 MSTORE PUSH1 0x24 PUSH0 REVERT JUMPDEST PUSH0 PUSH1 0x2 DUP3 DIV SWAP1 POP PUSH1 0x1 DUP3 AND DUP1 PUSH2 0x1034 JUMPI PUSH1 0x7F DUP3 AND SWAP2 POP JUMPDEST PUSH1 0x20 DUP3 LT DUP2 SUB PUSH2 0x1047 JUMPI PUSH2 0x1046 PUSH2 0xFF0 JUMP JUMPDEST JUMPDEST POP SWAP2 SWAP1 POP JUMP JUMPDEST PUSH0 DUP2 SWAP1 POP DUP2 PUSH0 MSTORE PUSH1 0x20 PUSH0 KECCAK256 SWAP1 POP SWAP2 SWAP1 POP JUMP JUMPDEST PUSH0 PUSH1 0x20 PUSH1 0x1F DUP4 ADD DIV SWAP1 POP SWAP2 SWAP1 POP JUMP JUMPDEST PUSH0 DUP3 DUP3 SHL SWAP1 POP SWAP3 SWAP2 POP POP JUMP JUMPDEST PUSH0 PUSH1 0x8 DUP4 MUL PUSH2 0x10A9 PUSH32 0xFFFFFFFFFFFFFFFFFFFFFFFFFFFFFFFFFFFFFFFFFFFFFFFFFFFFFFFFFFFFFFFF DUP3 PUSH2 0x106E JUMP JUMPDEST PUSH2 0x10B3 DUP7 DUP4 PUSH2 0x106E JUMP JUMPDEST SWAP6 POP DUP1 NOT DUP5 AND SWAP4 POP DUP1 DUP7 AND DUP5 OR SWAP3 POP POP POP SWAP4 SWAP3 POP POP POP JUMP JUMPDEST PUSH0 DUP2 SWAP1 POP SWAP2 SWAP1 POP JUMP JUMPDEST PUSH0 DUP2 SWAP1 POP SWAP2 SWAP1 POP JUMP JUMPDEST PUSH0 PUSH2 0x10F7 PUSH2 0x10F2 PUSH2 0x10ED DUP5 PUSH2 0x10CB JUMP JUMPDEST PUSH2 0x10D4 JUMP JUMPDEST PUSH2 0x10CB JUMP JUMPDEST SWAP1 POP SWAP2 SWAP1 POP JUMP JUMPDEST PUSH0 DUP2 SWAP1 POP SWAP2 SWAP1 POP JUMP JUMPDEST PUSH2 0x1110 DUP4 PUSH2 0x10DD JUMP JUMPDEST PUSH2 0x1124 PUSH2 0x111C DUP3 PUSH2 0x10FE JUMP JUMPDEST DUP5 DUP5 SLOAD PUSH2 0x107A JUMP JUMPDEST DUP3 SSTORE POP POP POP POP JUMP JUMPDEST PUSH0 SWAP1 JUMP JUMPDEST PUSH2 0x1138 PUSH2 0x112C JUMP JUMPDEST PUSH2 0x1143 DUP2 DUP5 DUP5 PUSH2 0x1107 JUMP JUMPDEST POP POP POP JUMP JUMPDEST JUMPDEST DUP2 DUP2 LT ISZERO PUSH2 0x1166 JUMPI PUSH2 0x115B PUSH0 DUP3 PUSH2 0x1130 JUMP JUMPDEST PUSH1 0x1 DUP2 ADD SWAP1 POP PUSH2 0x1149 JUMP JUMPDEST POP POP JUMP JUMPDEST PUSH1 0x1F DUP3 GT ISZERO PUSH2 0x11AB JUMPI PUSH2 0x117C DUP2 PUSH2 0x104D JUMP JUMPDEST PUSH2 0x1185 DUP5 PUSH2 0x105F JUMP JUMPDEST DUP2 ADD PUSH1 0x20 DUP6 LT ISZERO PUSH2 0x1194 JUMPI DUP2 SWAP1 POP JUMPDEST PUSH2 0x11A8 PUSH2 0x11A0 DUP6 PUSH2 0x105F JUMP JUMPDEST DUP4 ADD DUP3 PUSH2 0x1148 JUMP JUMPDEST POP POP JUMPDEST POP POP POP JUMP JUMPDEST PUSH0 DUP3 DUP3 SHR SWAP1 POP SWAP3 SWAP2 POP POP JUMP JUMPDEST PUSH0 PUSH2 0x11CB PUSH0 NOT DUP5 PUSH1 0x8 MUL PUSH2 0x11B0 JUMP JUMPDEST NOT DUP1 DUP4 AND SWAP2 POP POP SWAP3 SWAP2 POP POP JUMP JUMPDEST PUSH0 PUSH2 0x11E3 DUP4 DUP4 PUSH2 0x11BC JUMP JUMPDEST SWAP2 POP DUP3 PUSH1 0x2 MUL DUP3 OR SWAP1 POP SWAP3 SWAP2 POP POP JUMP JUMPDEST PUSH2 0x11FC DUP3 PUSH2 0xB39 JUMP JUMPDEST PUSH8 0xFFFFFFFFFFFFFFFF DUP2 GT ISZERO PUSH2 0x1215 JUMPI PUSH2 0x1214 PUSH2 0xD0C JUMP JUMPDEST JUMPDEST PUSH2 0x121F DUP3 SLOAD PUSH2 0x101D JUMP JUMPDEST PUSH2 0x122A DUP3 DUP3 DUP6 PUSH2 0x116A JUMP JUMPDEST PUSH0 PUSH1 0x20 SWAP1 POP PUSH1 0x1F DUP4 GT PUSH1 0x1 DUP2 EQ PUSH2 0x125B JUMPI PUSH0 DUP5 ISZERO PUSH2 0x1249 JUMPI DUP3 DUP8 ADD MLOAD SWAP1 POP JUMPDEST PUSH2 0x1253 DUP6 DUP3 PUSH2 0x11D8 JUMP JUMPDEST DUP7 SSTORE POP PUSH2 0x12BA JUMP JUMPDEST PUSH1 0x1F NOT DUP5 AND PUSH2 0x1269 DUP7 PUSH2 0x104D JUMP JUMPDEST PUSH0 JUMPDEST DUP3 DUP2 LT ISZERO PUSH2 0x1290 JUMPI DUP5 DUP10 ADD MLOAD DUP3 SSTORE PUSH1 0x1 DUP3 ADD SWAP2 POP PUSH1 0x20 DUP6 ADD SWAP5 POP PUSH1 0x20 DUP2 ADD SWAP1 POP PUSH2 0x126B JUMP JUMPDEST DUP7 DUP4 LT ISZERO PUSH2 0x12AD JUMPI DUP5 DUP10 ADD MLOAD PUSH2 0x12A9 PUSH1 0x1F DUP10 AND DUP3 PUSH2 0x11BC JUMP JUMPDEST DUP4 SSTORE POP JUMPDEST PUSH1 0x1 PUSH1 0x2 DUP9 MUL ADD DUP9 SSTORE POP POP POP JUMPDEST POP POP POP POP POP POP JUMP JUMPDEST PUSH32 0x4E487B7100000000000000000000000000000000000000000000000000000000 PUSH0 MSTORE PUSH1 0x11 PUSH1 0x4 MSTORE PUSH1 0x24 PUSH0 REVERT JUMPDEST PUSH0 PUSH2 0x12F9 DUP3 PUSH2 0xAC2 JUMP JUMPDEST SWAP2 POP PUSH8 0xFFFFFFFFFFFFFFFF DUP3 SUB PUSH2 0x1313 JUMPI PUSH2 0x1312 PUSH2 0x12C2 JUMP JUMPDEST JUMPDEST PUSH1 0x1 DUP3 ADD SWAP1 POP SWAP2 SWAP1 POP JUMP INVALID LOG2 PUSH5 0x6970667358 0x22 SLT KECCAK256 SWAP10 0xE4 PUSH1 0x16 0xEF SUB SHR SWAP8 CALLDATACOPY PUSH26 0x5A2363C3E3028654131A4CFC78E4FD6A3E8C90D05CD664736F6C PUSH4 0x43000816 STOP CALLER "
				},
				"gasEstimates": {
					"creation": {
						"codeDepositCost": "989600",
						"executionCost": "49606",
						"totalCost": "1039206"
					},
					"external": {
						"_companyContractAddress()": "2550",
						"emergencyNotifications(address)": "infinite",
						"getEmergency(address)": "infinite",
						"getLandInfo(uint64)": "infinite",
						"lands(uint64)": "infinite",
						"latestBlockId()": "2539",
						"latestLandId()": "2510",
						"registerLand(string,string,string,uint64,uint64)": "infinite",
						"reportEmergency(address,string)": "infinite"
					}
				},
				"methodIdentifiers": {
					"_companyContractAddress()": "78a51933",
					"emergencyNotifications(address)": "3f44b15e",
					"getEmergency(address)": "8a45a0a0",
					"getLandInfo(uint64)": "11c75810",
					"lands(uint64)": "e17a1a33",
					"latestBlockId()": "a4388d22",
					"latestLandId()": "b0847f81",
					"registerLand(string,string,string,uint64,uint64)": "e736fed3",
					"reportEmergency(address,string)": "81469478"
				}
			},
			"storageLayout": {
				"storage": [
					{
						"astId": 507,
						"contract": "contracts/GreenGuardian.sol:Lands",
						"label": "_companyContractAddress",
						"offset": 0,
						"slot": "0",
						"type": "t_address"
					},
					{
						"astId": 512,
						"contract": "contracts/GreenGuardian.sol:Lands",
						"label": "lands",
						"offset": 0,
						"slot": "1",
						"type": "t_mapping(t_uint64,t_struct(LandInfo)505_storage)"
					},
					{
						"astId": 516,
						"contract": "contracts/GreenGuardian.sol:Lands",
						"label": "emergencyNotifications",
						"offset": 0,
						"slot": "2",
						"type": "t_mapping(t_address,t_string_storage)"
					},
					{
						"astId": 519,
						"contract": "contracts/GreenGuardian.sol:Lands",
						"label": "latestLandId",
						"offset": 0,
						"slot": "3",
						"type": "t_uint64"
					},
					{
						"astId": 522,
						"contract": "contracts/GreenGuardian.sol:Lands",
						"label": "latestBlockId",
						"offset": 8,
						"slot": "3",
						"type": "t_uint64"
					}
				],
				"types": {
					"t_address": {
						"encoding": "inplace",
						"label": "address",
						"numberOfBytes": "20"
					},
					"t_mapping(t_address,t_string_storage)": {
						"encoding": "mapping",
						"key": "t_address",
						"label": "mapping(address => string)",
						"numberOfBytes": "32",
						"value": "t_string_storage"
					},
					"t_mapping(t_uint64,t_struct(LandInfo)505_storage)": {
						"encoding": "mapping",
						"key": "t_uint64",
						"label": "mapping(uint64 => struct Lands.LandInfo)",
						"numberOfBytes": "32",
						"value": "t_struct(LandInfo)505_storage"
					},
					"t_string_storage": {
						"encoding": "bytes",
						"label": "string",
						"numberOfBytes": "32"
					},
					"t_struct(LandInfo)505_storage": {
						"encoding": "inplace",
						"label": "struct Lands.LandInfo",
						"members": [
							{
								"astId": 492,
								"contract": "contracts/GreenGuardian.sol:Lands",
								"label": "blockId",
								"offset": 0,
								"slot": "0",
								"type": "t_uint64"
							},
							{
								"astId": 494,
								"contract": "contracts/GreenGuardian.sol:Lands",
								"label": "areaId",
								"offset": 8,
								"slot": "0",
								"type": "t_uint64"
							},
							{
								"astId": 496,
								"contract": "contracts/GreenGuardian.sol:Lands",
								"label": "province",
								"offset": 0,
								"slot": "1",
								"type": "t_string_storage"
							},
							{
								"astId": 498,
								"contract": "contracts/GreenGuardian.sol:Lands",
								"label": "town",
								"offset": 0,
								"slot": "2",
								"type": "t_string_storage"
							},
							{
								"astId": 500,
								"contract": "contracts/GreenGuardian.sol:Lands",
								"label": "street",
								"offset": 0,
								"slot": "3",
								"type": "t_string_storage"
							},
							{
								"astId": 502,
								"contract": "contracts/GreenGuardian.sol:Lands",
								"label": "latitude",
								"offset": 0,
								"slot": "4",
								"type": "t_uint64"
							},
							{
								"astId": 504,
								"contract": "contracts/GreenGuardian.sol:Lands",
								"label": "longitude",
								"offset": 8,
								"slot": "4",
								"type": "t_uint64"
							}
						],
						"numberOfBytes": "160"
					},
					"t_uint64": {
						"encoding": "inplace",
						"label": "uint64",
						"numberOfBytes": "8"
					}
				}
			},
			"userdoc": {
				"kind": "user",
				"methods": {},
				"version": 1
			}
		}
	}
}