{
	"contracts/GreenGuardian.sol": {
		"User": {
			"abi": [
				{
					"inputs": [
						{
							"internalType": "contract DataObjectStore",
							"name": "store",
							"type": "address"
						}
					],
					"stateMutability": "nonpayable",
					"type": "constructor"
				},
				{
					"inputs": [],
					"name": "getCustomerInfo",
					"outputs": [
						{
							"internalType": "string",
							"name": "",
							"type": "string"
						},
						{
							"internalType": "uint64",
							"name": "",
							"type": "uint64"
						},
						{
							"internalType": "string",
							"name": "",
							"type": "string"
						}
					],
					"stateMutability": "view",
					"type": "function"
				},
				{
					"inputs": [
						{
							"internalType": "string",
							"name": "name",
							"type": "string"
						},
						{
							"internalType": "string",
							"name": "surname",
							"type": "string"
						},
						{
							"internalType": "uint64",
							"name": "userId",
							"type": "uint64"
						},
						{
							"internalType": "uint64",
							"name": "age",
							"type": "uint64"
						},
						{
							"internalType": "string",
							"name": "email",
							"type": "string"
						},
						{
							"internalType": "string",
							"name": "addres",
							"type": "string"
						}
					],
					"name": "registerCustomer",
					"outputs": [],
					"stateMutability": "nonpayable",
					"type": "function"
				},
				{
					"inputs": [
						{
							"internalType": "string",
							"name": "newEmail",
							"type": "string"
						},
						{
							"internalType": "string",
							"name": "newAddres",
							"type": "string"
						}
					],
					"name": "updateCustomerInfo",
					"outputs": [],
					"stateMutability": "nonpayable",
					"type": "function"
				},
				{
					"inputs": [
						{
							"internalType": "address",
							"name": "",
							"type": "address"
						}
					],
					"name": "users",
					"outputs": [
						{
							"internalType": "string",
							"name": "name",
							"type": "string"
						},
						{
							"internalType": "string",
							"name": "surname",
							"type": "string"
						},
						{
							"internalType": "uint64",
							"name": "userId",
							"type": "uint64"
						},
						{
							"internalType": "uint64",
							"name": "age",
							"type": "uint64"
						},
						{
							"internalType": "string",
							"name": "email",
							"type": "string"
						},
						{
							"internalType": "string",
							"name": "addres",
							"type": "string"
						}
					],
					"stateMutability": "view",
					"type": "function"
				}
			],
			"devdoc": {
				"kind": "dev",
				"methods": {},
				"version": 1
			},
			"evm": {
				"assembly": "    /* \"contracts/GreenGuardian.sol\":1334:2480  contract User {... */\n  mstore(0x40, 0x80)\n    /* \"contracts/GreenGuardian.sol\":1607:1675  constructor(DataObjectStore store) {... */\n  callvalue\n  dup1\n  iszero\n  tag_1\n  jumpi\n  0x00\n  dup1\n  revert\ntag_1:\n  pop\n  mload(0x40)\n  sub(codesize, bytecodeSize)\n  dup1\n  bytecodeSize\n  dup4\n  codecopy\n  dup2\n  dup2\n  add\n  0x40\n  mstore\n  dup2\n  add\n  swap1\n  tag_2\n  swap2\n  swap1\n  tag_3\n  jump\t// in\ntag_2:\n    /* \"contracts/GreenGuardian.sol\":1662:1667  store */\n  dup1\n    /* \"contracts/GreenGuardian.sol\":1653:1659  _store */\n  0x01\n  0x00\n    /* \"contracts/GreenGuardian.sol\":1653:1667  _store = store */\n  0x0100\n  exp\n  dup2\n  sload\n  dup2\n  0xffffffffffffffffffffffffffffffffffffffff\n  mul\n  not\n  and\n  swap1\n  dup4\n  0xffffffffffffffffffffffffffffffffffffffff\n  and\n  mul\n  or\n  swap1\n  sstore\n  pop\n    /* \"contracts/GreenGuardian.sol\":1607:1675  constructor(DataObjectStore store) {... */\n  pop\n    /* \"contracts/GreenGuardian.sol\":1334:2480  contract User {... */\n  jump(tag_6)\n    /* \"#utility.yul\":88:205   */\ntag_8:\n    /* \"#utility.yul\":197:198   */\n  0x00\n    /* \"#utility.yul\":194:195   */\n  dup1\n    /* \"#utility.yul\":187:199   */\n  revert\n    /* \"#utility.yul\":334:460   */\ntag_10:\n    /* \"#utility.yul\":371:378   */\n  0x00\n    /* \"#utility.yul\":411:453   */\n  0xffffffffffffffffffffffffffffffffffffffff\n    /* \"#utility.yul\":404:409   */\n  dup3\n    /* \"#utility.yul\":400:454   */\n  and\n    /* \"#utility.yul\":389:454   */\n  swap1\n  pop\n    /* \"#utility.yul\":334:460   */\n  swap2\n  swap1\n  pop\n  jump\t// out\n    /* \"#utility.yul\":466:562   */\ntag_11:\n    /* \"#utility.yul\":503:510   */\n  0x00\n    /* \"#utility.yul\":532:556   */\n  tag_21\n    /* \"#utility.yul\":550:555   */\n  dup3\n    /* \"#utility.yul\":532:556   */\n  tag_10\n  jump\t// in\ntag_21:\n    /* \"#utility.yul\":521:556   */\n  swap1\n  pop\n    /* \"#utility.yul\":466:562   */\n  swap2\n  swap1\n  pop\n  jump\t// out\n    /* \"#utility.yul\":568:687   */\ntag_12:\n    /* \"#utility.yul\":628:635   */\n  0x00\n    /* \"#utility.yul\":657:681   */\n  tag_23\n    /* \"#utility.yul\":675:680   */\n  dup3\n    /* \"#utility.yul\":657:681   */\n  tag_11\n  jump\t// in\ntag_23:\n    /* \"#utility.yul\":646:681   */\n  swap1\n  pop\n    /* \"#utility.yul\":568:687   */\n  swap2\n  swap1\n  pop\n  jump\t// out\n    /* \"#utility.yul\":693:861   */\ntag_13:\n    /* \"#utility.yul\":789:836   */\n  tag_25\n    /* \"#utility.yul\":830:835   */\n  dup2\n    /* \"#utility.yul\":789:836   */\n  tag_12\n  jump\t// in\ntag_25:\n    /* \"#utility.yul\":782:787   */\n  dup2\n    /* \"#utility.yul\":779:837   */\n  eq\n    /* \"#utility.yul\":769:855   */\n  tag_26\n  jumpi\n    /* \"#utility.yul\":851:852   */\n  0x00\n    /* \"#utility.yul\":848:849   */\n  dup1\n    /* \"#utility.yul\":841:853   */\n  revert\n    /* \"#utility.yul\":769:855   */\ntag_26:\n    /* \"#utility.yul\":693:861   */\n  pop\n  jump\t// out\n    /* \"#utility.yul\":867:1056   */\ntag_14:\n    /* \"#utility.yul\":947:952   */\n  0x00\n    /* \"#utility.yul\":978:984   */\n  dup2\n    /* \"#utility.yul\":972:985   */\n  mload\n    /* \"#utility.yul\":963:985   */\n  swap1\n  pop\n    /* \"#utility.yul\":994:1050   */\n  tag_28\n    /* \"#utility.yul\":1044:1049   */\n  dup2\n    /* \"#utility.yul\":994:1050   */\n  tag_13\n  jump\t// in\ntag_28:\n    /* \"#utility.yul\":867:1056   */\n  swap3\n  swap2\n  pop\n  pop\n  jump\t// out\n    /* \"#utility.yul\":1062:1459   */\ntag_3:\n    /* \"#utility.yul\":1155:1161   */\n  0x00\n    /* \"#utility.yul\":1204:1206   */\n  0x20\n    /* \"#utility.yul\":1192:1201   */\n  dup3\n    /* \"#utility.yul\":1183:1190   */\n  dup5\n    /* \"#utility.yul\":1179:1202   */\n  sub\n    /* \"#utility.yul\":1175:1207   */\n  slt\n    /* \"#utility.yul\":1172:1291   */\n  iszero\n  tag_30\n  jumpi\n    /* \"#utility.yul\":1210:1289   */\n  tag_31\n  tag_8\n  jump\t// in\ntag_31:\n    /* \"#utility.yul\":1172:1291   */\ntag_30:\n    /* \"#utility.yul\":1330:1331   */\n  0x00\n    /* \"#utility.yul\":1355:1442   */\n  tag_32\n    /* \"#utility.yul\":1434:1441   */\n  dup5\n    /* \"#utility.yul\":1425:1431   */\n  dup3\n    /* \"#utility.yul\":1414:1423   */\n  dup6\n    /* \"#utility.yul\":1410:1432   */\n  add\n    /* \"#utility.yul\":1355:1442   */\n  tag_14\n  jump\t// in\ntag_32:\n    /* \"#utility.yul\":1345:1442   */\n  swap2\n  pop\n    /* \"#utility.yul\":1301:1452   */\n  pop\n    /* \"#utility.yul\":1062:1459   */\n  swap3\n  swap2\n  pop\n  pop\n  jump\t// out\n    /* \"contracts/GreenGuardian.sol\":1334:2480  contract User {... */\ntag_6:\n  dataSize(sub_0)\n  dup1\n  dataOffset(sub_0)\n  0x00\n  codecopy\n  0x00\n  return\nstop\n\nsub_0: assembly {\n        /* \"contracts/GreenGuardian.sol\":1334:2480  contract User {... */\n      mstore(0x40, 0x80)\n      callvalue\n      dup1\n      iszero\n      tag_1\n      jumpi\n      0x00\n      dup1\n      revert\n    tag_1:\n      pop\n      jumpi(tag_2, lt(calldatasize, 0x04))\n      shr(0xe0, calldataload(0x00))\n      dup1\n      0x7857adc9\n      eq\n      tag_3\n      jumpi\n      dup1\n      0xa87430ba\n      eq\n      tag_4\n      jumpi\n      dup1\n      0xb9737031\n      eq\n      tag_5\n      jumpi\n      dup1\n      0xbfe051b7\n      eq\n      tag_6\n      jumpi\n    tag_2:\n      0x00\n      dup1\n      revert\n        /* \"contracts/GreenGuardian.sol\":2267:2477  function updateCustomerInfo(string memory newEmail, string memory newAddres) public {... */\n    tag_3:\n      tag_7\n      0x04\n      dup1\n      calldatasize\n      sub\n      dup2\n      add\n      swap1\n      tag_8\n      swap2\n      swap1\n      tag_9\n      jump\t// in\n    tag_8:\n      tag_10\n      jump\t// in\n    tag_7:\n      stop\n        /* \"contracts/GreenGuardian.sol\":1526:1567  mapping(address => UserInfo) public users */\n    tag_4:\n      tag_11\n      0x04\n      dup1\n      calldatasize\n      sub\n      dup2\n      add\n      swap1\n      tag_12\n      swap2\n      swap1\n      tag_13\n      jump\t// in\n    tag_12:\n      tag_14\n      jump\t// in\n    tag_11:\n      mload(0x40)\n      tag_15\n      swap7\n      swap6\n      swap5\n      swap4\n      swap3\n      swap2\n      swap1\n      tag_16\n      jump\t// in\n    tag_15:\n      mload(0x40)\n      dup1\n      swap2\n      sub\n      swap1\n      return\n        /* \"contracts/GreenGuardian.sol\":2061:2259  function getCustomerInfo() public view returns (string memory, uint64, string memory) {... */\n    tag_5:\n      tag_17\n      tag_18\n      jump\t// in\n    tag_17:\n      mload(0x40)\n      tag_19\n      swap4\n      swap3\n      swap2\n      swap1\n      tag_20\n      jump\t// in\n    tag_19:\n      mload(0x40)\n      dup1\n      swap2\n      sub\n      swap1\n      return\n        /* \"contracts/GreenGuardian.sol\":1683:2053  function registerCustomer(string memory name, string memory surname, uint64 userId, uint64 age, string memory email, string memory addres) public {... */\n    tag_6:\n      tag_21\n      0x04\n      dup1\n      calldatasize\n      sub\n      dup2\n      add\n      swap1\n      tag_22\n      swap2\n      swap1\n      tag_23\n      jump\t// in\n    tag_22:\n      tag_24\n      jump\t// in\n    tag_21:\n      stop\n        /* \"contracts/GreenGuardian.sol\":2267:2477  function updateCustomerInfo(string memory newEmail, string memory newAddres) public {... */\n    tag_10:\n        /* \"contracts/GreenGuardian.sol\":2362:2383  UserInfo storage info */\n      0x00\n        /* \"contracts/GreenGuardian.sol\":2386:2391  users */\n      dup1\n        /* \"contracts/GreenGuardian.sol\":2386:2403  users[msg.sender] */\n      0x00\n        /* \"contracts/GreenGuardian.sol\":2392:2402  msg.sender */\n      caller\n        /* \"contracts/GreenGuardian.sol\":2386:2403  users[msg.sender] */\n      0xffffffffffffffffffffffffffffffffffffffff\n      and\n      0xffffffffffffffffffffffffffffffffffffffff\n      and\n      dup2\n      mstore\n      0x20\n      add\n      swap1\n      dup2\n      mstore\n      0x20\n      add\n      0x00\n      keccak256\n        /* \"contracts/GreenGuardian.sol\":2362:2403  UserInfo storage info = users[msg.sender] */\n      swap1\n      pop\n        /* \"contracts/GreenGuardian.sol\":2427:2435  newEmail */\n      dup3\n        /* \"contracts/GreenGuardian.sol\":2414:2418  info */\n      dup2\n        /* \"contracts/GreenGuardian.sol\":2414:2424  info.email */\n      0x03\n      add\n        /* \"contracts/GreenGuardian.sol\":2414:2435  info.email = newEmail */\n      swap1\n      dup2\n      tag_26\n      swap2\n      swap1\n      tag_27\n      jump\t// in\n    tag_26:\n      pop\n        /* \"contracts/GreenGuardian.sol\":2460:2469  newAddres */\n      dup2\n        /* \"contracts/GreenGuardian.sol\":2446:2450  info */\n      dup2\n        /* \"contracts/GreenGuardian.sol\":2446:2457  info.addres */\n      0x04\n      add\n        /* \"contracts/GreenGuardian.sol\":2446:2469  info.addres = newAddres */\n      swap1\n      dup2\n      tag_28\n      swap2\n      swap1\n      tag_27\n      jump\t// in\n    tag_28:\n      pop\n        /* \"contracts/GreenGuardian.sol\":2351:2477  {... */\n      pop\n        /* \"contracts/GreenGuardian.sol\":2267:2477  function updateCustomerInfo(string memory newEmail, string memory newAddres) public {... */\n      pop\n      pop\n      jump\t// out\n        /* \"contracts/GreenGuardian.sol\":1526:1567  mapping(address => UserInfo) public users */\n    tag_14:\n      mstore(0x20, 0x00)\n      dup1\n      0x00\n      mstore\n      keccak256(0x00, 0x40)\n      0x00\n      swap2\n      pop\n      swap1\n      pop\n      dup1\n      0x00\n      add\n      dup1\n      sload\n      tag_29\n      swap1\n      tag_30\n      jump\t// in\n    tag_29:\n      dup1\n      0x1f\n      add\n      0x20\n      dup1\n      swap2\n      div\n      mul\n      0x20\n      add\n      mload(0x40)\n      swap1\n      dup2\n      add\n      0x40\n      mstore\n      dup1\n      swap3\n      swap2\n      swap1\n      dup2\n      dup2\n      mstore\n      0x20\n      add\n      dup3\n      dup1\n      sload\n      tag_31\n      swap1\n      tag_30\n      jump\t// in\n    tag_31:\n      dup1\n      iszero\n      tag_32\n      jumpi\n      dup1\n      0x1f\n      lt\n      tag_33\n      jumpi\n      0x0100\n      dup1\n      dup4\n      sload\n      div\n      mul\n      dup4\n      mstore\n      swap2\n      0x20\n      add\n      swap2\n      jump(tag_32)\n    tag_33:\n      dup3\n      add\n      swap2\n      swap1\n      0x00\n      mstore\n      keccak256(0x00, 0x20)\n      swap1\n    tag_34:\n      dup2\n      sload\n      dup2\n      mstore\n      swap1\n      0x01\n      add\n      swap1\n      0x20\n      add\n      dup1\n      dup4\n      gt\n      tag_34\n      jumpi\n      dup3\n      swap1\n      sub\n      0x1f\n      and\n      dup3\n      add\n      swap2\n    tag_32:\n      pop\n      pop\n      pop\n      pop\n      pop\n      swap1\n      dup1\n      0x01\n      add\n      dup1\n      sload\n      tag_35\n      swap1\n      tag_30\n      jump\t// in\n    tag_35:\n      dup1\n      0x1f\n      add\n      0x20\n      dup1\n      swap2\n      div\n      mul\n      0x20\n      add\n      mload(0x40)\n      swap1\n      dup2\n      add\n      0x40\n      mstore\n      dup1\n      swap3\n      swap2\n      swap1\n      dup2\n      dup2\n      mstore\n      0x20\n      add\n      dup3\n      dup1\n      sload\n      tag_36\n      swap1\n      tag_30\n      jump\t// in\n    tag_36:\n      dup1\n      iszero\n      tag_37\n      jumpi\n      dup1\n      0x1f\n      lt\n      tag_38\n      jumpi\n      0x0100\n      dup1\n      dup4\n      sload\n      div\n      mul\n      dup4\n      mstore\n      swap2\n      0x20\n      add\n      swap2\n      jump(tag_37)\n    tag_38:\n      dup3\n      add\n      swap2\n      swap1\n      0x00\n      mstore\n      keccak256(0x00, 0x20)\n      swap1\n    tag_39:\n      dup2\n      sload\n      dup2\n      mstore\n      swap1\n      0x01\n      add\n      swap1\n      0x20\n      add\n      dup1\n      dup4\n      gt\n      tag_39\n      jumpi\n      dup3\n      swap1\n      sub\n      0x1f\n      and\n      dup3\n      add\n      swap2\n    tag_37:\n      pop\n      pop\n      pop\n      pop\n      pop\n      swap1\n      dup1\n      0x02\n      add\n      0x00\n      swap1\n      sload\n      swap1\n      0x0100\n      exp\n      swap1\n      div\n      0xffffffffffffffff\n      and\n      swap1\n      dup1\n      0x02\n      add\n      0x08\n      swap1\n      sload\n      swap1\n      0x0100\n      exp\n      swap1\n      div\n      0xffffffffffffffff\n      and\n      swap1\n      dup1\n      0x03\n      add\n      dup1\n      sload\n      tag_40\n      swap1\n      tag_30\n      jump\t// in\n    tag_40:\n      dup1\n      0x1f\n      add\n      0x20\n      dup1\n      swap2\n      div\n      mul\n      0x20\n      add\n      mload(0x40)\n      swap1\n      dup2\n      add\n      0x40\n      mstore\n      dup1\n      swap3\n      swap2\n      swap1\n      dup2\n      dup2\n      mstore\n      0x20\n      add\n      dup3\n      dup1\n      sload\n      tag_41\n      swap1\n      tag_30\n      jump\t// in\n    tag_41:\n      dup1\n      iszero\n      tag_42\n      jumpi\n      dup1\n      0x1f\n      lt\n      tag_43\n      jumpi\n      0x0100\n      dup1\n      dup4\n      sload\n      div\n      mul\n      dup4\n      mstore\n      swap2\n      0x20\n      add\n      swap2\n      jump(tag_42)\n    tag_43:\n      dup3\n      add\n      swap2\n      swap1\n      0x00\n      mstore\n      keccak256(0x00, 0x20)\n      swap1\n    tag_44:\n      dup2\n      sload\n      dup2\n      mstore\n      swap1\n      0x01\n      add\n      swap1\n      0x20\n      add\n      dup1\n      dup4\n      gt\n      tag_44\n      jumpi\n      dup3\n      swap1\n      sub\n      0x1f\n      and\n      dup3\n      add\n      swap2\n    tag_42:\n      pop\n      pop\n      pop\n      pop\n      pop\n      swap1\n      dup1\n      0x04\n      add\n      dup1\n      sload\n      tag_45\n      swap1\n      tag_30\n      jump\t// in\n    tag_45:\n      dup1\n      0x1f\n      add\n      0x20\n      dup1\n      swap2\n      div\n      mul\n      0x20\n      add\n      mload(0x40)\n      swap1\n      dup2\n      add\n      0x40\n      mstore\n      dup1\n      swap3\n      swap2\n      swap1\n      dup2\n      dup2\n      mstore\n      0x20\n      add\n      dup3\n      dup1\n      sload\n      tag_46\n      swap1\n      tag_30\n      jump\t// in\n    tag_46:\n      dup1\n      iszero\n      tag_47\n      jumpi\n      dup1\n      0x1f\n      lt\n      tag_48\n      jumpi\n      0x0100\n      dup1\n      dup4\n      sload\n      div\n      mul\n      dup4\n      mstore\n      swap2\n      0x20\n      add\n      swap2\n      jump(tag_47)\n    tag_48:\n      dup3\n      add\n      swap2\n      swap1\n      0x00\n      mstore\n      keccak256(0x00, 0x20)\n      swap1\n    tag_49:\n      dup2\n      sload\n      dup2\n      mstore\n      swap1\n      0x01\n      add\n      swap1\n      0x20\n      add\n      dup1\n      dup4\n      gt\n      tag_49\n      jumpi\n      dup3\n      swap1\n      sub\n      0x1f\n      and\n      dup3\n      add\n      swap2\n    tag_47:\n      pop\n      pop\n      pop\n      pop\n      pop\n      swap1\n      pop\n      dup7\n      jump\t// out\n        /* \"contracts/GreenGuardian.sol\":2061:2259  function getCustomerInfo() public view returns (string memory, uint64, string memory) {... */\n    tag_18:\n        /* \"contracts/GreenGuardian.sol\":2109:2122  string memory */\n      0x60\n        /* \"contracts/GreenGuardian.sol\":2124:2130  uint64 */\n      0x00\n        /* \"contracts/GreenGuardian.sol\":2132:2145  string memory */\n      0x60\n        /* \"contracts/GreenGuardian.sol\":2158:2179  UserInfo storage info */\n      0x00\n        /* \"contracts/GreenGuardian.sol\":2182:2187  users */\n      dup1\n        /* \"contracts/GreenGuardian.sol\":2182:2199  users[msg.sender] */\n      0x00\n        /* \"contracts/GreenGuardian.sol\":2188:2198  msg.sender */\n      caller\n        /* \"contracts/GreenGuardian.sol\":2182:2199  users[msg.sender] */\n      0xffffffffffffffffffffffffffffffffffffffff\n      and\n      0xffffffffffffffffffffffffffffffffffffffff\n      and\n      dup2\n      mstore\n      0x20\n      add\n      swap1\n      dup2\n      mstore\n      0x20\n      add\n      0x00\n      keccak256\n        /* \"contracts/GreenGuardian.sol\":2158:2199  UserInfo storage info = users[msg.sender] */\n      swap1\n      pop\n        /* \"contracts/GreenGuardian.sol\":2218:2222  info */\n      dup1\n        /* \"contracts/GreenGuardian.sol\":2218:2227  info.name */\n      0x00\n      add\n        /* \"contracts/GreenGuardian.sol\":2229:2233  info */\n      dup2\n        /* \"contracts/GreenGuardian.sol\":2229:2237  info.age */\n      0x02\n      add\n      0x08\n      swap1\n      sload\n      swap1\n      0x0100\n      exp\n      swap1\n      div\n      0xffffffffffffffff\n      and\n        /* \"contracts/GreenGuardian.sol\":2239:2243  info */\n      dup3\n        /* \"contracts/GreenGuardian.sol\":2239:2250  info.addres */\n      0x04\n      add\n        /* \"contracts/GreenGuardian.sol\":2210:2251  return (info.name, info.age, info.addres) */\n      dup3\n      dup1\n      sload\n      tag_51\n      swap1\n      tag_30\n      jump\t// in\n    tag_51:\n      dup1\n      0x1f\n      add\n      0x20\n      dup1\n      swap2\n      div\n      mul\n      0x20\n      add\n      mload(0x40)\n      swap1\n      dup2\n      add\n      0x40\n      mstore\n      dup1\n      swap3\n      swap2\n      swap1\n      dup2\n      dup2\n      mstore\n      0x20\n      add\n      dup3\n      dup1\n      sload\n      tag_52\n      swap1\n      tag_30\n      jump\t// in\n    tag_52:\n      dup1\n      iszero\n      tag_53\n      jumpi\n      dup1\n      0x1f\n      lt\n      tag_54\n      jumpi\n      0x0100\n      dup1\n      dup4\n      sload\n      div\n      mul\n      dup4\n      mstore\n      swap2\n      0x20\n      add\n      swap2\n      jump(tag_53)\n    tag_54:\n      dup3\n      add\n      swap2\n      swap1\n      0x00\n      mstore\n      keccak256(0x00, 0x20)\n      swap1\n    tag_55:\n      dup2\n      sload\n      dup2\n      mstore\n      swap1\n      0x01\n      add\n      swap1\n      0x20\n      add\n      dup1\n      dup4\n      gt\n      tag_55\n      jumpi\n      dup3\n      swap1\n      sub\n      0x1f\n      and\n      dup3\n      add\n      swap2\n    tag_53:\n      pop\n      pop\n      pop\n      pop\n      pop\n      swap3\n      pop\n      dup1\n      dup1\n      sload\n      tag_56\n      swap1\n      tag_30\n      jump\t// in\n    tag_56:\n      dup1\n      0x1f\n      add\n      0x20\n      dup1\n      swap2\n      div\n      mul\n      0x20\n      add\n      mload(0x40)\n      swap1\n      dup2\n      add\n      0x40\n      mstore\n      dup1\n      swap3\n      swap2\n      swap1\n      dup2\n      dup2\n      mstore\n      0x20\n      add\n      dup3\n      dup1\n      sload\n      tag_57\n      swap1\n      tag_30\n      jump\t// in\n    tag_57:\n      dup1\n      iszero\n      tag_58\n      jumpi\n      dup1\n      0x1f\n      lt\n      tag_59\n      jumpi\n      0x0100\n      dup1\n      dup4\n      sload\n      div\n      mul\n      dup4\n      mstore\n      swap2\n      0x20\n      add\n      swap2\n      jump(tag_58)\n    tag_59:\n      dup3\n      add\n      swap2\n      swap1\n      0x00\n      mstore\n      keccak256(0x00, 0x20)\n      swap1\n    tag_60:\n      dup2\n      sload\n      dup2\n      mstore\n      swap1\n      0x01\n      add\n      swap1\n      0x20\n      add\n      dup1\n      dup4\n      gt\n      tag_60\n      jumpi\n      dup3\n      swap1\n      sub\n      0x1f\n      and\n      dup3\n      add\n      swap2\n    tag_58:\n      pop\n      pop\n      pop\n      pop\n      pop\n      swap1\n      pop\n      swap4\n      pop\n      swap4\n      pop\n      swap4\n      pop\n      pop\n        /* \"contracts/GreenGuardian.sol\":2061:2259  function getCustomerInfo() public view returns (string memory, uint64, string memory) {... */\n      swap1\n      swap2\n      swap3\n      jump\t// out\n        /* \"contracts/GreenGuardian.sol\":1683:2053  function registerCustomer(string memory name, string memory surname, uint64 userId, uint64 age, string memory email, string memory addres) public {... */\n    tag_24:\n        /* \"contracts/GreenGuardian.sol\":1860:2045  UserInfo({... */\n      mload(0x40)\n      dup1\n      0xc0\n      add\n      0x40\n      mstore\n      dup1\n        /* \"contracts/GreenGuardian.sol\":1890:1894  name */\n      dup8\n        /* \"contracts/GreenGuardian.sol\":1860:2045  UserInfo({... */\n      dup2\n      mstore\n      0x20\n      add\n        /* \"contracts/GreenGuardian.sol\":1918:1925  surname */\n      dup7\n        /* \"contracts/GreenGuardian.sol\":1860:2045  UserInfo({... */\n      dup2\n      mstore\n      0x20\n      add\n        /* \"contracts/GreenGuardian.sol\":1948:1954  userId */\n      dup6\n        /* \"contracts/GreenGuardian.sol\":1860:2045  UserInfo({... */\n      0xffffffffffffffff\n      and\n      dup2\n      mstore\n      0x20\n      add\n        /* \"contracts/GreenGuardian.sol\":1974:1977  age */\n      dup5\n        /* \"contracts/GreenGuardian.sol\":1860:2045  UserInfo({... */\n      0xffffffffffffffff\n      and\n      dup2\n      mstore\n      0x20\n      add\n        /* \"contracts/GreenGuardian.sol\":1999:2004  email */\n      dup4\n        /* \"contracts/GreenGuardian.sol\":1860:2045  UserInfo({... */\n      dup2\n      mstore\n      0x20\n      add\n        /* \"contracts/GreenGuardian.sol\":2027:2033  addres */\n      dup3\n        /* \"contracts/GreenGuardian.sol\":1860:2045  UserInfo({... */\n      dup2\n      mstore\n      pop\n        /* \"contracts/GreenGuardian.sol\":1840:1845  users */\n      0x00\n        /* \"contracts/GreenGuardian.sol\":1840:1857  users[msg.sender] */\n      dup1\n        /* \"contracts/GreenGuardian.sol\":1846:1856  msg.sender */\n      caller\n        /* \"contracts/GreenGuardian.sol\":1840:1857  users[msg.sender] */\n      0xffffffffffffffffffffffffffffffffffffffff\n      and\n      0xffffffffffffffffffffffffffffffffffffffff\n      and\n      dup2\n      mstore\n      0x20\n      add\n      swap1\n      dup2\n      mstore\n      0x20\n      add\n      0x00\n      keccak256\n        /* \"contracts/GreenGuardian.sol\":1840:2045  users[msg.sender] = UserInfo({... */\n      0x00\n      dup3\n      add\n      mload\n      dup2\n      0x00\n      add\n      swap1\n      dup2\n      tag_62\n      swap2\n      swap1\n      tag_27\n      jump\t// in\n    tag_62:\n      pop\n      0x20\n      dup3\n      add\n      mload\n      dup2\n      0x01\n      add\n      swap1\n      dup2\n      tag_63\n      swap2\n      swap1\n      tag_27\n      jump\t// in\n    tag_63:\n      pop\n      0x40\n      dup3\n      add\n      mload\n      dup2\n      0x02\n      add\n      exp(0x0100, 0x00)\n      dup2\n      sload\n      dup2\n      0xffffffffffffffff\n      mul\n      not\n      and\n      swap1\n      dup4\n      0xffffffffffffffff\n      and\n      mul\n      or\n      swap1\n      sstore\n      pop\n      0x60\n      dup3\n      add\n      mload\n      dup2\n      0x02\n      add\n      exp(0x0100, 0x08)\n      dup2\n      sload\n      dup2\n      0xffffffffffffffff\n      mul\n      not\n      and\n      swap1\n      dup4\n      0xffffffffffffffff\n      and\n      mul\n      or\n      swap1\n      sstore\n      pop\n      0x80\n      dup3\n      add\n      mload\n      dup2\n      0x03\n      add\n      swap1\n      dup2\n      tag_64\n      swap2\n      swap1\n      tag_27\n      jump\t// in\n    tag_64:\n      pop\n      0xa0\n      dup3\n      add\n      mload\n      dup2\n      0x04\n      add\n      swap1\n      dup2\n      tag_65\n      swap2\n      swap1\n      tag_27\n      jump\t// in\n    tag_65:\n      pop\n      swap1\n      pop\n      pop\n        /* \"contracts/GreenGuardian.sol\":1683:2053  function registerCustomer(string memory name, string memory surname, uint64 userId, uint64 age, string memory email, string memory addres) public {... */\n      pop\n      pop\n      pop\n      pop\n      pop\n      pop\n      jump\t// out\n        /* \"#utility.yul\":7:82   */\n    tag_66:\n        /* \"#utility.yul\":40:46   */\n      0x00\n        /* \"#utility.yul\":73:75   */\n      0x40\n        /* \"#utility.yul\":67:76   */\n      mload\n        /* \"#utility.yul\":57:76   */\n      swap1\n      pop\n        /* \"#utility.yul\":7:82   */\n      swap1\n      jump\t// out\n        /* \"#utility.yul\":88:205   */\n    tag_67:\n        /* \"#utility.yul\":197:198   */\n      0x00\n        /* \"#utility.yul\":194:195   */\n      dup1\n        /* \"#utility.yul\":187:199   */\n      revert\n        /* \"#utility.yul\":211:328   */\n    tag_68:\n        /* \"#utility.yul\":320:321   */\n      0x00\n        /* \"#utility.yul\":317:318   */\n      dup1\n        /* \"#utility.yul\":310:322   */\n      revert\n        /* \"#utility.yul\":334:451   */\n    tag_69:\n        /* \"#utility.yul\":443:444   */\n      0x00\n        /* \"#utility.yul\":440:441   */\n      dup1\n        /* \"#utility.yul\":433:445   */\n      revert\n        /* \"#utility.yul\":457:574   */\n    tag_70:\n        /* \"#utility.yul\":566:567   */\n      0x00\n        /* \"#utility.yul\":563:564   */\n      dup1\n        /* \"#utility.yul\":556:568   */\n      revert\n        /* \"#utility.yul\":580:682   */\n    tag_71:\n        /* \"#utility.yul\":621:627   */\n      0x00\n        /* \"#utility.yul\":672:674   */\n      0x1f\n        /* \"#utility.yul\":668:675   */\n      not\n        /* \"#utility.yul\":663:665   */\n      0x1f\n        /* \"#utility.yul\":656:661   */\n      dup4\n        /* \"#utility.yul\":652:666   */\n      add\n        /* \"#utility.yul\":648:676   */\n      and\n        /* \"#utility.yul\":638:676   */\n      swap1\n      pop\n        /* \"#utility.yul\":580:682   */\n      swap2\n      swap1\n      pop\n      jump\t// out\n        /* \"#utility.yul\":688:868   */\n    tag_72:\n        /* \"#utility.yul\":736:813   */\n      0x4e487b7100000000000000000000000000000000000000000000000000000000\n        /* \"#utility.yul\":733:734   */\n      0x00\n        /* \"#utility.yul\":726:814   */\n      mstore\n        /* \"#utility.yul\":833:837   */\n      0x41\n        /* \"#utility.yul\":830:831   */\n      0x04\n        /* \"#utility.yul\":823:838   */\n      mstore\n        /* \"#utility.yul\":857:861   */\n      0x24\n        /* \"#utility.yul\":854:855   */\n      0x00\n        /* \"#utility.yul\":847:862   */\n      revert\n        /* \"#utility.yul\":874:1155   */\n    tag_73:\n        /* \"#utility.yul\":957:984   */\n      tag_117\n        /* \"#utility.yul\":979:983   */\n      dup3\n        /* \"#utility.yul\":957:984   */\n      tag_71\n      jump\t// in\n    tag_117:\n        /* \"#utility.yul\":949:955   */\n      dup2\n        /* \"#utility.yul\":945:985   */\n      add\n        /* \"#utility.yul\":1087:1093   */\n      dup2\n        /* \"#utility.yul\":1075:1085   */\n      dup2\n        /* \"#utility.yul\":1072:1094   */\n      lt\n        /* \"#utility.yul\":1051:1069   */\n      0xffffffffffffffff\n        /* \"#utility.yul\":1039:1049   */\n      dup3\n        /* \"#utility.yul\":1036:1070   */\n      gt\n        /* \"#utility.yul\":1033:1095   */\n      or\n        /* \"#utility.yul\":1030:1118   */\n      iszero\n      tag_118\n      jumpi\n        /* \"#utility.yul\":1098:1116   */\n      tag_119\n      tag_72\n      jump\t// in\n    tag_119:\n        /* \"#utility.yul\":1030:1118   */\n    tag_118:\n        /* \"#utility.yul\":1138:1148   */\n      dup1\n        /* \"#utility.yul\":1134:1136   */\n      0x40\n        /* \"#utility.yul\":1127:1149   */\n      mstore\n        /* \"#utility.yul\":917:1155   */\n      pop\n        /* \"#utility.yul\":874:1155   */\n      pop\n      pop\n      jump\t// out\n        /* \"#utility.yul\":1161:1290   */\n    tag_74:\n        /* \"#utility.yul\":1195:1201   */\n      0x00\n        /* \"#utility.yul\":1222:1242   */\n      tag_121\n      tag_66\n      jump\t// in\n    tag_121:\n        /* \"#utility.yul\":1212:1242   */\n      swap1\n      pop\n        /* \"#utility.yul\":1251:1284   */\n      tag_122\n        /* \"#utility.yul\":1279:1283   */\n      dup3\n        /* \"#utility.yul\":1271:1277   */\n      dup3\n        /* \"#utility.yul\":1251:1284   */\n      tag_73\n      jump\t// in\n    tag_122:\n        /* \"#utility.yul\":1161:1290   */\n      swap2\n      swap1\n      pop\n      jump\t// out\n        /* \"#utility.yul\":1296:1604   */\n    tag_75:\n        /* \"#utility.yul\":1358:1362   */\n      0x00\n        /* \"#utility.yul\":1448:1466   */\n      0xffffffffffffffff\n        /* \"#utility.yul\":1440:1446   */\n      dup3\n        /* \"#utility.yul\":1437:1467   */\n      gt\n        /* \"#utility.yul\":1434:1490   */\n      iszero\n      tag_124\n      jumpi\n        /* \"#utility.yul\":1470:1488   */\n      tag_125\n      tag_72\n      jump\t// in\n    tag_125:\n        /* \"#utility.yul\":1434:1490   */\n    tag_124:\n        /* \"#utility.yul\":1508:1537   */\n      tag_126\n        /* \"#utility.yul\":1530:1536   */\n      dup3\n        /* \"#utility.yul\":1508:1537   */\n      tag_71\n      jump\t// in\n    tag_126:\n        /* \"#utility.yul\":1500:1537   */\n      swap1\n      pop\n        /* \"#utility.yul\":1592:1596   */\n      0x20\n        /* \"#utility.yul\":1586:1590   */\n      dup2\n        /* \"#utility.yul\":1582:1597   */\n      add\n        /* \"#utility.yul\":1574:1597   */\n      swap1\n      pop\n        /* \"#utility.yul\":1296:1604   */\n      swap2\n      swap1\n      pop\n      jump\t// out\n        /* \"#utility.yul\":1610:1756   */\n    tag_76:\n        /* \"#utility.yul\":1707:1713   */\n      dup3\n        /* \"#utility.yul\":1702:1705   */\n      dup2\n        /* \"#utility.yul\":1697:1700   */\n      dup4\n        /* \"#utility.yul\":1684:1714   */\n      calldatacopy\n        /* \"#utility.yul\":1748:1749   */\n      0x00\n        /* \"#utility.yul\":1739:1745   */\n      dup4\n        /* \"#utility.yul\":1734:1737   */\n      dup4\n        /* \"#utility.yul\":1730:1746   */\n      add\n        /* \"#utility.yul\":1723:1750   */\n      mstore\n        /* \"#utility.yul\":1610:1756   */\n      pop\n      pop\n      pop\n      jump\t// out\n        /* \"#utility.yul\":1762:2187   */\n    tag_77:\n        /* \"#utility.yul\":1840:1845   */\n      0x00\n        /* \"#utility.yul\":1865:1931   */\n      tag_129\n        /* \"#utility.yul\":1881:1930   */\n      tag_130\n        /* \"#utility.yul\":1923:1929   */\n      dup5\n        /* \"#utility.yul\":1881:1930   */\n      tag_75\n      jump\t// in\n    tag_130:\n        /* \"#utility.yul\":1865:1931   */\n      tag_74\n      jump\t// in\n    tag_129:\n        /* \"#utility.yul\":1856:1931   */\n      swap1\n      pop\n        /* \"#utility.yul\":1954:1960   */\n      dup3\n        /* \"#utility.yul\":1947:1952   */\n      dup2\n        /* \"#utility.yul\":1940:1961   */\n      mstore\n        /* \"#utility.yul\":1992:1996   */\n      0x20\n        /* \"#utility.yul\":1985:1990   */\n      dup2\n        /* \"#utility.yul\":1981:1997   */\n      add\n        /* \"#utility.yul\":2030:2033   */\n      dup5\n        /* \"#utility.yul\":2021:2027   */\n      dup5\n        /* \"#utility.yul\":2016:2019   */\n      dup5\n        /* \"#utility.yul\":2012:2028   */\n      add\n        /* \"#utility.yul\":2009:2034   */\n      gt\n        /* \"#utility.yul\":2006:2118   */\n      iszero\n      tag_131\n      jumpi\n        /* \"#utility.yul\":2037:2116   */\n      tag_132\n      tag_70\n      jump\t// in\n    tag_132:\n        /* \"#utility.yul\":2006:2118   */\n    tag_131:\n        /* \"#utility.yul\":2127:2181   */\n      tag_133\n        /* \"#utility.yul\":2174:2180   */\n      dup5\n        /* \"#utility.yul\":2169:2172   */\n      dup3\n        /* \"#utility.yul\":2164:2167   */\n      dup6\n        /* \"#utility.yul\":2127:2181   */\n      tag_76\n      jump\t// in\n    tag_133:\n        /* \"#utility.yul\":1846:2187   */\n      pop\n        /* \"#utility.yul\":1762:2187   */\n      swap4\n      swap3\n      pop\n      pop\n      pop\n      jump\t// out\n        /* \"#utility.yul\":2207:2547   */\n    tag_78:\n        /* \"#utility.yul\":2263:2268   */\n      0x00\n        /* \"#utility.yul\":2312:2315   */\n      dup3\n        /* \"#utility.yul\":2305:2309   */\n      0x1f\n        /* \"#utility.yul\":2297:2303   */\n      dup4\n        /* \"#utility.yul\":2293:2310   */\n      add\n        /* \"#utility.yul\":2289:2316   */\n      slt\n        /* \"#utility.yul\":2279:2401   */\n      tag_135\n      jumpi\n        /* \"#utility.yul\":2320:2399   */\n      tag_136\n      tag_69\n      jump\t// in\n    tag_136:\n        /* \"#utility.yul\":2279:2401   */\n    tag_135:\n        /* \"#utility.yul\":2437:2443   */\n      dup2\n        /* \"#utility.yul\":2424:2444   */\n      calldataload\n        /* \"#utility.yul\":2462:2541   */\n      tag_137\n        /* \"#utility.yul\":2537:2540   */\n      dup5\n        /* \"#utility.yul\":2529:2535   */\n      dup3\n        /* \"#utility.yul\":2522:2526   */\n      0x20\n        /* \"#utility.yul\":2514:2520   */\n      dup7\n        /* \"#utility.yul\":2510:2527   */\n      add\n        /* \"#utility.yul\":2462:2541   */\n      tag_77\n      jump\t// in\n    tag_137:\n        /* \"#utility.yul\":2453:2541   */\n      swap2\n      pop\n        /* \"#utility.yul\":2269:2547   */\n      pop\n        /* \"#utility.yul\":2207:2547   */\n      swap3\n      swap2\n      pop\n      pop\n      jump\t// out\n        /* \"#utility.yul\":2553:3387   */\n    tag_9:\n        /* \"#utility.yul\":2641:2647   */\n      0x00\n        /* \"#utility.yul\":2649:2655   */\n      dup1\n        /* \"#utility.yul\":2698:2700   */\n      0x40\n        /* \"#utility.yul\":2686:2695   */\n      dup4\n        /* \"#utility.yul\":2677:2684   */\n      dup6\n        /* \"#utility.yul\":2673:2696   */\n      sub\n        /* \"#utility.yul\":2669:2701   */\n      slt\n        /* \"#utility.yul\":2666:2785   */\n      iszero\n      tag_139\n      jumpi\n        /* \"#utility.yul\":2704:2783   */\n      tag_140\n      tag_67\n      jump\t// in\n    tag_140:\n        /* \"#utility.yul\":2666:2785   */\n    tag_139:\n        /* \"#utility.yul\":2852:2853   */\n      0x00\n        /* \"#utility.yul\":2841:2850   */\n      dup4\n        /* \"#utility.yul\":2837:2854   */\n      add\n        /* \"#utility.yul\":2824:2855   */\n      calldataload\n        /* \"#utility.yul\":2882:2900   */\n      0xffffffffffffffff\n        /* \"#utility.yul\":2874:2880   */\n      dup2\n        /* \"#utility.yul\":2871:2901   */\n      gt\n        /* \"#utility.yul\":2868:2985   */\n      iszero\n      tag_141\n      jumpi\n        /* \"#utility.yul\":2904:2983   */\n      tag_142\n      tag_68\n      jump\t// in\n    tag_142:\n        /* \"#utility.yul\":2868:2985   */\n    tag_141:\n        /* \"#utility.yul\":3009:3072   */\n      tag_143\n        /* \"#utility.yul\":3064:3071   */\n      dup6\n        /* \"#utility.yul\":3055:3061   */\n      dup3\n        /* \"#utility.yul\":3044:3053   */\n      dup7\n        /* \"#utility.yul\":3040:3062   */\n      add\n        /* \"#utility.yul\":3009:3072   */\n      tag_78\n      jump\t// in\n    tag_143:\n        /* \"#utility.yul\":2999:3072   */\n      swap3\n      pop\n        /* \"#utility.yul\":2795:3082   */\n      pop\n        /* \"#utility.yul\":3149:3151   */\n      0x20\n        /* \"#utility.yul\":3138:3147   */\n      dup4\n        /* \"#utility.yul\":3134:3152   */\n      add\n        /* \"#utility.yul\":3121:3153   */\n      calldataload\n        /* \"#utility.yul\":3180:3198   */\n      0xffffffffffffffff\n        /* \"#utility.yul\":3172:3178   */\n      dup2\n        /* \"#utility.yul\":3169:3199   */\n      gt\n        /* \"#utility.yul\":3166:3283   */\n      iszero\n      tag_144\n      jumpi\n        /* \"#utility.yul\":3202:3281   */\n      tag_145\n      tag_68\n      jump\t// in\n    tag_145:\n        /* \"#utility.yul\":3166:3283   */\n    tag_144:\n        /* \"#utility.yul\":3307:3370   */\n      tag_146\n        /* \"#utility.yul\":3362:3369   */\n      dup6\n        /* \"#utility.yul\":3353:3359   */\n      dup3\n        /* \"#utility.yul\":3342:3351   */\n      dup7\n        /* \"#utility.yul\":3338:3360   */\n      add\n        /* \"#utility.yul\":3307:3370   */\n      tag_78\n      jump\t// in\n    tag_146:\n        /* \"#utility.yul\":3297:3370   */\n      swap2\n      pop\n        /* \"#utility.yul\":3092:3380   */\n      pop\n        /* \"#utility.yul\":2553:3387   */\n      swap3\n      pop\n      swap3\n      swap1\n      pop\n      jump\t// out\n        /* \"#utility.yul\":3393:3519   */\n    tag_79:\n        /* \"#utility.yul\":3430:3437   */\n      0x00\n        /* \"#utility.yul\":3470:3512   */\n      0xffffffffffffffffffffffffffffffffffffffff\n        /* \"#utility.yul\":3463:3468   */\n      dup3\n        /* \"#utility.yul\":3459:3513   */\n      and\n        /* \"#utility.yul\":3448:3513   */\n      swap1\n      pop\n        /* \"#utility.yul\":3393:3519   */\n      swap2\n      swap1\n      pop\n      jump\t// out\n        /* \"#utility.yul\":3525:3621   */\n    tag_80:\n        /* \"#utility.yul\":3562:3569   */\n      0x00\n        /* \"#utility.yul\":3591:3615   */\n      tag_149\n        /* \"#utility.yul\":3609:3614   */\n      dup3\n        /* \"#utility.yul\":3591:3615   */\n      tag_79\n      jump\t// in\n    tag_149:\n        /* \"#utility.yul\":3580:3615   */\n      swap1\n      pop\n        /* \"#utility.yul\":3525:3621   */\n      swap2\n      swap1\n      pop\n      jump\t// out\n        /* \"#utility.yul\":3627:3749   */\n    tag_81:\n        /* \"#utility.yul\":3700:3724   */\n      tag_151\n        /* \"#utility.yul\":3718:3723   */\n      dup2\n        /* \"#utility.yul\":3700:3724   */\n      tag_80\n      jump\t// in\n    tag_151:\n        /* \"#utility.yul\":3693:3698   */\n      dup2\n        /* \"#utility.yul\":3690:3725   */\n      eq\n        /* \"#utility.yul\":3680:3743   */\n      tag_152\n      jumpi\n        /* \"#utility.yul\":3739:3740   */\n      0x00\n        /* \"#utility.yul\":3736:3737   */\n      dup1\n        /* \"#utility.yul\":3729:3741   */\n      revert\n        /* \"#utility.yul\":3680:3743   */\n    tag_152:\n        /* \"#utility.yul\":3627:3749   */\n      pop\n      jump\t// out\n        /* \"#utility.yul\":3755:3894   */\n    tag_82:\n        /* \"#utility.yul\":3801:3806   */\n      0x00\n        /* \"#utility.yul\":3839:3845   */\n      dup2\n        /* \"#utility.yul\":3826:3846   */\n      calldataload\n        /* \"#utility.yul\":3817:3846   */\n      swap1\n      pop\n        /* \"#utility.yul\":3855:3888   */\n      tag_154\n        /* \"#utility.yul\":3882:3887   */\n      dup2\n        /* \"#utility.yul\":3855:3888   */\n      tag_81\n      jump\t// in\n    tag_154:\n        /* \"#utility.yul\":3755:3894   */\n      swap3\n      swap2\n      pop\n      pop\n      jump\t// out\n        /* \"#utility.yul\":3900:4229   */\n    tag_13:\n        /* \"#utility.yul\":3959:3965   */\n      0x00\n        /* \"#utility.yul\":4008:4010   */\n      0x20\n        /* \"#utility.yul\":3996:4005   */\n      dup3\n        /* \"#utility.yul\":3987:3994   */\n      dup5\n        /* \"#utility.yul\":3983:4006   */\n      sub\n        /* \"#utility.yul\":3979:4011   */\n      slt\n        /* \"#utility.yul\":3976:4095   */\n      iszero\n      tag_156\n      jumpi\n        /* \"#utility.yul\":4014:4093   */\n      tag_157\n      tag_67\n      jump\t// in\n    tag_157:\n        /* \"#utility.yul\":3976:4095   */\n    tag_156:\n        /* \"#utility.yul\":4134:4135   */\n      0x00\n        /* \"#utility.yul\":4159:4212   */\n      tag_158\n        /* \"#utility.yul\":4204:4211   */\n      dup5\n        /* \"#utility.yul\":4195:4201   */\n      dup3\n        /* \"#utility.yul\":4184:4193   */\n      dup6\n        /* \"#utility.yul\":4180:4202   */\n      add\n        /* \"#utility.yul\":4159:4212   */\n      tag_82\n      jump\t// in\n    tag_158:\n        /* \"#utility.yul\":4149:4212   */\n      swap2\n      pop\n        /* \"#utility.yul\":4105:4222   */\n      pop\n        /* \"#utility.yul\":3900:4229   */\n      swap3\n      swap2\n      pop\n      pop\n      jump\t// out\n        /* \"#utility.yul\":4235:4334   */\n    tag_83:\n        /* \"#utility.yul\":4287:4293   */\n      0x00\n        /* \"#utility.yul\":4321:4326   */\n      dup2\n        /* \"#utility.yul\":4315:4327   */\n      mload\n        /* \"#utility.yul\":4305:4327   */\n      swap1\n      pop\n        /* \"#utility.yul\":4235:4334   */\n      swap2\n      swap1\n      pop\n      jump\t// out\n        /* \"#utility.yul\":4340:4509   */\n    tag_84:\n        /* \"#utility.yul\":4424:4435   */\n      0x00\n        /* \"#utility.yul\":4458:4464   */\n      dup3\n        /* \"#utility.yul\":4453:4456   */\n      dup3\n        /* \"#utility.yul\":4446:4465   */\n      mstore\n        /* \"#utility.yul\":4498:4502   */\n      0x20\n        /* \"#utility.yul\":4493:4496   */\n      dup3\n        /* \"#utility.yul\":4489:4503   */\n      add\n        /* \"#utility.yul\":4474:4503   */\n      swap1\n      pop\n        /* \"#utility.yul\":4340:4509   */\n      swap3\n      swap2\n      pop\n      pop\n      jump\t// out\n        /* \"#utility.yul\":4515:4761   */\n    tag_85:\n        /* \"#utility.yul\":4596:4597   */\n      0x00\n        /* \"#utility.yul\":4606:4719   */\n    tag_162:\n        /* \"#utility.yul\":4620:4626   */\n      dup4\n        /* \"#utility.yul\":4617:4618   */\n      dup2\n        /* \"#utility.yul\":4614:4627   */\n      lt\n        /* \"#utility.yul\":4606:4719   */\n      iszero\n      tag_164\n      jumpi\n        /* \"#utility.yul\":4705:4706   */\n      dup1\n        /* \"#utility.yul\":4700:4703   */\n      dup3\n        /* \"#utility.yul\":4696:4707   */\n      add\n        /* \"#utility.yul\":4690:4708   */\n      mload\n        /* \"#utility.yul\":4686:4687   */\n      dup2\n        /* \"#utility.yul\":4681:4684   */\n      dup5\n        /* \"#utility.yul\":4677:4688   */\n      add\n        /* \"#utility.yul\":4670:4709   */\n      mstore\n        /* \"#utility.yul\":4642:4644   */\n      0x20\n        /* \"#utility.yul\":4639:4640   */\n      dup2\n        /* \"#utility.yul\":4635:4645   */\n      add\n        /* \"#utility.yul\":4630:4645   */\n      swap1\n      pop\n        /* \"#utility.yul\":4606:4719   */\n      jump(tag_162)\n    tag_164:\n        /* \"#utility.yul\":4753:4754   */\n      0x00\n        /* \"#utility.yul\":4744:4750   */\n      dup5\n        /* \"#utility.yul\":4739:4742   */\n      dup5\n        /* \"#utility.yul\":4735:4751   */\n      add\n        /* \"#utility.yul\":4728:4755   */\n      mstore\n        /* \"#utility.yul\":4577:4761   */\n      pop\n        /* \"#utility.yul\":4515:4761   */\n      pop\n      pop\n      pop\n      jump\t// out\n        /* \"#utility.yul\":4767:5144   */\n    tag_86:\n        /* \"#utility.yul\":4855:4858   */\n      0x00\n        /* \"#utility.yul\":4883:4922   */\n      tag_166\n        /* \"#utility.yul\":4916:4921   */\n      dup3\n        /* \"#utility.yul\":4883:4922   */\n      tag_83\n      jump\t// in\n    tag_166:\n        /* \"#utility.yul\":4938:5009   */\n      tag_167\n        /* \"#utility.yul\":5002:5008   */\n      dup2\n        /* \"#utility.yul\":4997:5000   */\n      dup6\n        /* \"#utility.yul\":4938:5009   */\n      tag_84\n      jump\t// in\n    tag_167:\n        /* \"#utility.yul\":4931:5009   */\n      swap4\n      pop\n        /* \"#utility.yul\":5018:5083   */\n      tag_168\n        /* \"#utility.yul\":5076:5082   */\n      dup2\n        /* \"#utility.yul\":5071:5074   */\n      dup6\n        /* \"#utility.yul\":5064:5068   */\n      0x20\n        /* \"#utility.yul\":5057:5062   */\n      dup7\n        /* \"#utility.yul\":5053:5069   */\n      add\n        /* \"#utility.yul\":5018:5083   */\n      tag_85\n      jump\t// in\n    tag_168:\n        /* \"#utility.yul\":5108:5137   */\n      tag_169\n        /* \"#utility.yul\":5130:5136   */\n      dup2\n        /* \"#utility.yul\":5108:5137   */\n      tag_71\n      jump\t// in\n    tag_169:\n        /* \"#utility.yul\":5103:5106   */\n      dup5\n        /* \"#utility.yul\":5099:5138   */\n      add\n        /* \"#utility.yul\":5092:5138   */\n      swap2\n      pop\n        /* \"#utility.yul\":4859:5144   */\n      pop\n        /* \"#utility.yul\":4767:5144   */\n      swap3\n      swap2\n      pop\n      pop\n      jump\t// out\n        /* \"#utility.yul\":5150:5251   */\n    tag_87:\n        /* \"#utility.yul\":5186:5193   */\n      0x00\n        /* \"#utility.yul\":5226:5244   */\n      0xffffffffffffffff\n        /* \"#utility.yul\":5219:5224   */\n      dup3\n        /* \"#utility.yul\":5215:5245   */\n      and\n        /* \"#utility.yul\":5204:5245   */\n      swap1\n      pop\n        /* \"#utility.yul\":5150:5251   */\n      swap2\n      swap1\n      pop\n      jump\t// out\n        /* \"#utility.yul\":5257:5372   */\n    tag_88:\n        /* \"#utility.yul\":5342:5365   */\n      tag_172\n        /* \"#utility.yul\":5359:5364   */\n      dup2\n        /* \"#utility.yul\":5342:5365   */\n      tag_87\n      jump\t// in\n    tag_172:\n        /* \"#utility.yul\":5337:5340   */\n      dup3\n        /* \"#utility.yul\":5330:5366   */\n      mstore\n        /* \"#utility.yul\":5257:5372   */\n      pop\n      pop\n      jump\t// out\n        /* \"#utility.yul\":5378:6509   */\n    tag_16:\n        /* \"#utility.yul\":5687:5691   */\n      0x00\n        /* \"#utility.yul\":5725:5728   */\n      0xc0\n        /* \"#utility.yul\":5714:5723   */\n      dup3\n        /* \"#utility.yul\":5710:5729   */\n      add\n        /* \"#utility.yul\":5702:5729   */\n      swap1\n      pop\n        /* \"#utility.yul\":5775:5784   */\n      dup2\n        /* \"#utility.yul\":5769:5773   */\n      dup2\n        /* \"#utility.yul\":5765:5785   */\n      sub\n        /* \"#utility.yul\":5761:5762   */\n      0x00\n        /* \"#utility.yul\":5750:5759   */\n      dup4\n        /* \"#utility.yul\":5746:5763   */\n      add\n        /* \"#utility.yul\":5739:5786   */\n      mstore\n        /* \"#utility.yul\":5803:5881   */\n      tag_174\n        /* \"#utility.yul\":5876:5880   */\n      dup2\n        /* \"#utility.yul\":5867:5873   */\n      dup10\n        /* \"#utility.yul\":5803:5881   */\n      tag_86\n      jump\t// in\n    tag_174:\n        /* \"#utility.yul\":5795:5881   */\n      swap1\n      pop\n        /* \"#utility.yul\":5928:5937   */\n      dup2\n        /* \"#utility.yul\":5922:5926   */\n      dup2\n        /* \"#utility.yul\":5918:5938   */\n      sub\n        /* \"#utility.yul\":5913:5915   */\n      0x20\n        /* \"#utility.yul\":5902:5911   */\n      dup4\n        /* \"#utility.yul\":5898:5916   */\n      add\n        /* \"#utility.yul\":5891:5939   */\n      mstore\n        /* \"#utility.yul\":5956:6034   */\n      tag_175\n        /* \"#utility.yul\":6029:6033   */\n      dup2\n        /* \"#utility.yul\":6020:6026   */\n      dup9\n        /* \"#utility.yul\":5956:6034   */\n      tag_86\n      jump\t// in\n    tag_175:\n        /* \"#utility.yul\":5948:6034   */\n      swap1\n      pop\n        /* \"#utility.yul\":6044:6114   */\n      tag_176\n        /* \"#utility.yul\":6110:6112   */\n      0x40\n        /* \"#utility.yul\":6099:6108   */\n      dup4\n        /* \"#utility.yul\":6095:6113   */\n      add\n        /* \"#utility.yul\":6086:6092   */\n      dup8\n        /* \"#utility.yul\":6044:6114   */\n      tag_88\n      jump\t// in\n    tag_176:\n        /* \"#utility.yul\":6124:6194   */\n      tag_177\n        /* \"#utility.yul\":6190:6192   */\n      0x60\n        /* \"#utility.yul\":6179:6188   */\n      dup4\n        /* \"#utility.yul\":6175:6193   */\n      add\n        /* \"#utility.yul\":6166:6172   */\n      dup7\n        /* \"#utility.yul\":6124:6194   */\n      tag_88\n      jump\t// in\n    tag_177:\n        /* \"#utility.yul\":6242:6251   */\n      dup2\n        /* \"#utility.yul\":6236:6240   */\n      dup2\n        /* \"#utility.yul\":6232:6252   */\n      sub\n        /* \"#utility.yul\":6226:6229   */\n      0x80\n        /* \"#utility.yul\":6215:6224   */\n      dup4\n        /* \"#utility.yul\":6211:6230   */\n      add\n        /* \"#utility.yul\":6204:6253   */\n      mstore\n        /* \"#utility.yul\":6270:6348   */\n      tag_178\n        /* \"#utility.yul\":6343:6347   */\n      dup2\n        /* \"#utility.yul\":6334:6340   */\n      dup6\n        /* \"#utility.yul\":6270:6348   */\n      tag_86\n      jump\t// in\n    tag_178:\n        /* \"#utility.yul\":6262:6348   */\n      swap1\n      pop\n        /* \"#utility.yul\":6396:6405   */\n      dup2\n        /* \"#utility.yul\":6390:6394   */\n      dup2\n        /* \"#utility.yul\":6386:6406   */\n      sub\n        /* \"#utility.yul\":6380:6383   */\n      0xa0\n        /* \"#utility.yul\":6369:6378   */\n      dup4\n        /* \"#utility.yul\":6365:6384   */\n      add\n        /* \"#utility.yul\":6358:6407   */\n      mstore\n        /* \"#utility.yul\":6424:6502   */\n      tag_179\n        /* \"#utility.yul\":6497:6501   */\n      dup2\n        /* \"#utility.yul\":6488:6494   */\n      dup5\n        /* \"#utility.yul\":6424:6502   */\n      tag_86\n      jump\t// in\n    tag_179:\n        /* \"#utility.yul\":6416:6502   */\n      swap1\n      pop\n        /* \"#utility.yul\":5378:6509   */\n      swap8\n      swap7\n      pop\n      pop\n      pop\n      pop\n      pop\n      pop\n      pop\n      jump\t// out\n        /* \"#utility.yul\":6515:7135   */\n    tag_20:\n        /* \"#utility.yul\":6702:6706   */\n      0x00\n        /* \"#utility.yul\":6740:6742   */\n      0x60\n        /* \"#utility.yul\":6729:6738   */\n      dup3\n        /* \"#utility.yul\":6725:6743   */\n      add\n        /* \"#utility.yul\":6717:6743   */\n      swap1\n      pop\n        /* \"#utility.yul\":6789:6798   */\n      dup2\n        /* \"#utility.yul\":6783:6787   */\n      dup2\n        /* \"#utility.yul\":6779:6799   */\n      sub\n        /* \"#utility.yul\":6775:6776   */\n      0x00\n        /* \"#utility.yul\":6764:6773   */\n      dup4\n        /* \"#utility.yul\":6760:6777   */\n      add\n        /* \"#utility.yul\":6753:6800   */\n      mstore\n        /* \"#utility.yul\":6817:6895   */\n      tag_181\n        /* \"#utility.yul\":6890:6894   */\n      dup2\n        /* \"#utility.yul\":6881:6887   */\n      dup7\n        /* \"#utility.yul\":6817:6895   */\n      tag_86\n      jump\t// in\n    tag_181:\n        /* \"#utility.yul\":6809:6895   */\n      swap1\n      pop\n        /* \"#utility.yul\":6905:6975   */\n      tag_182\n        /* \"#utility.yul\":6971:6973   */\n      0x20\n        /* \"#utility.yul\":6960:6969   */\n      dup4\n        /* \"#utility.yul\":6956:6974   */\n      add\n        /* \"#utility.yul\":6947:6953   */\n      dup6\n        /* \"#utility.yul\":6905:6975   */\n      tag_88\n      jump\t// in\n    tag_182:\n        /* \"#utility.yul\":7022:7031   */\n      dup2\n        /* \"#utility.yul\":7016:7020   */\n      dup2\n        /* \"#utility.yul\":7012:7032   */\n      sub\n        /* \"#utility.yul\":7007:7009   */\n      0x40\n        /* \"#utility.yul\":6996:7005   */\n      dup4\n        /* \"#utility.yul\":6992:7010   */\n      add\n        /* \"#utility.yul\":6985:7033   */\n      mstore\n        /* \"#utility.yul\":7050:7128   */\n      tag_183\n        /* \"#utility.yul\":7123:7127   */\n      dup2\n        /* \"#utility.yul\":7114:7120   */\n      dup5\n        /* \"#utility.yul\":7050:7128   */\n      tag_86\n      jump\t// in\n    tag_183:\n        /* \"#utility.yul\":7042:7128   */\n      swap1\n      pop\n        /* \"#utility.yul\":6515:7135   */\n      swap5\n      swap4\n      pop\n      pop\n      pop\n      pop\n      jump\t// out\n        /* \"#utility.yul\":7141:7261   */\n    tag_89:\n        /* \"#utility.yul\":7213:7236   */\n      tag_185\n        /* \"#utility.yul\":7230:7235   */\n      dup2\n        /* \"#utility.yul\":7213:7236   */\n      tag_87\n      jump\t// in\n    tag_185:\n        /* \"#utility.yul\":7206:7211   */\n      dup2\n        /* \"#utility.yul\":7203:7237   */\n      eq\n        /* \"#utility.yul\":7193:7255   */\n      tag_186\n      jumpi\n        /* \"#utility.yul\":7251:7252   */\n      0x00\n        /* \"#utility.yul\":7248:7249   */\n      dup1\n        /* \"#utility.yul\":7241:7253   */\n      revert\n        /* \"#utility.yul\":7193:7255   */\n    tag_186:\n        /* \"#utility.yul\":7141:7261   */\n      pop\n      jump\t// out\n        /* \"#utility.yul\":7267:7404   */\n    tag_90:\n        /* \"#utility.yul\":7312:7317   */\n      0x00\n        /* \"#utility.yul\":7350:7356   */\n      dup2\n        /* \"#utility.yul\":7337:7357   */\n      calldataload\n        /* \"#utility.yul\":7328:7357   */\n      swap1\n      pop\n        /* \"#utility.yul\":7366:7398   */\n      tag_188\n        /* \"#utility.yul\":7392:7397   */\n      dup2\n        /* \"#utility.yul\":7366:7398   */\n      tag_89\n      jump\t// in\n    tag_188:\n        /* \"#utility.yul\":7267:7404   */\n      swap3\n      swap2\n      pop\n      pop\n      jump\t// out\n        /* \"#utility.yul\":7410:9183   */\n    tag_23:\n        /* \"#utility.yul\":7552:7558   */\n      0x00\n        /* \"#utility.yul\":7560:7566   */\n      dup1\n        /* \"#utility.yul\":7568:7574   */\n      0x00\n        /* \"#utility.yul\":7576:7582   */\n      dup1\n        /* \"#utility.yul\":7584:7590   */\n      0x00\n        /* \"#utility.yul\":7592:7598   */\n      dup1\n        /* \"#utility.yul\":7641:7644   */\n      0xc0\n        /* \"#utility.yul\":7629:7638   */\n      dup8\n        /* \"#utility.yul\":7620:7627   */\n      dup10\n        /* \"#utility.yul\":7616:7639   */\n      sub\n        /* \"#utility.yul\":7612:7645   */\n      slt\n        /* \"#utility.yul\":7609:7729   */\n      iszero\n      tag_190\n      jumpi\n        /* \"#utility.yul\":7648:7727   */\n      tag_191\n      tag_67\n      jump\t// in\n    tag_191:\n        /* \"#utility.yul\":7609:7729   */\n    tag_190:\n        /* \"#utility.yul\":7796:7797   */\n      0x00\n        /* \"#utility.yul\":7785:7794   */\n      dup8\n        /* \"#utility.yul\":7781:7798   */\n      add\n        /* \"#utility.yul\":7768:7799   */\n      calldataload\n        /* \"#utility.yul\":7826:7844   */\n      0xffffffffffffffff\n        /* \"#utility.yul\":7818:7824   */\n      dup2\n        /* \"#utility.yul\":7815:7845   */\n      gt\n        /* \"#utility.yul\":7812:7929   */\n      iszero\n      tag_192\n      jumpi\n        /* \"#utility.yul\":7848:7927   */\n      tag_193\n      tag_68\n      jump\t// in\n    tag_193:\n        /* \"#utility.yul\":7812:7929   */\n    tag_192:\n        /* \"#utility.yul\":7953:8016   */\n      tag_194\n        /* \"#utility.yul\":8008:8015   */\n      dup10\n        /* \"#utility.yul\":7999:8005   */\n      dup3\n        /* \"#utility.yul\":7988:7997   */\n      dup11\n        /* \"#utility.yul\":7984:8006   */\n      add\n        /* \"#utility.yul\":7953:8016   */\n      tag_78\n      jump\t// in\n    tag_194:\n        /* \"#utility.yul\":7943:8016   */\n      swap7\n      pop\n        /* \"#utility.yul\":7739:8026   */\n      pop\n        /* \"#utility.yul\":8093:8095   */\n      0x20\n        /* \"#utility.yul\":8082:8091   */\n      dup8\n        /* \"#utility.yul\":8078:8096   */\n      add\n        /* \"#utility.yul\":8065:8097   */\n      calldataload\n        /* \"#utility.yul\":8124:8142   */\n      0xffffffffffffffff\n        /* \"#utility.yul\":8116:8122   */\n      dup2\n        /* \"#utility.yul\":8113:8143   */\n      gt\n        /* \"#utility.yul\":8110:8227   */\n      iszero\n      tag_195\n      jumpi\n        /* \"#utility.yul\":8146:8225   */\n      tag_196\n      tag_68\n      jump\t// in\n    tag_196:\n        /* \"#utility.yul\":8110:8227   */\n    tag_195:\n        /* \"#utility.yul\":8251:8314   */\n      tag_197\n        /* \"#utility.yul\":8306:8313   */\n      dup10\n        /* \"#utility.yul\":8297:8303   */\n      dup3\n        /* \"#utility.yul\":8286:8295   */\n      dup11\n        /* \"#utility.yul\":8282:8304   */\n      add\n        /* \"#utility.yul\":8251:8314   */\n      tag_78\n      jump\t// in\n    tag_197:\n        /* \"#utility.yul\":8241:8314   */\n      swap6\n      pop\n        /* \"#utility.yul\":8036:8324   */\n      pop\n        /* \"#utility.yul\":8363:8365   */\n      0x40\n        /* \"#utility.yul\":8389:8441   */\n      tag_198\n        /* \"#utility.yul\":8433:8440   */\n      dup10\n        /* \"#utility.yul\":8424:8430   */\n      dup3\n        /* \"#utility.yul\":8413:8422   */\n      dup11\n        /* \"#utility.yul\":8409:8431   */\n      add\n        /* \"#utility.yul\":8389:8441   */\n      tag_90\n      jump\t// in\n    tag_198:\n        /* \"#utility.yul\":8379:8441   */\n      swap5\n      pop\n        /* \"#utility.yul\":8334:8451   */\n      pop\n        /* \"#utility.yul\":8490:8492   */\n      0x60\n        /* \"#utility.yul\":8516:8568   */\n      tag_199\n        /* \"#utility.yul\":8560:8567   */\n      dup10\n        /* \"#utility.yul\":8551:8557   */\n      dup3\n        /* \"#utility.yul\":8540:8549   */\n      dup11\n        /* \"#utility.yul\":8536:8558   */\n      add\n        /* \"#utility.yul\":8516:8568   */\n      tag_90\n      jump\t// in\n    tag_199:\n        /* \"#utility.yul\":8506:8568   */\n      swap4\n      pop\n        /* \"#utility.yul\":8461:8578   */\n      pop\n        /* \"#utility.yul\":8645:8648   */\n      0x80\n        /* \"#utility.yul\":8634:8643   */\n      dup8\n        /* \"#utility.yul\":8630:8649   */\n      add\n        /* \"#utility.yul\":8617:8650   */\n      calldataload\n        /* \"#utility.yul\":8677:8695   */\n      0xffffffffffffffff\n        /* \"#utility.yul\":8669:8675   */\n      dup2\n        /* \"#utility.yul\":8666:8696   */\n      gt\n        /* \"#utility.yul\":8663:8780   */\n      iszero\n      tag_200\n      jumpi\n        /* \"#utility.yul\":8699:8778   */\n      tag_201\n      tag_68\n      jump\t// in\n    tag_201:\n        /* \"#utility.yul\":8663:8780   */\n    tag_200:\n        /* \"#utility.yul\":8804:8867   */\n      tag_202\n        /* \"#utility.yul\":8859:8866   */\n      dup10\n        /* \"#utility.yul\":8850:8856   */\n      dup3\n        /* \"#utility.yul\":8839:8848   */\n      dup11\n        /* \"#utility.yul\":8835:8857   */\n      add\n        /* \"#utility.yul\":8804:8867   */\n      tag_78\n      jump\t// in\n    tag_202:\n        /* \"#utility.yul\":8794:8867   */\n      swap3\n      pop\n        /* \"#utility.yul\":8588:8877   */\n      pop\n        /* \"#utility.yul\":8944:8947   */\n      0xa0\n        /* \"#utility.yul\":8933:8942   */\n      dup8\n        /* \"#utility.yul\":8929:8948   */\n      add\n        /* \"#utility.yul\":8916:8949   */\n      calldataload\n        /* \"#utility.yul\":8976:8994   */\n      0xffffffffffffffff\n        /* \"#utility.yul\":8968:8974   */\n      dup2\n        /* \"#utility.yul\":8965:8995   */\n      gt\n        /* \"#utility.yul\":8962:9079   */\n      iszero\n      tag_203\n      jumpi\n        /* \"#utility.yul\":8998:9077   */\n      tag_204\n      tag_68\n      jump\t// in\n    tag_204:\n        /* \"#utility.yul\":8962:9079   */\n    tag_203:\n        /* \"#utility.yul\":9103:9166   */\n      tag_205\n        /* \"#utility.yul\":9158:9165   */\n      dup10\n        /* \"#utility.yul\":9149:9155   */\n      dup3\n        /* \"#utility.yul\":9138:9147   */\n      dup11\n        /* \"#utility.yul\":9134:9156   */\n      add\n        /* \"#utility.yul\":9103:9166   */\n      tag_78\n      jump\t// in\n    tag_205:\n        /* \"#utility.yul\":9093:9166   */\n      swap2\n      pop\n        /* \"#utility.yul\":8887:9176   */\n      pop\n        /* \"#utility.yul\":7410:9183   */\n      swap3\n      swap6\n      pop\n      swap3\n      swap6\n      pop\n      swap3\n      swap6\n      jump\t// out\n        /* \"#utility.yul\":9189:9369   */\n    tag_91:\n        /* \"#utility.yul\":9237:9314   */\n      0x4e487b7100000000000000000000000000000000000000000000000000000000\n        /* \"#utility.yul\":9234:9235   */\n      0x00\n        /* \"#utility.yul\":9227:9315   */\n      mstore\n        /* \"#utility.yul\":9334:9338   */\n      0x22\n        /* \"#utility.yul\":9331:9332   */\n      0x04\n        /* \"#utility.yul\":9324:9339   */\n      mstore\n        /* \"#utility.yul\":9358:9362   */\n      0x24\n        /* \"#utility.yul\":9355:9356   */\n      0x00\n        /* \"#utility.yul\":9348:9363   */\n      revert\n        /* \"#utility.yul\":9375:9695   */\n    tag_30:\n        /* \"#utility.yul\":9419:9425   */\n      0x00\n        /* \"#utility.yul\":9456:9457   */\n      0x02\n        /* \"#utility.yul\":9450:9454   */\n      dup3\n        /* \"#utility.yul\":9446:9458   */\n      div\n        /* \"#utility.yul\":9436:9458   */\n      swap1\n      pop\n        /* \"#utility.yul\":9503:9504   */\n      0x01\n        /* \"#utility.yul\":9497:9501   */\n      dup3\n        /* \"#utility.yul\":9493:9505   */\n      and\n        /* \"#utility.yul\":9524:9542   */\n      dup1\n        /* \"#utility.yul\":9514:9595   */\n      tag_208\n      jumpi\n        /* \"#utility.yul\":9580:9584   */\n      0x7f\n        /* \"#utility.yul\":9572:9578   */\n      dup3\n        /* \"#utility.yul\":9568:9585   */\n      and\n        /* \"#utility.yul\":9558:9585   */\n      swap2\n      pop\n        /* \"#utility.yul\":9514:9595   */\n    tag_208:\n        /* \"#utility.yul\":9642:9644   */\n      0x20\n        /* \"#utility.yul\":9634:9640   */\n      dup3\n        /* \"#utility.yul\":9631:9645   */\n      lt\n        /* \"#utility.yul\":9611:9629   */\n      dup2\n        /* \"#utility.yul\":9608:9646   */\n      sub\n        /* \"#utility.yul\":9605:9689   */\n      tag_209\n      jumpi\n        /* \"#utility.yul\":9661:9679   */\n      tag_210\n      tag_91\n      jump\t// in\n    tag_210:\n        /* \"#utility.yul\":9605:9689   */\n    tag_209:\n        /* \"#utility.yul\":9426:9695   */\n      pop\n        /* \"#utility.yul\":9375:9695   */\n      swap2\n      swap1\n      pop\n      jump\t// out\n        /* \"#utility.yul\":9701:9842   */\n    tag_92:\n        /* \"#utility.yul\":9750:9754   */\n      0x00\n        /* \"#utility.yul\":9773:9776   */\n      dup2\n        /* \"#utility.yul\":9765:9776   */\n      swap1\n      pop\n        /* \"#utility.yul\":9796:9799   */\n      dup2\n        /* \"#utility.yul\":9793:9794   */\n      0x00\n        /* \"#utility.yul\":9786:9800   */\n      mstore\n        /* \"#utility.yul\":9830:9834   */\n      0x20\n        /* \"#utility.yul\":9827:9828   */\n      0x00\n        /* \"#utility.yul\":9817:9835   */\n      keccak256\n        /* \"#utility.yul\":9809:9835   */\n      swap1\n      pop\n        /* \"#utility.yul\":9701:9842   */\n      swap2\n      swap1\n      pop\n      jump\t// out\n        /* \"#utility.yul\":9848:9941   */\n    tag_93:\n        /* \"#utility.yul\":9885:9891   */\n      0x00\n        /* \"#utility.yul\":9932:9934   */\n      0x20\n        /* \"#utility.yul\":9927:9929   */\n      0x1f\n        /* \"#utility.yul\":9920:9925   */\n      dup4\n        /* \"#utility.yul\":9916:9930   */\n      add\n        /* \"#utility.yul\":9912:9935   */\n      div\n        /* \"#utility.yul\":9902:9935   */\n      swap1\n      pop\n        /* \"#utility.yul\":9848:9941   */\n      swap2\n      swap1\n      pop\n      jump\t// out\n        /* \"#utility.yul\":9947:10054   */\n    tag_94:\n        /* \"#utility.yul\":9991:9999   */\n      0x00\n        /* \"#utility.yul\":10041:10046   */\n      dup3\n        /* \"#utility.yul\":10035:10039   */\n      dup3\n        /* \"#utility.yul\":10031:10047   */\n      shl\n        /* \"#utility.yul\":10010:10047   */\n      swap1\n      pop\n        /* \"#utility.yul\":9947:10054   */\n      swap3\n      swap2\n      pop\n      pop\n      jump\t// out\n        /* \"#utility.yul\":10060:10453   */\n    tag_95:\n        /* \"#utility.yul\":10129:10135   */\n      0x00\n        /* \"#utility.yul\":10179:10180   */\n      0x08\n        /* \"#utility.yul\":10167:10177   */\n      dup4\n        /* \"#utility.yul\":10163:10181   */\n      mul\n        /* \"#utility.yul\":10202:10299   */\n      tag_215\n        /* \"#utility.yul\":10232:10298   */\n      0xffffffffffffffffffffffffffffffffffffffffffffffffffffffffffffffff\n        /* \"#utility.yul\":10221:10230   */\n      dup3\n        /* \"#utility.yul\":10202:10299   */\n      tag_94\n      jump\t// in\n    tag_215:\n        /* \"#utility.yul\":10320:10359   */\n      tag_216\n        /* \"#utility.yul\":10350:10358   */\n      dup7\n        /* \"#utility.yul\":10339:10348   */\n      dup4\n        /* \"#utility.yul\":10320:10359   */\n      tag_94\n      jump\t// in\n    tag_216:\n        /* \"#utility.yul\":10308:10359   */\n      swap6\n      pop\n        /* \"#utility.yul\":10392:10396   */\n      dup1\n        /* \"#utility.yul\":10388:10397   */\n      not\n        /* \"#utility.yul\":10381:10386   */\n      dup5\n        /* \"#utility.yul\":10377:10398   */\n      and\n        /* \"#utility.yul\":10368:10398   */\n      swap4\n      pop\n        /* \"#utility.yul\":10441:10445   */\n      dup1\n        /* \"#utility.yul\":10431:10439   */\n      dup7\n        /* \"#utility.yul\":10427:10446   */\n      and\n        /* \"#utility.yul\":10420:10425   */\n      dup5\n        /* \"#utility.yul\":10417:10447   */\n      or\n        /* \"#utility.yul\":10407:10447   */\n      swap3\n      pop\n        /* \"#utility.yul\":10136:10453   */\n      pop\n      pop\n        /* \"#utility.yul\":10060:10453   */\n      swap4\n      swap3\n      pop\n      pop\n      pop\n      jump\t// out\n        /* \"#utility.yul\":10459:10536   */\n    tag_96:\n        /* \"#utility.yul\":10496:10503   */\n      0x00\n        /* \"#utility.yul\":10525:10530   */\n      dup2\n        /* \"#utility.yul\":10514:10530   */\n      swap1\n      pop\n        /* \"#utility.yul\":10459:10536   */\n      swap2\n      swap1\n      pop\n      jump\t// out\n        /* \"#utility.yul\":10542:10602   */\n    tag_97:\n        /* \"#utility.yul\":10570:10573   */\n      0x00\n        /* \"#utility.yul\":10591:10596   */\n      dup2\n        /* \"#utility.yul\":10584:10596   */\n      swap1\n      pop\n        /* \"#utility.yul\":10542:10602   */\n      swap2\n      swap1\n      pop\n      jump\t// out\n        /* \"#utility.yul\":10608:10750   */\n    tag_98:\n        /* \"#utility.yul\":10658:10667   */\n      0x00\n        /* \"#utility.yul\":10691:10744   */\n      tag_220\n        /* \"#utility.yul\":10709:10743   */\n      tag_221\n        /* \"#utility.yul\":10718:10742   */\n      tag_222\n        /* \"#utility.yul\":10736:10741   */\n      dup5\n        /* \"#utility.yul\":10718:10742   */\n      tag_96\n      jump\t// in\n    tag_222:\n        /* \"#utility.yul\":10709:10743   */\n      tag_97\n      jump\t// in\n    tag_221:\n        /* \"#utility.yul\":10691:10744   */\n      tag_96\n      jump\t// in\n    tag_220:\n        /* \"#utility.yul\":10678:10744   */\n      swap1\n      pop\n        /* \"#utility.yul\":10608:10750   */\n      swap2\n      swap1\n      pop\n      jump\t// out\n        /* \"#utility.yul\":10756:10831   */\n    tag_99:\n        /* \"#utility.yul\":10799:10802   */\n      0x00\n        /* \"#utility.yul\":10820:10825   */\n      dup2\n        /* \"#utility.yul\":10813:10825   */\n      swap1\n      pop\n        /* \"#utility.yul\":10756:10831   */\n      swap2\n      swap1\n      pop\n      jump\t// out\n        /* \"#utility.yul\":10837:11106   */\n    tag_100:\n        /* \"#utility.yul\":10947:10986   */\n      tag_225\n        /* \"#utility.yul\":10978:10985   */\n      dup4\n        /* \"#utility.yul\":10947:10986   */\n      tag_98\n      jump\t// in\n    tag_225:\n        /* \"#utility.yul\":11008:11099   */\n      tag_226\n        /* \"#utility.yul\":11057:11098   */\n      tag_227\n        /* \"#utility.yul\":11081:11097   */\n      dup3\n        /* \"#utility.yul\":11057:11098   */\n      tag_99\n      jump\t// in\n    tag_227:\n        /* \"#utility.yul\":11049:11055   */\n      dup5\n        /* \"#utility.yul\":11042:11046   */\n      dup5\n        /* \"#utility.yul\":11036:11047   */\n      sload\n        /* \"#utility.yul\":11008:11099   */\n      tag_95\n      jump\t// in\n    tag_226:\n        /* \"#utility.yul\":11002:11006   */\n      dup3\n        /* \"#utility.yul\":10995:11100   */\n      sstore\n        /* \"#utility.yul\":10913:11106   */\n      pop\n        /* \"#utility.yul\":10837:11106   */\n      pop\n      pop\n      pop\n      jump\t// out\n        /* \"#utility.yul\":11112:11185   */\n    tag_101:\n        /* \"#utility.yul\":11157:11160   */\n      0x00\n        /* \"#utility.yul\":11112:11185   */\n      swap1\n      jump\t// out\n        /* \"#utility.yul\":11191:11380   */\n    tag_102:\n        /* \"#utility.yul\":11268:11300   */\n      tag_230\n      tag_101\n      jump\t// in\n    tag_230:\n        /* \"#utility.yul\":11309:11374   */\n      tag_231\n        /* \"#utility.yul\":11367:11373   */\n      dup2\n        /* \"#utility.yul\":11359:11365   */\n      dup5\n        /* \"#utility.yul\":11353:11357   */\n      dup5\n        /* \"#utility.yul\":11309:11374   */\n      tag_100\n      jump\t// in\n    tag_231:\n        /* \"#utility.yul\":11244:11380   */\n      pop\n        /* \"#utility.yul\":11191:11380   */\n      pop\n      pop\n      jump\t// out\n        /* \"#utility.yul\":11386:11572   */\n    tag_103:\n        /* \"#utility.yul\":11446:11566   */\n    tag_233:\n        /* \"#utility.yul\":11463:11466   */\n      dup2\n        /* \"#utility.yul\":11456:11461   */\n      dup2\n        /* \"#utility.yul\":11453:11467   */\n      lt\n        /* \"#utility.yul\":11446:11566   */\n      iszero\n      tag_235\n      jumpi\n        /* \"#utility.yul\":11517:11556   */\n      tag_236\n        /* \"#utility.yul\":11554:11555   */\n      0x00\n        /* \"#utility.yul\":11547:11552   */\n      dup3\n        /* \"#utility.yul\":11517:11556   */\n      tag_102\n      jump\t// in\n    tag_236:\n        /* \"#utility.yul\":11490:11491   */\n      0x01\n        /* \"#utility.yul\":11483:11488   */\n      dup2\n        /* \"#utility.yul\":11479:11492   */\n      add\n        /* \"#utility.yul\":11470:11492   */\n      swap1\n      pop\n        /* \"#utility.yul\":11446:11566   */\n      jump(tag_233)\n    tag_235:\n        /* \"#utility.yul\":11386:11572   */\n      pop\n      pop\n      jump\t// out\n        /* \"#utility.yul\":11578:12121   */\n    tag_104:\n        /* \"#utility.yul\":11679:11681   */\n      0x1f\n        /* \"#utility.yul\":11674:11677   */\n      dup3\n        /* \"#utility.yul\":11671:11682   */\n      gt\n        /* \"#utility.yul\":11668:12114   */\n      iszero\n      tag_238\n      jumpi\n        /* \"#utility.yul\":11713:11751   */\n      tag_239\n        /* \"#utility.yul\":11745:11750   */\n      dup2\n        /* \"#utility.yul\":11713:11751   */\n      tag_92\n      jump\t// in\n    tag_239:\n        /* \"#utility.yul\":11797:11826   */\n      tag_240\n        /* \"#utility.yul\":11815:11825   */\n      dup5\n        /* \"#utility.yul\":11797:11826   */\n      tag_93\n      jump\t// in\n    tag_240:\n        /* \"#utility.yul\":11787:11795   */\n      dup2\n        /* \"#utility.yul\":11783:11827   */\n      add\n        /* \"#utility.yul\":11980:11982   */\n      0x20\n        /* \"#utility.yul\":11968:11978   */\n      dup6\n        /* \"#utility.yul\":11965:11983   */\n      lt\n        /* \"#utility.yul\":11962:12011   */\n      iszero\n      tag_241\n      jumpi\n        /* \"#utility.yul\":12001:12009   */\n      dup2\n        /* \"#utility.yul\":11986:12009   */\n      swap1\n      pop\n        /* \"#utility.yul\":11962:12011   */\n    tag_241:\n        /* \"#utility.yul\":12024:12104   */\n      tag_242\n        /* \"#utility.yul\":12080:12102   */\n      tag_243\n        /* \"#utility.yul\":12098:12101   */\n      dup6\n        /* \"#utility.yul\":12080:12102   */\n      tag_93\n      jump\t// in\n    tag_243:\n        /* \"#utility.yul\":12070:12078   */\n      dup4\n        /* \"#utility.yul\":12066:12103   */\n      add\n        /* \"#utility.yul\":12053:12064   */\n      dup3\n        /* \"#utility.yul\":12024:12104   */\n      tag_103\n      jump\t// in\n    tag_242:\n        /* \"#utility.yul\":11683:12114   */\n      pop\n      pop\n        /* \"#utility.yul\":11668:12114   */\n    tag_238:\n        /* \"#utility.yul\":11578:12121   */\n      pop\n      pop\n      pop\n      jump\t// out\n        /* \"#utility.yul\":12127:12244   */\n    tag_105:\n        /* \"#utility.yul\":12181:12189   */\n      0x00\n        /* \"#utility.yul\":12231:12236   */\n      dup3\n        /* \"#utility.yul\":12225:12229   */\n      dup3\n        /* \"#utility.yul\":12221:12237   */\n      shr\n        /* \"#utility.yul\":12200:12237   */\n      swap1\n      pop\n        /* \"#utility.yul\":12127:12244   */\n      swap3\n      swap2\n      pop\n      pop\n      jump\t// out\n        /* \"#utility.yul\":12250:12419   */\n    tag_106:\n        /* \"#utility.yul\":12294:12300   */\n      0x00\n        /* \"#utility.yul\":12327:12378   */\n      tag_246\n        /* \"#utility.yul\":12375:12376   */\n      0x00\n        /* \"#utility.yul\":12371:12377   */\n      not\n        /* \"#utility.yul\":12363:12368   */\n      dup5\n        /* \"#utility.yul\":12360:12361   */\n      0x08\n        /* \"#utility.yul\":12356:12369   */\n      mul\n        /* \"#utility.yul\":12327:12378   */\n      tag_105\n      jump\t// in\n    tag_246:\n        /* \"#utility.yul\":12323:12379   */\n      not\n        /* \"#utility.yul\":12408:12412   */\n      dup1\n        /* \"#utility.yul\":12402:12406   */\n      dup4\n        /* \"#utility.yul\":12398:12413   */\n      and\n        /* \"#utility.yul\":12388:12413   */\n      swap2\n      pop\n        /* \"#utility.yul\":12301:12419   */\n      pop\n        /* \"#utility.yul\":12250:12419   */\n      swap3\n      swap2\n      pop\n      pop\n      jump\t// out\n        /* \"#utility.yul\":12424:12719   */\n    tag_107:\n        /* \"#utility.yul\":12500:12504   */\n      0x00\n        /* \"#utility.yul\":12646:12675   */\n      tag_248\n        /* \"#utility.yul\":12671:12674   */\n      dup4\n        /* \"#utility.yul\":12665:12669   */\n      dup4\n        /* \"#utility.yul\":12646:12675   */\n      tag_106\n      jump\t// in\n    tag_248:\n        /* \"#utility.yul\":12638:12675   */\n      swap2\n      pop\n        /* \"#utility.yul\":12708:12711   */\n      dup3\n        /* \"#utility.yul\":12705:12706   */\n      0x02\n        /* \"#utility.yul\":12701:12712   */\n      mul\n        /* \"#utility.yul\":12695:12699   */\n      dup3\n        /* \"#utility.yul\":12692:12713   */\n      or\n        /* \"#utility.yul\":12684:12713   */\n      swap1\n      pop\n        /* \"#utility.yul\":12424:12719   */\n      swap3\n      swap2\n      pop\n      pop\n      jump\t// out\n        /* \"#utility.yul\":12724:14119   */\n    tag_27:\n        /* \"#utility.yul\":12841:12878   */\n      tag_250\n        /* \"#utility.yul\":12874:12877   */\n      dup3\n        /* \"#utility.yul\":12841:12878   */\n      tag_83\n      jump\t// in\n    tag_250:\n        /* \"#utility.yul\":12943:12961   */\n      0xffffffffffffffff\n        /* \"#utility.yul\":12935:12941   */\n      dup2\n        /* \"#utility.yul\":12932:12962   */\n      gt\n        /* \"#utility.yul\":12929:12985   */\n      iszero\n      tag_251\n      jumpi\n        /* \"#utility.yul\":12965:12983   */\n      tag_252\n      tag_72\n      jump\t// in\n    tag_252:\n        /* \"#utility.yul\":12929:12985   */\n    tag_251:\n        /* \"#utility.yul\":13009:13047   */\n      tag_253\n        /* \"#utility.yul\":13041:13045   */\n      dup3\n        /* \"#utility.yul\":13035:13046   */\n      sload\n        /* \"#utility.yul\":13009:13047   */\n      tag_30\n      jump\t// in\n    tag_253:\n        /* \"#utility.yul\":13094:13161   */\n      tag_254\n        /* \"#utility.yul\":13154:13160   */\n      dup3\n        /* \"#utility.yul\":13146:13152   */\n      dup3\n        /* \"#utility.yul\":13140:13144   */\n      dup6\n        /* \"#utility.yul\":13094:13161   */\n      tag_104\n      jump\t// in\n    tag_254:\n        /* \"#utility.yul\":13188:13189   */\n      0x00\n        /* \"#utility.yul\":13212:13216   */\n      0x20\n        /* \"#utility.yul\":13199:13216   */\n      swap1\n      pop\n        /* \"#utility.yul\":13244:13246   */\n      0x1f\n        /* \"#utility.yul\":13236:13242   */\n      dup4\n        /* \"#utility.yul\":13233:13247   */\n      gt\n        /* \"#utility.yul\":13261:13262   */\n      0x01\n        /* \"#utility.yul\":13256:13874   */\n      dup2\n      eq\n      tag_256\n      jumpi\n        /* \"#utility.yul\":13918:13919   */\n      0x00\n        /* \"#utility.yul\":13935:13941   */\n      dup5\n        /* \"#utility.yul\":13932:14009   */\n      iszero\n      tag_257\n      jumpi\n        /* \"#utility.yul\":13984:13993   */\n      dup3\n        /* \"#utility.yul\":13979:13982   */\n      dup8\n        /* \"#utility.yul\":13975:13994   */\n      add\n        /* \"#utility.yul\":13969:13995   */\n      mload\n        /* \"#utility.yul\":13960:13995   */\n      swap1\n      pop\n        /* \"#utility.yul\":13932:14009   */\n    tag_257:\n        /* \"#utility.yul\":14035:14102   */\n      tag_258\n        /* \"#utility.yul\":14095:14101   */\n      dup6\n        /* \"#utility.yul\":14088:14093   */\n      dup3\n        /* \"#utility.yul\":14035:14102   */\n      tag_107\n      jump\t// in\n    tag_258:\n        /* \"#utility.yul\":14029:14033   */\n      dup7\n        /* \"#utility.yul\":14022:14103   */\n      sstore\n        /* \"#utility.yul\":13891:14113   */\n      pop\n        /* \"#utility.yul\":13226:14113   */\n      jump(tag_255)\n        /* \"#utility.yul\":13256:13874   */\n    tag_256:\n        /* \"#utility.yul\":13308:13312   */\n      0x1f\n        /* \"#utility.yul\":13304:13313   */\n      not\n        /* \"#utility.yul\":13296:13302   */\n      dup5\n        /* \"#utility.yul\":13292:13314   */\n      and\n        /* \"#utility.yul\":13342:13379   */\n      tag_259\n        /* \"#utility.yul\":13374:13378   */\n      dup7\n        /* \"#utility.yul\":13342:13379   */\n      tag_92\n      jump\t// in\n    tag_259:\n        /* \"#utility.yul\":13401:13402   */\n      0x00\n        /* \"#utility.yul\":13415:13623   */\n    tag_260:\n        /* \"#utility.yul\":13429:13436   */\n      dup3\n        /* \"#utility.yul\":13426:13427   */\n      dup2\n        /* \"#utility.yul\":13423:13437   */\n      lt\n        /* \"#utility.yul\":13415:13623   */\n      iszero\n      tag_262\n      jumpi\n        /* \"#utility.yul\":13508:13517   */\n      dup5\n        /* \"#utility.yul\":13503:13506   */\n      dup10\n        /* \"#utility.yul\":13499:13518   */\n      add\n        /* \"#utility.yul\":13493:13519   */\n      mload\n        /* \"#utility.yul\":13485:13491   */\n      dup3\n        /* \"#utility.yul\":13478:13520   */\n      sstore\n        /* \"#utility.yul\":13559:13560   */\n      0x01\n        /* \"#utility.yul\":13551:13557   */\n      dup3\n        /* \"#utility.yul\":13547:13561   */\n      add\n        /* \"#utility.yul\":13537:13561   */\n      swap2\n      pop\n        /* \"#utility.yul\":13606:13608   */\n      0x20\n        /* \"#utility.yul\":13595:13604   */\n      dup6\n        /* \"#utility.yul\":13591:13609   */\n      add\n        /* \"#utility.yul\":13578:13609   */\n      swap5\n      pop\n        /* \"#utility.yul\":13452:13456   */\n      0x20\n        /* \"#utility.yul\":13449:13450   */\n      dup2\n        /* \"#utility.yul\":13445:13457   */\n      add\n        /* \"#utility.yul\":13440:13457   */\n      swap1\n      pop\n        /* \"#utility.yul\":13415:13623   */\n      jump(tag_260)\n    tag_262:\n        /* \"#utility.yul\":13651:13657   */\n      dup7\n        /* \"#utility.yul\":13642:13649   */\n      dup4\n        /* \"#utility.yul\":13639:13658   */\n      lt\n        /* \"#utility.yul\":13636:13815   */\n      iszero\n      tag_263\n      jumpi\n        /* \"#utility.yul\":13709:13718   */\n      dup5\n        /* \"#utility.yul\":13704:13707   */\n      dup10\n        /* \"#utility.yul\":13700:13719   */\n      add\n        /* \"#utility.yul\":13694:13720   */\n      mload\n        /* \"#utility.yul\":13752:13800   */\n      tag_264\n        /* \"#utility.yul\":13794:13798   */\n      0x1f\n        /* \"#utility.yul\":13786:13792   */\n      dup10\n        /* \"#utility.yul\":13782:13799   */\n      and\n        /* \"#utility.yul\":13771:13780   */\n      dup3\n        /* \"#utility.yul\":13752:13800   */\n      tag_106\n      jump\t// in\n    tag_264:\n        /* \"#utility.yul\":13744:13750   */\n      dup4\n        /* \"#utility.yul\":13737:13801   */\n      sstore\n        /* \"#utility.yul\":13659:13815   */\n      pop\n        /* \"#utility.yul\":13636:13815   */\n    tag_263:\n        /* \"#utility.yul\":13861:13862   */\n      0x01\n        /* \"#utility.yul\":13857:13858   */\n      0x02\n        /* \"#utility.yul\":13849:13855   */\n      dup9\n        /* \"#utility.yul\":13845:13859   */\n      mul\n        /* \"#utility.yul\":13841:13863   */\n      add\n        /* \"#utility.yul\":13835:13839   */\n      dup9\n        /* \"#utility.yul\":13828:13864   */\n      sstore\n        /* \"#utility.yul\":13263:13874   */\n      pop\n      pop\n      pop\n        /* \"#utility.yul\":13226:14113   */\n    tag_255:\n      pop\n        /* \"#utility.yul\":12816:14119   */\n      pop\n      pop\n      pop\n        /* \"#utility.yul\":12724:14119   */\n      pop\n      pop\n      jump\t// out\n\n    auxdata: 0xa2646970667358221220ed550cbe508dd87deeeaff4e3f7e4cfa5a4f702bddc96f0dad882a4c0255162064736f6c63430008160033\n}\n",
				"bytecode": {
					"linkReferences": {},
					"object": "608060405234801562000010575f80fd5b5060405162000f7838038062000f788339818101604052810190620000369190620000f5565b8060015f6101000a81548173ffffffffffffffffffffffffffffffffffffffff021916908373ffffffffffffffffffffffffffffffffffffffff1602179055505062000125565b5f80fd5b5f73ffffffffffffffffffffffffffffffffffffffff82169050919050565b5f620000ac8262000081565b9050919050565b5f620000bf82620000a0565b9050919050565b620000d181620000b3565b8114620000dc575f80fd5b50565b5f81519050620000ef81620000c6565b92915050565b5f602082840312156200010d576200010c6200007d565b5b5f6200011c84828501620000df565b91505092915050565b610e4580620001335f395ff3fe608060405234801561000f575f80fd5b506004361061004a575f3560e01c80637857adc91461004e578063a87430ba1461006a578063b97370311461009f578063bfe051b7146100bf575b5f80fd5b610068600480360381019061006391906107c5565b6100db565b005b610084600480360381019061007f9190610895565b610143565b6040516100969695949392919061095c565b60405180910390f35b6100a76103b9565b6040516100b6939291906109d7565b60405180910390f35b6100d960048036038101906100d49190610a44565b61053d565b005b5f805f3373ffffffffffffffffffffffffffffffffffffffff1673ffffffffffffffffffffffffffffffffffffffff1681526020019081526020015f2090508281600301908161012b9190610d40565b508181600401908161013d9190610d40565b50505050565b5f602052805f5260405f205f91509050805f01805461016190610b6a565b80601f016020809104026020016040519081016040528092919081815260200182805461018d90610b6a565b80156101d85780601f106101af576101008083540402835291602001916101d8565b820191905f5260205f20905b8154815290600101906020018083116101bb57829003601f168201915b5050505050908060010180546101ed90610b6a565b80601f016020809104026020016040519081016040528092919081815260200182805461021990610b6a565b80156102645780601f1061023b57610100808354040283529160200191610264565b820191905f5260205f20905b81548152906001019060200180831161024757829003601f168201915b505050505090806002015f9054906101000a900467ffffffffffffffff16908060020160089054906101000a900467ffffffffffffffff16908060030180546102ac90610b6a565b80601f01602080910402602001604051908101604052809291908181526020018280546102d890610b6a565b80156103235780601f106102fa57610100808354040283529160200191610323565b820191905f5260205f20905b81548152906001019060200180831161030657829003601f168201915b50505050509080600401805461033890610b6a565b80601f016020809104026020016040519081016040528092919081815260200182805461036490610b6a565b80156103af5780601f10610386576101008083540402835291602001916103af565b820191905f5260205f20905b81548152906001019060200180831161039257829003601f168201915b5050505050905086565b60605f60605f805f3373ffffffffffffffffffffffffffffffffffffffff1673ffffffffffffffffffffffffffffffffffffffff1681526020019081526020015f209050805f018160020160089054906101000a900467ffffffffffffffff168260040182805461042990610b6a565b80601f016020809104026020016040519081016040528092919081815260200182805461045590610b6a565b80156104a05780601f10610477576101008083540402835291602001916104a0565b820191905f5260205f20905b81548152906001019060200180831161048357829003601f168201915b505050505092508080546104b390610b6a565b80601f01602080910402602001604051908101604052809291908181526020018280546104df90610b6a565b801561052a5780601f106105015761010080835404028352916020019161052a565b820191905f5260205f20905b81548152906001019060200180831161050d57829003601f168201915b5050505050905093509350935050909192565b6040518060c001604052808781526020018681526020018567ffffffffffffffff1681526020018467ffffffffffffffff168152602001838152602001828152505f803373ffffffffffffffffffffffffffffffffffffffff1673ffffffffffffffffffffffffffffffffffffffff1681526020019081526020015f205f820151815f0190816105cd9190610d40565b5060208201518160010190816105e39190610d40565b506040820151816002015f6101000a81548167ffffffffffffffff021916908367ffffffffffffffff16021790555060608201518160020160086101000a81548167ffffffffffffffff021916908367ffffffffffffffff16021790555060808201518160030190816106569190610d40565b5060a082015181600401908161066c9190610d40565b50905050505050505050565b5f604051905090565b5f80fd5b5f80fd5b5f80fd5b5f80fd5b5f601f19601f8301169050919050565b7f4e487b71000000000000000000000000000000000000000000000000000000005f52604160045260245ffd5b6106d782610691565b810181811067ffffffffffffffff821117156106f6576106f56106a1565b5b80604052505050565b5f610708610678565b905061071482826106ce565b919050565b5f67ffffffffffffffff821115610733576107326106a1565b5b61073c82610691565b9050602081019050919050565b828183375f83830152505050565b5f61076961076484610719565b6106ff565b9050828152602081018484840111156107855761078461068d565b5b610790848285610749565b509392505050565b5f82601f8301126107ac576107ab610689565b5b81356107bc848260208601610757565b91505092915050565b5f80604083850312156107db576107da610681565b5b5f83013567ffffffffffffffff8111156107f8576107f7610685565b5b61080485828601610798565b925050602083013567ffffffffffffffff81111561082557610824610685565b5b61083185828601610798565b9150509250929050565b5f73ffffffffffffffffffffffffffffffffffffffff82169050919050565b5f6108648261083b565b9050919050565b6108748161085a565b811461087e575f80fd5b50565b5f8135905061088f8161086b565b92915050565b5f602082840312156108aa576108a9610681565b5b5f6108b784828501610881565b91505092915050565b5f81519050919050565b5f82825260208201905092915050565b5f5b838110156108f75780820151818401526020810190506108dc565b5f8484015250505050565b5f61090c826108c0565b61091681856108ca565b93506109268185602086016108da565b61092f81610691565b840191505092915050565b5f67ffffffffffffffff82169050919050565b6109568161093a565b82525050565b5f60c0820190508181035f8301526109748189610902565b905081810360208301526109888188610902565b9050610997604083018761094d565b6109a4606083018661094d565b81810360808301526109b68185610902565b905081810360a08301526109ca8184610902565b9050979650505050505050565b5f6060820190508181035f8301526109ef8186610902565b90506109fe602083018561094d565b8181036040830152610a108184610902565b9050949350505050565b610a238161093a565b8114610a2d575f80fd5b50565b5f81359050610a3e81610a1a565b92915050565b5f805f805f8060c08789031215610a5e57610a5d610681565b5b5f87013567ffffffffffffffff811115610a7b57610a7a610685565b5b610a8789828a01610798565b965050602087013567ffffffffffffffff811115610aa857610aa7610685565b5b610ab489828a01610798565b9550506040610ac589828a01610a30565b9450506060610ad689828a01610a30565b935050608087013567ffffffffffffffff811115610af757610af6610685565b5b610b0389828a01610798565b92505060a087013567ffffffffffffffff811115610b2457610b23610685565b5b610b3089828a01610798565b9150509295509295509295565b7f4e487b71000000000000000000000000000000000000000000000000000000005f52602260045260245ffd5b5f6002820490506001821680610b8157607f821691505b602082108103610b9457610b93610b3d565b5b50919050565b5f819050815f5260205f209050919050565b5f6020601f8301049050919050565b5f82821b905092915050565b5f60088302610bf67fffffffffffffffffffffffffffffffffffffffffffffffffffffffffffffffff82610bbb565b610c008683610bbb565b95508019841693508086168417925050509392505050565b5f819050919050565b5f819050919050565b5f610c44610c3f610c3a84610c18565b610c21565b610c18565b9050919050565b5f819050919050565b610c5d83610c2a565b610c71610c6982610c4b565b848454610bc7565b825550505050565b5f90565b610c85610c79565b610c90818484610c54565b505050565b5b81811015610cb357610ca85f82610c7d565b600181019050610c96565b5050565b601f821115610cf857610cc981610b9a565b610cd284610bac565b81016020851015610ce1578190505b610cf5610ced85610bac565b830182610c95565b50505b505050565b5f82821c905092915050565b5f610d185f1984600802610cfd565b1980831691505092915050565b5f610d308383610d09565b9150826002028217905092915050565b610d49826108c0565b67ffffffffffffffff811115610d6257610d616106a1565b5b610d6c8254610b6a565b610d77828285610cb7565b5f60209050601f831160018114610da8575f8415610d96578287015190505b610da08582610d25565b865550610e07565b601f198416610db686610b9a565b5f5b82811015610ddd57848901518255600182019150602085019450602081019050610db8565b86831015610dfa5784890151610df6601f891682610d09565b8355505b6001600288020188555050505b50505050505056fea2646970667358221220ed550cbe508dd87deeeaff4e3f7e4cfa5a4f702bddc96f0dad882a4c0255162064736f6c63430008160033",
					"opcodes": "PUSH1 0x80 PUSH1 0x40 MSTORE CALLVALUE DUP1 ISZERO PUSH3 0x10 JUMPI PUSH0 DUP1 REVERT JUMPDEST POP PUSH1 0x40 MLOAD PUSH3 0xF78 CODESIZE SUB DUP1 PUSH3 0xF78 DUP4 CODECOPY DUP2 DUP2 ADD PUSH1 0x40 MSTORE DUP2 ADD SWAP1 PUSH3 0x36 SWAP2 SWAP1 PUSH3 0xF5 JUMP JUMPDEST DUP1 PUSH1 0x1 PUSH0 PUSH2 0x100 EXP DUP2 SLOAD DUP2 PUSH20 0xFFFFFFFFFFFFFFFFFFFFFFFFFFFFFFFFFFFFFFFF MUL NOT AND SWAP1 DUP4 PUSH20 0xFFFFFFFFFFFFFFFFFFFFFFFFFFFFFFFFFFFFFFFF AND MUL OR SWAP1 SSTORE POP POP PUSH3 0x125 JUMP JUMPDEST PUSH0 DUP1 REVERT JUMPDEST PUSH0 PUSH20 0xFFFFFFFFFFFFFFFFFFFFFFFFFFFFFFFFFFFFFFFF DUP3 AND SWAP1 POP SWAP2 SWAP1 POP JUMP JUMPDEST PUSH0 PUSH3 0xAC DUP3 PUSH3 0x81 JUMP JUMPDEST SWAP1 POP SWAP2 SWAP1 POP JUMP JUMPDEST PUSH0 PUSH3 0xBF DUP3 PUSH3 0xA0 JUMP JUMPDEST SWAP1 POP SWAP2 SWAP1 POP JUMP JUMPDEST PUSH3 0xD1 DUP2 PUSH3 0xB3 JUMP JUMPDEST DUP2 EQ PUSH3 0xDC JUMPI PUSH0 DUP1 REVERT JUMPDEST POP JUMP JUMPDEST PUSH0 DUP2 MLOAD SWAP1 POP PUSH3 0xEF DUP2 PUSH3 0xC6 JUMP JUMPDEST SWAP3 SWAP2 POP POP JUMP JUMPDEST PUSH0 PUSH1 0x20 DUP3 DUP5 SUB SLT ISZERO PUSH3 0x10D JUMPI PUSH3 0x10C PUSH3 0x7D JUMP JUMPDEST JUMPDEST PUSH0 PUSH3 0x11C DUP5 DUP3 DUP6 ADD PUSH3 0xDF JUMP JUMPDEST SWAP2 POP POP SWAP3 SWAP2 POP POP JUMP JUMPDEST PUSH2 0xE45 DUP1 PUSH3 0x133 PUSH0 CODECOPY PUSH0 RETURN INVALID PUSH1 0x80 PUSH1 0x40 MSTORE CALLVALUE DUP1 ISZERO PUSH2 0xF JUMPI PUSH0 DUP1 REVERT JUMPDEST POP PUSH1 0x4 CALLDATASIZE LT PUSH2 0x4A JUMPI PUSH0 CALLDATALOAD PUSH1 0xE0 SHR DUP1 PUSH4 0x7857ADC9 EQ PUSH2 0x4E JUMPI DUP1 PUSH4 0xA87430BA EQ PUSH2 0x6A JUMPI DUP1 PUSH4 0xB9737031 EQ PUSH2 0x9F JUMPI DUP1 PUSH4 0xBFE051B7 EQ PUSH2 0xBF JUMPI JUMPDEST PUSH0 DUP1 REVERT JUMPDEST PUSH2 0x68 PUSH1 0x4 DUP1 CALLDATASIZE SUB DUP2 ADD SWAP1 PUSH2 0x63 SWAP2 SWAP1 PUSH2 0x7C5 JUMP JUMPDEST PUSH2 0xDB JUMP JUMPDEST STOP JUMPDEST PUSH2 0x84 PUSH1 0x4 DUP1 CALLDATASIZE SUB DUP2 ADD SWAP1 PUSH2 0x7F SWAP2 SWAP1 PUSH2 0x895 JUMP JUMPDEST PUSH2 0x143 JUMP JUMPDEST PUSH1 0x40 MLOAD PUSH2 0x96 SWAP7 SWAP6 SWAP5 SWAP4 SWAP3 SWAP2 SWAP1 PUSH2 0x95C JUMP JUMPDEST PUSH1 0x40 MLOAD DUP1 SWAP2 SUB SWAP1 RETURN JUMPDEST PUSH2 0xA7 PUSH2 0x3B9 JUMP JUMPDEST PUSH1 0x40 MLOAD PUSH2 0xB6 SWAP4 SWAP3 SWAP2 SWAP1 PUSH2 0x9D7 JUMP JUMPDEST PUSH1 0x40 MLOAD DUP1 SWAP2 SUB SWAP1 RETURN JUMPDEST PUSH2 0xD9 PUSH1 0x4 DUP1 CALLDATASIZE SUB DUP2 ADD SWAP1 PUSH2 0xD4 SWAP2 SWAP1 PUSH2 0xA44 JUMP JUMPDEST PUSH2 0x53D JUMP JUMPDEST STOP JUMPDEST PUSH0 DUP1 PUSH0 CALLER PUSH20 0xFFFFFFFFFFFFFFFFFFFFFFFFFFFFFFFFFFFFFFFF AND PUSH20 0xFFFFFFFFFFFFFFFFFFFFFFFFFFFFFFFFFFFFFFFF AND DUP2 MSTORE PUSH1 0x20 ADD SWAP1 DUP2 MSTORE PUSH1 0x20 ADD PUSH0 KECCAK256 SWAP1 POP DUP3 DUP2 PUSH1 0x3 ADD SWAP1 DUP2 PUSH2 0x12B SWAP2 SWAP1 PUSH2 0xD40 JUMP JUMPDEST POP DUP2 DUP2 PUSH1 0x4 ADD SWAP1 DUP2 PUSH2 0x13D SWAP2 SWAP1 PUSH2 0xD40 JUMP JUMPDEST POP POP POP POP JUMP JUMPDEST PUSH0 PUSH1 0x20 MSTORE DUP1 PUSH0 MSTORE PUSH1 0x40 PUSH0 KECCAK256 PUSH0 SWAP2 POP SWAP1 POP DUP1 PUSH0 ADD DUP1 SLOAD PUSH2 0x161 SWAP1 PUSH2 0xB6A JUMP JUMPDEST DUP1 PUSH1 0x1F ADD PUSH1 0x20 DUP1 SWAP2 DIV MUL PUSH1 0x20 ADD PUSH1 0x40 MLOAD SWAP1 DUP2 ADD PUSH1 0x40 MSTORE DUP1 SWAP3 SWAP2 SWAP1 DUP2 DUP2 MSTORE PUSH1 0x20 ADD DUP3 DUP1 SLOAD PUSH2 0x18D SWAP1 PUSH2 0xB6A JUMP JUMPDEST DUP1 ISZERO PUSH2 0x1D8 JUMPI DUP1 PUSH1 0x1F LT PUSH2 0x1AF JUMPI PUSH2 0x100 DUP1 DUP4 SLOAD DIV MUL DUP4 MSTORE SWAP2 PUSH1 0x20 ADD SWAP2 PUSH2 0x1D8 JUMP JUMPDEST DUP3 ADD SWAP2 SWAP1 PUSH0 MSTORE PUSH1 0x20 PUSH0 KECCAK256 SWAP1 JUMPDEST DUP2 SLOAD DUP2 MSTORE SWAP1 PUSH1 0x1 ADD SWAP1 PUSH1 0x20 ADD DUP1 DUP4 GT PUSH2 0x1BB JUMPI DUP3 SWAP1 SUB PUSH1 0x1F AND DUP3 ADD SWAP2 JUMPDEST POP POP POP POP POP SWAP1 DUP1 PUSH1 0x1 ADD DUP1 SLOAD PUSH2 0x1ED SWAP1 PUSH2 0xB6A JUMP JUMPDEST DUP1 PUSH1 0x1F ADD PUSH1 0x20 DUP1 SWAP2 DIV MUL PUSH1 0x20 ADD PUSH1 0x40 MLOAD SWAP1 DUP2 ADD PUSH1 0x40 MSTORE DUP1 SWAP3 SWAP2 SWAP1 DUP2 DUP2 MSTORE PUSH1 0x20 ADD DUP3 DUP1 SLOAD PUSH2 0x219 SWAP1 PUSH2 0xB6A JUMP JUMPDEST DUP1 ISZERO PUSH2 0x264 JUMPI DUP1 PUSH1 0x1F LT PUSH2 0x23B JUMPI PUSH2 0x100 DUP1 DUP4 SLOAD DIV MUL DUP4 MSTORE SWAP2 PUSH1 0x20 ADD SWAP2 PUSH2 0x264 JUMP JUMPDEST DUP3 ADD SWAP2 SWAP1 PUSH0 MSTORE PUSH1 0x20 PUSH0 KECCAK256 SWAP1 JUMPDEST DUP2 SLOAD DUP2 MSTORE SWAP1 PUSH1 0x1 ADD SWAP1 PUSH1 0x20 ADD DUP1 DUP4 GT PUSH2 0x247 JUMPI DUP3 SWAP1 SUB PUSH1 0x1F AND DUP3 ADD SWAP2 JUMPDEST POP POP POP POP POP SWAP1 DUP1 PUSH1 0x2 ADD PUSH0 SWAP1 SLOAD SWAP1 PUSH2 0x100 EXP SWAP1 DIV PUSH8 0xFFFFFFFFFFFFFFFF AND SWAP1 DUP1 PUSH1 0x2 ADD PUSH1 0x8 SWAP1 SLOAD SWAP1 PUSH2 0x100 EXP SWAP1 DIV PUSH8 0xFFFFFFFFFFFFFFFF AND SWAP1 DUP1 PUSH1 0x3 ADD DUP1 SLOAD PUSH2 0x2AC SWAP1 PUSH2 0xB6A JUMP JUMPDEST DUP1 PUSH1 0x1F ADD PUSH1 0x20 DUP1 SWAP2 DIV MUL PUSH1 0x20 ADD PUSH1 0x40 MLOAD SWAP1 DUP2 ADD PUSH1 0x40 MSTORE DUP1 SWAP3 SWAP2 SWAP1 DUP2 DUP2 MSTORE PUSH1 0x20 ADD DUP3 DUP1 SLOAD PUSH2 0x2D8 SWAP1 PUSH2 0xB6A JUMP JUMPDEST DUP1 ISZERO PUSH2 0x323 JUMPI DUP1 PUSH1 0x1F LT PUSH2 0x2FA JUMPI PUSH2 0x100 DUP1 DUP4 SLOAD DIV MUL DUP4 MSTORE SWAP2 PUSH1 0x20 ADD SWAP2 PUSH2 0x323 JUMP JUMPDEST DUP3 ADD SWAP2 SWAP1 PUSH0 MSTORE PUSH1 0x20 PUSH0 KECCAK256 SWAP1 JUMPDEST DUP2 SLOAD DUP2 MSTORE SWAP1 PUSH1 0x1 ADD SWAP1 PUSH1 0x20 ADD DUP1 DUP4 GT PUSH2 0x306 JUMPI DUP3 SWAP1 SUB PUSH1 0x1F AND DUP3 ADD SWAP2 JUMPDEST POP POP POP POP POP SWAP1 DUP1 PUSH1 0x4 ADD DUP1 SLOAD PUSH2 0x338 SWAP1 PUSH2 0xB6A JUMP JUMPDEST DUP1 PUSH1 0x1F ADD PUSH1 0x20 DUP1 SWAP2 DIV MUL PUSH1 0x20 ADD PUSH1 0x40 MLOAD SWAP1 DUP2 ADD PUSH1 0x40 MSTORE DUP1 SWAP3 SWAP2 SWAP1 DUP2 DUP2 MSTORE PUSH1 0x20 ADD DUP3 DUP1 SLOAD PUSH2 0x364 SWAP1 PUSH2 0xB6A JUMP JUMPDEST DUP1 ISZERO PUSH2 0x3AF JUMPI DUP1 PUSH1 0x1F LT PUSH2 0x386 JUMPI PUSH2 0x100 DUP1 DUP4 SLOAD DIV MUL DUP4 MSTORE SWAP2 PUSH1 0x20 ADD SWAP2 PUSH2 0x3AF JUMP JUMPDEST DUP3 ADD SWAP2 SWAP1 PUSH0 MSTORE PUSH1 0x20 PUSH0 KECCAK256 SWAP1 JUMPDEST DUP2 SLOAD DUP2 MSTORE SWAP1 PUSH1 0x1 ADD SWAP1 PUSH1 0x20 ADD DUP1 DUP4 GT PUSH2 0x392 JUMPI DUP3 SWAP1 SUB PUSH1 0x1F AND DUP3 ADD SWAP2 JUMPDEST POP POP POP POP POP SWAP1 POP DUP7 JUMP JUMPDEST PUSH1 0x60 PUSH0 PUSH1 0x60 PUSH0 DUP1 PUSH0 CALLER PUSH20 0xFFFFFFFFFFFFFFFFFFFFFFFFFFFFFFFFFFFFFFFF AND PUSH20 0xFFFFFFFFFFFFFFFFFFFFFFFFFFFFFFFFFFFFFFFF AND DUP2 MSTORE PUSH1 0x20 ADD SWAP1 DUP2 MSTORE PUSH1 0x20 ADD PUSH0 KECCAK256 SWAP1 POP DUP1 PUSH0 ADD DUP2 PUSH1 0x2 ADD PUSH1 0x8 SWAP1 SLOAD SWAP1 PUSH2 0x100 EXP SWAP1 DIV PUSH8 0xFFFFFFFFFFFFFFFF AND DUP3 PUSH1 0x4 ADD DUP3 DUP1 SLOAD PUSH2 0x429 SWAP1 PUSH2 0xB6A JUMP JUMPDEST DUP1 PUSH1 0x1F ADD PUSH1 0x20 DUP1 SWAP2 DIV MUL PUSH1 0x20 ADD PUSH1 0x40 MLOAD SWAP1 DUP2 ADD PUSH1 0x40 MSTORE DUP1 SWAP3 SWAP2 SWAP1 DUP2 DUP2 MSTORE PUSH1 0x20 ADD DUP3 DUP1 SLOAD PUSH2 0x455 SWAP1 PUSH2 0xB6A JUMP JUMPDEST DUP1 ISZERO PUSH2 0x4A0 JUMPI DUP1 PUSH1 0x1F LT PUSH2 0x477 JUMPI PUSH2 0x100 DUP1 DUP4 SLOAD DIV MUL DUP4 MSTORE SWAP2 PUSH1 0x20 ADD SWAP2 PUSH2 0x4A0 JUMP JUMPDEST DUP3 ADD SWAP2 SWAP1 PUSH0 MSTORE PUSH1 0x20 PUSH0 KECCAK256 SWAP1 JUMPDEST DUP2 SLOAD DUP2 MSTORE SWAP1 PUSH1 0x1 ADD SWAP1 PUSH1 0x20 ADD DUP1 DUP4 GT PUSH2 0x483 JUMPI DUP3 SWAP1 SUB PUSH1 0x1F AND DUP3 ADD SWAP2 JUMPDEST POP POP POP POP POP SWAP3 POP DUP1 DUP1 SLOAD PUSH2 0x4B3 SWAP1 PUSH2 0xB6A JUMP JUMPDEST DUP1 PUSH1 0x1F ADD PUSH1 0x20 DUP1 SWAP2 DIV MUL PUSH1 0x20 ADD PUSH1 0x40 MLOAD SWAP1 DUP2 ADD PUSH1 0x40 MSTORE DUP1 SWAP3 SWAP2 SWAP1 DUP2 DUP2 MSTORE PUSH1 0x20 ADD DUP3 DUP1 SLOAD PUSH2 0x4DF SWAP1 PUSH2 0xB6A JUMP JUMPDEST DUP1 ISZERO PUSH2 0x52A JUMPI DUP1 PUSH1 0x1F LT PUSH2 0x501 JUMPI PUSH2 0x100 DUP1 DUP4 SLOAD DIV MUL DUP4 MSTORE SWAP2 PUSH1 0x20 ADD SWAP2 PUSH2 0x52A JUMP JUMPDEST DUP3 ADD SWAP2 SWAP1 PUSH0 MSTORE PUSH1 0x20 PUSH0 KECCAK256 SWAP1 JUMPDEST DUP2 SLOAD DUP2 MSTORE SWAP1 PUSH1 0x1 ADD SWAP1 PUSH1 0x20 ADD DUP1 DUP4 GT PUSH2 0x50D JUMPI DUP3 SWAP1 SUB PUSH1 0x1F AND DUP3 ADD SWAP2 JUMPDEST POP POP POP POP POP SWAP1 POP SWAP4 POP SWAP4 POP SWAP4 POP POP SWAP1 SWAP2 SWAP3 JUMP JUMPDEST PUSH1 0x40 MLOAD DUP1 PUSH1 0xC0 ADD PUSH1 0x40 MSTORE DUP1 DUP8 DUP2 MSTORE PUSH1 0x20 ADD DUP7 DUP2 MSTORE PUSH1 0x20 ADD DUP6 PUSH8 0xFFFFFFFFFFFFFFFF AND DUP2 MSTORE PUSH1 0x20 ADD DUP5 PUSH8 0xFFFFFFFFFFFFFFFF AND DUP2 MSTORE PUSH1 0x20 ADD DUP4 DUP2 MSTORE PUSH1 0x20 ADD DUP3 DUP2 MSTORE POP PUSH0 DUP1 CALLER PUSH20 0xFFFFFFFFFFFFFFFFFFFFFFFFFFFFFFFFFFFFFFFF AND PUSH20 0xFFFFFFFFFFFFFFFFFFFFFFFFFFFFFFFFFFFFFFFF AND DUP2 MSTORE PUSH1 0x20 ADD SWAP1 DUP2 MSTORE PUSH1 0x20 ADD PUSH0 KECCAK256 PUSH0 DUP3 ADD MLOAD DUP2 PUSH0 ADD SWAP1 DUP2 PUSH2 0x5CD SWAP2 SWAP1 PUSH2 0xD40 JUMP JUMPDEST POP PUSH1 0x20 DUP3 ADD MLOAD DUP2 PUSH1 0x1 ADD SWAP1 DUP2 PUSH2 0x5E3 SWAP2 SWAP1 PUSH2 0xD40 JUMP JUMPDEST POP PUSH1 0x40 DUP3 ADD MLOAD DUP2 PUSH1 0x2 ADD PUSH0 PUSH2 0x100 EXP DUP2 SLOAD DUP2 PUSH8 0xFFFFFFFFFFFFFFFF MUL NOT AND SWAP1 DUP4 PUSH8 0xFFFFFFFFFFFFFFFF AND MUL OR SWAP1 SSTORE POP PUSH1 0x60 DUP3 ADD MLOAD DUP2 PUSH1 0x2 ADD PUSH1 0x8 PUSH2 0x100 EXP DUP2 SLOAD DUP2 PUSH8 0xFFFFFFFFFFFFFFFF MUL NOT AND SWAP1 DUP4 PUSH8 0xFFFFFFFFFFFFFFFF AND MUL OR SWAP1 SSTORE POP PUSH1 0x80 DUP3 ADD MLOAD DUP2 PUSH1 0x3 ADD SWAP1 DUP2 PUSH2 0x656 SWAP2 SWAP1 PUSH2 0xD40 JUMP JUMPDEST POP PUSH1 0xA0 DUP3 ADD MLOAD DUP2 PUSH1 0x4 ADD SWAP1 DUP2 PUSH2 0x66C SWAP2 SWAP1 PUSH2 0xD40 JUMP JUMPDEST POP SWAP1 POP POP POP POP POP POP POP POP JUMP JUMPDEST PUSH0 PUSH1 0x40 MLOAD SWAP1 POP SWAP1 JUMP JUMPDEST PUSH0 DUP1 REVERT JUMPDEST PUSH0 DUP1 REVERT JUMPDEST PUSH0 DUP1 REVERT JUMPDEST PUSH0 DUP1 REVERT JUMPDEST PUSH0 PUSH1 0x1F NOT PUSH1 0x1F DUP4 ADD AND SWAP1 POP SWAP2 SWAP1 POP JUMP JUMPDEST PUSH32 0x4E487B7100000000000000000000000000000000000000000000000000000000 PUSH0 MSTORE PUSH1 0x41 PUSH1 0x4 MSTORE PUSH1 0x24 PUSH0 REVERT JUMPDEST PUSH2 0x6D7 DUP3 PUSH2 0x691 JUMP JUMPDEST DUP2 ADD DUP2 DUP2 LT PUSH8 0xFFFFFFFFFFFFFFFF DUP3 GT OR ISZERO PUSH2 0x6F6 JUMPI PUSH2 0x6F5 PUSH2 0x6A1 JUMP JUMPDEST JUMPDEST DUP1 PUSH1 0x40 MSTORE POP POP POP JUMP JUMPDEST PUSH0 PUSH2 0x708 PUSH2 0x678 JUMP JUMPDEST SWAP1 POP PUSH2 0x714 DUP3 DUP3 PUSH2 0x6CE JUMP JUMPDEST SWAP2 SWAP1 POP JUMP JUMPDEST PUSH0 PUSH8 0xFFFFFFFFFFFFFFFF DUP3 GT ISZERO PUSH2 0x733 JUMPI PUSH2 0x732 PUSH2 0x6A1 JUMP JUMPDEST JUMPDEST PUSH2 0x73C DUP3 PUSH2 0x691 JUMP JUMPDEST SWAP1 POP PUSH1 0x20 DUP2 ADD SWAP1 POP SWAP2 SWAP1 POP JUMP JUMPDEST DUP3 DUP2 DUP4 CALLDATACOPY PUSH0 DUP4 DUP4 ADD MSTORE POP POP POP JUMP JUMPDEST PUSH0 PUSH2 0x769 PUSH2 0x764 DUP5 PUSH2 0x719 JUMP JUMPDEST PUSH2 0x6FF JUMP JUMPDEST SWAP1 POP DUP3 DUP2 MSTORE PUSH1 0x20 DUP2 ADD DUP5 DUP5 DUP5 ADD GT ISZERO PUSH2 0x785 JUMPI PUSH2 0x784 PUSH2 0x68D JUMP JUMPDEST JUMPDEST PUSH2 0x790 DUP5 DUP3 DUP6 PUSH2 0x749 JUMP JUMPDEST POP SWAP4 SWAP3 POP POP POP JUMP JUMPDEST PUSH0 DUP3 PUSH1 0x1F DUP4 ADD SLT PUSH2 0x7AC JUMPI PUSH2 0x7AB PUSH2 0x689 JUMP JUMPDEST JUMPDEST DUP2 CALLDATALOAD PUSH2 0x7BC DUP5 DUP3 PUSH1 0x20 DUP7 ADD PUSH2 0x757 JUMP JUMPDEST SWAP2 POP POP SWAP3 SWAP2 POP POP JUMP JUMPDEST PUSH0 DUP1 PUSH1 0x40 DUP4 DUP6 SUB SLT ISZERO PUSH2 0x7DB JUMPI PUSH2 0x7DA PUSH2 0x681 JUMP JUMPDEST JUMPDEST PUSH0 DUP4 ADD CALLDATALOAD PUSH8 0xFFFFFFFFFFFFFFFF DUP2 GT ISZERO PUSH2 0x7F8 JUMPI PUSH2 0x7F7 PUSH2 0x685 JUMP JUMPDEST JUMPDEST PUSH2 0x804 DUP6 DUP3 DUP7 ADD PUSH2 0x798 JUMP JUMPDEST SWAP3 POP POP PUSH1 0x20 DUP4 ADD CALLDATALOAD PUSH8 0xFFFFFFFFFFFFFFFF DUP2 GT ISZERO PUSH2 0x825 JUMPI PUSH2 0x824 PUSH2 0x685 JUMP JUMPDEST JUMPDEST PUSH2 0x831 DUP6 DUP3 DUP7 ADD PUSH2 0x798 JUMP JUMPDEST SWAP2 POP POP SWAP3 POP SWAP3 SWAP1 POP JUMP JUMPDEST PUSH0 PUSH20 0xFFFFFFFFFFFFFFFFFFFFFFFFFFFFFFFFFFFFFFFF DUP3 AND SWAP1 POP SWAP2 SWAP1 POP JUMP JUMPDEST PUSH0 PUSH2 0x864 DUP3 PUSH2 0x83B JUMP JUMPDEST SWAP1 POP SWAP2 SWAP1 POP JUMP JUMPDEST PUSH2 0x874 DUP2 PUSH2 0x85A JUMP JUMPDEST DUP2 EQ PUSH2 0x87E JUMPI PUSH0 DUP1 REVERT JUMPDEST POP JUMP JUMPDEST PUSH0 DUP2 CALLDATALOAD SWAP1 POP PUSH2 0x88F DUP2 PUSH2 0x86B JUMP JUMPDEST SWAP3 SWAP2 POP POP JUMP JUMPDEST PUSH0 PUSH1 0x20 DUP3 DUP5 SUB SLT ISZERO PUSH2 0x8AA JUMPI PUSH2 0x8A9 PUSH2 0x681 JUMP JUMPDEST JUMPDEST PUSH0 PUSH2 0x8B7 DUP5 DUP3 DUP6 ADD PUSH2 0x881 JUMP JUMPDEST SWAP2 POP POP SWAP3 SWAP2 POP POP JUMP JUMPDEST PUSH0 DUP2 MLOAD SWAP1 POP SWAP2 SWAP1 POP JUMP JUMPDEST PUSH0 DUP3 DUP3 MSTORE PUSH1 0x20 DUP3 ADD SWAP1 POP SWAP3 SWAP2 POP POP JUMP JUMPDEST PUSH0 JUMPDEST DUP4 DUP2 LT ISZERO PUSH2 0x8F7 JUMPI DUP1 DUP3 ADD MLOAD DUP2 DUP5 ADD MSTORE PUSH1 0x20 DUP2 ADD SWAP1 POP PUSH2 0x8DC JUMP JUMPDEST PUSH0 DUP5 DUP5 ADD MSTORE POP POP POP POP JUMP JUMPDEST PUSH0 PUSH2 0x90C DUP3 PUSH2 0x8C0 JUMP JUMPDEST PUSH2 0x916 DUP2 DUP6 PUSH2 0x8CA JUMP JUMPDEST SWAP4 POP PUSH2 0x926 DUP2 DUP6 PUSH1 0x20 DUP7 ADD PUSH2 0x8DA JUMP JUMPDEST PUSH2 0x92F DUP2 PUSH2 0x691 JUMP JUMPDEST DUP5 ADD SWAP2 POP POP SWAP3 SWAP2 POP POP JUMP JUMPDEST PUSH0 PUSH8 0xFFFFFFFFFFFFFFFF DUP3 AND SWAP1 POP SWAP2 SWAP1 POP JUMP JUMPDEST PUSH2 0x956 DUP2 PUSH2 0x93A JUMP JUMPDEST DUP3 MSTORE POP POP JUMP JUMPDEST PUSH0 PUSH1 0xC0 DUP3 ADD SWAP1 POP DUP2 DUP2 SUB PUSH0 DUP4 ADD MSTORE PUSH2 0x974 DUP2 DUP10 PUSH2 0x902 JUMP JUMPDEST SWAP1 POP DUP2 DUP2 SUB PUSH1 0x20 DUP4 ADD MSTORE PUSH2 0x988 DUP2 DUP9 PUSH2 0x902 JUMP JUMPDEST SWAP1 POP PUSH2 0x997 PUSH1 0x40 DUP4 ADD DUP8 PUSH2 0x94D JUMP JUMPDEST PUSH2 0x9A4 PUSH1 0x60 DUP4 ADD DUP7 PUSH2 0x94D JUMP JUMPDEST DUP2 DUP2 SUB PUSH1 0x80 DUP4 ADD MSTORE PUSH2 0x9B6 DUP2 DUP6 PUSH2 0x902 JUMP JUMPDEST SWAP1 POP DUP2 DUP2 SUB PUSH1 0xA0 DUP4 ADD MSTORE PUSH2 0x9CA DUP2 DUP5 PUSH2 0x902 JUMP JUMPDEST SWAP1 POP SWAP8 SWAP7 POP POP POP POP POP POP POP JUMP JUMPDEST PUSH0 PUSH1 0x60 DUP3 ADD SWAP1 POP DUP2 DUP2 SUB PUSH0 DUP4 ADD MSTORE PUSH2 0x9EF DUP2 DUP7 PUSH2 0x902 JUMP JUMPDEST SWAP1 POP PUSH2 0x9FE PUSH1 0x20 DUP4 ADD DUP6 PUSH2 0x94D JUMP JUMPDEST DUP2 DUP2 SUB PUSH1 0x40 DUP4 ADD MSTORE PUSH2 0xA10 DUP2 DUP5 PUSH2 0x902 JUMP JUMPDEST SWAP1 POP SWAP5 SWAP4 POP POP POP POP JUMP JUMPDEST PUSH2 0xA23 DUP2 PUSH2 0x93A JUMP JUMPDEST DUP2 EQ PUSH2 0xA2D JUMPI PUSH0 DUP1 REVERT JUMPDEST POP JUMP JUMPDEST PUSH0 DUP2 CALLDATALOAD SWAP1 POP PUSH2 0xA3E DUP2 PUSH2 0xA1A JUMP JUMPDEST SWAP3 SWAP2 POP POP JUMP JUMPDEST PUSH0 DUP1 PUSH0 DUP1 PUSH0 DUP1 PUSH1 0xC0 DUP8 DUP10 SUB SLT ISZERO PUSH2 0xA5E JUMPI PUSH2 0xA5D PUSH2 0x681 JUMP JUMPDEST JUMPDEST PUSH0 DUP8 ADD CALLDATALOAD PUSH8 0xFFFFFFFFFFFFFFFF DUP2 GT ISZERO PUSH2 0xA7B JUMPI PUSH2 0xA7A PUSH2 0x685 JUMP JUMPDEST JUMPDEST PUSH2 0xA87 DUP10 DUP3 DUP11 ADD PUSH2 0x798 JUMP JUMPDEST SWAP7 POP POP PUSH1 0x20 DUP8 ADD CALLDATALOAD PUSH8 0xFFFFFFFFFFFFFFFF DUP2 GT ISZERO PUSH2 0xAA8 JUMPI PUSH2 0xAA7 PUSH2 0x685 JUMP JUMPDEST JUMPDEST PUSH2 0xAB4 DUP10 DUP3 DUP11 ADD PUSH2 0x798 JUMP JUMPDEST SWAP6 POP POP PUSH1 0x40 PUSH2 0xAC5 DUP10 DUP3 DUP11 ADD PUSH2 0xA30 JUMP JUMPDEST SWAP5 POP POP PUSH1 0x60 PUSH2 0xAD6 DUP10 DUP3 DUP11 ADD PUSH2 0xA30 JUMP JUMPDEST SWAP4 POP POP PUSH1 0x80 DUP8 ADD CALLDATALOAD PUSH8 0xFFFFFFFFFFFFFFFF DUP2 GT ISZERO PUSH2 0xAF7 JUMPI PUSH2 0xAF6 PUSH2 0x685 JUMP JUMPDEST JUMPDEST PUSH2 0xB03 DUP10 DUP3 DUP11 ADD PUSH2 0x798 JUMP JUMPDEST SWAP3 POP POP PUSH1 0xA0 DUP8 ADD CALLDATALOAD PUSH8 0xFFFFFFFFFFFFFFFF DUP2 GT ISZERO PUSH2 0xB24 JUMPI PUSH2 0xB23 PUSH2 0x685 JUMP JUMPDEST JUMPDEST PUSH2 0xB30 DUP10 DUP3 DUP11 ADD PUSH2 0x798 JUMP JUMPDEST SWAP2 POP POP SWAP3 SWAP6 POP SWAP3 SWAP6 POP SWAP3 SWAP6 JUMP JUMPDEST PUSH32 0x4E487B7100000000000000000000000000000000000000000000000000000000 PUSH0 MSTORE PUSH1 0x22 PUSH1 0x4 MSTORE PUSH1 0x24 PUSH0 REVERT JUMPDEST PUSH0 PUSH1 0x2 DUP3 DIV SWAP1 POP PUSH1 0x1 DUP3 AND DUP1 PUSH2 0xB81 JUMPI PUSH1 0x7F DUP3 AND SWAP2 POP JUMPDEST PUSH1 0x20 DUP3 LT DUP2 SUB PUSH2 0xB94 JUMPI PUSH2 0xB93 PUSH2 0xB3D JUMP JUMPDEST JUMPDEST POP SWAP2 SWAP1 POP JUMP JUMPDEST PUSH0 DUP2 SWAP1 POP DUP2 PUSH0 MSTORE PUSH1 0x20 PUSH0 KECCAK256 SWAP1 POP SWAP2 SWAP1 POP JUMP JUMPDEST PUSH0 PUSH1 0x20 PUSH1 0x1F DUP4 ADD DIV SWAP1 POP SWAP2 SWAP1 POP JUMP JUMPDEST PUSH0 DUP3 DUP3 SHL SWAP1 POP SWAP3 SWAP2 POP POP JUMP JUMPDEST PUSH0 PUSH1 0x8 DUP4 MUL PUSH2 0xBF6 PUSH32 0xFFFFFFFFFFFFFFFFFFFFFFFFFFFFFFFFFFFFFFFFFFFFFFFFFFFFFFFFFFFFFFFF DUP3 PUSH2 0xBBB JUMP JUMPDEST PUSH2 0xC00 DUP7 DUP4 PUSH2 0xBBB JUMP JUMPDEST SWAP6 POP DUP1 NOT DUP5 AND SWAP4 POP DUP1 DUP7 AND DUP5 OR SWAP3 POP POP POP SWAP4 SWAP3 POP POP POP JUMP JUMPDEST PUSH0 DUP2 SWAP1 POP SWAP2 SWAP1 POP JUMP JUMPDEST PUSH0 DUP2 SWAP1 POP SWAP2 SWAP1 POP JUMP JUMPDEST PUSH0 PUSH2 0xC44 PUSH2 0xC3F PUSH2 0xC3A DUP5 PUSH2 0xC18 JUMP JUMPDEST PUSH2 0xC21 JUMP JUMPDEST PUSH2 0xC18 JUMP JUMPDEST SWAP1 POP SWAP2 SWAP1 POP JUMP JUMPDEST PUSH0 DUP2 SWAP1 POP SWAP2 SWAP1 POP JUMP JUMPDEST PUSH2 0xC5D DUP4 PUSH2 0xC2A JUMP JUMPDEST PUSH2 0xC71 PUSH2 0xC69 DUP3 PUSH2 0xC4B JUMP JUMPDEST DUP5 DUP5 SLOAD PUSH2 0xBC7 JUMP JUMPDEST DUP3 SSTORE POP POP POP POP JUMP JUMPDEST PUSH0 SWAP1 JUMP JUMPDEST PUSH2 0xC85 PUSH2 0xC79 JUMP JUMPDEST PUSH2 0xC90 DUP2 DUP5 DUP5 PUSH2 0xC54 JUMP JUMPDEST POP POP POP JUMP JUMPDEST JUMPDEST DUP2 DUP2 LT ISZERO PUSH2 0xCB3 JUMPI PUSH2 0xCA8 PUSH0 DUP3 PUSH2 0xC7D JUMP JUMPDEST PUSH1 0x1 DUP2 ADD SWAP1 POP PUSH2 0xC96 JUMP JUMPDEST POP POP JUMP JUMPDEST PUSH1 0x1F DUP3 GT ISZERO PUSH2 0xCF8 JUMPI PUSH2 0xCC9 DUP2 PUSH2 0xB9A JUMP JUMPDEST PUSH2 0xCD2 DUP5 PUSH2 0xBAC JUMP JUMPDEST DUP2 ADD PUSH1 0x20 DUP6 LT ISZERO PUSH2 0xCE1 JUMPI DUP2 SWAP1 POP JUMPDEST PUSH2 0xCF5 PUSH2 0xCED DUP6 PUSH2 0xBAC JUMP JUMPDEST DUP4 ADD DUP3 PUSH2 0xC95 JUMP JUMPDEST POP POP JUMPDEST POP POP POP JUMP JUMPDEST PUSH0 DUP3 DUP3 SHR SWAP1 POP SWAP3 SWAP2 POP POP JUMP JUMPDEST PUSH0 PUSH2 0xD18 PUSH0 NOT DUP5 PUSH1 0x8 MUL PUSH2 0xCFD JUMP JUMPDEST NOT DUP1 DUP4 AND SWAP2 POP POP SWAP3 SWAP2 POP POP JUMP JUMPDEST PUSH0 PUSH2 0xD30 DUP4 DUP4 PUSH2 0xD09 JUMP JUMPDEST SWAP2 POP DUP3 PUSH1 0x2 MUL DUP3 OR SWAP1 POP SWAP3 SWAP2 POP POP JUMP JUMPDEST PUSH2 0xD49 DUP3 PUSH2 0x8C0 JUMP JUMPDEST PUSH8 0xFFFFFFFFFFFFFFFF DUP2 GT ISZERO PUSH2 0xD62 JUMPI PUSH2 0xD61 PUSH2 0x6A1 JUMP JUMPDEST JUMPDEST PUSH2 0xD6C DUP3 SLOAD PUSH2 0xB6A JUMP JUMPDEST PUSH2 0xD77 DUP3 DUP3 DUP6 PUSH2 0xCB7 JUMP JUMPDEST PUSH0 PUSH1 0x20 SWAP1 POP PUSH1 0x1F DUP4 GT PUSH1 0x1 DUP2 EQ PUSH2 0xDA8 JUMPI PUSH0 DUP5 ISZERO PUSH2 0xD96 JUMPI DUP3 DUP8 ADD MLOAD SWAP1 POP JUMPDEST PUSH2 0xDA0 DUP6 DUP3 PUSH2 0xD25 JUMP JUMPDEST DUP7 SSTORE POP PUSH2 0xE07 JUMP JUMPDEST PUSH1 0x1F NOT DUP5 AND PUSH2 0xDB6 DUP7 PUSH2 0xB9A JUMP JUMPDEST PUSH0 JUMPDEST DUP3 DUP2 LT ISZERO PUSH2 0xDDD JUMPI DUP5 DUP10 ADD MLOAD DUP3 SSTORE PUSH1 0x1 DUP3 ADD SWAP2 POP PUSH1 0x20 DUP6 ADD SWAP5 POP PUSH1 0x20 DUP2 ADD SWAP1 POP PUSH2 0xDB8 JUMP JUMPDEST DUP7 DUP4 LT ISZERO PUSH2 0xDFA JUMPI DUP5 DUP10 ADD MLOAD PUSH2 0xDF6 PUSH1 0x1F DUP10 AND DUP3 PUSH2 0xD09 JUMP JUMPDEST DUP4 SSTORE POP JUMPDEST PUSH1 0x1 PUSH1 0x2 DUP9 MUL ADD DUP9 SSTORE POP POP POP JUMPDEST POP POP POP POP POP POP JUMP INVALID LOG2 PUSH5 0x6970667358 0x22 SLT KECCAK256 0xED SSTORE 0xC 0xBE POP DUP14 0xD8 PUSH30 0xEEEAFF4E3F7E4CFA5A4F702BDDC96F0DAD882A4C0255162064736F6C6343 STOP ADDMOD AND STOP CALLER "
				},
				"gasEstimates": {
					"creation": {
						"codeDepositCost": "730600",
						"executionCost": "infinite",
						"totalCost": "infinite"
					},
					"external": {
						"getCustomerInfo()": "infinite",
						"registerCustomer(string,string,uint64,uint64,string,string)": "infinite",
						"updateCustomerInfo(string,string)": "infinite",
						"users(address)": "infinite"
					}
				},
				"methodIdentifiers": {
					"getCustomerInfo()": "b9737031",
					"registerCustomer(string,string,uint64,uint64,string,string)": "bfe051b7",
					"updateCustomerInfo(string,string)": "7857adc9",
					"users(address)": "a87430ba"
				}
			},
			"storageLayout": {
				"storage": [
					{
						"astId": 143,
						"contract": "contracts/GreenGuardian.sol:User",
						"label": "users",
						"offset": 0,
						"slot": "0",
						"type": "t_mapping(t_address,t_struct(UserInfo)138_storage)"
					},
					{
						"astId": 146,
						"contract": "contracts/GreenGuardian.sol:User",
						"label": "_store",
						"offset": 0,
						"slot": "1",
						"type": "t_contract(DataObjectStore)125"
					}
				],
				"types": {
					"t_address": {
						"encoding": "inplace",
						"label": "address",
						"numberOfBytes": "20"
					},
					"t_contract(DataObjectStore)125": {
						"encoding": "inplace",
						"label": "contract DataObjectStore",
						"numberOfBytes": "20"
					},
					"t_mapping(t_address,t_struct(UserInfo)138_storage)": {
						"encoding": "mapping",
						"key": "t_address",
						"label": "mapping(address => struct User.UserInfo)",
						"numberOfBytes": "32",
						"value": "t_struct(UserInfo)138_storage"
					},
					"t_string_storage": {
						"encoding": "bytes",
						"label": "string",
						"numberOfBytes": "32"
					},
					"t_struct(UserInfo)138_storage": {
						"encoding": "inplace",
						"label": "struct User.UserInfo",
						"members": [
							{
								"astId": 127,
								"contract": "contracts/GreenGuardian.sol:User",
								"label": "name",
								"offset": 0,
								"slot": "0",
								"type": "t_string_storage"
							},
							{
								"astId": 129,
								"contract": "contracts/GreenGuardian.sol:User",
								"label": "surname",
								"offset": 0,
								"slot": "1",
								"type": "t_string_storage"
							},
							{
								"astId": 131,
								"contract": "contracts/GreenGuardian.sol:User",
								"label": "userId",
								"offset": 0,
								"slot": "2",
								"type": "t_uint64"
							},
							{
								"astId": 133,
								"contract": "contracts/GreenGuardian.sol:User",
								"label": "age",
								"offset": 8,
								"slot": "2",
								"type": "t_uint64"
							},
							{
								"astId": 135,
								"contract": "contracts/GreenGuardian.sol:User",
								"label": "email",
								"offset": 0,
								"slot": "3",
								"type": "t_string_storage"
							},
							{
								"astId": 137,
								"contract": "contracts/GreenGuardian.sol:User",
								"label": "addres",
								"offset": 0,
								"slot": "4",
								"type": "t_string_storage"
							}
						],
						"numberOfBytes": "160"
					},
					"t_uint64": {
						"encoding": "inplace",
						"label": "uint64",
						"numberOfBytes": "8"
					}
				}
			},
			"userdoc": {
				"kind": "user",
				"methods": {},
				"version": 1
			}
		}
	}
}